{
  "address": "0x9C6B3486EeFBA5F0a27442238123CC5dFBfD5B2C",
  "abi": [
    {
      "inputs": [
        {
          "internalType": "address",
          "name": "_blitmap",
          "type": "address"
        }
      ],
      "stateMutability": "nonpayable",
      "type": "constructor"
    },
    {
      "inputs": [
        {
          "internalType": "uint256",
          "name": "_size",
          "type": "uint256"
        },
        {
          "internalType": "uint256",
          "name": "_start",
          "type": "uint256"
        },
        {
          "internalType": "uint256",
          "name": "_end",
          "type": "uint256"
        }
      ],
      "name": "InvalidCodeAtRange",
      "type": "error"
    },
    {
      "inputs": [],
      "name": "WriteError",
      "type": "error"
    },
    {
      "anonymous": false,
      "inputs": [
        {
          "indexed": true,
          "internalType": "address",
          "name": "previousOwner",
          "type": "address"
        },
        {
          "indexed": true,
          "internalType": "address",
          "name": "newOwner",
          "type": "address"
        }
      ],
      "name": "OwnershipTransferred",
      "type": "event"
    },
    {
      "inputs": [],
      "name": "BITS_PER_FILL_INDEX",
      "outputs": [
        {
          "internalType": "uint8",
          "name": "",
          "type": "uint8"
        }
      ],
      "stateMutability": "view",
      "type": "function"
    },
    {
      "inputs": [],
      "name": "RECT_TAG_END",
      "outputs": [
        {
          "internalType": "string",
          "name": "",
          "type": "string"
        }
      ],
      "stateMutability": "view",
      "type": "function"
    },
    {
      "inputs": [],
      "name": "RECT_TAG_START",
      "outputs": [
        {
          "internalType": "string",
          "name": "",
          "type": "string"
        }
      ],
      "stateMutability": "view",
      "type": "function"
    },
    {
      "inputs": [],
      "name": "SVG_TAG_END",
      "outputs": [
        {
          "internalType": "string",
          "name": "",
          "type": "string"
        }
      ],
      "stateMutability": "view",
      "type": "function"
    },
    {
      "inputs": [],
      "name": "SVG_TAG_START",
      "outputs": [
        {
          "internalType": "string",
          "name": "",
          "type": "string"
        }
      ],
      "stateMutability": "view",
      "type": "function"
    },
    {
      "inputs": [],
      "name": "WH_FILL_TAG",
      "outputs": [
        {
          "internalType": "string",
          "name": "",
          "type": "string"
        }
      ],
      "stateMutability": "view",
      "type": "function"
    },
    {
      "inputs": [],
      "name": "Y_TAG",
      "outputs": [
        {
          "internalType": "string",
          "name": "",
          "type": "string"
        }
      ],
      "stateMutability": "view",
      "type": "function"
    },
    {
      "inputs": [
        {
          "internalType": "uint256",
          "name": "toadzId",
          "type": "uint256"
        },
        {
          "internalType": "uint256",
          "name": "blitmapId",
          "type": "uint256"
        },
        {
          "internalType": "uint8",
          "name": "paletteOrder",
          "type": "uint8"
        }
      ],
      "name": "getBlitoadz",
      "outputs": [
        {
          "internalType": "string",
          "name": "",
          "type": "string"
        }
      ],
      "stateMutability": "view",
      "type": "function"
    },
    {
      "inputs": [
        {
          "internalType": "bytes",
          "name": "palette",
          "type": "bytes"
        },
        {
          "internalType": "uint256",
          "name": "_index",
          "type": "uint256"
        }
      ],
      "name": "getFill",
      "outputs": [
        {
          "internalType": "string",
          "name": "",
          "type": "string"
        }
      ],
      "stateMutability": "pure",
      "type": "function"
    },
    {
      "inputs": [
        {
          "internalType": "uint256",
          "name": "toadzId",
          "type": "uint256"
        },
        {
          "internalType": "uint256",
          "name": "blitmapId",
          "type": "uint256"
        },
        {
          "internalType": "uint8",
          "name": "paletteOrder",
          "type": "uint8"
        }
      ],
      "name": "getImageURI",
      "outputs": [
        {
          "internalType": "string",
          "name": "",
          "type": "string"
        }
      ],
      "stateMutability": "view",
      "type": "function"
    },
    {
      "inputs": [
        {
          "internalType": "uint256",
          "name": "_index",
          "type": "uint256"
        }
      ],
      "name": "getToadzBytes",
      "outputs": [
        {
          "internalType": "bytes",
          "name": "",
          "type": "bytes"
        }
      ],
      "stateMutability": "view",
      "type": "function"
    },
    {
      "inputs": [
        {
          "internalType": "uint256",
          "name": "_index",
          "type": "uint256"
        }
      ],
      "name": "getToadzName",
      "outputs": [
        {
          "internalType": "string",
          "name": "",
          "type": "string"
        }
      ],
      "stateMutability": "view",
      "type": "function"
    },
    {
      "inputs": [],
      "name": "owner",
      "outputs": [
        {
          "internalType": "address",
          "name": "",
          "type": "address"
        }
      ],
      "stateMutability": "view",
      "type": "function"
    },
    {
      "inputs": [],
      "name": "renounceOwnership",
      "outputs": [],
      "stateMutability": "nonpayable",
      "type": "function"
    },
    {
      "inputs": [
        {
          "internalType": "bytes",
          "name": "_toadz",
          "type": "bytes"
        }
      ],
      "name": "setToadz",
      "outputs": [],
      "stateMutability": "nonpayable",
      "type": "function"
    },
    {
      "inputs": [
        {
          "internalType": "bytes",
          "name": "_toadzNames",
          "type": "bytes"
        }
      ],
      "name": "setToadzNames",
      "outputs": [],
      "stateMutability": "nonpayable",
      "type": "function"
    },
    {
      "inputs": [],
      "name": "toadz",
      "outputs": [
        {
          "internalType": "address",
          "name": "",
          "type": "address"
        }
      ],
      "stateMutability": "view",
      "type": "function"
    },
    {
      "inputs": [],
      "name": "toadzNames",
      "outputs": [
        {
          "internalType": "address",
          "name": "",
          "type": "address"
        }
      ],
      "stateMutability": "view",
      "type": "function"
    },
    {
      "inputs": [
        {
          "internalType": "uint256",
          "name": "toadzId",
          "type": "uint256"
        },
        {
          "internalType": "uint256",
          "name": "blitmapId",
          "type": "uint256"
        },
        {
          "internalType": "uint8",
          "name": "paletteOrder",
          "type": "uint8"
        }
      ],
      "name": "tokenURI",
      "outputs": [
        {
          "internalType": "string",
          "name": "",
          "type": "string"
        }
      ],
      "stateMutability": "view",
      "type": "function"
    },
    {
      "inputs": [
        {
          "internalType": "address",
          "name": "newOwner",
          "type": "address"
        }
      ],
      "name": "transferOwnership",
      "outputs": [],
      "stateMutability": "nonpayable",
      "type": "function"
    }
  ],
  "transactionHash": "0xd849b230c0fd1076e4cb7205c03963a6006160ca8fc147355a8acb8ca9700303",
  "args": [
    "0x8d04a8c79cEB0889Bdd12acdF3Fa9D207eD3Ff63"
  ],
  "numDeployments": 1,
  "solcInputHash": "ab7f691cb6c87ded4dc4cbf94247b36a",
  "bytecode": "0x60806040523480156200001157600080fd5b50604051620022b8380380620022b88339810160408190526200003491620000f3565b6200003f3362000069565b60018055600480546001600160a01b0319166001600160a01b039290921691909117905562000120565b600080546001600160a01b038381166001600160a01b0319831681178455604051919092169283917f8be0079c531659141344cd1fd0a4f28419497f9722a3daafe3b4186f6b6457e09190a35050565b60006001600160a01b0382165b92915050565b620000d781620000b9565b8114620000e357600080fd5b50565b8051620000c681620000cc565b6000602082840312156200010a576200010a600080fd5b6000620001188484620000e6565b949350505050565b61218880620001306000396000f3fe608060405234801561001057600080fd5b506004361061016c5760003560e01c8063715018a6116100cd578063b3215d4911610081578063bd1798f611610066578063bd1798f614610328578063c4534ca21461033b578063f2fde38b1461034e57600080fd5b8063b3215d4914610300578063bc2255641461031557600080fd5b80638667f1d2116100b25780638667f1d2146102c957806389e4b1e8146102dc5780638da5cb5b146102ef57600080fd5b8063715018a6146102ae578063779dd948146102b657600080fd5b806347c3a430116101245780634d32bd7d116101095780634d32bd7d1461022e57806369db9ed01461026a5780636f5c723b146102a657600080fd5b806347c3a43014610213578063480bc3c81461022657600080fd5b80633774c798116101555780633774c798146101af5780633fc9aff0146101c2578063407134de146101d757600080fd5b80630a41f5da146101715780630bdd03f11461018f575b600080fd5b610179610361565b6040516101869190611550565b60405180910390f35b6002546101a2906001600160a01b031681565b6040516101869190611581565b6101796101bd3660046116a2565b61037d565b6101d56101d036600461174b565b6105ae565b005b6101796040518060400160405280600781526020017f2532372f2533650000000000000000000000000000000000000000000000000081525081565b6003546101a2906001600160a01b031681565b610179610651565b6101796040518060400160405280600b81526020017f253237253230793d25323700000000000000000000000000000000000000000081525081565b6101796040518060400160405280600f81526020017f25336372656374253230783d253237000000000000000000000000000000000081525081565b61017961066d565b6101d5610689565b6101d56102c436600461174b565b6106bf565b6101796102d73660046117a7565b610759565b6101796102ea3660046117f7565b61078f565b6000546001600160a01b03166101a2565b610308600281565b6040516101869190611821565b6101796103233660046117a7565b61085e565b6101796103363660046117a7565b6109da565b6101796103493660046117f7565b610a8f565b6101d561035c366004611843565b610af7565b6040518060600160405280603281526020016120e06032913981565b60608261038b83600361187a565b8151811061039b5761039b611899565b016020015160405163c1338a6960e01b815273e5d03576716d2D66Becf01a3F3BC7B80eb05952E9163c1338a69916103df9160f81c906010906002906004016118c9565b600060405180830381865af41580156103fc573d6000803e3d6000fd5b505050506040513d6000823e601f3d908101601f191682016040526104249190810190611949565b8361043084600361187a565b61043b906001611984565b8151811061044b5761044b611899565b016020015160405163c1338a6960e01b815273e5d03576716d2D66Becf01a3F3BC7B80eb05952E9163c1338a699161048f9160f81c906010906002906004016118c9565b600060405180830381865af41580156104ac573d6000803e3d6000fd5b505050506040513d6000823e601f3d908101601f191682016040526104d49190810190611949565b846104e085600361187a565b6104eb906002611984565b815181106104fb576104fb611899565b016020015160405163c1338a6960e01b815273e5d03576716d2D66Becf01a3F3BC7B80eb05952E9163c1338a699161053f9160f81c906010906002906004016118c9565b600060405180830381865af415801561055c573d6000803e3d6000fd5b505050506040513d6000823e601f3d908101601f191682016040526105849190810190611949565b604051602001610596939291906119be565b60405160208183030381529060405290505b92915050565b6000546001600160a01b031633146105e15760405162461bcd60e51b81526004016105d890611a12565b60405180910390fd5b61062082828080601f016020809104026020016040519081016040528093929190818152602001838380828437600092019190915250610b5392505050565b6003805473ffffffffffffffffffffffffffffffffffffffff19166001600160a01b03929092169190911790555050565b6040518060a00160405280607b8152602001612065607b913981565b6040518060800160405280604181526020016121126041913981565b6000546001600160a01b031633146106b35760405162461bcd60e51b81526004016105d890611a12565b6106bd6000610bd1565b565b6000546001600160a01b031633146106e95760405162461bcd60e51b81526004016105d890611a12565b61072882828080601f016020809104026020016040519081016040528093929190818152602001838380828437600092019190915250610b5392505050565b6002805473ffffffffffffffffffffffffffffffffffffffff19166001600160a01b03929092169190911790555050565b606061076684848461085e565b6040516020016107769190611a22565b60405160208183030381529060405290505b9392505050565b600280546060916000916107d8916107d1916001600160a01b0316906107b690879061187a565b6107c187600261187a565b6107cc906002611984565b610c2e565b6000610c4f565b60028054919250600091610820916107d1916001600160a01b0316906107ff90889061187a565b61080a906002611984565b61081588600261187a565b6107cc906004611984565b600254909150610856906001600160a01b031661083e846072611a52565b61ffff1661084d846072611a52565b61ffff16610c2e565b949350505050565b6060600061086b8561078f565b600480546040517fc0da9bcd00000000000000000000000000000000000000000000000000000000815292935060009261090b926001600160a01b039092169163c0da9bcd916108bd918a9101611a76565b600060405180830381865afa1580156108da573d6000803e3d6000fd5b505050506040513d6000823e601f3d908101601f191682016040526109029190810190611949565b6000600c610c85565b90506000604051806080016040528061092e8460068960ff16901c60ff1661037d565b815260200161094484600360048a901c1661037d565b815260200161095a84600360028a901c1661037d565b815260200161096c846003891661037d565b81525090506040518060a00160405280607b8152602001612065607b91396109948483610d4d565b604051806080016040528060418152602001612112604191396040516020016109bf939291906119be565b60405160208183030381529060405293505050509392505050565b60606109e7848484610759565b6109f085610a8f565b600480546040517fe324c6640000000000000000000000000000000000000000000000000000000081526001600160a01b039091169163e324c66491610a3891899101611a76565b600060405180830381865afa158015610a55573d6000803e3d6000fd5b505050506040513d6000823e601f3d908101601f19168201604052610a7d9190810190611949565b60405160200161077693929190611a84565b600354606090600090610ab4906107d1906001600160a01b03166107b686600261187a565b600354909150600090610ad9906107d1906001600160a01b03166107ff87600261187a565b600354909150610856906001600160a01b031661083e846072611a52565b6000546001600160a01b03163314610b215760405162461bcd60e51b81526004016105d890611a12565b6001600160a01b038116610b475760405162461bcd60e51b81526004016105d890611c5f565b610b5081610bd1565b50565b600080610b7e83604051602001610b6a9190611ccb565b604051602081830303815290604052610e7c565b90508051602082016000f091506001600160a01b038216610bcb576040517f08d4abb600000000000000000000000000000000000000000000000000000000815260040160405180910390fd5b50919050565b600080546001600160a01b0383811673ffffffffffffffffffffffffffffffffffffffff19831681178455604051919092169283917f8be0079c531659141344cd1fd0a4f28419497f9722a3daafe3b4186f6b6457e09190a35050565b606061085684610c3f856001611984565b610c4a856001611984565b610ea8565b6000610c5c826002611984565b83511015610c7c5760405162461bcd60e51b81526004016105d890611d12565b50016002015190565b606081610c9381601f611984565b1015610cb15760405162461bcd60e51b81526004016105d890611d54565b610cbb8284611984565b84511015610cdb5760405162461bcd60e51b81526004016105d890611d96565b606082158015610cfa5760405191506000825260208201604052610d44565b6040519150601f8416801560200281840101858101878315602002848b0101015b81831015610d33578051835260209283019201610d1b565b5050858452601f01601f1916604052505b50949350505050565b6060610d676000610d618560006020610c85565b84610f67565b610d7e6080610d7886602080610c85565b85610f67565b610d97610100610d918760406020610c85565b86610f67565b610db0610180610daa8860606020610c85565b87610f67565b610dc9610200610dc38960806020610c85565b88610f67565b610de2610280610ddc8a60a06020610c85565b89610f67565b610dfb610300610df58b60c06020610c85565b8a610f67565b610e14610380610e0e8c60e06020610c85565b8b610f67565b610e2e610400610e288d6101006020610c85565b8c610f67565b610e48610480610e428e6101206020610c85565b8d610f67565b610e62610500610e5c8f6101406004610c85565b8e611087565b6040516020016105969b9a99989796959493929190611da6565b6060815182604051602001610e92929190611e7b565b6040516020818303038152906040529050919050565b6060833b80610ec7575050604080516020810190915260008152610788565b80841115610ee5575050604080516020810190915260008152610788565b83831015610f25578084846040517f2c4a89fa0000000000000000000000000000000000000000000000000000000081526004016105d893929190611ecc565b8383038482036000828210610f3a5782610f3c565b815b60408051603f8301601f19168101909152818152955090508087602087018a3c505050509392505050565b6060610f8a610f77856000611984565b610f848560006004610c85565b84611087565b610faa610f98866010611984565b610fa486600480610c85565b85611087565b610fcb610fb8876020611984565b610fc58760086004610c85565b86611087565b610fec610fd9886030611984565b610fe688600c6004610c85565b87611087565b61100d610ffa896040611984565b6110078960106004610c85565b88611087565b61102e61101b8a6050611984565b6110288a60146004610c85565b89611087565b61104f61103c8b6060611984565b6110498b60186004610c85565b8a611087565b61107061105d8c6070611984565b61106a8c601c6004610c85565b8b611087565b604051602001610776989796959493929190611ef4565b60606110d7611097856000611984565b846000815181106110aa576110aa611899565b01602001517fff0000000000000000000000000000000000000000000000000000000000000016846111d4565b6111256110e5866004611984565b856001815181106110f8576110f8611899565b01602001517fff0000000000000000000000000000000000000000000000000000000000000016856111d4565b611173611133876008611984565b8660028151811061114657611146611899565b01602001517fff0000000000000000000000000000000000000000000000000000000000000016866111d4565b6111c161118188600c611984565b8760038151811061119457611194611899565b01602001517fff0000000000000000000000000000000000000000000000000000000000000016876111d4565b6040516020016107769493929190611f5f565b6060611207847f03fc000000000000000000000000000000000000000000000000000000000000600686901c16846112b0565b611242611215866001611984565b7f03f0000000000000000000000000000000000000000000000000000000000000600487901c16856112b0565b61127d611250876002611984565b7f03c0000000000000000000000000000000000000000000000000000000000000600288901c16866112b0565b6111c161128b886003611984565b7f03000000000000000000000000000000000000000000000000000000000000008816875b60408051808201909152600f81527f25336372656374253230783d253237000000000000000000000000000000000060208201526060906112fa6112f5602487611fac565b6113bc565b60408051808201909152600b81527f253237253230793d253237000000000000000000000000000000000000000000602082015261133c6112f5602489611fc0565b6040518060600160405280603281526020016120e0603291398660f889901c6004811061136b5761136b611899565b60200201516040518060400160405280600781526020017f2532372f253365000000000000000000000000000000000000000000000000008152506040516020016107769796959493929190611fd4565b6060816113fc57505060408051808201909152600181527f3000000000000000000000000000000000000000000000000000000000000000602082015290565b8160005b8115611426578061141081612032565b915061141f9050600a83611fc0565b9150611400565b60008167ffffffffffffffff8111156114415761144161158f565b6040519080825280601f01601f19166020018201604052801561146b576020820181803683370190505b5090505b84156108565761148060018361204d565b915061148d600a86611fac565b611498906030611984565b60f81b8183815181106114ad576114ad611899565b60200101907effffffffffffffffffffffffffffffffffffffffffffffffffffffffffffff1916908160001a9053506114e7600a86611fc0565b945061146f565b60005b838110156115095781810151838201526020016114f1565b83811115611518576000848401525b50505050565b6000611528825190565b80845260208401935061153f8185602086016114ee565b601f01601f19169290920192915050565b60208082528101610788818461151e565b60006001600160a01b0382166105a8565b61157b81611561565b82525050565b602081016105a88284611572565b634e487b7160e01b600052604160045260246000fd5b601f19601f830116810181811067ffffffffffffffff821117156115cb576115cb61158f565b6040525050565b60006115dd60405190565b90506115e982826115a5565b919050565b600067ffffffffffffffff8211156116085761160861158f565b601f19601f83011660200192915050565b82818337506000910152565b6000611638611633846115ee565b6115d2565b90508281526020810184848401111561165357611653600080fd5b61165e848285611619565b509392505050565b600082601f83011261167a5761167a600080fd5b8135610856848260208601611625565b805b8114610b5057600080fd5b80356105a88161168a565b600080604083850312156116b8576116b8600080fd5b823567ffffffffffffffff8111156116d2576116d2600080fd5b6116de85828601611666565b92505060206116ef85828601611697565b9150509250929050565b60008083601f84011261170e5761170e600080fd5b50813567ffffffffffffffff81111561172957611729600080fd5b60208301915083600182028301111561174457611744600080fd5b9250929050565b6000806020838503121561176157611761600080fd5b823567ffffffffffffffff81111561177b5761177b600080fd5b611787858286016116f9565b92509250509250929050565b60ff811661168c565b80356105a881611793565b6000806000606084860312156117bf576117bf600080fd5b60006117cb8686611697565b93505060206117dc86828701611697565b92505060406117ed8682870161179c565b9150509250925092565b60006020828403121561180c5761180c600080fd5b60006108568484611697565b60ff811661157b565b602081016105a88284611818565b61168c81611561565b80356105a88161182f565b60006020828403121561185857611858600080fd5b60006108568484611838565b634e487b7160e01b600052601160045260246000fd5b600081600019048311821515161561189457611894611864565b500290565b634e487b7160e01b600052603260045260246000fd5b8061157b565b600060ff82166105a8565b61157b816118b5565b606081016118d782866118af565b6118e460208301856118c0565b61085660408301846118c0565b60006118ff611633846115ee565b90508281526020810184848401111561191a5761191a600080fd5b61165e8482856114ee565b600082601f83011261193957611939600080fd5b81516108568482602086016118f1565b60006020828403121561195e5761195e600080fd5b815167ffffffffffffffff81111561197857611978600080fd5b61085684828501611925565b6000821982111561199757611997611864565b500190565b60006119a6825190565b6119b48185602086016114ee565b9290920192915050565b6119c8818561199c565b90506119d4818461199c565b9050610856818361199c565b60208082527f4f776e61626c653a2063616c6c6572206973206e6f7420746865206f776e657291019081525b60200190565b602080825281016105a8816119e0565b7f646174613a696d6167652f7376672b786d6c2c0000000000000000000000000081526013016105a8818361199c565b61ffff8116905061ffff8216915060008261ffff0382111561199757611997611864565b602081016105a882846118af565b7f646174613a6170706c69636174696f6e2f6a736f6e2c000000000000000000008152601601611ad3817f7b22696d6167655f64617461223a2022000000000000000000000000000000009052565b601001611ae0818561199c565b7f220000000000000000000000000000000000000000000000000000000000000081529050600101611bcd817f2c226465736372697074696f6e223a2022426c69746f61647a2061726520612081527f626c69746d617020616e642043727970546f61647a2063726f73732d6272656560208201527f642c20706176696e67207468652077617920746f776172642061206e6577206260408201527f6c69747a76657273652e204f68202d20616e6420746865792772652066756c6c60608201527f79206f6e2d636861696e2e2200000000000000000000000000000000000000006080820152608c0190565b7f2c226e616d65223a20220000000000000000000000000000000000000000000081529050600a01611bff818461199c565b7f200000000000000000000000000000000000000000000000000000000000000081529050600101611c31818361199c565b7f227d0000000000000000000000000000000000000000000000000000000000008152600201949350505050565b602080825281016105a881602681527f4f776e61626c653a206e6577206f776e657220697320746865207a65726f206160208201527f6464726573730000000000000000000000000000000000000000000000000000604082015260600190565b600081525b60010190565b611cd481611cc0565b90506105a8818361199c565b60148152602081017f746f55696e7431365f6f75744f66426f756e647300000000000000000000000081529050611a0c565b602080825281016105a881611ce0565b600e8152602081017f736c6963655f6f766572666c6f7700000000000000000000000000000000000081529050611a0c565b602080825281016105a881611d22565b60118152602081017f736c6963655f6f75744f66426f756e647300000000000000000000000000000081529050611a0c565b602080825281016105a881611d64565b611db0818d61199c565b9050611dbc818c61199c565b9050611dc8818b61199c565b9050611dd4818a61199c565b9050611de0818961199c565b9050611dec818861199c565b9050611df8818761199c565b9050611e04818661199c565b9050611e10818561199c565b9050611e1c818461199c565b9050611e28818361199c565b9c9b505050505050505050505050565b7f63000000000000000000000000000000000000000000000000000000000000008152611cc5565b60006105a88260e01b90565b61157b63ffffffff8216611e60565b611e8481611e38565b9050611e908184611e6c565b600401611ec0817f80600e6000396000f30000000000000000000000000000000000000000000000815260090190565b9050610788818361199c565b60608101611eda82866118af565b611ee760208301856118af565b61085660408301846118af565b611efe818a61199c565b9050611f0a818961199c565b9050611f16818861199c565b9050611f22818761199c565b9050611f2e818661199c565b9050611f3a818561199c565b9050611f46818461199c565b9050611f52818361199c565b9998505050505050505050565b611f69818661199c565b9050611f75818561199c565b9050611f81818461199c565b9050611f8d818361199c565b95945050505050565b634e487b7160e01b600052601260045260246000fd5b600082611fbb57611fbb611f96565b500690565b600082611fcf57611fcf611f96565b500490565b611fde818961199c565b9050611fea818861199c565b9050611ff6818761199c565b9050612002818661199c565b905061200e818561199c565b905061201a818461199c565b9050612026818361199c565b98975050505050505050565b600060001982141561204657612046611864565b5060010190565b60008282101561205f5761205f611864565b50039056fe253363737667253230786d6c6e733d253237687474703a2f2f7777772e77332e6f72672f323030302f73766725323725323076696577426f783d25323730253230302532303336253230333625323725323077696474683d25323733363070782532372532306865696768743d253237333630707825323725336525323725323077696474683d253237312532372532306865696768743d2532373125323725323066696c6c3d2532372532332533637374796c65253365726563747b73686170652d72656e646572696e673a637269737045646765737d2533632f7374796c652533652533632f737667253365a26469706673582212201b2c679771829a97024ab41e7f004cbb66b3295f8ba8f89cd8638093e445f93f64736f6c634300080c0033",
  "deployedBytecode": "0x608060405234801561001057600080fd5b506004361061016c5760003560e01c8063715018a6116100cd578063b3215d4911610081578063bd1798f611610066578063bd1798f614610328578063c4534ca21461033b578063f2fde38b1461034e57600080fd5b8063b3215d4914610300578063bc2255641461031557600080fd5b80638667f1d2116100b25780638667f1d2146102c957806389e4b1e8146102dc5780638da5cb5b146102ef57600080fd5b8063715018a6146102ae578063779dd948146102b657600080fd5b806347c3a430116101245780634d32bd7d116101095780634d32bd7d1461022e57806369db9ed01461026a5780636f5c723b146102a657600080fd5b806347c3a43014610213578063480bc3c81461022657600080fd5b80633774c798116101555780633774c798146101af5780633fc9aff0146101c2578063407134de146101d757600080fd5b80630a41f5da146101715780630bdd03f11461018f575b600080fd5b610179610361565b6040516101869190611550565b60405180910390f35b6002546101a2906001600160a01b031681565b6040516101869190611581565b6101796101bd3660046116a2565b61037d565b6101d56101d036600461174b565b6105ae565b005b6101796040518060400160405280600781526020017f2532372f2533650000000000000000000000000000000000000000000000000081525081565b6003546101a2906001600160a01b031681565b610179610651565b6101796040518060400160405280600b81526020017f253237253230793d25323700000000000000000000000000000000000000000081525081565b6101796040518060400160405280600f81526020017f25336372656374253230783d253237000000000000000000000000000000000081525081565b61017961066d565b6101d5610689565b6101d56102c436600461174b565b6106bf565b6101796102d73660046117a7565b610759565b6101796102ea3660046117f7565b61078f565b6000546001600160a01b03166101a2565b610308600281565b6040516101869190611821565b6101796103233660046117a7565b61085e565b6101796103363660046117a7565b6109da565b6101796103493660046117f7565b610a8f565b6101d561035c366004611843565b610af7565b6040518060600160405280603281526020016120e06032913981565b60608261038b83600361187a565b8151811061039b5761039b611899565b016020015160405163c1338a6960e01b815273__$6cc8f8b41053aebd660af83ec8df928129$__9163c1338a69916103df9160f81c906010906002906004016118c9565b600060405180830381865af41580156103fc573d6000803e3d6000fd5b505050506040513d6000823e601f3d908101601f191682016040526104249190810190611949565b8361043084600361187a565b61043b906001611984565b8151811061044b5761044b611899565b016020015160405163c1338a6960e01b815273__$6cc8f8b41053aebd660af83ec8df928129$__9163c1338a699161048f9160f81c906010906002906004016118c9565b600060405180830381865af41580156104ac573d6000803e3d6000fd5b505050506040513d6000823e601f3d908101601f191682016040526104d49190810190611949565b846104e085600361187a565b6104eb906002611984565b815181106104fb576104fb611899565b016020015160405163c1338a6960e01b815273__$6cc8f8b41053aebd660af83ec8df928129$__9163c1338a699161053f9160f81c906010906002906004016118c9565b600060405180830381865af415801561055c573d6000803e3d6000fd5b505050506040513d6000823e601f3d908101601f191682016040526105849190810190611949565b604051602001610596939291906119be565b60405160208183030381529060405290505b92915050565b6000546001600160a01b031633146105e15760405162461bcd60e51b81526004016105d890611a12565b60405180910390fd5b61062082828080601f016020809104026020016040519081016040528093929190818152602001838380828437600092019190915250610b5392505050565b6003805473ffffffffffffffffffffffffffffffffffffffff19166001600160a01b03929092169190911790555050565b6040518060a00160405280607b8152602001612065607b913981565b6040518060800160405280604181526020016121126041913981565b6000546001600160a01b031633146106b35760405162461bcd60e51b81526004016105d890611a12565b6106bd6000610bd1565b565b6000546001600160a01b031633146106e95760405162461bcd60e51b81526004016105d890611a12565b61072882828080601f016020809104026020016040519081016040528093929190818152602001838380828437600092019190915250610b5392505050565b6002805473ffffffffffffffffffffffffffffffffffffffff19166001600160a01b03929092169190911790555050565b606061076684848461085e565b6040516020016107769190611a22565b60405160208183030381529060405290505b9392505050565b600280546060916000916107d8916107d1916001600160a01b0316906107b690879061187a565b6107c187600261187a565b6107cc906002611984565b610c2e565b6000610c4f565b60028054919250600091610820916107d1916001600160a01b0316906107ff90889061187a565b61080a906002611984565b61081588600261187a565b6107cc906004611984565b600254909150610856906001600160a01b031661083e846072611a52565b61ffff1661084d846072611a52565b61ffff16610c2e565b949350505050565b6060600061086b8561078f565b600480546040517fc0da9bcd00000000000000000000000000000000000000000000000000000000815292935060009261090b926001600160a01b039092169163c0da9bcd916108bd918a9101611a76565b600060405180830381865afa1580156108da573d6000803e3d6000fd5b505050506040513d6000823e601f3d908101601f191682016040526109029190810190611949565b6000600c610c85565b90506000604051806080016040528061092e8460068960ff16901c60ff1661037d565b815260200161094484600360048a901c1661037d565b815260200161095a84600360028a901c1661037d565b815260200161096c846003891661037d565b81525090506040518060a00160405280607b8152602001612065607b91396109948483610d4d565b604051806080016040528060418152602001612112604191396040516020016109bf939291906119be565b60405160208183030381529060405293505050509392505050565b60606109e7848484610759565b6109f085610a8f565b600480546040517fe324c6640000000000000000000000000000000000000000000000000000000081526001600160a01b039091169163e324c66491610a3891899101611a76565b600060405180830381865afa158015610a55573d6000803e3d6000fd5b505050506040513d6000823e601f3d908101601f19168201604052610a7d9190810190611949565b60405160200161077693929190611a84565b600354606090600090610ab4906107d1906001600160a01b03166107b686600261187a565b600354909150600090610ad9906107d1906001600160a01b03166107ff87600261187a565b600354909150610856906001600160a01b031661083e846072611a52565b6000546001600160a01b03163314610b215760405162461bcd60e51b81526004016105d890611a12565b6001600160a01b038116610b475760405162461bcd60e51b81526004016105d890611c5f565b610b5081610bd1565b50565b600080610b7e83604051602001610b6a9190611ccb565b604051602081830303815290604052610e7c565b90508051602082016000f091506001600160a01b038216610bcb576040517f08d4abb600000000000000000000000000000000000000000000000000000000815260040160405180910390fd5b50919050565b600080546001600160a01b0383811673ffffffffffffffffffffffffffffffffffffffff19831681178455604051919092169283917f8be0079c531659141344cd1fd0a4f28419497f9722a3daafe3b4186f6b6457e09190a35050565b606061085684610c3f856001611984565b610c4a856001611984565b610ea8565b6000610c5c826002611984565b83511015610c7c5760405162461bcd60e51b81526004016105d890611d12565b50016002015190565b606081610c9381601f611984565b1015610cb15760405162461bcd60e51b81526004016105d890611d54565b610cbb8284611984565b84511015610cdb5760405162461bcd60e51b81526004016105d890611d96565b606082158015610cfa5760405191506000825260208201604052610d44565b6040519150601f8416801560200281840101858101878315602002848b0101015b81831015610d33578051835260209283019201610d1b565b5050858452601f01601f1916604052505b50949350505050565b6060610d676000610d618560006020610c85565b84610f67565b610d7e6080610d7886602080610c85565b85610f67565b610d97610100610d918760406020610c85565b86610f67565b610db0610180610daa8860606020610c85565b87610f67565b610dc9610200610dc38960806020610c85565b88610f67565b610de2610280610ddc8a60a06020610c85565b89610f67565b610dfb610300610df58b60c06020610c85565b8a610f67565b610e14610380610e0e8c60e06020610c85565b8b610f67565b610e2e610400610e288d6101006020610c85565b8c610f67565b610e48610480610e428e6101206020610c85565b8d610f67565b610e62610500610e5c8f6101406004610c85565b8e611087565b6040516020016105969b9a99989796959493929190611da6565b6060815182604051602001610e92929190611e7b565b6040516020818303038152906040529050919050565b6060833b80610ec7575050604080516020810190915260008152610788565b80841115610ee5575050604080516020810190915260008152610788565b83831015610f25578084846040517f2c4a89fa0000000000000000000000000000000000000000000000000000000081526004016105d893929190611ecc565b8383038482036000828210610f3a5782610f3c565b815b60408051603f8301601f19168101909152818152955090508087602087018a3c505050509392505050565b6060610f8a610f77856000611984565b610f848560006004610c85565b84611087565b610faa610f98866010611984565b610fa486600480610c85565b85611087565b610fcb610fb8876020611984565b610fc58760086004610c85565b86611087565b610fec610fd9886030611984565b610fe688600c6004610c85565b87611087565b61100d610ffa896040611984565b6110078960106004610c85565b88611087565b61102e61101b8a6050611984565b6110288a60146004610c85565b89611087565b61104f61103c8b6060611984565b6110498b60186004610c85565b8a611087565b61107061105d8c6070611984565b61106a8c601c6004610c85565b8b611087565b604051602001610776989796959493929190611ef4565b60606110d7611097856000611984565b846000815181106110aa576110aa611899565b01602001517fff0000000000000000000000000000000000000000000000000000000000000016846111d4565b6111256110e5866004611984565b856001815181106110f8576110f8611899565b01602001517fff0000000000000000000000000000000000000000000000000000000000000016856111d4565b611173611133876008611984565b8660028151811061114657611146611899565b01602001517fff0000000000000000000000000000000000000000000000000000000000000016866111d4565b6111c161118188600c611984565b8760038151811061119457611194611899565b01602001517fff0000000000000000000000000000000000000000000000000000000000000016876111d4565b6040516020016107769493929190611f5f565b6060611207847f03fc000000000000000000000000000000000000000000000000000000000000600686901c16846112b0565b611242611215866001611984565b7f03f0000000000000000000000000000000000000000000000000000000000000600487901c16856112b0565b61127d611250876002611984565b7f03c0000000000000000000000000000000000000000000000000000000000000600288901c16866112b0565b6111c161128b886003611984565b7f03000000000000000000000000000000000000000000000000000000000000008816875b60408051808201909152600f81527f25336372656374253230783d253237000000000000000000000000000000000060208201526060906112fa6112f5602487611fac565b6113bc565b60408051808201909152600b81527f253237253230793d253237000000000000000000000000000000000000000000602082015261133c6112f5602489611fc0565b6040518060600160405280603281526020016120e0603291398660f889901c6004811061136b5761136b611899565b60200201516040518060400160405280600781526020017f2532372f253365000000000000000000000000000000000000000000000000008152506040516020016107769796959493929190611fd4565b6060816113fc57505060408051808201909152600181527f3000000000000000000000000000000000000000000000000000000000000000602082015290565b8160005b8115611426578061141081612032565b915061141f9050600a83611fc0565b9150611400565b60008167ffffffffffffffff8111156114415761144161158f565b6040519080825280601f01601f19166020018201604052801561146b576020820181803683370190505b5090505b84156108565761148060018361204d565b915061148d600a86611fac565b611498906030611984565b60f81b8183815181106114ad576114ad611899565b60200101907effffffffffffffffffffffffffffffffffffffffffffffffffffffffffffff1916908160001a9053506114e7600a86611fc0565b945061146f565b60005b838110156115095781810151838201526020016114f1565b83811115611518576000848401525b50505050565b6000611528825190565b80845260208401935061153f8185602086016114ee565b601f01601f19169290920192915050565b60208082528101610788818461151e565b60006001600160a01b0382166105a8565b61157b81611561565b82525050565b602081016105a88284611572565b634e487b7160e01b600052604160045260246000fd5b601f19601f830116810181811067ffffffffffffffff821117156115cb576115cb61158f565b6040525050565b60006115dd60405190565b90506115e982826115a5565b919050565b600067ffffffffffffffff8211156116085761160861158f565b601f19601f83011660200192915050565b82818337506000910152565b6000611638611633846115ee565b6115d2565b90508281526020810184848401111561165357611653600080fd5b61165e848285611619565b509392505050565b600082601f83011261167a5761167a600080fd5b8135610856848260208601611625565b805b8114610b5057600080fd5b80356105a88161168a565b600080604083850312156116b8576116b8600080fd5b823567ffffffffffffffff8111156116d2576116d2600080fd5b6116de85828601611666565b92505060206116ef85828601611697565b9150509250929050565b60008083601f84011261170e5761170e600080fd5b50813567ffffffffffffffff81111561172957611729600080fd5b60208301915083600182028301111561174457611744600080fd5b9250929050565b6000806020838503121561176157611761600080fd5b823567ffffffffffffffff81111561177b5761177b600080fd5b611787858286016116f9565b92509250509250929050565b60ff811661168c565b80356105a881611793565b6000806000606084860312156117bf576117bf600080fd5b60006117cb8686611697565b93505060206117dc86828701611697565b92505060406117ed8682870161179c565b9150509250925092565b60006020828403121561180c5761180c600080fd5b60006108568484611697565b60ff811661157b565b602081016105a88284611818565b61168c81611561565b80356105a88161182f565b60006020828403121561185857611858600080fd5b60006108568484611838565b634e487b7160e01b600052601160045260246000fd5b600081600019048311821515161561189457611894611864565b500290565b634e487b7160e01b600052603260045260246000fd5b8061157b565b600060ff82166105a8565b61157b816118b5565b606081016118d782866118af565b6118e460208301856118c0565b61085660408301846118c0565b60006118ff611633846115ee565b90508281526020810184848401111561191a5761191a600080fd5b61165e8482856114ee565b600082601f83011261193957611939600080fd5b81516108568482602086016118f1565b60006020828403121561195e5761195e600080fd5b815167ffffffffffffffff81111561197857611978600080fd5b61085684828501611925565b6000821982111561199757611997611864565b500190565b60006119a6825190565b6119b48185602086016114ee565b9290920192915050565b6119c8818561199c565b90506119d4818461199c565b9050610856818361199c565b60208082527f4f776e61626c653a2063616c6c6572206973206e6f7420746865206f776e657291019081525b60200190565b602080825281016105a8816119e0565b7f646174613a696d6167652f7376672b786d6c2c0000000000000000000000000081526013016105a8818361199c565b61ffff8116905061ffff8216915060008261ffff0382111561199757611997611864565b602081016105a882846118af565b7f646174613a6170706c69636174696f6e2f6a736f6e2c000000000000000000008152601601611ad3817f7b22696d6167655f64617461223a2022000000000000000000000000000000009052565b601001611ae0818561199c565b7f220000000000000000000000000000000000000000000000000000000000000081529050600101611bcd817f2c226465736372697074696f6e223a2022426c69746f61647a2061726520612081527f626c69746d617020616e642043727970546f61647a2063726f73732d6272656560208201527f642c20706176696e67207468652077617920746f776172642061206e6577206260408201527f6c69747a76657273652e204f68202d20616e6420746865792772652066756c6c60608201527f79206f6e2d636861696e2e2200000000000000000000000000000000000000006080820152608c0190565b7f2c226e616d65223a20220000000000000000000000000000000000000000000081529050600a01611bff818461199c565b7f200000000000000000000000000000000000000000000000000000000000000081529050600101611c31818361199c565b7f227d0000000000000000000000000000000000000000000000000000000000008152600201949350505050565b602080825281016105a881602681527f4f776e61626c653a206e6577206f776e657220697320746865207a65726f206160208201527f6464726573730000000000000000000000000000000000000000000000000000604082015260600190565b600081525b60010190565b611cd481611cc0565b90506105a8818361199c565b60148152602081017f746f55696e7431365f6f75744f66426f756e647300000000000000000000000081529050611a0c565b602080825281016105a881611ce0565b600e8152602081017f736c6963655f6f766572666c6f7700000000000000000000000000000000000081529050611a0c565b602080825281016105a881611d22565b60118152602081017f736c6963655f6f75744f66426f756e647300000000000000000000000000000081529050611a0c565b602080825281016105a881611d64565b611db0818d61199c565b9050611dbc818c61199c565b9050611dc8818b61199c565b9050611dd4818a61199c565b9050611de0818961199c565b9050611dec818861199c565b9050611df8818761199c565b9050611e04818661199c565b9050611e10818561199c565b9050611e1c818461199c565b9050611e28818361199c565b9c9b505050505050505050505050565b7f63000000000000000000000000000000000000000000000000000000000000008152611cc5565b60006105a88260e01b90565b61157b63ffffffff8216611e60565b611e8481611e38565b9050611e908184611e6c565b600401611ec0817f80600e6000396000f30000000000000000000000000000000000000000000000815260090190565b9050610788818361199c565b60608101611eda82866118af565b611ee760208301856118af565b61085660408301846118af565b611efe818a61199c565b9050611f0a818961199c565b9050611f16818861199c565b9050611f22818761199c565b9050611f2e818661199c565b9050611f3a818561199c565b9050611f46818461199c565b9050611f52818361199c565b9998505050505050505050565b611f69818661199c565b9050611f75818561199c565b9050611f81818461199c565b9050611f8d818361199c565b95945050505050565b634e487b7160e01b600052601260045260246000fd5b600082611fbb57611fbb611f96565b500690565b600082611fcf57611fcf611f96565b500490565b611fde818961199c565b9050611fea818861199c565b9050611ff6818761199c565b9050612002818661199c565b905061200e818561199c565b905061201a818461199c565b9050612026818361199c565b98975050505050505050565b600060001982141561204657612046611864565b5060010190565b60008282101561205f5761205f611864565b50039056fe253363737667253230786d6c6e733d253237687474703a2f2f7777772e77332e6f72672f323030302f73766725323725323076696577426f783d25323730253230302532303336253230333625323725323077696474683d25323733363070782532372532306865696768743d253237333630707825323725336525323725323077696474683d253237312532372532306865696768743d2532373125323725323066696c6c3d2532372532332533637374796c65253365726563747b73686170652d72656e646572696e673a637269737045646765737d2533632f7374796c652533652533632f737667253365a26469706673582212201b2c679771829a97024ab41e7f004cbb66b3295f8ba8f89cd8638093e445f93f64736f6c634300080c0033",
  "libraries": {
    "Integers": "0xe5d03576716d2D66Becf01a3F3BC7B80eb05952E"
  },
  "devdoc": {
    "kind": "dev",
    "methods": {
      "constructor": {
        "details": "Indexes and images are concatenated and stored in a single 'bytes' with SSTORE2 to save gas."
      },
      "getBlitoadz(uint256,uint256,uint8)": {
        "details": "Decode the rect and returns it as a plain string to be used in the svg rect attribute."
      },
      "getFill(bytes,uint256)": {
        "details": "3 bytes per color because svg does not handle alpha."
      },
      "owner()": {
        "details": "Returns the address of the current owner."
      },
      "renounceOwnership()": {
        "details": "Leaves the contract without owner. It will not be possible to call `onlyOwner` functions anymore. Can only be called by the current owner. NOTE: Renouncing ownership will leave the contract without an owner, thereby removing any functionality that is only available to the owner."
      },
      "transferOwnership(address)": {
        "details": "Transfers ownership of the contract to a new account (`newOwner`). Can only be called by the current owner."
      }
    },
    "version": 1
  },
  "userdoc": {
    "kind": "user",
    "methods": {},
    "version": 1
  },
  "storageLayout": {
    "storage": [
      {
        "astId": 225,
        "contract": "contracts/blitoadz/BlitoadzRenderer.sol:BlitoadzRenderer",
        "label": "_owner",
        "offset": 0,
        "slot": "0",
        "type": "t_address"
      },
      {
        "astId": 333,
        "contract": "contracts/blitoadz/BlitoadzRenderer.sol:BlitoadzRenderer",
        "label": "_status",
        "offset": 0,
        "slot": "1",
        "type": "t_uint256"
      },
      {
        "astId": 2002,
        "contract": "contracts/blitoadz/BlitoadzRenderer.sol:BlitoadzRenderer",
        "label": "toadz",
        "offset": 0,
        "slot": "2",
        "type": "t_address"
      },
      {
        "astId": 2004,
        "contract": "contracts/blitoadz/BlitoadzRenderer.sol:BlitoadzRenderer",
        "label": "toadzNames",
        "offset": 0,
        "slot": "3",
        "type": "t_address"
      },
      {
        "astId": 2007,
        "contract": "contracts/blitoadz/BlitoadzRenderer.sol:BlitoadzRenderer",
        "label": "blitmap",
        "offset": 0,
        "slot": "4",
        "type": "t_contract(IBlitmap)2839"
      }
    ],
    "types": {
      "t_address": {
        "encoding": "inplace",
        "label": "address",
        "numberOfBytes": "20"
      },
      "t_contract(IBlitmap)2839": {
        "encoding": "inplace",
        "label": "contract IBlitmap",
        "numberOfBytes": "20"
      },
      "t_uint256": {
        "encoding": "inplace",
        "label": "uint256",
        "numberOfBytes": "32"
      }
    }
  }
}