{
  "address": "0x1a2ef9430429fa883f74611Fe2d1cBF60149408e",
  "abi": [
    {
      "inputs": [
        {
          "internalType": "string",
          "name": "name_",
          "type": "string"
        },
        {
          "internalType": "string",
          "name": "symbol_",
          "type": "string"
        },
        {
          "internalType": "address",
          "name": "_rendererAddress",
          "type": "address"
        },
        {
          "internalType": "address[]",
          "name": "_founders",
          "type": "address[]"
        },
        {
          "components": [
            {
              "internalType": "uint128",
              "name": "withdrawnAmount",
              "type": "uint128"
            },
            {
              "internalType": "uint16",
              "name": "shares",
              "type": "uint16"
            },
            {
              "internalType": "uint8",
              "name": "remainingAllocation",
              "type": "uint8"
            }
          ],
          "internalType": "struct Blitoadz.Founder[]",
          "name": "_foundersData",
          "type": "tuple[]"
        },
        {
          "internalType": "uint256",
          "name": "_blitmapCreatorShares",
          "type": "uint256"
        },
        {
          "internalType": "address",
          "name": "_blitmap",
          "type": "address"
        }
      ],
      "stateMutability": "nonpayable",
      "type": "constructor"
    },
    {
      "inputs": [],
      "name": "AllocationExceeded",
      "type": "error"
    },
    {
      "inputs": [],
      "name": "ApprovalCallerNotOwnerNorApproved",
      "type": "error"
    },
    {
      "inputs": [],
      "name": "ApprovalQueryForNonexistentToken",
      "type": "error"
    },
    {
      "inputs": [],
      "name": "ApprovalToCurrentOwner",
      "type": "error"
    },
    {
      "inputs": [],
      "name": "ApproveToCaller",
      "type": "error"
    },
    {
      "inputs": [],
      "name": "BalanceQueryForZeroAddress",
      "type": "error"
    },
    {
      "inputs": [],
      "name": "BlitmapIndexOutOfBounds",
      "type": "error"
    },
    {
      "inputs": [],
      "name": "BlitoadzDoesNotExist",
      "type": "error"
    },
    {
      "inputs": [],
      "name": "BlitoadzExists",
      "type": "error"
    },
    {
      "inputs": [],
      "name": "IncorrectPrice",
      "type": "error"
    },
    {
      "inputs": [],
      "name": "MintToZeroAddress",
      "type": "error"
    },
    {
      "inputs": [],
      "name": "MintZeroQuantity",
      "type": "error"
    },
    {
      "inputs": [],
      "name": "NothingToWithdraw",
      "type": "error"
    },
    {
      "inputs": [],
      "name": "OwnerIndexOutOfBounds",
      "type": "error"
    },
    {
      "inputs": [],
      "name": "OwnerQueryForNonexistentToken",
      "type": "error"
    },
    {
      "inputs": [],
      "name": "PublicSaleNotOpen",
      "type": "error"
    },
    {
      "inputs": [],
      "name": "ToadzAndBlitmapLengthMismatch",
      "type": "error"
    },
    {
      "inputs": [],
      "name": "ToadzIndexOutOfBounds",
      "type": "error"
    },
    {
      "inputs": [],
      "name": "TokenIndexOutOfBounds",
      "type": "error"
    },
    {
      "inputs": [],
      "name": "TransferCallerNotOwnerNorApproved",
      "type": "error"
    },
    {
      "inputs": [],
      "name": "TransferFromIncorrectOwner",
      "type": "error"
    },
    {
      "inputs": [],
      "name": "TransferToNonERC721ReceiverImplementer",
      "type": "error"
    },
    {
      "inputs": [],
      "name": "TransferToZeroAddress",
      "type": "error"
    },
    {
      "inputs": [],
      "name": "URIQueryForNonexistentToken",
      "type": "error"
    },
    {
      "inputs": [],
      "name": "WithdrawalFailed",
      "type": "error"
    },
    {
      "anonymous": false,
      "inputs": [
        {
          "indexed": true,
          "internalType": "address",
          "name": "owner",
          "type": "address"
        },
        {
          "indexed": true,
          "internalType": "address",
          "name": "approved",
          "type": "address"
        },
        {
          "indexed": true,
          "internalType": "uint256",
          "name": "tokenId",
          "type": "uint256"
        }
      ],
      "name": "Approval",
      "type": "event"
    },
    {
      "anonymous": false,
      "inputs": [
        {
          "indexed": true,
          "internalType": "address",
          "name": "owner",
          "type": "address"
        },
        {
          "indexed": true,
          "internalType": "address",
          "name": "operator",
          "type": "address"
        },
        {
          "indexed": false,
          "internalType": "bool",
          "name": "approved",
          "type": "bool"
        }
      ],
      "name": "ApprovalForAll",
      "type": "event"
    },
    {
      "anonymous": false,
      "inputs": [
        {
          "indexed": false,
          "internalType": "address",
          "name": "account",
          "type": "address"
        },
        {
          "indexed": false,
          "internalType": "uint256",
          "name": "amount",
          "type": "uint256"
        }
      ],
      "name": "BlitmapCreatorWithdrawn",
      "type": "event"
    },
    {
      "anonymous": false,
      "inputs": [
        {
          "indexed": false,
          "internalType": "address",
          "name": "account",
          "type": "address"
        },
        {
          "indexed": false,
          "internalType": "uint256",
          "name": "amount",
          "type": "uint256"
        }
      ],
      "name": "FounderWithdrawn",
      "type": "event"
    },
    {
      "anonymous": false,
      "inputs": [
        {
          "indexed": true,
          "internalType": "address",
          "name": "previousOwner",
          "type": "address"
        },
        {
          "indexed": true,
          "internalType": "address",
          "name": "newOwner",
          "type": "address"
        }
      ],
      "name": "OwnershipTransferred",
      "type": "event"
    },
    {
      "anonymous": false,
      "inputs": [
        {
          "indexed": false,
          "internalType": "uint256",
          "name": "timestamp",
          "type": "uint256"
        }
      ],
      "name": "PublicSaleOpened",
      "type": "event"
    },
    {
      "anonymous": false,
      "inputs": [
        {
          "indexed": false,
          "internalType": "address",
          "name": "newRenderer",
          "type": "address"
        }
      ],
      "name": "RendererChanged",
      "type": "event"
    },
    {
      "anonymous": false,
      "inputs": [
        {
          "indexed": true,
          "internalType": "address",
          "name": "from",
          "type": "address"
        },
        {
          "indexed": true,
          "internalType": "address",
          "name": "to",
          "type": "address"
        },
        {
          "indexed": true,
          "internalType": "uint256",
          "name": "tokenId",
          "type": "uint256"
        }
      ],
      "name": "Transfer",
      "type": "event"
    },
    {
      "inputs": [],
      "name": "BLITMAP_COUNT",
      "outputs": [
        {
          "internalType": "uint8",
          "name": "",
          "type": "uint8"
        }
      ],
      "stateMutability": "view",
      "type": "function"
    },
    {
      "inputs": [],
      "name": "BLITOADZ_COUNT",
      "outputs": [
        {
          "internalType": "uint16",
          "name": "",
          "type": "uint16"
        }
      ],
      "stateMutability": "view",
      "type": "function"
    },
    {
      "inputs": [],
      "name": "MINT_PUBLIC_PRICE",
      "outputs": [
        {
          "internalType": "uint256",
          "name": "",
          "type": "uint256"
        }
      ],
      "stateMutability": "view",
      "type": "function"
    },
    {
      "inputs": [],
      "name": "TOADZ_COUNT",
      "outputs": [
        {
          "internalType": "uint8",
          "name": "",
          "type": "uint8"
        }
      ],
      "stateMutability": "view",
      "type": "function"
    },
    {
      "inputs": [
        {
          "internalType": "address",
          "name": "to",
          "type": "address"
        },
        {
          "internalType": "uint256",
          "name": "tokenId",
          "type": "uint256"
        }
      ],
      "name": "approve",
      "outputs": [],
      "stateMutability": "nonpayable",
      "type": "function"
    },
    {
      "inputs": [
        {
          "internalType": "address",
          "name": "owner",
          "type": "address"
        }
      ],
      "name": "balanceOf",
      "outputs": [
        {
          "internalType": "uint256",
          "name": "",
          "type": "uint256"
        }
      ],
      "stateMutability": "view",
      "type": "function"
    },
    {
      "inputs": [],
      "name": "blitmap",
      "outputs": [
        {
          "internalType": "contract IBlitmap",
          "name": "",
          "type": "address"
        }
      ],
      "stateMutability": "view",
      "type": "function"
    },
    {
      "inputs": [],
      "name": "blitmapCreatorShares",
      "outputs": [
        {
          "internalType": "uint256",
          "name": "",
          "type": "uint256"
        }
      ],
      "stateMutability": "view",
      "type": "function"
    },
    {
      "inputs": [
        {
          "internalType": "uint256",
          "name": "",
          "type": "uint256"
        }
      ],
      "name": "blitmapIds",
      "outputs": [
        {
          "internalType": "uint8",
          "name": "",
          "type": "uint8"
        }
      ],
      "stateMutability": "view",
      "type": "function"
    },
    {
      "inputs": [
        {
          "internalType": "uint256",
          "name": "",
          "type": "uint256"
        }
      ],
      "name": "blitoadzExist",
      "outputs": [
        {
          "internalType": "bool",
          "name": "",
          "type": "bool"
        }
      ],
      "stateMutability": "view",
      "type": "function"
    },
    {
      "inputs": [
        {
          "internalType": "uint256",
          "name": "_tokenId",
          "type": "uint256"
        }
      ],
      "name": "exists",
      "outputs": [
        {
          "internalType": "bool",
          "name": "",
          "type": "bool"
        }
      ],
      "stateMutability": "view",
      "type": "function"
    },
    {
      "inputs": [
        {
          "internalType": "address",
          "name": "",
          "type": "address"
        }
      ],
      "name": "founders",
      "outputs": [
        {
          "internalType": "uint128",
          "name": "withdrawnAmount",
          "type": "uint128"
        },
        {
          "internalType": "uint16",
          "name": "shares",
          "type": "uint16"
        },
        {
          "internalType": "uint8",
          "name": "remainingAllocation",
          "type": "uint8"
        }
      ],
      "stateMutability": "view",
      "type": "function"
    },
    {
      "inputs": [
        {
          "internalType": "uint256",
          "name": "tokenId",
          "type": "uint256"
        }
      ],
      "name": "getApproved",
      "outputs": [
        {
          "internalType": "address",
          "name": "",
          "type": "address"
        }
      ],
      "stateMutability": "view",
      "type": "function"
    },
    {
      "inputs": [
        {
          "internalType": "address",
          "name": "owner",
          "type": "address"
        },
        {
          "internalType": "address",
          "name": "operator",
          "type": "address"
        }
      ],
      "name": "isApprovedForAll",
      "outputs": [
        {
          "internalType": "bool",
          "name": "",
          "type": "bool"
        }
      ],
      "stateMutability": "view",
      "type": "function"
    },
    {
      "inputs": [],
      "name": "isPublicSaleOpen",
      "outputs": [
        {
          "internalType": "bool",
          "name": "",
          "type": "bool"
        }
      ],
      "stateMutability": "view",
      "type": "function"
    },
    {
      "inputs": [
        {
          "internalType": "uint256[]",
          "name": "_toadzIds",
          "type": "uint256[]"
        },
        {
          "internalType": "uint256[]",
          "name": "_blitmapIds",
          "type": "uint256[]"
        },
        {
          "internalType": "uint256[]",
          "name": "_paletteOrders",
          "type": "uint256[]"
        }
      ],
      "name": "mintAllocation",
      "outputs": [],
      "stateMutability": "nonpayable",
      "type": "function"
    },
    {
      "inputs": [
        {
          "internalType": "uint256[]",
          "name": "_toadzIds",
          "type": "uint256[]"
        },
        {
          "internalType": "uint256[]",
          "name": "_blitmapIds",
          "type": "uint256[]"
        },
        {
          "internalType": "uint256[]",
          "name": "_paletteOrders",
          "type": "uint256[]"
        }
      ],
      "name": "mintPublicSale",
      "outputs": [],
      "stateMutability": "payable",
      "type": "function"
    },
    {
      "inputs": [],
      "name": "name",
      "outputs": [
        {
          "internalType": "string",
          "name": "",
          "type": "string"
        }
      ],
      "stateMutability": "view",
      "type": "function"
    },
    {
      "inputs": [],
      "name": "openPublicSale",
      "outputs": [],
      "stateMutability": "nonpayable",
      "type": "function"
    },
    {
      "inputs": [],
      "name": "owner",
      "outputs": [
        {
          "internalType": "address",
          "name": "",
          "type": "address"
        }
      ],
      "stateMutability": "view",
      "type": "function"
    },
    {
      "inputs": [
        {
          "internalType": "uint256",
          "name": "tokenId",
          "type": "uint256"
        }
      ],
      "name": "ownerOf",
      "outputs": [
        {
          "internalType": "address",
          "name": "",
          "type": "address"
        }
      ],
      "stateMutability": "view",
      "type": "function"
    },
    {
      "inputs": [
        {
          "internalType": "uint256",
          "name": "",
          "type": "uint256"
        }
      ],
      "name": "palettes",
      "outputs": [
        {
          "internalType": "uint8",
          "name": "",
          "type": "uint8"
        }
      ],
      "stateMutability": "view",
      "type": "function"
    },
    {
      "inputs": [],
      "name": "publicSaleStartTimestamp",
      "outputs": [
        {
          "internalType": "uint256",
          "name": "",
          "type": "uint256"
        }
      ],
      "stateMutability": "view",
      "type": "function"
    },
    {
      "inputs": [],
      "name": "renderingContractAddress",
      "outputs": [
        {
          "internalType": "address",
          "name": "",
          "type": "address"
        }
      ],
      "stateMutability": "view",
      "type": "function"
    },
    {
      "inputs": [],
      "name": "renounceOwnership",
      "outputs": [],
      "stateMutability": "nonpayable",
      "type": "function"
    },
    {
      "inputs": [
        {
          "internalType": "address",
          "name": "from",
          "type": "address"
        },
        {
          "internalType": "address",
          "name": "to",
          "type": "address"
        },
        {
          "internalType": "uint256",
          "name": "tokenId",
          "type": "uint256"
        }
      ],
      "name": "safeTransferFrom",
      "outputs": [],
      "stateMutability": "nonpayable",
      "type": "function"
    },
    {
      "inputs": [
        {
          "internalType": "address",
          "name": "from",
          "type": "address"
        },
        {
          "internalType": "address",
          "name": "to",
          "type": "address"
        },
        {
          "internalType": "uint256",
          "name": "tokenId",
          "type": "uint256"
        },
        {
          "internalType": "bytes",
          "name": "_data",
          "type": "bytes"
        }
      ],
      "name": "safeTransferFrom",
      "outputs": [],
      "stateMutability": "nonpayable",
      "type": "function"
    },
    {
      "inputs": [
        {
          "internalType": "address",
          "name": "operator",
          "type": "address"
        },
        {
          "internalType": "bool",
          "name": "approved",
          "type": "bool"
        }
      ],
      "name": "setApprovalForAll",
      "outputs": [],
      "stateMutability": "nonpayable",
      "type": "function"
    },
    {
      "inputs": [
        {
          "internalType": "address",
          "name": "_renderingContractAddress",
          "type": "address"
        }
      ],
      "name": "setRenderingContractAddress",
      "outputs": [],
      "stateMutability": "nonpayable",
      "type": "function"
    },
    {
      "inputs": [
        {
          "internalType": "bytes4",
          "name": "interfaceId",
          "type": "bytes4"
        }
      ],
      "name": "supportsInterface",
      "outputs": [
        {
          "internalType": "bool",
          "name": "",
          "type": "bool"
        }
      ],
      "stateMutability": "view",
      "type": "function"
    },
    {
      "inputs": [],
      "name": "symbol",
      "outputs": [
        {
          "internalType": "string",
          "name": "",
          "type": "string"
        }
      ],
      "stateMutability": "view",
      "type": "function"
    },
    {
      "inputs": [
        {
          "internalType": "uint256",
          "name": "",
          "type": "uint256"
        }
      ],
      "name": "toadzIds",
      "outputs": [
        {
          "internalType": "uint8",
          "name": "",
          "type": "uint8"
        }
      ],
      "stateMutability": "view",
      "type": "function"
    },
    {
      "inputs": [
        {
          "internalType": "uint256",
          "name": "index",
          "type": "uint256"
        }
      ],
      "name": "tokenByIndex",
      "outputs": [
        {
          "internalType": "uint256",
          "name": "",
          "type": "uint256"
        }
      ],
      "stateMutability": "view",
      "type": "function"
    },
    {
      "inputs": [
        {
          "internalType": "address",
          "name": "owner",
          "type": "address"
        },
        {
          "internalType": "uint256",
          "name": "index",
          "type": "uint256"
        }
      ],
      "name": "tokenOfOwnerByIndex",
      "outputs": [
        {
          "internalType": "uint256",
          "name": "",
          "type": "uint256"
        }
      ],
      "stateMutability": "view",
      "type": "function"
    },
    {
      "inputs": [
        {
          "internalType": "uint256",
          "name": "_tokenId",
          "type": "uint256"
        }
      ],
      "name": "tokenURI",
      "outputs": [
        {
          "internalType": "string",
          "name": "",
          "type": "string"
        }
      ],
      "stateMutability": "view",
      "type": "function"
    },
    {
      "inputs": [
        {
          "internalType": "uint8",
          "name": "toadzId",
          "type": "uint8"
        },
        {
          "internalType": "uint8",
          "name": "blitmapId",
          "type": "uint8"
        }
      ],
      "name": "tokenURI",
      "outputs": [
        {
          "internalType": "string",
          "name": "",
          "type": "string"
        }
      ],
      "stateMutability": "view",
      "type": "function"
    },
    {
      "inputs": [],
      "name": "totalSupply",
      "outputs": [
        {
          "internalType": "uint256",
          "name": "",
          "type": "uint256"
        }
      ],
      "stateMutability": "view",
      "type": "function"
    },
    {
      "inputs": [
        {
          "internalType": "address",
          "name": "from",
          "type": "address"
        },
        {
          "internalType": "address",
          "name": "to",
          "type": "address"
        },
        {
          "internalType": "uint256",
          "name": "tokenId",
          "type": "uint256"
        }
      ],
      "name": "transferFrom",
      "outputs": [],
      "stateMutability": "nonpayable",
      "type": "function"
    },
    {
      "inputs": [
        {
          "internalType": "address",
          "name": "newOwner",
          "type": "address"
        }
      ],
      "name": "transferOwnership",
      "outputs": [],
      "stateMutability": "nonpayable",
      "type": "function"
    },
    {
      "inputs": [],
      "name": "withdrawBlitmapCreator",
      "outputs": [
        {
          "internalType": "bool",
          "name": "",
          "type": "bool"
        }
      ],
      "stateMutability": "nonpayable",
      "type": "function"
    },
    {
      "inputs": [],
      "name": "withdrawFounder",
      "outputs": [
        {
          "internalType": "bool",
          "name": "",
          "type": "bool"
        }
      ],
      "stateMutability": "nonpayable",
      "type": "function"
    },
    {
      "stateMutability": "payable",
      "type": "receive"
    }
  ],
  "transactionHash": "0xbf4765ac2f7653af3568b2e7b9142fc92519293dd555689412c7c84b5e0c6bbb",
  "args": [
    "Blitoadz",
    "BLTZ",
    "0x9C6B3486EeFBA5F0a27442238123CC5dFBfD5B2C",
    [
      "0xD246882E05D7DdB2C8476607312279f592789Cd6",
      "0x0C3c184C2c5Fc99aED927cE3513141eb3Ce684FA",
      "0xCADb5Aba304867FD2658f11c2EE41ed3A83f13D5",
      "0xFc7c18A7F0d53A924D6aF07814c47eEf0Fb4F7d7",
      "0x4298e663517593284Ad4FE199b21815BD48a9969",
      "0xF296178d553C8Ec21A2fBD2c5dDa8CA9ac905A00",
      "0xd42bd96B117dd6BD63280620EA981BF967A7aD2B",
      "0xD19BF5F0B785c6f1F6228C72A8A31C9f383a49c4",
      "0xb7b78C45036D5a089Ff85d39a0e0836037D1Dc52"
    ],
    [
      {
        "shares": 1680,
        "withdrawnAmount": 0,
        "remainingAllocation": 5
      },
      {
        "shares": 1400,
        "withdrawnAmount": 0,
        "remainingAllocation": 9
      },
      {
        "shares": 628,
        "withdrawnAmount": 0,
        "remainingAllocation": 5
      },
      {
        "shares": 628,
        "withdrawnAmount": 0,
        "remainingAllocation": 5
      },
      {
        "shares": 312,
        "withdrawnAmount": 0,
        "remainingAllocation": 2
      },
      {
        "shares": 0,
        "withdrawnAmount": 0,
        "remainingAllocation": 1
      },
      {
        "shares": 0,
        "withdrawnAmount": 0,
        "remainingAllocation": 1
      },
      {
        "shares": 0,
        "withdrawnAmount": 0,
        "remainingAllocation": 1
      },
      {
        "shares": 0,
        "withdrawnAmount": 0,
        "remainingAllocation": 1
      }
    ],
    952,
    "0x8d04a8c79cEB0889Bdd12acdF3Fa9D207eD3Ff63"
  ],
  "numDeployments": 1,
  "solcInputHash": "ab7f691cb6c87ded4dc4cbf94247b36a",
  "bytecode": "0x60806040523480156200001157600080fd5b506040516200378538038062003785833981016040819052620000349162000696565b8651879087906200004d90600190602085019062000282565b5080516200006390600290602084019062000282565b505050620000806200007a6200019160201b60201c565b62000195565b60016008556200009085620001e7565b60005b84518110156200015f57838181518110620000b257620000b2620007ba565b602002602001015160bd6000878481518110620000d357620000d3620007ba565b6020908102919091018101516001600160a01b031682528181019290925260409081016000208351815493850151949092015160ff16600160901b0260ff60901b1961ffff909516600160801b026001600160901b03199094166001600160801b03909316929092179290921792909216919091179055806200015681620007e6565b91505062000093565b5060bc91909155600980546001600160a01b0319166001600160a01b0390921691909117905550620008a79350505050565b3390565b600780546001600160a01b038381166001600160a01b0319831681179093556040519116919082907f8be0079c531659141344cd1fd0a4f28419497f9722a3daafe3b4186f6b6457e090600090a35050565b6007546001600160a01b031633146200021d5760405162461bcd60e51b8152600401620002149062000804565b60405180910390fd5b60c180546001600160a01b0383166001600160a01b0319918216811790925560c28054909116821790556040517fa00632ff71f043bcebbaa26952d3fd31a42e459b0dc8b686a91eb77725ee668091620002779162000850565b60405180910390a150565b828054620002909062000876565b90600052602060002090601f016020900481019282620002b45760008555620002ff565b82601f10620002cf57805160ff1916838001178555620002ff565b82800160010185558215620002ff579182015b82811115620002ff578251825591602001919060010190620002e2565b506200030d92915062000311565b5090565b5b808211156200030d576000815560010162000312565b634e487b7160e01b600052604160045260246000fd5b601f19601f83011681016001600160401b038111828210171562000366576200036662000328565b6040525050565b60006200037960405190565b90506200038782826200033e565b919050565b60006001600160401b03821115620003a857620003a862000328565b601f19601f83011660200192915050565b60005b83811015620003d6578181015183820152602001620003bc565b83811115620003e6576000848401525b50505050565b600062000403620003fd846200038c565b6200036d565b905082815260208101848484011115620004205762000420600080fd5b6200042d848285620003b9565b509392505050565b600082601f8301126200044b576200044b600080fd5b81516200045d848260208601620003ec565b949350505050565b60006001600160a01b0382165b92915050565b620004838162000465565b81146200048f57600080fd5b50565b8051620004728162000478565b60006001600160401b03821115620004bb57620004bb62000328565b5060209081020190565b6000620004d6620003fd846200049f565b83815290506020808201908402830185811115620004f757620004f7600080fd5b835b818110156200051d576200050e878262000492565b835260209283019201620004f9565b5050509392505050565b600082601f8301126200053d576200053d600080fd5b81516200045d848260208601620004c5565b6001600160801b03811662000483565b805162000472816200054f565b61ffff811662000483565b805162000472816200056c565b60ff811662000483565b8051620004728162000584565b600060608284031215620005b257620005b2600080fd5b620005be60606200036d565b90506000620005ce84846200055f565b908201526020620005e28484830162000577565b908201526040620005f6848483016200058e565b9082015292915050565b600062000611620003fd846200049f565b83815290506020810160608402830185811115620006325762000632600080fd5b835b818110156200051d576200064987826200059b565b835260209092019160600162000634565b600082601f830112620006705762000670600080fd5b81516200045d84826020860162000600565b8062000483565b8051620004728162000682565b600080600080600080600060e0888a031215620006b657620006b6600080fd5b87516001600160401b03811115620006d157620006d1600080fd5b620006df8a828b0162000435565b60208a015190985090506001600160401b03811115620007025762000702600080fd5b620007108a828b0162000435565b9650506040620007238a828b0162000492565b60608a015190965090506001600160401b03811115620007465762000746600080fd5b620007548a828b0162000527565b60808a015190955090506001600160401b03811115620007775762000777600080fd5b620007858a828b016200065a565b93505060a0620007988a828b0162000689565b92505060c0620007ab8a828b0162000492565b91505092959891949750929550565b634e487b7160e01b600052603260045260246000fd5b634e487b7160e01b600052601160045260246000fd5b6000600019821415620007fd57620007fd620007d0565b5060010190565b60208082528181019081527f4f776e61626c653a2063616c6c6572206973206e6f7420746865206f776e657260408301526060820162000472565b6200084a8162000465565b82525050565b602081016200047282846200083f565b634e487b7160e01b600052602260045260246000fd5b6002810460018216806200088b57607f821691505b60208210811415620008a157620008a162000860565b50919050565b612ece80620008b76000396000f3fe6080604052600436106102ca5760003560e01c806395d89b4111610179578063c0c9c735116100d6578063de6746a51161008a578063f140a90011610064578063f140a90014610812578063f2fde38b14610825578063f95ed2f51461084557600080fd5b8063de6746a514610730578063e632751a146107a9578063e985e9c5146107c957600080fd5b8063d7822c99116100bb578063d7822c99146106da578063dcf7eefe146106f0578063dd6c6cef1461071057600080fd5b8063c0c9c735146106a5578063c87b56dd146106ba57600080fd5b8063af0097251161012d578063b6cfb24211610112578063b6cfb24214610638578063b88d4fde14610665578063c074f4121461068557600080fd5b8063af00972514610603578063b585209b1461062357600080fd5b80639c51792a1161015e5780639c51792a146105b2578063a22cb465146105cd578063ac156e9b146105ed57600080fd5b806395d89b411461058857806399c0731b1461059d57600080fd5b80633189a5341161022757806353557e25116101db57806370a08231116101c057806370a0823114610535578063715018a6146105555780638da5cb5b1461056a57600080fd5b806353557e25146104f25780636352211e1461051557600080fd5b80634bd3f52f1161020c5780634bd3f52f1461049d5780634f558e79146104b25780634f6ccce7146104d257600080fd5b80633189a5341461045057806342842e0e1461047d57600080fd5b806318160ddd1161027e5780631a6949e3116102635780631a6949e3146103fb57806323b872dd146104105780632f745c591461043057600080fd5b806318160ddd1461039d578063191694f8146103e657600080fd5b8063081812fc116102af578063081812fc1461032e578063095ea7b31461035b57806312b40a9f1461037d57600080fd5b806301ffc9a7146102d657806306fdde031461030c57600080fd5b366102d157005b600080fd5b3480156102e257600080fd5b506102f66102f13660046124f3565b610865565b604051610303919061251e565b60405180910390f35b34801561031857600080fd5b50610321610936565b604051610303919061258a565b34801561033a57600080fd5b5061034e6103493660046125b3565b6109c8565b60405161030391906125ee565b34801561036757600080fd5b5061037b610376366004612610565b610a25565b005b34801561038957600080fd5b5061037b61039836600461264d565b610ae5565b3480156103a957600080fd5b506103d96000546001600160801b0370010000000000000000000000000000000082048116918116919091031690565b6040516103039190612674565b3480156103f257600080fd5b506102f6610b88565b34801561040757600080fd5b506102f6610d3c565b34801561041c57600080fd5b5061037b61042b366004612682565b610d55565b34801561043c57600080fd5b506103d961044b366004612610565b610d60565b34801561045c57600080fd5b5061047061046b3660046125b3565b610e76565b60405161030391906126db565b34801561048957600080fd5b5061037b610498366004612682565b610eaa565b3480156104a957600080fd5b506102f6610ec5565b3480156104be57600080fd5b506102f66104cd3660046125b3565b6110b4565b3480156104de57600080fd5b506103d96104ed3660046125b3565b6110bf565b3480156104fe57600080fd5b506105086115e081565b60405161030391906126f3565b34801561052157600080fd5b5061034e6105303660046125b3565b611183565b34801561054157600080fd5b506103d961055036600461264d565b611195565b34801561056157600080fd5b5061037b6111fd565b34801561057657600080fd5b506007546001600160a01b031661034e565b34801561059457600080fd5b50610321611233565b3480156105a957600080fd5b50610470606481565b3480156105be57600080fd5b506103d966c6f3b40b6c000081565b3480156105d957600080fd5b5061037b6105e8366004612714565b611242565b3480156105f957600080fd5b506103d960bc5481565b34801561060f57600080fd5b506102f661061e3660046125b3565b611312565b34801561062f57600080fd5b5061037b61133d565b34801561064457600080fd5b50600954610658906001600160a01b031681565b6040516103039190612789565b34801561067157600080fd5b5061037b610680366004612892565b6113e4565b34801561069157600080fd5b5060c15461034e906001600160a01b031681565b3480156106b157600080fd5b50610470603881565b3480156106c657600080fd5b506103216106d53660046125b3565b61141e565b3480156106e657600080fd5b506103d960c05481565b3480156106fc57600080fd5b5061047061070b3660046125b3565b611596565b34801561071c57600080fd5b5061037b61072b366004612963565b6115a6565b34801561073c57600080fd5b5061079a61074b36600461264d565b60bd602052600090815260409020546001600160801b03811690700100000000000000000000000000000000810461ffff16907201000000000000000000000000000000000000900460ff1683565b60405161030393929190612a1f565b3480156107b557600080fd5b506103216107c4366004612a5b565b6116e8565b3480156107d557600080fd5b506102f66107e4366004612a8e565b6001600160a01b03918216600090815260066020908152604080832093909416825291909152205460ff1690565b61037b610820366004612963565b6117ca565b34801561083157600080fd5b5061037b61084036600461264d565b6118f7565b34801561085157600080fd5b506104706108603660046125b3565b611953565b60006001600160e01b031982167f80ac58cd0000000000000000000000000000000000000000000000000000000014806108c857506001600160e01b031982167f5b5e139f00000000000000000000000000000000000000000000000000000000145b806108fc57506001600160e01b031982167f780e9d6300000000000000000000000000000000000000000000000000000000145b8061093057507f01ffc9a7000000000000000000000000000000000000000000000000000000006001600160e01b03198316145b92915050565b60606001805461094590612ad7565b80601f016020809104026020016040519081016040528092919081815260200182805461097190612ad7565b80156109be5780601f10610993576101008083540402835291602001916109be565b820191906000526020600020905b8154815290600101906020018083116109a157829003601f168201915b5050505050905090565b60006109d382611963565b610a09576040517fcf4700e400000000000000000000000000000000000000000000000000000000815260040160405180910390fd5b506000908152600560205260409020546001600160a01b031690565b6000610a3082611183565b9050806001600160a01b0316836001600160a01b03161415610a7e576040517f943f7b8c00000000000000000000000000000000000000000000000000000000815260040160405180910390fd5b336001600160a01b03821614801590610a9e5750610a9c81336107e4565b155b15610ad5576040517fcfb3b94200000000000000000000000000000000000000000000000000000000815260040160405180910390fd5b610ae0838383611997565b505050565b6007546001600160a01b03163314610b185760405162461bcd60e51b8152600401610b0f90612b36565b60405180910390fd5b60c180546001600160a01b03831673ffffffffffffffffffffffffffffffffffffffff19918216811790925560c28054909116821790556040517fa00632ff71f043bcebbaa26952d3fd31a42e459b0dc8b686a91eb77725ee668091610b7d916125ee565b60405180910390a150565b600060026008541415610bad5760405162461bcd60e51b8152600401610b0f90612b78565b600260085533600090815260be602052604090205461ffff16610bfc576040517fd0d04f6000000000000000000000000000000000000000000000000000000000815260040160405180910390fd5b60bc5433600090815260be602052604081205490916115e091610c2a9061ffff1666c6f3b40b6c0000612b9e565b610c349190612b9e565b610c3e9190612bd3565b604051909150600090339083908381818185875af1925050503d8060008114610c83576040519150601f19603f3d011682016040523d82523d6000602084013e610c88565b606091505b5050905080610cc3576040517f27fcd9d100000000000000000000000000000000000000000000000000000000815260040160405180910390fd5b7f481f0c31fede089900c9fd5b1bd26054cf3d6e31a09d068df5b323a0265211e53383604051610cf4929190612be7565b60405180910390a133600090815260be6020526040902080547fffffffffffffffffffffffffffffffffffffffffffffffffffffffffffff0000169055600160085592915050565b600060c05442118015610d50575060c05415155b905090565b610ae0838383611a00565b6000610d6b83611195565b8210610da3576040517f0ddac30e00000000000000000000000000000000000000000000000000000000815260040160405180910390fd5b600080546001600160801b03169080805b83811015610e7057600081815260036020908152604091829020825160608101845290546001600160a01b0381168252600160a01b810467ffffffffffffffff1692820192909252600160e01b90910460ff161580159282019290925290610e1c5750610e68565b80516001600160a01b031615610e3157805192505b876001600160a01b0316836001600160a01b03161415610e665786841415610e5f5750935061093092505050565b6001909301925b505b600101610db4565b50600080fd5b60b98181548110610e8657600080fd5b9060005260206000209060209182820401919006915054906101000a900460ff1681565b610ae0838383604051806020016040528060008152506113e4565b600060026008541415610eea5760405162461bcd60e51b8152600401610b0f90612b78565b600260085533600090815260bd602052604081205460bf546001600160801b038216916115e091610f3391700100000000000000000000000000000000900461ffff1690612b9e565b610f3d9190612bd3565b610f479190612c02565b905080610f80576040517fd0d04f6000000000000000000000000000000000000000000000000000000000815260040160405180910390fd5b610f916001600160801b0382612c1d565b33600090815260bd602052604081208054909190610fb99084906001600160801b0316612c31565b92506101000a8154816001600160801b0302191690836001600160801b031602179055506000610fe63390565b6001600160a01b03168260405160006040518083038185875af1925050503d8060008114611030576040519150601f19603f3d011682016040523d82523d6000602084013e611035565b606091505b5050905080611070576040517f27fcd9d100000000000000000000000000000000000000000000000000000000815260040160405180910390fd5b7f47521fa5fb7651fe9fbc44eddef019766bd46d393ffcd1c5e1338cce9bd35cf933836040516110a1929190612be7565b60405180910390a1915050600160085590565b600061093082611963565b600080546001600160801b031681805b8281101561115057600081815260036020908152604091829020825160608101845290546001600160a01b0381168252600160a01b810467ffffffffffffffff1692820192909252600160e01b90910460ff1615159181018290529061114757858314156111405750949350505050565b6001909201915b506001016110cf565b506040517fa723001c00000000000000000000000000000000000000000000000000000000815260040160405180910390fd5b600061118e82611c6b565b5192915050565b60006001600160a01b0382166111d7576040517f8f4eb60400000000000000000000000000000000000000000000000000000000815260040160405180910390fd5b506001600160a01b031660009081526004602052604090205467ffffffffffffffff1690565b6007546001600160a01b031633146112275760405162461bcd60e51b8152600401610b0f90612b36565b6112316000611da8565b565b60606002805461094590612ad7565b6001600160a01b038216331415611285576040517fb06307db00000000000000000000000000000000000000000000000000000000815260040160405180910390fd5b3360008181526006602090815260408083206001600160a01b03871680855292529182902080547fffffffffffffffffffffffffffffffffffffffffffffffffffffffffffffff001685151517905590519091907f17307eab39ab6107e8899845ad3d59bd9653f200f220920489ca2b5937696c319061130690859061251e565b60405180910390a35050565b600a816115e0811061132357600080fd5b60209182820401919006915054906101000a900460ff1681565b6007546001600160a01b031633146113675760405162461bcd60e51b8152600401610b0f90612b36565b61136f610d3c565b156113a6576040517f63a2de0f00000000000000000000000000000000000000000000000000000000815260040160405180910390fd5b4260c08190556040517fe1edf9fc3dd1a3a3cb6d462dc065c574fb31cc577afdfba34c247d258db7f0b5916113da91612674565b60405180910390a1565b6113ef848484611a00565b6113fb84848484611e07565b611418576040516368d2bf6b60e11b815260040160405180910390fd5b50505050565b606061142982611963565b61145f576040517fa14c4b5000000000000000000000000000000000000000000000000000000000815260040160405180910390fd5b60c1546001600160a01b031661148357505060408051602081019091526000815290565b60c25460b980546001600160a01b039092169163bd1798f69190859081106114ad576114ad612c69565b90600052602060002090602091828204019190069054906101000a900460ff1660ba85815481106114e0576114e0612c69565b90600052602060002090602091828204019190069054906101000a900460ff1660bb868154811061151357611513612c69565b90600052602060002090602091828204019190069054906101000a900460ff166040518463ffffffff1660e01b815260040161155193929190612c97565b600060405180830381865afa15801561156e573d6000803e3d6000fd5b505050506040513d6000823e601f3d908101601f191682016040526109309190810190612d0a565b60bb8181548110610e8657600080fd5b600260085414156115c95760405162461bcd60e51b8152600401610b0f90612b78565b6002600855848314611607576040517f9c38699e00000000000000000000000000000000000000000000000000000000815260040160405180910390fd5b33600090815260bd60205260409020547201000000000000000000000000000000000000900460ff16851115611669576040517f74a5d1f500000000000000000000000000000000000000000000000000000000815260040160405180910390fd5b61167460ff86612c1d565b33600090815260bd6020526040902080546012906116ac9084907201000000000000000000000000000000000000900460ff16612d45565b92506101000a81548160ff021916908360ff1602179055506116db6116ce3390565b8787878787876000611f39565b5050600160085550505050565b606060005b60b954811015611797578360ff1660b9828154811061170e5761170e612c69565b60009182526020918290209181049091015460ff601f9092166101000a90041614801561176f57508260ff1660ba828154811061174d5761174d612c69565b60009182526020918290209181049091015460ff601f9092166101000a900416145b156117855761177d8161141e565b915050610930565b8061178f81612d52565b9150506116ed565b506040517ff09c6c1300000000000000000000000000000000000000000000000000000000815260040160405180910390fd5b6117d2610d3c565b611808576040517f63a2de0f00000000000000000000000000000000000000000000000000000000815260040160405180910390fd5b6002600854141561182b5760405162461bcd60e51b8152600401610b0f90612b78565b6002600855848314611869576040517f9c38699e00000000000000000000000000000000000000000000000000000000815260040160405180910390fd5b61187a8566c6f3b40b6c0000612b9e565b34146118b2576040517f99b5cb1d00000000000000000000000000000000000000000000000000000000815260040160405180910390fd5b6118c3338787878787876001611f39565b6118d48566c6f3b40b6c0000612b9e565b60bf60008282546118e59190612d6d565b90915550506001600855505050505050565b6007546001600160a01b031633146119215760405162461bcd60e51b8152600401610b0f90612b36565b6001600160a01b0381166119475760405162461bcd60e51b8152600401610b0f90612d80565b61195081611da8565b50565b60ba8181548110610e8657600080fd5b600080546001600160801b031682108015610930575050600090815260036020526040902054600160e01b900460ff161590565b600082815260056020526040808220805473ffffffffffffffffffffffffffffffffffffffff19166001600160a01b0387811691821790925591518593918516917f8c5be1e5ebec7d5bd14f71427d1e84f3dd0314c0f7b2291e5b200ac8c7c3b92591a4505050565b6000611a0b82611c6b565b80519091506000906001600160a01b0316336001600160a01b03161480611a3957508151611a3990336107e4565b80611a54575033611a49846109c8565b6001600160a01b0316145b905080611a8d576040517f59c896be00000000000000000000000000000000000000000000000000000000815260040160405180910390fd5b846001600160a01b031682600001516001600160a01b031614611adc576040517fa114810000000000000000000000000000000000000000000000000000000000815260040160405180910390fd5b6001600160a01b038416611b1c576040517fea553b3400000000000000000000000000000000000000000000000000000000815260040160405180910390fd5b611b2c6000848460000151611997565b6001600160a01b038581166000908152600460209081526040808320805467ffffffffffffffff1980821667ffffffffffffffff92831660001901831617909255898616808652838620805493841693831660019081018416949094179055898652600390945282852080546001600160e01b031916909417600160a01b429092169190910217909255908601808352912054909116611c21576000546001600160801b0316811015611c21578251600082815260036020908152604090912080549186015167ffffffffffffffff16600160a01b026001600160e01b03199092166001600160a01b03909316929092171790555b5082846001600160a01b0316866001600160a01b03167fddf252ad1be2c89b69c2b068fc378daa952ba7f163c4a11628f55a4df523b3ef60405160405180910390a45b5050505050565b60408051606081018252600080825260208201819052918101829052905482906001600160801b0316811015611d7657600081815260036020908152604091829020825160608101845290546001600160a01b0381168252600160a01b810467ffffffffffffffff1692820192909252600160e01b90910460ff16151591810182905290611d745780516001600160a01b031615611d0a579392505050565b5060001901600081815260036020908152604091829020825160608101845290546001600160a01b038116808352600160a01b820467ffffffffffffffff1693830193909352600160e01b900460ff1615159281019290925215611d6f579392505050565b611d0a565b505b6040517fdf2d9b4200000000000000000000000000000000000000000000000000000000815260040160405180910390fd5b600780546001600160a01b0383811673ffffffffffffffffffffffffffffffffffffffff19831681179093556040519116919082907f8be0079c531659141344cd1fd0a4f28419497f9722a3daafe3b4186f6b6457e090600090a35050565b60006001600160a01b0384163b15611f2d576040517f150b7a020000000000000000000000000000000000000000000000000000000081526001600160a01b0385169063150b7a0290611e64903390899088908890600401612de1565b6020604051808303816000875af1925050508015611e9f575060408051601f3d908101601f19168201909252611e9c91810190612e30565b60015b611efa573d808015611ecd576040519150601f19603f3d011682016040523d82523d6000602084013e611ed2565b606091505b508051611ef2576040516368d2bf6b60e11b815260040160405180910390fd5b805181602001fd5b6001600160e01b0319167f150b7a0200000000000000000000000000000000000000000000000000000000149050611f31565b5060015b949350505050565b60005b868110156122aa576000888883818110611f5857611f58612c69565b9050602002013590506000878784818110611f7557611f75612c69565b60200291909101359150600a905081611f8f606485612b9e565b611f999190612d6d565b6115e08110611faa57611faa612c69565b602081049091015460ff601f9092166101000a90041615611ff7576040517f81d9ae2500000000000000000000000000000000000000000000000000000000815260040160405180910390fd5b61200360016038612d45565b60ff1682111561203f576040517fd9c0f1d300000000000000000000000000000000000000000000000000000000815260040160405180910390fd5b61204b60016064612d45565b60ff16811115612087576040517f1f81f00900000000000000000000000000000000000000000000000000000000815260040160405180910390fd5b60b961209460ff84612c1d565b815460018101835560009283526020928390209281049092018054601f9093166101000a60ff818102199094169284160291909117905560ba906120d89083612c1d565b815460018101835560009283526020928390209281049092018054601f9093166101000a60ff818102199094169284160291909117905560bb9087878681811061212457612124612c69565b905060200201356121359190612c1d565b8154600181810184556000938452602093849020938204909301805460ff938416601f9093166101000a9283029390920219909116919091179055600a8261217e606486612b9e565b6121889190612d6d565b6115e0811061219957612199612c69565b602091828204019190066101000a81548160ff0219169083151502179055508315612295576009546040517f06daaebd00000000000000000000000000000000000000000000000000000000815260be916000916001600160a01b03909116906306daaebd9061220d908690600401612674565b602060405180830381865afa15801561222a573d6000803e3d6000fd5b505050506040513d601f19601f8201168201806040525081019061224e9190612e5c565b6001600160a01b0316815260208101919091526040016000908120805461ffff169161227983612e7d565b91906101000a81548161ffff021916908361ffff160217905550505b505080806122a290612d52565b915050611f3c565b506122b588876122bf565b5050505050505050565b6122d98282604051806020016040528060008152506122dd565b5050565b610ae083838360016000546001600160801b03166001600160a01b038516612331576040517f2e07630000000000000000000000000000000000000000000000000000000000815260040160405180910390fd5b83612368576040517fb562e8dd00000000000000000000000000000000000000000000000000000000815260040160405180910390fd5b6001600160a01b038516600081815260046020908152604080832080547fffffffffffffffffffffffffffffffff00000000000000000000000000000000811667ffffffffffffffff8083168c0181169182176801000000000000000067ffffffffffffffff1990941690921783900481168c018116909202179091558584526003909252822080546001600160e01b031916909317600160a01b42909216919091021790915581905b858110156124935760405182906001600160a01b038916906000907fddf252ad1be2c89b69c2b068fc378daa952ba7f163c4a11628f55a4df523b3ef908290a483801561246957506124676000888488611e07565b155b15612487576040516368d2bf6b60e11b815260040160405180910390fd5b60019182019101612412565b50600080547fffffffffffffffffffffffffffffffff00000000000000000000000000000000166001600160801b0392909216919091179055611c64565b6001600160e01b031981165b811461195057600080fd5b8035610930816124d1565b60006020828403121561250857612508600080fd5b6000611f3184846124e8565b8015155b82525050565b602081016109308284612514565b60005b8381101561254757818101518382015260200161252f565b838111156114185750506000910152565b6000612562825190565b80845260208401935061257981856020860161252c565b601f01601f19169290920192915050565b6020808252810161259b8184612558565b9392505050565b806124dd565b8035610930816125a2565b6000602082840312156125c8576125c8600080fd5b6000611f3184846125a8565b60006001600160a01b038216610930565b612518816125d4565b6020810161093082846125e5565b6124dd816125d4565b8035610930816125fc565b6000806040838503121561262657612626600080fd5b60006126328585612605565b9250506020612643858286016125a8565b9150509250929050565b60006020828403121561266257612662600080fd5b6000611f318484612605565b80612518565b60208101610930828461266e565b60008060006060848603121561269a5761269a600080fd5b60006126a68686612605565b93505060206126b786828701612605565b92505060406126c8868287016125a8565b9150509250925092565b60ff8116612518565b6020810161093082846126d2565b61ffff8116612518565b6020810161093082846126e9565b8015156124dd565b803561093081612701565b6000806040838503121561272a5761272a600080fd5b60006127368585612605565b925050602061264385828601612709565b60006109306001600160a01b03831661275e565b90565b6001600160a01b031690565b600061093082612747565b60006109308261276a565b61251881612775565b602081016109308284612780565b634e487b7160e01b600052604160045260246000fd5b601f19601f830116810181811067ffffffffffffffff821117156127d3576127d3612797565b6040525050565b60006127e560405190565b90506127f182826127ad565b919050565b600067ffffffffffffffff82111561281057612810612797565b601f19601f83011660200192915050565b82818337506000910152565b600061284061283b846127f6565b6127da565b90508281526020810184848401111561285b5761285b600080fd5b612866848285612821565b509392505050565b600082601f83011261288257612882600080fd5b8135611f3184826020860161282d565b600080600080608085870312156128ab576128ab600080fd5b60006128b78787612605565b94505060206128c887828801612605565b93505060406128d9878288016125a8565b925050606085013567ffffffffffffffff8111156128f9576128f9600080fd5b6129058782880161286e565b91505092959194509250565b60008083601f84011261292657612926600080fd5b50813567ffffffffffffffff81111561294157612941600080fd5b60208301915083602082028301111561295c5761295c600080fd5b9250929050565b6000806000806000806060878903121561297f5761297f600080fd5b863567ffffffffffffffff81111561299957612999600080fd5b6129a589828a01612911565b9650965050602087013567ffffffffffffffff8111156129c7576129c7600080fd5b6129d389828a01612911565b9450945050604087013567ffffffffffffffff8111156129f5576129f5600080fd5b612a0189828a01612911565b92509250509295509295509295565b6001600160801b038116612518565b60608101612a2d8286612a10565b612a3a60208301856126e9565b611f3160408301846126d2565b60ff81166124dd565b803561093081612a47565b60008060408385031215612a7157612a71600080fd5b6000612a7d8585612a50565b925050602061264385828601612a50565b60008060408385031215612aa457612aa4600080fd5b6000612ab08585612605565b925050602061264385828601612605565b634e487b7160e01b600052602260045260246000fd5b600281046001821680612aeb57607f821691505b60208210811415612afe57612afe612ac1565b50919050565b60208082527f4f776e61626c653a2063616c6c6572206973206e6f7420746865206f776e657291019081525b60200190565b6020808252810161093081612b04565b601f8152602081017f5265656e7472616e637947756172643a207265656e7472616e742063616c6c0081529050612b30565b6020808252810161093081612b46565b634e487b7160e01b600052601160045260246000fd5b6000816000190483118215151615612bb857612bb8612b88565b500290565b634e487b7160e01b600052601260045260246000fd5b600082612be257612be2612bbd565b500490565b60408101612bf582856125e5565b61259b602083018461266e565b815b9150600082821015612c1857612c18612b88565b500390565b600082612c2c57612c2c612bbd565b500690565b6001600160801b03811690506001600160801b03821691506000826001600160801b0303821115612c6457612c64612b88565b500190565b634e487b7160e01b600052603260045260246000fd5b600061093061275b60ff841681565b61251881612c7f565b60608101612ca58286612c8e565b612a3a6020830185612c8e565b6000612cc061283b846127f6565b905082815260208101848484011115612cdb57612cdb600080fd5b61286684828561252c565b600082601f830112612cfa57612cfa600080fd5b8151611f31848260208601612cb2565b600060208284031215612d1f57612d1f600080fd5b815167ffffffffffffffff811115612d3957612d39600080fd5b611f3184828501612ce6565b60ff908116908216612c04565b6000600019821415612d6657612d66612b88565b5060010190565b60008219821115612c6457612c64612b88565b6020808252810161093081602681527f4f776e61626c653a206e6577206f776e657220697320746865207a65726f206160208201527f6464726573730000000000000000000000000000000000000000000000000000604082015260600190565b60808101612def82876125e5565b612dfc60208301866125e5565b612e09604083018561266e565b8181036060830152612e1b8184612558565b9695505050505050565b8051610930816124d1565b600060208284031215612e4557612e45600080fd5b6000611f318484612e25565b8051610930816125fc565b600060208284031215612e7157612e71600080fd5b6000611f318484612e51565b61ffff81169050600061ffff821415612d6657612d66612b8856fea2646970667358221220bf6d5c803e1a8352b13048e507cbeccc384bcf7ccc082cae87b0d59b34546a3664736f6c634300080c0033",
  "devdoc": {
    "kind": "dev",
    "methods": {
      "approve(address,uint256)": {
        "details": "See {IERC721-approve}."
      },
      "balanceOf(address)": {
        "details": "See {IERC721-balanceOf}."
      },
      "getApproved(uint256)": {
        "details": "See {IERC721-getApproved}."
      },
      "isApprovedForAll(address,address)": {
        "details": "See {IERC721-isApprovedForAll}."
      },
      "mintAllocation(uint256[],uint256[],uint256[])": {
        "params": {
          "_blitmapIds": "the list of blitmapIds to use, 0 based indexes. On etherscan, this could be e.g. 99,23,87",
          "_paletteOrders": "the order of the mapping for the blitmap color palette. This uint8 is parsed as 4 uint2        and there are consequently only 24 relevant values, any permutation of 0, 1,  2, 3",
          "_toadzIds": "the list of toadzIds to use, 0 based indexes. On etherscan, this could be e.g. 12,53,1"
        }
      },
      "mintPublicSale(uint256[],uint256[],uint256[])": {
        "params": {
          "_blitmapIds": "the list of blitmapIds to use, 0 based indexes. On etherscan, this could be e.g. 99,23,87",
          "_paletteOrders": "the order of the mapping for the blitmap color palette. This uint8 is parsed as 4 uint2        and there are consequently only 24 relevant values, any permutation of 0, 1,  2, 3",
          "_toadzIds": "the list of toadzIds to use, 0 based indexes. On etherscan, this could be e.g. 12,53,1"
        }
      },
      "name()": {
        "details": "See {IERC721Metadata-name}."
      },
      "owner()": {
        "details": "Returns the address of the current owner."
      },
      "ownerOf(uint256)": {
        "details": "See {IERC721-ownerOf}."
      },
      "renounceOwnership()": {
        "details": "Leaves the contract without owner. It will not be possible to call `onlyOwner` functions anymore. Can only be called by the current owner. NOTE: Renouncing ownership will leave the contract without an owner, thereby removing any functionality that is only available to the owner."
      },
      "safeTransferFrom(address,address,uint256)": {
        "details": "See {IERC721-safeTransferFrom}."
      },
      "safeTransferFrom(address,address,uint256,bytes)": {
        "details": "See {IERC721-safeTransferFrom}."
      },
      "setApprovalForAll(address,bool)": {
        "details": "See {IERC721-setApprovalForAll}."
      },
      "supportsInterface(bytes4)": {
        "details": "See {IERC165-supportsInterface}."
      },
      "symbol()": {
        "details": "See {IERC721Metadata-symbol}."
      },
      "tokenByIndex(uint256)": {
        "details": "See {IERC721Enumerable-tokenByIndex}. This read function is O(totalSupply). If calling from a separate contract, be sure to test gas first. It may also degrade with extremely large collection sizes (e.g >> 10000), test for your use case."
      },
      "tokenOfOwnerByIndex(address,uint256)": {
        "details": "See {IERC721Enumerable-tokenOfOwnerByIndex}. This read function is O(totalSupply). If calling from a separate contract, be sure to test gas first. It may also degrade with extremely large collection sizes (e.g >> 10000), test for your use case."
      },
      "totalSupply()": {
        "details": "See {IERC721Enumerable-totalSupply}."
      },
      "transferFrom(address,address,uint256)": {
        "details": "See {IERC721-transferFrom}."
      },
      "transferOwnership(address)": {
        "details": "Transfers ownership of the contract to a new account (`newOwner`). Can only be called by the current owner."
      }
    },
    "version": 1
  },
  "userdoc": {
    "kind": "user",
    "methods": {
      "mintAllocation(uint256[],uint256[],uint256[])": {
        "notice": "Free mint for addresses with an allocation. Lengths should match; at a given index the combination         toadzId, blitmapId and paletteOrder will be used to define the given blitoadz"
      },
      "mintPublicSale(uint256[],uint256[],uint256[])": {
        "notice": "Free mint for addresses with an allocation. Lengths should match; at a given index the combination         toadzId, blitmapId and paletteOrder will be used to define the given blitoadz"
      },
      "tokenURI(uint8,uint8)": {
        "notice": "Retrieve a tokenURI from the combination toadzId, blitmapId"
      },
      "withdrawBlitmapCreator()": {
        "notice": "Withdraw available funds for blitmap creator"
      },
      "withdrawFounder()": {
        "notice": "Withdraw available funds for blitoadz and toadz creators"
      }
    },
    "version": 1
  },
  "storageLayout": {
    "storage": [
      {
        "astId": 3213,
        "contract": "contracts/blitoadz/Blitoadz.sol:Blitoadz",
        "label": "_currentIndex",
        "offset": 0,
        "slot": "0",
        "type": "t_uint128"
      },
      {
        "astId": 3215,
        "contract": "contracts/blitoadz/Blitoadz.sol:Blitoadz",
        "label": "_burnCounter",
        "offset": 16,
        "slot": "0",
        "type": "t_uint128"
      },
      {
        "astId": 3217,
        "contract": "contracts/blitoadz/Blitoadz.sol:Blitoadz",
        "label": "_name",
        "offset": 0,
        "slot": "1",
        "type": "t_string_storage"
      },
      {
        "astId": 3219,
        "contract": "contracts/blitoadz/Blitoadz.sol:Blitoadz",
        "label": "_symbol",
        "offset": 0,
        "slot": "2",
        "type": "t_string_storage"
      },
      {
        "astId": 3224,
        "contract": "contracts/blitoadz/Blitoadz.sol:Blitoadz",
        "label": "_ownerships",
        "offset": 0,
        "slot": "3",
        "type": "t_mapping(t_uint256,t_struct(TokenOwnership)3204_storage)"
      },
      {
        "astId": 3229,
        "contract": "contracts/blitoadz/Blitoadz.sol:Blitoadz",
        "label": "_addressData",
        "offset": 0,
        "slot": "4",
        "type": "t_mapping(t_address,t_struct(AddressData)3211_storage)"
      },
      {
        "astId": 3233,
        "contract": "contracts/blitoadz/Blitoadz.sol:Blitoadz",
        "label": "_tokenApprovals",
        "offset": 0,
        "slot": "5",
        "type": "t_mapping(t_uint256,t_address)"
      },
      {
        "astId": 3239,
        "contract": "contracts/blitoadz/Blitoadz.sol:Blitoadz",
        "label": "_operatorApprovals",
        "offset": 0,
        "slot": "6",
        "type": "t_mapping(t_address,t_mapping(t_address,t_bool))"
      },
      {
        "astId": 225,
        "contract": "contracts/blitoadz/Blitoadz.sol:Blitoadz",
        "label": "_owner",
        "offset": 0,
        "slot": "7",
        "type": "t_address"
      },
      {
        "astId": 333,
        "contract": "contracts/blitoadz/Blitoadz.sol:Blitoadz",
        "label": "_status",
        "offset": 0,
        "slot": "8",
        "type": "t_uint256"
      },
      {
        "astId": 1255,
        "contract": "contracts/blitoadz/Blitoadz.sol:Blitoadz",
        "label": "blitmap",
        "offset": 0,
        "slot": "9",
        "type": "t_contract(IBlitmap)2839"
      },
      {
        "astId": 1259,
        "contract": "contracts/blitoadz/Blitoadz.sol:Blitoadz",
        "label": "blitoadzExist",
        "offset": 0,
        "slot": "10",
        "type": "t_array(t_bool)5600_storage"
      },
      {
        "astId": 1262,
        "contract": "contracts/blitoadz/Blitoadz.sol:Blitoadz",
        "label": "toadzIds",
        "offset": 0,
        "slot": "185",
        "type": "t_array(t_uint8)dyn_storage"
      },
      {
        "astId": 1265,
        "contract": "contracts/blitoadz/Blitoadz.sol:Blitoadz",
        "label": "blitmapIds",
        "offset": 0,
        "slot": "186",
        "type": "t_array(t_uint8)dyn_storage"
      },
      {
        "astId": 1268,
        "contract": "contracts/blitoadz/Blitoadz.sol:Blitoadz",
        "label": "palettes",
        "offset": 0,
        "slot": "187",
        "type": "t_array(t_uint8)dyn_storage"
      },
      {
        "astId": 1270,
        "contract": "contracts/blitoadz/Blitoadz.sol:Blitoadz",
        "label": "blitmapCreatorShares",
        "offset": 0,
        "slot": "188",
        "type": "t_uint256"
      },
      {
        "astId": 1275,
        "contract": "contracts/blitoadz/Blitoadz.sol:Blitoadz",
        "label": "founders",
        "offset": 0,
        "slot": "189",
        "type": "t_mapping(t_address,t_struct(Founder)1288_storage)"
      },
      {
        "astId": 1279,
        "contract": "contracts/blitoadz/Blitoadz.sol:Blitoadz",
        "label": "creatorAvailableAmount",
        "offset": 0,
        "slot": "190",
        "type": "t_mapping(t_address,t_uint16)"
      },
      {
        "astId": 1281,
        "contract": "contracts/blitoadz/Blitoadz.sol:Blitoadz",
        "label": "receivedAmount",
        "offset": 0,
        "slot": "191",
        "type": "t_uint256"
      },
      {
        "astId": 1310,
        "contract": "contracts/blitoadz/Blitoadz.sol:Blitoadz",
        "label": "publicSaleStartTimestamp",
        "offset": 0,
        "slot": "192",
        "type": "t_uint256"
      },
      {
        "astId": 1365,
        "contract": "contracts/blitoadz/Blitoadz.sol:Blitoadz",
        "label": "renderingContractAddress",
        "offset": 0,
        "slot": "193",
        "type": "t_address"
      },
      {
        "astId": 1368,
        "contract": "contracts/blitoadz/Blitoadz.sol:Blitoadz",
        "label": "renderer",
        "offset": 0,
        "slot": "194",
        "type": "t_contract(IBlitoadzRenderer)2853"
      }
    ],
    "types": {
      "t_address": {
        "encoding": "inplace",
        "label": "address",
        "numberOfBytes": "20"
      },
      "t_array(t_bool)5600_storage": {
        "base": "t_bool",
        "encoding": "inplace",
        "label": "bool[5600]",
        "numberOfBytes": "5600"
      },
      "t_array(t_uint8)dyn_storage": {
        "base": "t_uint8",
        "encoding": "dynamic_array",
        "label": "uint8[]",
        "numberOfBytes": "32"
      },
      "t_bool": {
        "encoding": "inplace",
        "label": "bool",
        "numberOfBytes": "1"
      },
      "t_contract(IBlitmap)2839": {
        "encoding": "inplace",
        "label": "contract IBlitmap",
        "numberOfBytes": "20"
      },
      "t_contract(IBlitoadzRenderer)2853": {
        "encoding": "inplace",
        "label": "contract IBlitoadzRenderer",
        "numberOfBytes": "20"
      },
      "t_mapping(t_address,t_bool)": {
        "encoding": "mapping",
        "key": "t_address",
        "label": "mapping(address => bool)",
        "numberOfBytes": "32",
        "value": "t_bool"
      },
      "t_mapping(t_address,t_mapping(t_address,t_bool))": {
        "encoding": "mapping",
        "key": "t_address",
        "label": "mapping(address => mapping(address => bool))",
        "numberOfBytes": "32",
        "value": "t_mapping(t_address,t_bool)"
      },
      "t_mapping(t_address,t_struct(AddressData)3211_storage)": {
        "encoding": "mapping",
        "key": "t_address",
        "label": "mapping(address => struct ERC721A.AddressData)",
        "numberOfBytes": "32",
        "value": "t_struct(AddressData)3211_storage"
      },
      "t_mapping(t_address,t_struct(Founder)1288_storage)": {
        "encoding": "mapping",
        "key": "t_address",
        "label": "mapping(address => struct Blitoadz.Founder)",
        "numberOfBytes": "32",
        "value": "t_struct(Founder)1288_storage"
      },
      "t_mapping(t_address,t_uint16)": {
        "encoding": "mapping",
        "key": "t_address",
        "label": "mapping(address => uint16)",
        "numberOfBytes": "32",
        "value": "t_uint16"
      },
      "t_mapping(t_uint256,t_address)": {
        "encoding": "mapping",
        "key": "t_uint256",
        "label": "mapping(uint256 => address)",
        "numberOfBytes": "32",
        "value": "t_address"
      },
      "t_mapping(t_uint256,t_struct(TokenOwnership)3204_storage)": {
        "encoding": "mapping",
        "key": "t_uint256",
        "label": "mapping(uint256 => struct ERC721A.TokenOwnership)",
        "numberOfBytes": "32",
        "value": "t_struct(TokenOwnership)3204_storage"
      },
      "t_string_storage": {
        "encoding": "bytes",
        "label": "string",
        "numberOfBytes": "32"
      },
      "t_struct(AddressData)3211_storage": {
        "encoding": "inplace",
        "label": "struct ERC721A.AddressData",
        "members": [
          {
            "astId": 3206,
            "contract": "contracts/blitoadz/Blitoadz.sol:Blitoadz",
            "label": "balance",
            "offset": 0,
            "slot": "0",
            "type": "t_uint64"
          },
          {
            "astId": 3208,
            "contract": "contracts/blitoadz/Blitoadz.sol:Blitoadz",
            "label": "numberMinted",
            "offset": 8,
            "slot": "0",
            "type": "t_uint64"
          },
          {
            "astId": 3210,
            "contract": "contracts/blitoadz/Blitoadz.sol:Blitoadz",
            "label": "numberBurned",
            "offset": 16,
            "slot": "0",
            "type": "t_uint64"
          }
        ],
        "numberOfBytes": "32"
      },
      "t_struct(Founder)1288_storage": {
        "encoding": "inplace",
        "label": "struct Blitoadz.Founder",
        "members": [
          {
            "astId": 1283,
            "contract": "contracts/blitoadz/Blitoadz.sol:Blitoadz",
            "label": "withdrawnAmount",
            "offset": 0,
            "slot": "0",
            "type": "t_uint128"
          },
          {
            "astId": 1285,
            "contract": "contracts/blitoadz/Blitoadz.sol:Blitoadz",
            "label": "shares",
            "offset": 16,
            "slot": "0",
            "type": "t_uint16"
          },
          {
            "astId": 1287,
            "contract": "contracts/blitoadz/Blitoadz.sol:Blitoadz",
            "label": "remainingAllocation",
            "offset": 18,
            "slot": "0",
            "type": "t_uint8"
          }
        ],
        "numberOfBytes": "32"
      },
      "t_struct(TokenOwnership)3204_storage": {
        "encoding": "inplace",
        "label": "struct ERC721A.TokenOwnership",
        "members": [
          {
            "astId": 3199,
            "contract": "contracts/blitoadz/Blitoadz.sol:Blitoadz",
            "label": "addr",
            "offset": 0,
            "slot": "0",
            "type": "t_address"
          },
          {
            "astId": 3201,
            "contract": "contracts/blitoadz/Blitoadz.sol:Blitoadz",
            "label": "startTimestamp",
            "offset": 20,
            "slot": "0",
            "type": "t_uint64"
          },
          {
            "astId": 3203,
            "contract": "contracts/blitoadz/Blitoadz.sol:Blitoadz",
            "label": "burned",
            "offset": 28,
            "slot": "0",
            "type": "t_bool"
          }
        ],
        "numberOfBytes": "32"
      },
      "t_uint128": {
        "encoding": "inplace",
        "label": "uint128",
        "numberOfBytes": "16"
      },
      "t_uint16": {
        "encoding": "inplace",
        "label": "uint16",
        "numberOfBytes": "2"
      },
      "t_uint256": {
        "encoding": "inplace",
        "label": "uint256",
        "numberOfBytes": "32"
      },
      "t_uint64": {
        "encoding": "inplace",
        "label": "uint64",
        "numberOfBytes": "8"
      },
      "t_uint8": {
        "encoding": "inplace",
        "label": "uint8",
        "numberOfBytes": "1"
      }
    }
  }
}