{
  "address": "0x7d47cdf4D86E263967a4ca1576319acB6b880e8B",
  "abi": [
    {
      "inputs": [
        {
          "internalType": "address",
          "name": "_blitoadzRendererV1",
          "type": "address"
        }
      ],
      "stateMutability": "nonpayable",
      "type": "constructor"
    },
    {
      "anonymous": false,
      "inputs": [
        {
          "indexed": true,
          "internalType": "address",
          "name": "previousOwner",
          "type": "address"
        },
        {
          "indexed": true,
          "internalType": "address",
          "name": "newOwner",
          "type": "address"
        }
      ],
      "name": "OwnershipTransferred",
      "type": "event"
    },
    {
      "inputs": [],
      "name": "owner",
      "outputs": [
        {
          "internalType": "address",
          "name": "",
          "type": "address"
        }
      ],
      "stateMutability": "view",
      "type": "function"
    },
    {
      "inputs": [],
      "name": "renounceOwnership",
      "outputs": [],
      "stateMutability": "nonpayable",
      "type": "function"
    },
    {
      "inputs": [
        {
          "internalType": "uint256",
          "name": "toadzId",
          "type": "uint256"
        },
        {
          "internalType": "uint256",
          "name": "blitmapId",
          "type": "uint256"
        },
        {
          "internalType": "uint8",
          "name": "paletteOrder",
          "type": "uint8"
        }
      ],
      "name": "tokenURI",
      "outputs": [
        {
          "internalType": "string",
          "name": "",
          "type": "string"
        }
      ],
      "stateMutability": "view",
      "type": "function"
    },
    {
      "inputs": [
        {
          "internalType": "address",
          "name": "newOwner",
          "type": "address"
        }
      ],
      "name": "transferOwnership",
      "outputs": [],
      "stateMutability": "nonpayable",
      "type": "function"
    }
  ],
  "transactionHash": "0x0507423f3af03b38d564ef2cf8e0fc8b3ea076a4daa4b81f58307e56fcece16e",
  "args": [
    "0x9C6B3486EeFBA5F0a27442238123CC5dFBfD5B2C"
  ],
  "numDeployments": 1,
  "solcInputHash": "43662f5dca81b902d026b61dcc7997b8",
  "bytecode": "0x608060405234801561001057600080fd5b506040516109cf3803806109cf83398101604081905261002f916100e2565b6100383361005d565b600180546001600160a01b0319166001600160a01b039290921691909117905561010b565b600080546001600160a01b038381166001600160a01b0319831681178455604051919092169283917f8be0079c531659141344cd1fd0a4f28419497f9722a3daafe3b4186f6b6457e09190a35050565b60006001600160a01b0382165b92915050565b6100c9816100ad565b81146100d457600080fd5b50565b80516100ba816100c0565b6000602082840312156100f7576100f7600080fd5b600061010384846100d7565b949350505050565b6108b58061011a6000396000f3fe608060405234801561001057600080fd5b506004361061004c5760003560e01c8063715018a6146100515780638da5cb5b1461005b578063bd1798f61461008a578063f2fde38b146100aa575b600080fd5b6100596100bd565b005b60005473ffffffffffffffffffffffffffffffffffffffff1660405161008191906103e1565b60405180910390f35b61009d61009836600461041b565b610109565b60405161008191906104cd565b6100596100b83660046104f9565b6101ff565b60005473ffffffffffffffffffffffffffffffffffffffff1633146100fd5760405162461bcd60e51b81526004016100f490610554565b60405180910390fd5b6101076000610275565b565b6001546040517fbd1798f600000000000000000000000000000000000000000000000000000000815260609160009173ffffffffffffffffffffffffffffffffffffffff9091169063bd1798f69061016990889088908890600401610573565b600060405180830381865afa158015610186573d6000803e3d6000fd5b505050506040513d6000823e601f3d908101601f191682016040526101ae91908101906106a3565b90506101bd81600060186102ea565b6101d58260228085516101d0919061070d565b6102ea565b6040516020016101e6929190610746565b6040516020818303038152906040529150509392505050565b60005473ffffffffffffffffffffffffffffffffffffffff1633146102365760405162461bcd60e51b81526004016100f490610554565b73ffffffffffffffffffffffffffffffffffffffff81166102695760405162461bcd60e51b81526004016100f490610782565b61027281610275565b50565b6000805473ffffffffffffffffffffffffffffffffffffffff8381167fffffffffffffffffffffffff0000000000000000000000000000000000000000831681178455604051919092169283917f8be0079c531659141344cd1fd0a4f28419497f9722a3daafe3b4186f6b6457e09190a35050565b6060816102f881601f6107e3565b10156103165760405162461bcd60e51b81526004016100f49061082d565b61032082846107e3565b845110156103405760405162461bcd60e51b81526004016100f49061086f565b60608215801561035f57604051915060008252602082016040526103a9565b6040519150601f8416801560200281840101858101878315602002848b0101015b81831015610398578051835260209283019201610380565b5050858452601f01601f1916604052505b50949350505050565b600073ffffffffffffffffffffffffffffffffffffffff82165b92915050565b6103db816103b2565b82525050565b602081016103cc82846103d2565b805b811461027257600080fd5b80356103cc816103ef565b60ff81166103f1565b80356103cc81610407565b60008060006060848603121561043357610433600080fd5b600061043f86866103fc565b9350506020610450868287016103fc565b925050604061046186828701610410565b9150509250925092565b60005b8381101561048657818101518382015260200161046e565b83811115610495576000848401525b50505050565b60006104a5825190565b8084526020840193506104bc81856020860161046b565b601f01601f19169290920192915050565b602080825281016104de818461049b565b9392505050565b6103f1816103b2565b80356103cc816104e5565b60006020828403121561050e5761050e600080fd5b600061051a84846104ee565b949350505050565b60208082527f4f776e61626c653a2063616c6c6572206973206e6f7420746865206f776e657291019081525b60200190565b602080825281016103cc81610522565b806103db565b60ff81166103db565b606081016105818286610564565b61058e6020830185610564565b61051a604083018461056a565b7f4e487b7100000000000000000000000000000000000000000000000000000000600052604160045260246000fd5b601f19601f830116810181811067ffffffffffffffff821117156105f0576105f061059b565b6040525050565b600061060260405190565b905061060e82826105ca565b919050565b600067ffffffffffffffff82111561062d5761062d61059b565b601f19601f83011660200192915050565b600061065161064c84610613565b6105f7565b90508281526020810184848401111561066c5761066c600080fd5b61067784828561046b565b509392505050565b600082601f83011261069357610693600080fd5b815161051a84826020860161063e565b6000602082840312156106b8576106b8600080fd5b815167ffffffffffffffff8111156106d2576106d2600080fd5b61051a8482850161067f565b7f4e487b7100000000000000000000000000000000000000000000000000000000600052601160045260246000fd5b60008282101561071f5761071f6106de565b500390565b600061072e825190565b61073c81856020860161046b565b9290920192915050565b6107508184610724565b7f696d616765000000000000000000000000000000000000000000000000000000815290506005016104de8183610724565b602080825281016103cc81602681527f4f776e61626c653a206e6577206f776e657220697320746865207a65726f206160208201527f6464726573730000000000000000000000000000000000000000000000000000604082015260600190565b600082198211156107f6576107f66106de565b500190565b600e8152602081017f736c6963655f6f766572666c6f770000000000000000000000000000000000008152905061054e565b602080825281016103cc816107fb565b60118152602081017f736c6963655f6f75744f66426f756e64730000000000000000000000000000008152905061054e565b602080825281016103cc8161083d56fea26469706673582212202942f9895b1e71ef0c8a4664076cbba9ab843a6bb0e2e360679e5bdfa5678bbd64736f6c634300080c0033",
  "devdoc": {
    "kind": "dev",
    "methods": {
      "owner()": {
        "details": "Returns the address of the current owner."
      },
      "renounceOwnership()": {
        "details": "Leaves the contract without owner. It will not be possible to call `onlyOwner` functions anymore. Can only be called by the current owner. NOTE: Renouncing ownership will leave the contract without an owner, thereby removing any functionality that is only available to the owner."
      },
      "transferOwnership(address)": {
        "details": "Transfers ownership of the contract to a new account (`newOwner`). Can only be called by the current owner."
      }
    },
    "version": 1
  },
  "userdoc": {
    "kind": "user",
    "methods": {},
    "version": 1
  },
  "storageLayout": {
    "storage": [
      {
        "astId": 225,
        "contract": "contracts/blitoadz/BlitoadzRendererV2.sol:BlitoadzRendererV2",
        "label": "_owner",
        "offset": 0,
        "slot": "0",
        "type": "t_address"
      },
      {
        "astId": 2827,
        "contract": "contracts/blitoadz/BlitoadzRendererV2.sol:BlitoadzRendererV2",
        "label": "blitoadzRendererV1",
        "offset": 0,
        "slot": "1",
        "type": "t_contract(IBlitoadzRenderer)2935"
      }
    ],
    "types": {
      "t_address": {
        "encoding": "inplace",
        "label": "address",
        "numberOfBytes": "20"
      },
      "t_contract(IBlitoadzRenderer)2935": {
        "encoding": "inplace",
        "label": "contract IBlitoadzRenderer",
        "numberOfBytes": "20"
      }
    }
  }
}