{
  "address": "0x2eFa2743B863F3Bd6f624Ac0d58445bC5fB62bf6",
  "abi": [
    {
      "inputs": [
        {
          "internalType": "string",
          "name": "name_",
          "type": "string"
        },
        {
          "internalType": "string",
          "name": "symbol_",
          "type": "string"
        },
        {
          "internalType": "address",
          "name": "_rendererAddress",
          "type": "address"
        },
        {
          "internalType": "address",
          "name": "_opensea",
          "type": "address"
        },
        {
          "internalType": "address",
          "name": "_looksrare",
          "type": "address"
        }
      ],
      "stateMutability": "nonpayable",
      "type": "constructor"
    },
    {
      "inputs": [],
      "name": "ApprovalCallerNotOwnerNorApproved",
      "type": "error"
    },
    {
      "inputs": [],
      "name": "ApprovalQueryForNonexistentToken",
      "type": "error"
    },
    {
      "inputs": [],
      "name": "ApprovalToCurrentOwner",
      "type": "error"
    },
    {
      "inputs": [],
      "name": "ApproveToCaller",
      "type": "error"
    },
    {
      "inputs": [],
      "name": "BalanceQueryForZeroAddress",
      "type": "error"
    },
    {
      "inputs": [],
      "name": "MintToZeroAddress",
      "type": "error"
    },
    {
      "inputs": [],
      "name": "MintZeroQuantity",
      "type": "error"
    },
    {
      "inputs": [],
      "name": "OwnerIndexOutOfBounds",
      "type": "error"
    },
    {
      "inputs": [],
      "name": "OwnerQueryForNonexistentToken",
      "type": "error"
    },
    {
      "inputs": [],
      "name": "TokenIndexOutOfBounds",
      "type": "error"
    },
    {
      "inputs": [],
      "name": "TransferCallerNotOwnerNorApproved",
      "type": "error"
    },
    {
      "inputs": [],
      "name": "TransferFromIncorrectOwner",
      "type": "error"
    },
    {
      "inputs": [],
      "name": "TransferToNonERC721ReceiverImplementer",
      "type": "error"
    },
    {
      "inputs": [],
      "name": "TransferToZeroAddress",
      "type": "error"
    },
    {
      "anonymous": false,
      "inputs": [
        {
          "indexed": true,
          "internalType": "address",
          "name": "owner",
          "type": "address"
        },
        {
          "indexed": true,
          "internalType": "address",
          "name": "approved",
          "type": "address"
        },
        {
          "indexed": true,
          "internalType": "uint256",
          "name": "tokenId",
          "type": "uint256"
        }
      ],
      "name": "Approval",
      "type": "event"
    },
    {
      "anonymous": false,
      "inputs": [
        {
          "indexed": true,
          "internalType": "address",
          "name": "owner",
          "type": "address"
        },
        {
          "indexed": true,
          "internalType": "address",
          "name": "operator",
          "type": "address"
        },
        {
          "indexed": false,
          "internalType": "bool",
          "name": "approved",
          "type": "bool"
        }
      ],
      "name": "ApprovalForAll",
      "type": "event"
    },
    {
      "anonymous": false,
      "inputs": [
        {
          "indexed": true,
          "internalType": "address",
          "name": "previousOwner",
          "type": "address"
        },
        {
          "indexed": true,
          "internalType": "address",
          "name": "newOwner",
          "type": "address"
        }
      ],
      "name": "OwnershipTransferred",
      "type": "event"
    },
    {
      "anonymous": false,
      "inputs": [
        {
          "indexed": true,
          "internalType": "address",
          "name": "from",
          "type": "address"
        },
        {
          "indexed": true,
          "internalType": "address",
          "name": "to",
          "type": "address"
        },
        {
          "indexed": true,
          "internalType": "uint256",
          "name": "tokenId",
          "type": "uint256"
        }
      ],
      "name": "Transfer",
      "type": "event"
    },
    {
      "inputs": [],
      "name": "BLITMAP_COUNT",
      "outputs": [
        {
          "internalType": "uint8",
          "name": "",
          "type": "uint8"
        }
      ],
      "stateMutability": "view",
      "type": "function"
    },
    {
      "inputs": [],
      "name": "BLITOADZ_COUNT",
      "outputs": [
        {
          "internalType": "uint16",
          "name": "",
          "type": "uint16"
        }
      ],
      "stateMutability": "view",
      "type": "function"
    },
    {
      "inputs": [],
      "name": "MINT_PUBLIC_PRICE",
      "outputs": [
        {
          "internalType": "uint256",
          "name": "",
          "type": "uint256"
        }
      ],
      "stateMutability": "view",
      "type": "function"
    },
    {
      "inputs": [],
      "name": "TOADZ_COUNT",
      "outputs": [
        {
          "internalType": "uint8",
          "name": "",
          "type": "uint8"
        }
      ],
      "stateMutability": "view",
      "type": "function"
    },
    {
      "inputs": [
        {
          "internalType": "address",
          "name": "to",
          "type": "address"
        },
        {
          "internalType": "uint256",
          "name": "tokenId",
          "type": "uint256"
        }
      ],
      "name": "approve",
      "outputs": [],
      "stateMutability": "nonpayable",
      "type": "function"
    },
    {
      "inputs": [
        {
          "internalType": "address",
          "name": "owner",
          "type": "address"
        }
      ],
      "name": "balanceOf",
      "outputs": [
        {
          "internalType": "uint256",
          "name": "",
          "type": "uint256"
        }
      ],
      "stateMutability": "view",
      "type": "function"
    },
    {
      "inputs": [
        {
          "internalType": "uint256",
          "name": "",
          "type": "uint256"
        }
      ],
      "name": "blitoadz",
      "outputs": [
        {
          "internalType": "uint8",
          "name": "",
          "type": "uint8"
        }
      ],
      "stateMutability": "view",
      "type": "function"
    },
    {
      "inputs": [
        {
          "internalType": "uint256",
          "name": "",
          "type": "uint256"
        }
      ],
      "name": "blitoadzExist",
      "outputs": [
        {
          "internalType": "bool",
          "name": "",
          "type": "bool"
        }
      ],
      "stateMutability": "view",
      "type": "function"
    },
    {
      "inputs": [
        {
          "internalType": "uint256",
          "name": "_tokenId",
          "type": "uint256"
        }
      ],
      "name": "exists",
      "outputs": [
        {
          "internalType": "bool",
          "name": "",
          "type": "bool"
        }
      ],
      "stateMutability": "view",
      "type": "function"
    },
    {
      "inputs": [
        {
          "internalType": "address",
          "name": "proxyAddress",
          "type": "address"
        }
      ],
      "name": "flipProxyState",
      "outputs": [],
      "stateMutability": "nonpayable",
      "type": "function"
    },
    {
      "inputs": [
        {
          "internalType": "uint256",
          "name": "tokenId",
          "type": "uint256"
        }
      ],
      "name": "getApproved",
      "outputs": [
        {
          "internalType": "address",
          "name": "",
          "type": "address"
        }
      ],
      "stateMutability": "view",
      "type": "function"
    },
    {
      "inputs": [
        {
          "internalType": "address",
          "name": "owner",
          "type": "address"
        },
        {
          "internalType": "address",
          "name": "operator",
          "type": "address"
        }
      ],
      "name": "isApprovedForAll",
      "outputs": [
        {
          "internalType": "bool",
          "name": "",
          "type": "bool"
        }
      ],
      "stateMutability": "view",
      "type": "function"
    },
    {
      "inputs": [],
      "name": "isPublicSaleOpen",
      "outputs": [
        {
          "internalType": "bool",
          "name": "",
          "type": "bool"
        }
      ],
      "stateMutability": "view",
      "type": "function"
    },
    {
      "inputs": [],
      "name": "looksrare",
      "outputs": [
        {
          "internalType": "address",
          "name": "",
          "type": "address"
        }
      ],
      "stateMutability": "view",
      "type": "function"
    },
    {
      "inputs": [
        {
          "internalType": "uint256[]",
          "name": "toadzIds",
          "type": "uint256[]"
        },
        {
          "internalType": "uint256[]",
          "name": "blitmapIds",
          "type": "uint256[]"
        }
      ],
      "name": "mintPublicSale",
      "outputs": [],
      "stateMutability": "payable",
      "type": "function"
    },
    {
      "inputs": [],
      "name": "name",
      "outputs": [
        {
          "internalType": "string",
          "name": "",
          "type": "string"
        }
      ],
      "stateMutability": "view",
      "type": "function"
    },
    {
      "inputs": [],
      "name": "openPublicSale",
      "outputs": [],
      "stateMutability": "nonpayable",
      "type": "function"
    },
    {
      "inputs": [],
      "name": "opensea",
      "outputs": [
        {
          "internalType": "address",
          "name": "",
          "type": "address"
        }
      ],
      "stateMutability": "view",
      "type": "function"
    },
    {
      "inputs": [],
      "name": "owner",
      "outputs": [
        {
          "internalType": "address",
          "name": "",
          "type": "address"
        }
      ],
      "stateMutability": "view",
      "type": "function"
    },
    {
      "inputs": [
        {
          "internalType": "uint256",
          "name": "tokenId",
          "type": "uint256"
        }
      ],
      "name": "ownerOf",
      "outputs": [
        {
          "internalType": "address",
          "name": "",
          "type": "address"
        }
      ],
      "stateMutability": "view",
      "type": "function"
    },
    {
      "inputs": [],
      "name": "publicSaleStartTimestamp",
      "outputs": [
        {
          "internalType": "uint256",
          "name": "",
          "type": "uint256"
        }
      ],
      "stateMutability": "view",
      "type": "function"
    },
    {
      "inputs": [],
      "name": "renderingContractAddress",
      "outputs": [
        {
          "internalType": "address",
          "name": "",
          "type": "address"
        }
      ],
      "stateMutability": "view",
      "type": "function"
    },
    {
      "inputs": [],
      "name": "renounceOwnership",
      "outputs": [],
      "stateMutability": "nonpayable",
      "type": "function"
    },
    {
      "inputs": [
        {
          "internalType": "address",
          "name": "from",
          "type": "address"
        },
        {
          "internalType": "address",
          "name": "to",
          "type": "address"
        },
        {
          "internalType": "uint256",
          "name": "tokenId",
          "type": "uint256"
        }
      ],
      "name": "safeTransferFrom",
      "outputs": [],
      "stateMutability": "nonpayable",
      "type": "function"
    },
    {
      "inputs": [
        {
          "internalType": "address",
          "name": "from",
          "type": "address"
        },
        {
          "internalType": "address",
          "name": "to",
          "type": "address"
        },
        {
          "internalType": "uint256",
          "name": "tokenId",
          "type": "uint256"
        },
        {
          "internalType": "bytes",
          "name": "_data",
          "type": "bytes"
        }
      ],
      "name": "safeTransferFrom",
      "outputs": [],
      "stateMutability": "nonpayable",
      "type": "function"
    },
    {
      "inputs": [
        {
          "internalType": "address",
          "name": "operator",
          "type": "address"
        },
        {
          "internalType": "bool",
          "name": "approved",
          "type": "bool"
        }
      ],
      "name": "setApprovalForAll",
      "outputs": [],
      "stateMutability": "nonpayable",
      "type": "function"
    },
    {
      "inputs": [
        {
          "internalType": "address",
          "name": "looksrare_",
          "type": "address"
        }
      ],
      "name": "setLooksrare",
      "outputs": [],
      "stateMutability": "nonpayable",
      "type": "function"
    },
    {
      "inputs": [
        {
          "internalType": "address",
          "name": "opensea_",
          "type": "address"
        }
      ],
      "name": "setOpensea",
      "outputs": [],
      "stateMutability": "nonpayable",
      "type": "function"
    },
    {
      "inputs": [
        {
          "internalType": "address",
          "name": "_renderingContractAddress",
          "type": "address"
        }
      ],
      "name": "setRenderingContractAddress",
      "outputs": [],
      "stateMutability": "nonpayable",
      "type": "function"
    },
    {
      "inputs": [
        {
          "internalType": "bytes4",
          "name": "interfaceId",
          "type": "bytes4"
        }
      ],
      "name": "supportsInterface",
      "outputs": [
        {
          "internalType": "bool",
          "name": "",
          "type": "bool"
        }
      ],
      "stateMutability": "view",
      "type": "function"
    },
    {
      "inputs": [],
      "name": "symbol",
      "outputs": [
        {
          "internalType": "string",
          "name": "",
          "type": "string"
        }
      ],
      "stateMutability": "view",
      "type": "function"
    },
    {
      "inputs": [
        {
          "internalType": "uint256",
          "name": "index",
          "type": "uint256"
        }
      ],
      "name": "tokenByIndex",
      "outputs": [
        {
          "internalType": "uint256",
          "name": "",
          "type": "uint256"
        }
      ],
      "stateMutability": "view",
      "type": "function"
    },
    {
      "inputs": [
        {
          "internalType": "address",
          "name": "owner",
          "type": "address"
        },
        {
          "internalType": "uint256",
          "name": "index",
          "type": "uint256"
        }
      ],
      "name": "tokenOfOwnerByIndex",
      "outputs": [
        {
          "internalType": "uint256",
          "name": "",
          "type": "uint256"
        }
      ],
      "stateMutability": "view",
      "type": "function"
    },
    {
      "inputs": [
        {
          "internalType": "uint256",
          "name": "_tokenId",
          "type": "uint256"
        }
      ],
      "name": "tokenURI",
      "outputs": [
        {
          "internalType": "string",
          "name": "",
          "type": "string"
        }
      ],
      "stateMutability": "view",
      "type": "function"
    },
    {
      "inputs": [],
      "name": "totalSupply",
      "outputs": [
        {
          "internalType": "uint256",
          "name": "",
          "type": "uint256"
        }
      ],
      "stateMutability": "view",
      "type": "function"
    },
    {
      "inputs": [
        {
          "internalType": "address",
          "name": "from",
          "type": "address"
        },
        {
          "internalType": "address",
          "name": "to",
          "type": "address"
        },
        {
          "internalType": "uint256",
          "name": "tokenId",
          "type": "uint256"
        }
      ],
      "name": "transferFrom",
      "outputs": [],
      "stateMutability": "nonpayable",
      "type": "function"
    },
    {
      "inputs": [
        {
          "internalType": "address",
          "name": "newOwner",
          "type": "address"
        }
      ],
      "name": "transferOwnership",
      "outputs": [],
      "stateMutability": "nonpayable",
      "type": "function"
    },
    {
      "inputs": [],
      "name": "withdraw",
      "outputs": [],
      "stateMutability": "nonpayable",
      "type": "function"
    },
    {
      "stateMutability": "payable",
      "type": "receive"
    }
  ],
  "transactionHash": "0x4b66a5c0d168fde1932aec8b2219fa62977c76e6ee015745c45ce7b1eed1d5a2",
  "args": [
    "Blitoadz",
    "BLTZ",
    "0x824d304b7C17FF1E03bEA9b0f752BA9A2aff3426",
    "0xf57b2c51ded3a29e6891aba85459d600256cf317",
    "0x3f65a762f15d01809cdc6b43d8849ff24949c86a"
  ],
  "numDeployments": 1,
  "solcInputHash": "8c87973c3c7b130a1df380bb754f09a9",
  "bytecode": "0x60806040523480156200001157600080fd5b5060405162002d7038038062002d7083398101604081905262000034916200039b565b8451859085906200004d9060019060208501906200017e565b508051620000639060029060208401906200017e565b505050620000806200007a620000c660201b60201c565b620000ca565b600160085562000090836200011c565b60ba80546001600160a01b039384166001600160a01b03199182161790915560bb805492909316911617905550620004da915050565b3390565b600780546001600160a01b038381166001600160a01b0319831681179093556040519116919082907f8be0079c531659141344cd1fd0a4f28419497f9722a3daafe3b4186f6b6457e090600090a35050565b6007546001600160a01b03163314620001525760405162461bcd60e51b8152600401620001499062000458565b60405180910390fd5b60bd80546001600160a01b039092166001600160a01b0319928316811790915560be8054909216179055565b8280546200018c90620004a9565b90600052602060002090601f016020900481019282620001b05760008555620001fb565b82601f10620001cb57805160ff1916838001178555620001fb565b82800160010185558215620001fb579182015b82811115620001fb578251825591602001919060010190620001de565b50620002099291506200020d565b5090565b5b808211156200020957600081556001016200020e565b634e487b7160e01b600052604160045260246000fd5b601f19601f83011681016001600160401b038111828210171562000262576200026262000224565b6040525050565b60006200027560405190565b90506200028382826200023a565b919050565b60006001600160401b03821115620002a457620002a462000224565b601f19601f83011660200192915050565b60005b83811015620002d2578181015183820152602001620002b8565b83811115620002e2576000848401525b50505050565b6000620002ff620002f98462000288565b62000269565b9050828152602081018484840111156200031c576200031c600080fd5b62000329848285620002b5565b509392505050565b600082601f830112620003475762000347600080fd5b815162000359848260208601620002e8565b949350505050565b60006001600160a01b0382165b92915050565b6200037f8162000361565b81146200038b57600080fd5b50565b80516200036e8162000374565b600080600080600060a08688031215620003b857620003b8600080fd5b85516001600160401b03811115620003d357620003d3600080fd5b620003e18882890162000331565b602088015190965090506001600160401b03811115620004045762000404600080fd5b620004128882890162000331565b945050604062000425888289016200038e565b935050606062000438888289016200038e565b92505060806200044b888289016200038e565b9150509295509295909350565b60208082528181019081527f4f776e61626c653a2063616c6c6572206973206e6f7420746865206f776e65726040830152606082016200036e565b634e487b7160e01b600052602260045260246000fd5b600281046001821680620004be57607f821691505b60208210811415620004d457620004d462000493565b50919050565b61288680620004ea6000396000f3fe6080604052600436106102895760003560e01c8063715018a611610153578063b585209b116100cb578063c87b56dd1161007f578063e985e9c511610064578063e985e9c5146106f3578063f2fde38b14610713578063f73c814b1461073357600080fd5b8063c87b56dd146106bd578063d7822c99146106dd57600080fd5b8063b88d4fde116100b0578063b88d4fde14610668578063c074f41214610688578063c0c9c735146106a857600080fd5b8063b585209b14610633578063b776c8a61461064857600080fd5b806399c0731b11610122578063a22cb46511610107578063a22cb465146105d3578063a8e90b57146105f3578063af0097251461061357600080fd5b806399c0731b146105a35780639c51792a146105b857600080fd5b8063715018a61461052e5780638da5cb5b1461054357806395d89b411461056157806398f539591461057657600080fd5b80632f745c59116102015780634f6ccce7116101b557806353557e251161019a57806353557e25146104cb5780636352211e146104ee57806370a082311461050e57600080fd5b80634f6ccce71461048b578063511ed382146104ab57600080fd5b80633f5c1c46116101e65780633f5c1c461461043857806342842e0e1461044b5780634f558e791461046b57600080fd5b80632f745c59146104035780633ccfd60b1461042357600080fd5b806312b40a9f116102585780631a6949e31161023d5780631a6949e3146103ae5780631e8858fb146103c357806323b872dd146103e357600080fd5b806312b40a9f1461033c57806318160ddd1461035c57600080fd5b806301ffc9a71461029557806306fdde03146102cb578063081812fc146102ed578063095ea7b31461031a57600080fd5b3661029057005b600080fd5b3480156102a157600080fd5b506102b56102b0366004611ddd565b610753565b6040516102c29190611e08565b60405180910390f35b3480156102d757600080fd5b506102e0610824565b6040516102c29190611e74565b3480156102f957600080fd5b5061030d610308366004611e96565b6108b6565b6040516102c29190611ed1565b34801561032657600080fd5b5061033a610335366004611ef3565b610913565b005b34801561034857600080fd5b5061033a610357366004611f30565b6109d3565b34801561036857600080fd5b506103a16000546fffffffffffffffffffffffffffffffff70010000000000000000000000000000000082048116918116919091031690565b6040516102c29190611f57565b3480156103ba57600080fd5b506102b5610a3f565b3480156103cf57600080fd5b5061033a6103de366004611f30565b610a58565b3480156103ef57600080fd5b5061033a6103fe366004611f65565b610ab1565b34801561040f57600080fd5b506103a161041e366004611ef3565b610abc565b34801561042f57600080fd5b5061033a610bdb565b61033a610446366004612007565b610c70565b34801561045757600080fd5b5061033a610466366004611f65565b610d22565b34801561047757600080fd5b506102b5610486366004611e96565b610d3d565b34801561049757600080fd5b506103a16104a6366004611e96565b610d48565b3480156104b757600080fd5b5060ba5461030d906001600160a01b031681565b3480156104d757600080fd5b506104e16115e081565b6040516102c2919061208a565b3480156104fa57600080fd5b5061030d610509366004611e96565b610e15565b34801561051a57600080fd5b506103a1610529366004611f30565b610e27565b34801561053a57600080fd5b5061033a610e8f565b34801561054f57600080fd5b506007546001600160a01b031661030d565b34801561056d57600080fd5b506102e0610ec5565b34801561058257600080fd5b50610596610591366004611e96565b610ed4565b6040516102c291906120a1565b3480156105af57600080fd5b50610596606481565b3480156105c457600080fd5b506103a166c6f3b40b6c000081565b3480156105df57600080fd5b5061033a6105ee3660046120c2565b610f08565b3480156105ff57600080fd5b5060bb5461030d906001600160a01b031681565b34801561061f57600080fd5b506102b561062e366004611e96565b610fba565b34801561063f57600080fd5b5061033a610fe5565b34801561065457600080fd5b5061033a610663366004611f30565b611015565b34801561067457600080fd5b5061033a6106833660046121f0565b61106e565b34801561069457600080fd5b5060bd5461030d906001600160a01b031681565b3480156106b457600080fd5b50610596603881565b3480156106c957600080fd5b506102e06106d8366004611e96565b6110a8565b3480156106e957600080fd5b506103a160b95481565b3480156106ff57600080fd5b506102b561070e36600461226f565b611212565b34801561071f57600080fd5b5061033a61072e366004611f30565b611323565b34801561073f57600080fd5b5061033a61074e366004611f30565b61137c565b60006001600160e01b031982167f80ac58cd0000000000000000000000000000000000000000000000000000000014806107b657506001600160e01b031982167f5b5e139f00000000000000000000000000000000000000000000000000000000145b806107ea57506001600160e01b031982167f780e9d6300000000000000000000000000000000000000000000000000000000145b8061081e57507f01ffc9a7000000000000000000000000000000000000000000000000000000006001600160e01b03198316145b92915050565b606060018054610833906122b8565b80601f016020809104026020016040519081016040528092919081815260200182805461085f906122b8565b80156108ac5780601f10610881576101008083540402835291602001916108ac565b820191906000526020600020905b81548152906001019060200180831161088f57829003601f168201915b5050505050905090565b60006108c1826113cf565b6108f7576040517fcf4700e400000000000000000000000000000000000000000000000000000000815260040160405180910390fd5b506000908152600560205260409020546001600160a01b031690565b600061091e82610e15565b9050806001600160a01b0316836001600160a01b0316141561096c576040517f943f7b8c00000000000000000000000000000000000000000000000000000000815260040160405180910390fd5b336001600160a01b0382161480159061098c575061098a8133611212565b155b156109c3576040517fcfb3b94200000000000000000000000000000000000000000000000000000000815260040160405180910390fd5b6109ce83838361140c565b505050565b6007546001600160a01b03163314610a065760405162461bcd60e51b81526004016109fd90612317565b60405180910390fd5b60bd80546001600160a01b0390921673ffffffffffffffffffffffffffffffffffffffff19928316811790915560be8054909216179055565b600060b95442118015610a53575060b95415155b905090565b6007546001600160a01b03163314610a825760405162461bcd60e51b81526004016109fd90612317565b60bb805473ffffffffffffffffffffffffffffffffffffffff19166001600160a01b0392909216919091179055565b6109ce838383611475565b6000610ac783610e27565b8210610aff576040517f0ddac30e00000000000000000000000000000000000000000000000000000000815260040160405180910390fd5b600080546fffffffffffffffffffffffffffffffff169080805b83811015610bd557600081815260036020908152604091829020825160608101845290546001600160a01b0381168252600160a01b810467ffffffffffffffff1692820192909252600160e01b90910460ff161580159282019290925290610b815750610bcd565b80516001600160a01b031615610b9657805192505b876001600160a01b0316836001600160a01b03161415610bcb5786841415610bc45750935061081e92505050565b6001909301925b505b600101610b19565b50600080fd5b6007546001600160a01b03163314610c055760405162461bcd60e51b81526004016109fd90612317565b604051600090339047908381818185875af1925050503d8060008114610c47576040519150601f19603f3d011682016040523d82523d6000602084013e610c4c565b606091505b5050905080610c6d5760405162461bcd60e51b81526004016109fd90612359565b50565b610c78610a3f565b610c945760405162461bcd60e51b81526004016109fd9061239b565b60026008541415610cb75760405162461bcd60e51b81526004016109fd906123dd565b6002600855828114610cdb5760405162461bcd60e51b81526004016109fd90612447565b610cec8366c6f3b40b6c000061246d565b3414610d0a5760405162461bcd60e51b81526004016109fd906124be565b610d1733858585856116e9565b505060016008555050565b6109ce8383836040518060200160405280600081525061106e565b600061081e826113cf565b600080546fffffffffffffffffffffffffffffffff1681805b82811015610de257600081815260036020908152604091829020825160608101845290546001600160a01b0381168252600160a01b810467ffffffffffffffff1692820192909252600160e01b90910460ff16151591810182905290610dd95785831415610dd25750949350505050565b6001909201915b50600101610d61565b506040517fa723001c00000000000000000000000000000000000000000000000000000000815260040160405180910390fd5b6000610e20826118c1565b5192915050565b60006001600160a01b038216610e69576040517f8f4eb60400000000000000000000000000000000000000000000000000000000815260040160405180910390fd5b506001600160a01b031660009081526004602052604090205467ffffffffffffffff1690565b6007546001600160a01b03163314610eb95760405162461bcd60e51b81526004016109fd90612317565b610ec36000611a07565b565b606060028054610833906122b8565b60b88181548110610ee457600080fd5b9060005260206000209060209182820401919006915054906101000a900460ff1681565b6001600160a01b038216331415610f4b576040517fb06307db00000000000000000000000000000000000000000000000000000000815260040160405180910390fd5b3360008181526006602090815260408083206001600160a01b038716808552925291829020805460ff191685151517905590519091907f17307eab39ab6107e8899845ad3d59bd9653f200f220920489ca2b5937696c3190610fae908590611e08565b60405180910390a35050565b6009816115e08110610fcb57600080fd5b60209182820401919006915054906101000a900460ff1681565b6007546001600160a01b0316331461100f5760405162461bcd60e51b81526004016109fd90612317565b4260b955565b6007546001600160a01b0316331461103f5760405162461bcd60e51b81526004016109fd90612317565b60ba805473ffffffffffffffffffffffffffffffffffffffff19166001600160a01b0392909216919091179055565b611079848484611475565b61108584848484611a66565b6110a2576040516368d2bf6b60e11b815260040160405180910390fd5b50505050565b60606110b3826113cf565b6110cf5760405162461bcd60e51b81526004016109fd90612526565b60bd546001600160a01b03166110f357505060408051602081019091526000815290565b600060b861110284600261246d565b8154811061111257611112612536565b60009182526020808320908204015460ff601f9092166101000a900416915060b861113e85600261246d565b61114990600161254c565b8154811061115957611159612536565b60009182526020918290209181049091015460be546040517f92cb829d000000000000000000000000000000000000000000000000000000008152601f9093166101000a90910460ff1692506001600160a01b0316906392cb829d906111c5908590859060040161257f565b600060405180830381865afa1580156111e2573d6000803e3d6000fd5b505050506040513d6000823e601f3d908101601f1916820160405261120a91908101906125f2565b949350505050565b60ba546040517fc45527910000000000000000000000000000000000000000000000000000000081526000916001600160a01b03169063c45527919061125c908690600401611ed1565b602060405180830381865afa158015611279573d6000803e3d6000fd5b505050506040513d601f19601f8201168201806040525081019061129d919061264c565b6001600160a01b0316826001600160a01b031614806112c9575060bb546001600160a01b038381169116145b806112ec57506001600160a01b038216600090815260bc602052604090205460ff165b8061131c57506001600160a01b0380841660009081526006602090815260408083209386168352929052205460ff165b9392505050565b6007546001600160a01b0316331461134d5760405162461bcd60e51b81526004016109fd90612317565b6001600160a01b0381166113735760405162461bcd60e51b81526004016109fd906126c5565b610c6d81611a07565b6007546001600160a01b031633146113a65760405162461bcd60e51b81526004016109fd90612317565b6001600160a01b0316600090815260bc60205260409020805460ff19811660ff90911615179055565b600080546fffffffffffffffffffffffffffffffff168210801561081e575050600090815260036020526040902054600160e01b900460ff161590565b600082815260056020526040808220805473ffffffffffffffffffffffffffffffffffffffff19166001600160a01b0387811691821790925591518593918516917f8c5be1e5ebec7d5bd14f71427d1e84f3dd0314c0f7b2291e5b200ac8c7c3b92591a4505050565b6000611480826118c1565b80519091506000906001600160a01b0316336001600160a01b031614806114ae575081516114ae9033611212565b806114c95750336114be846108b6565b6001600160a01b0316145b905080611502576040517f59c896be00000000000000000000000000000000000000000000000000000000815260040160405180910390fd5b846001600160a01b031682600001516001600160a01b031614611551576040517fa114810000000000000000000000000000000000000000000000000000000000815260040160405180910390fd5b6001600160a01b038416611591576040517fea553b3400000000000000000000000000000000000000000000000000000000815260040160405180910390fd5b6115a1600084846000015161140c565b6001600160a01b038581166000908152600460209081526040808320805467ffffffffffffffff1980821667ffffffffffffffff92831660001901831617909255898616808652838620805493841693831660019081018416949094179055898652600390945282852080546001600160e01b031916909417600160a01b42909216919091021790925590860180835291205490911661169f576000546fffffffffffffffffffffffffffffffff1681101561169f578251600082815260036020908152604090912080549186015167ffffffffffffffff16600160a01b026001600160e01b03199092166001600160a01b03909316929092171790555b5082846001600160a01b0316866001600160a01b03167fddf252ad1be2c89b69c2b068fc378daa952ba7f163c4a11628f55a4df523b3ef60405160405180910390a45b5050505050565b60005b838110156118b657600085858381811061170857611708612536565b905060200201359050600084848481811061172557611725612536565b60200291909101359150600990508161173f60648561246d565b611749919061254c565b6115e0811061175a5761175a612536565b602081049091015460ff601f9092166101000a9004161561178d5760405162461bcd60e51b81526004016109fd90612707565b603882106117ad5760405162461bcd60e51b81526004016109fd90612749565b606481106117cd5760405162461bcd60e51b81526004016109fd9061278b565b60b86117da60ff846127b1565b815460018101835560009283526020928390209281049092018054601f9093166101000a60ff818102199094169284160291909117905560b89061181e90836127b1565b8154600181810184556000938452602093849020938204909301805460ff938416601f9093166101000a928302939092021990911691909117905560098261186760648661246d565b611871919061254c565b6115e0811061188257611882612536565b602091828204019190066101000a81548160ff021916908315150217905550505080806118ae906127c5565b9150506116ec565b506116e28584611b97565b60408051606081018252600080825260208201819052918101829052905482906fffffffffffffffffffffffffffffffff168110156119d557600081815260036020908152604091829020825160608101845290546001600160a01b0381168252600160a01b810467ffffffffffffffff1692820192909252600160e01b90910460ff161515918101829052906119d35780516001600160a01b031615611969579392505050565b5060001901600081815260036020908152604091829020825160608101845290546001600160a01b038116808352600160a01b820467ffffffffffffffff1693830193909352600160e01b900460ff16151592810192909252156119ce579392505050565b611969565b505b6040517fdf2d9b4200000000000000000000000000000000000000000000000000000000815260040160405180910390fd5b600780546001600160a01b0383811673ffffffffffffffffffffffffffffffffffffffff19831681179093556040519116919082907f8be0079c531659141344cd1fd0a4f28419497f9722a3daafe3b4186f6b6457e090600090a35050565b60006001600160a01b0384163b15611b8c576040517f150b7a020000000000000000000000000000000000000000000000000000000081526001600160a01b0385169063150b7a0290611ac39033908990889088906004016127e0565b6020604051808303816000875af1925050508015611afe575060408051601f3d908101601f19168201909252611afb9181019061282f565b60015b611b59573d808015611b2c576040519150601f19603f3d011682016040523d82523d6000602084013e611b31565b606091505b508051611b51576040516368d2bf6b60e11b815260040160405180910390fd5b805181602001fd5b6001600160e01b0319167f150b7a020000000000000000000000000000000000000000000000000000000014905061120a565b506001949350505050565b611bb1828260405180602001604052806000815250611bb5565b5050565b6109ce83838360016000546fffffffffffffffffffffffffffffffff166001600160a01b038516611c12576040517f2e07630000000000000000000000000000000000000000000000000000000000815260040160405180910390fd5b83611c49576040517fb562e8dd00000000000000000000000000000000000000000000000000000000815260040160405180910390fd5b6001600160a01b038516600081815260046020908152604080832080547fffffffffffffffffffffffffffffffff00000000000000000000000000000000811667ffffffffffffffff8083168c0181169182176801000000000000000067ffffffffffffffff1990941690921783900481168c018116909202179091558584526003909252822080546001600160e01b031916909317600160a01b42909216919091021790915581905b85811015611d745760405182906001600160a01b038916906000907fddf252ad1be2c89b69c2b068fc378daa952ba7f163c4a11628f55a4df523b3ef908290a4838015611d4a5750611d486000888488611a66565b155b15611d68576040516368d2bf6b60e11b815260040160405180910390fd5b60019182019101611cf3565b50600080547fffffffffffffffffffffffffffffffff00000000000000000000000000000000166fffffffffffffffffffffffffffffffff929092169190911790556116e2565b6001600160e01b031981165b8114610c6d57600080fd5b803561081e81611dbb565b600060208284031215611df257611df2600080fd5b600061120a8484611dd2565b8015155b82525050565b6020810161081e8284611dfe565b60005b83811015611e31578181015183820152602001611e19565b838111156110a25750506000910152565b6000611e4c825190565b808452602084019350611e63818560208601611e16565b601f01601f19169290920192915050565b6020808252810161131c8184611e42565b80611dc7565b803561081e81611e85565b600060208284031215611eab57611eab600080fd5b600061120a8484611e8b565b60006001600160a01b03821661081e565b611e0281611eb7565b6020810161081e8284611ec8565b611dc781611eb7565b803561081e81611edf565b60008060408385031215611f0957611f09600080fd5b6000611f158585611ee8565b9250506020611f2685828601611e8b565b9150509250929050565b600060208284031215611f4557611f45600080fd5b600061120a8484611ee8565b80611e02565b6020810161081e8284611f51565b600080600060608486031215611f7d57611f7d600080fd5b6000611f898686611ee8565b9350506020611f9a86828701611ee8565b9250506040611fab86828701611e8b565b9150509250925092565b60008083601f840112611fca57611fca600080fd5b50813567ffffffffffffffff811115611fe557611fe5600080fd5b60208301915083602082028301111561200057612000600080fd5b9250929050565b6000806000806040858703121561202057612020600080fd5b843567ffffffffffffffff81111561203a5761203a600080fd5b61204687828801611fb5565b9450945050602085013567ffffffffffffffff81111561206857612068600080fd5b61207487828801611fb5565b95989497509550505050565b61ffff8116611e02565b6020810161081e8284612080565b60ff8116611e02565b6020810161081e8284612098565b801515611dc7565b803561081e816120af565b600080604083850312156120d8576120d8600080fd5b60006120e48585611ee8565b9250506020611f26858286016120b7565b634e487b7160e01b600052604160045260246000fd5b601f19601f830116810181811067ffffffffffffffff82111715612131576121316120f5565b6040525050565b600061214360405190565b905061214f828261210b565b919050565b600067ffffffffffffffff82111561216e5761216e6120f5565b601f19601f83011660200192915050565b82818337506000910152565b600061219e61219984612154565b612138565b9050828152602081018484840111156121b9576121b9600080fd5b6121c484828561217f565b509392505050565b600082601f8301126121e0576121e0600080fd5b813561120a84826020860161218b565b6000806000806080858703121561220957612209600080fd5b60006122158787611ee8565b945050602061222687828801611ee8565b935050604061223787828801611e8b565b925050606085013567ffffffffffffffff81111561225757612257600080fd5b612263878288016121cc565b91505092959194509250565b6000806040838503121561228557612285600080fd5b60006122918585611ee8565b9250506020611f2685828601611ee8565b634e487b7160e01b600052602260045260246000fd5b6002810460018216806122cc57607f821691505b602082108114156122df576122df6122a2565b50919050565b60208082527f4f776e61626c653a2063616c6c6572206973206e6f7420746865206f776e657291019081525b60200190565b6020808252810161081e816122e5565b60118152602081017f5769746864726177616c206661696c656400000000000000000000000000000081529050612311565b6020808252810161081e81612327565b60148152602081017f5075626c69632073616c65206e6f74206f70656e00000000000000000000000081529050612311565b6020808252810161081e81612369565b601f8152602081017f5265656e7472616e637947756172643a207265656e7472616e742063616c6c0081529050612311565b6020808252810161081e816123ab565b602e8152602081017f54686572652073686f756c64206265206f6e6520746f61647a496420666f722081527f6561636820626c69746d61704964000000000000000000000000000000000000602082015290505b60400190565b6020808252810161081e816123ed565b634e487b7160e01b600052601160045260246000fd5b600081600019048311821515161561248757612487612457565b500290565b60148152602081017f507269636520646f6573206e6f74206d6174636800000000000000000000000081529050612311565b6020808252810161081e8161248c565b60278152602081017f4552433732313a2055524920717565727920666f72206e6f6e6578697374656e81527f7420746f6b656e0000000000000000000000000000000000000000000000000060208201529050612441565b6020808252810161081e816124ce565b634e487b7160e01b600052603260045260246000fd5b6000821982111561255f5761255f612457565b500190565b600061081e61257360ff841681565b90565b611e0281612564565b6040810161258d8285612576565b61131c6020830184612576565b60006125a861219984612154565b9050828152602081018484840111156125c3576125c3600080fd5b6121c4848285611e16565b600082601f8301126125e2576125e2600080fd5b815161120a84826020860161259a565b60006020828403121561260757612607600080fd5b815167ffffffffffffffff81111561262157612621600080fd5b61120a848285016125ce565b600061081e82611eb7565b611dc78161262d565b805161081e81612638565b60006020828403121561266157612661600080fd5b600061120a8484612641565b60268152602081017f4f776e61626c653a206e6577206f776e657220697320746865207a65726f206181527f646472657373000000000000000000000000000000000000000000000000000060208201529050612441565b6020808252810161081e8161266d565b60178152602081017f426c69746f61647a20616c72656164792065786973747300000000000000000081529050612311565b6020808252810161081e816126d5565b60158152602081017f546f61647a206964206f7574206f662072616e6765000000000000000000000081529050612311565b6020808252810161081e81612717565b60178152602081017f426c69746d6170206964206f7574206f662072616e676500000000000000000081529050612311565b6020808252810161081e81612759565b634e487b7160e01b600052601260045260246000fd5b6000826127c0576127c061279b565b500690565b60006000198214156127d9576127d9612457565b5060010190565b608081016127ee8287611ec8565b6127fb6020830186611ec8565b6128086040830185611f51565b818103606083015261281a8184611e42565b9695505050505050565b805161081e81611dbb565b60006020828403121561284457612844600080fd5b600061120a848461282456fea2646970667358221220b7d01c20ac84e39b08ba72013f76971679d9ecb60c6c601f1761e4db202fc79b64736f6c634300080c0033",
  "devdoc": {
    "kind": "dev",
    "methods": {
      "approve(address,uint256)": {
        "details": "See {IERC721-approve}."
      },
      "balanceOf(address)": {
        "details": "See {IERC721-balanceOf}."
      },
      "getApproved(uint256)": {
        "details": "See {IERC721-getApproved}."
      },
      "isApprovedForAll(address,address)": {
        "details": "Modified for opensea and looksrare pre-approve."
      },
      "name()": {
        "details": "See {IERC721Metadata-name}."
      },
      "owner()": {
        "details": "Returns the address of the current owner."
      },
      "ownerOf(uint256)": {
        "details": "See {IERC721-ownerOf}."
      },
      "renounceOwnership()": {
        "details": "Leaves the contract without owner. It will not be possible to call `onlyOwner` functions anymore. Can only be called by the current owner. NOTE: Renouncing ownership will leave the contract without an owner, thereby removing any functionality that is only available to the owner."
      },
      "safeTransferFrom(address,address,uint256)": {
        "details": "See {IERC721-safeTransferFrom}."
      },
      "safeTransferFrom(address,address,uint256,bytes)": {
        "details": "See {IERC721-safeTransferFrom}."
      },
      "setApprovalForAll(address,bool)": {
        "details": "See {IERC721-setApprovalForAll}."
      },
      "supportsInterface(bytes4)": {
        "details": "See {IERC165-supportsInterface}."
      },
      "symbol()": {
        "details": "See {IERC721Metadata-symbol}."
      },
      "tokenByIndex(uint256)": {
        "details": "See {IERC721Enumerable-tokenByIndex}. This read function is O(totalSupply). If calling from a separate contract, be sure to test gas first. It may also degrade with extremely large collection sizes (e.g >> 10000), test for your use case."
      },
      "tokenOfOwnerByIndex(address,uint256)": {
        "details": "See {IERC721Enumerable-tokenOfOwnerByIndex}. This read function is O(totalSupply). If calling from a separate contract, be sure to test gas first. It may also degrade with extremely large collection sizes (e.g >> 10000), test for your use case."
      },
      "totalSupply()": {
        "details": "See {IERC721Enumerable-totalSupply}."
      },
      "transferFrom(address,address,uint256)": {
        "details": "See {IERC721-transferFrom}."
      },
      "transferOwnership(address)": {
        "details": "Transfers ownership of the contract to a new account (`newOwner`). Can only be called by the current owner."
      }
    },
    "version": 1
  },
  "userdoc": {
    "kind": "user",
    "methods": {
      "flipProxyState(address)": {
        "notice": "Approve the communication and interaction with cross-collection interactions."
      },
      "setLooksrare(address)": {
        "notice": "Set looksrare to `looksrare_`."
      },
      "setOpensea(address)": {
        "notice": "Set opensea to `opensea_`."
      }
    },
    "version": 1
  },
  "storageLayout": {
    "storage": [
      {
        "astId": 2743,
        "contract": "contracts/blitoadz/Blitoadz.sol:Blitoadz",
        "label": "_currentIndex",
        "offset": 0,
        "slot": "0",
        "type": "t_uint128"
      },
      {
        "astId": 2745,
        "contract": "contracts/blitoadz/Blitoadz.sol:Blitoadz",
        "label": "_burnCounter",
        "offset": 16,
        "slot": "0",
        "type": "t_uint128"
      },
      {
        "astId": 2747,
        "contract": "contracts/blitoadz/Blitoadz.sol:Blitoadz",
        "label": "_name",
        "offset": 0,
        "slot": "1",
        "type": "t_string_storage"
      },
      {
        "astId": 2749,
        "contract": "contracts/blitoadz/Blitoadz.sol:Blitoadz",
        "label": "_symbol",
        "offset": 0,
        "slot": "2",
        "type": "t_string_storage"
      },
      {
        "astId": 2754,
        "contract": "contracts/blitoadz/Blitoadz.sol:Blitoadz",
        "label": "_ownerships",
        "offset": 0,
        "slot": "3",
        "type": "t_mapping(t_uint256,t_struct(TokenOwnership)2734_storage)"
      },
      {
        "astId": 2759,
        "contract": "contracts/blitoadz/Blitoadz.sol:Blitoadz",
        "label": "_addressData",
        "offset": 0,
        "slot": "4",
        "type": "t_mapping(t_address,t_struct(AddressData)2741_storage)"
      },
      {
        "astId": 2763,
        "contract": "contracts/blitoadz/Blitoadz.sol:Blitoadz",
        "label": "_tokenApprovals",
        "offset": 0,
        "slot": "5",
        "type": "t_mapping(t_uint256,t_address)"
      },
      {
        "astId": 2769,
        "contract": "contracts/blitoadz/Blitoadz.sol:Blitoadz",
        "label": "_operatorApprovals",
        "offset": 0,
        "slot": "6",
        "type": "t_mapping(t_address,t_mapping(t_address,t_bool))"
      },
      {
        "astId": 225,
        "contract": "contracts/blitoadz/Blitoadz.sol:Blitoadz",
        "label": "_owner",
        "offset": 0,
        "slot": "7",
        "type": "t_address"
      },
      {
        "astId": 333,
        "contract": "contracts/blitoadz/Blitoadz.sol:Blitoadz",
        "label": "_status",
        "offset": 0,
        "slot": "8",
        "type": "t_uint256"
      },
      {
        "astId": 1178,
        "contract": "contracts/blitoadz/Blitoadz.sol:Blitoadz",
        "label": "blitoadzExist",
        "offset": 0,
        "slot": "9",
        "type": "t_array(t_bool)5600_storage"
      },
      {
        "astId": 1181,
        "contract": "contracts/blitoadz/Blitoadz.sol:Blitoadz",
        "label": "blitoadz",
        "offset": 0,
        "slot": "184",
        "type": "t_array(t_uint8)dyn_storage"
      },
      {
        "astId": 1183,
        "contract": "contracts/blitoadz/Blitoadz.sol:Blitoadz",
        "label": "publicSaleStartTimestamp",
        "offset": 0,
        "slot": "185",
        "type": "t_uint256"
      },
      {
        "astId": 1232,
        "contract": "contracts/blitoadz/Blitoadz.sol:Blitoadz",
        "label": "opensea",
        "offset": 0,
        "slot": "186",
        "type": "t_address"
      },
      {
        "astId": 1234,
        "contract": "contracts/blitoadz/Blitoadz.sol:Blitoadz",
        "label": "looksrare",
        "offset": 0,
        "slot": "187",
        "type": "t_address"
      },
      {
        "astId": 1238,
        "contract": "contracts/blitoadz/Blitoadz.sol:Blitoadz",
        "label": "proxyToApproved",
        "offset": 0,
        "slot": "188",
        "type": "t_mapping(t_address,t_bool)"
      },
      {
        "astId": 1323,
        "contract": "contracts/blitoadz/Blitoadz.sol:Blitoadz",
        "label": "renderingContractAddress",
        "offset": 0,
        "slot": "189",
        "type": "t_address"
      },
      {
        "astId": 1326,
        "contract": "contracts/blitoadz/Blitoadz.sol:Blitoadz",
        "label": "renderer",
        "offset": 0,
        "slot": "190",
        "type": "t_contract(IBlitoadzRenderer)2383"
      }
    ],
    "types": {
      "t_address": {
        "encoding": "inplace",
        "label": "address",
        "numberOfBytes": "20"
      },
      "t_array(t_bool)5600_storage": {
        "base": "t_bool",
        "encoding": "inplace",
        "label": "bool[5600]",
        "numberOfBytes": "5600"
      },
      "t_array(t_uint8)dyn_storage": {
        "base": "t_uint8",
        "encoding": "dynamic_array",
        "label": "uint8[]",
        "numberOfBytes": "32"
      },
      "t_bool": {
        "encoding": "inplace",
        "label": "bool",
        "numberOfBytes": "1"
      },
      "t_contract(IBlitoadzRenderer)2383": {
        "encoding": "inplace",
        "label": "contract IBlitoadzRenderer",
        "numberOfBytes": "20"
      },
      "t_mapping(t_address,t_bool)": {
        "encoding": "mapping",
        "key": "t_address",
        "label": "mapping(address => bool)",
        "numberOfBytes": "32",
        "value": "t_bool"
      },
      "t_mapping(t_address,t_mapping(t_address,t_bool))": {
        "encoding": "mapping",
        "key": "t_address",
        "label": "mapping(address => mapping(address => bool))",
        "numberOfBytes": "32",
        "value": "t_mapping(t_address,t_bool)"
      },
      "t_mapping(t_address,t_struct(AddressData)2741_storage)": {
        "encoding": "mapping",
        "key": "t_address",
        "label": "mapping(address => struct ERC721A.AddressData)",
        "numberOfBytes": "32",
        "value": "t_struct(AddressData)2741_storage"
      },
      "t_mapping(t_uint256,t_address)": {
        "encoding": "mapping",
        "key": "t_uint256",
        "label": "mapping(uint256 => address)",
        "numberOfBytes": "32",
        "value": "t_address"
      },
      "t_mapping(t_uint256,t_struct(TokenOwnership)2734_storage)": {
        "encoding": "mapping",
        "key": "t_uint256",
        "label": "mapping(uint256 => struct ERC721A.TokenOwnership)",
        "numberOfBytes": "32",
        "value": "t_struct(TokenOwnership)2734_storage"
      },
      "t_string_storage": {
        "encoding": "bytes",
        "label": "string",
        "numberOfBytes": "32"
      },
      "t_struct(AddressData)2741_storage": {
        "encoding": "inplace",
        "label": "struct ERC721A.AddressData",
        "members": [
          {
            "astId": 2736,
            "contract": "contracts/blitoadz/Blitoadz.sol:Blitoadz",
            "label": "balance",
            "offset": 0,
            "slot": "0",
            "type": "t_uint64"
          },
          {
            "astId": 2738,
            "contract": "contracts/blitoadz/Blitoadz.sol:Blitoadz",
            "label": "numberMinted",
            "offset": 8,
            "slot": "0",
            "type": "t_uint64"
          },
          {
            "astId": 2740,
            "contract": "contracts/blitoadz/Blitoadz.sol:Blitoadz",
            "label": "numberBurned",
            "offset": 16,
            "slot": "0",
            "type": "t_uint64"
          }
        ],
        "numberOfBytes": "32"
      },
      "t_struct(TokenOwnership)2734_storage": {
        "encoding": "inplace",
        "label": "struct ERC721A.TokenOwnership",
        "members": [
          {
            "astId": 2729,
            "contract": "contracts/blitoadz/Blitoadz.sol:Blitoadz",
            "label": "addr",
            "offset": 0,
            "slot": "0",
            "type": "t_address"
          },
          {
            "astId": 2731,
            "contract": "contracts/blitoadz/Blitoadz.sol:Blitoadz",
            "label": "startTimestamp",
            "offset": 20,
            "slot": "0",
            "type": "t_uint64"
          },
          {
            "astId": 2733,
            "contract": "contracts/blitoadz/Blitoadz.sol:Blitoadz",
            "label": "burned",
            "offset": 28,
            "slot": "0",
            "type": "t_bool"
          }
        ],
        "numberOfBytes": "32"
      },
      "t_uint128": {
        "encoding": "inplace",
        "label": "uint128",
        "numberOfBytes": "16"
      },
      "t_uint256": {
        "encoding": "inplace",
        "label": "uint256",
        "numberOfBytes": "32"
      },
      "t_uint64": {
        "encoding": "inplace",
        "label": "uint64",
        "numberOfBytes": "8"
      },
      "t_uint8": {
        "encoding": "inplace",
        "label": "uint8",
        "numberOfBytes": "1"
      }
    }
  }
}