{
  "address": "0x545112afD15Ac44F0A53E1a93155AF385aF45b7B",
  "abi": [
    {
      "inputs": [
        {
          "internalType": "string",
          "name": "name_",
          "type": "string"
        },
        {
          "internalType": "string",
          "name": "symbol_",
          "type": "string"
        },
        {
          "internalType": "address",
          "name": "_rendererAddress",
          "type": "address"
        },
        {
          "internalType": "address",
          "name": "_opensea",
          "type": "address"
        },
        {
          "internalType": "address",
          "name": "_looksrare",
          "type": "address"
        },
        {
          "internalType": "address[]",
          "name": "_founders",
          "type": "address[]"
        },
        {
          "components": [
            {
              "internalType": "uint128",
              "name": "withdrawnAmount",
              "type": "uint128"
            },
            {
              "internalType": "uint128",
              "name": "shares",
              "type": "uint128"
            }
          ],
          "internalType": "struct Blitoadz.Founder[]",
          "name": "_foundersData",
          "type": "tuple[]"
        },
        {
          "internalType": "uint256",
          "name": "_blitmapCreatorShares",
          "type": "uint256"
        },
        {
          "internalType": "address",
          "name": "_blitmap",
          "type": "address"
        }
      ],
      "stateMutability": "nonpayable",
      "type": "constructor"
    },
    {
      "inputs": [],
      "name": "ApprovalCallerNotOwnerNorApproved",
      "type": "error"
    },
    {
      "inputs": [],
      "name": "ApprovalQueryForNonexistentToken",
      "type": "error"
    },
    {
      "inputs": [],
      "name": "ApprovalToCurrentOwner",
      "type": "error"
    },
    {
      "inputs": [],
      "name": "ApproveToCaller",
      "type": "error"
    },
    {
      "inputs": [],
      "name": "BalanceQueryForZeroAddress",
      "type": "error"
    },
    {
      "inputs": [],
      "name": "BlitmapIndexOutOfBounds",
      "type": "error"
    },
    {
      "inputs": [],
      "name": "BlitoadzExists",
      "type": "error"
    },
    {
      "inputs": [],
      "name": "IncorrectPrice",
      "type": "error"
    },
    {
      "inputs": [],
      "name": "MintToZeroAddress",
      "type": "error"
    },
    {
      "inputs": [],
      "name": "MintZeroQuantity",
      "type": "error"
    },
    {
      "inputs": [],
      "name": "NothingToWithdraw",
      "type": "error"
    },
    {
      "inputs": [],
      "name": "OwnerIndexOutOfBounds",
      "type": "error"
    },
    {
      "inputs": [],
      "name": "OwnerQueryForNonexistentToken",
      "type": "error"
    },
    {
      "inputs": [],
      "name": "PublicSaleNotOpen",
      "type": "error"
    },
    {
      "inputs": [],
      "name": "ToadzAndBlitmapLengthMismatch",
      "type": "error"
    },
    {
      "inputs": [],
      "name": "ToadzIndexOutOfBounds",
      "type": "error"
    },
    {
      "inputs": [],
      "name": "TokenIndexOutOfBounds",
      "type": "error"
    },
    {
      "inputs": [],
      "name": "TransferCallerNotOwnerNorApproved",
      "type": "error"
    },
    {
      "inputs": [],
      "name": "TransferFromIncorrectOwner",
      "type": "error"
    },
    {
      "inputs": [],
      "name": "TransferToNonERC721ReceiverImplementer",
      "type": "error"
    },
    {
      "inputs": [],
      "name": "TransferToZeroAddress",
      "type": "error"
    },
    {
      "inputs": [],
      "name": "URIQueryForNonexistentToken",
      "type": "error"
    },
    {
      "inputs": [],
      "name": "WithdrawalFailed",
      "type": "error"
    },
    {
      "inputs": [],
      "name": "WithdrawalQueryForNonexistentToken",
      "type": "error"
    },
    {
      "anonymous": false,
      "inputs": [
        {
          "indexed": true,
          "internalType": "address",
          "name": "owner",
          "type": "address"
        },
        {
          "indexed": true,
          "internalType": "address",
          "name": "approved",
          "type": "address"
        },
        {
          "indexed": true,
          "internalType": "uint256",
          "name": "tokenId",
          "type": "uint256"
        }
      ],
      "name": "Approval",
      "type": "event"
    },
    {
      "anonymous": false,
      "inputs": [
        {
          "indexed": true,
          "internalType": "address",
          "name": "owner",
          "type": "address"
        },
        {
          "indexed": true,
          "internalType": "address",
          "name": "operator",
          "type": "address"
        },
        {
          "indexed": false,
          "internalType": "bool",
          "name": "approved",
          "type": "bool"
        }
      ],
      "name": "ApprovalForAll",
      "type": "event"
    },
    {
      "anonymous": false,
      "inputs": [
        {
          "indexed": false,
          "internalType": "address",
          "name": "account",
          "type": "address"
        },
        {
          "indexed": false,
          "internalType": "uint256",
          "name": "amount",
          "type": "uint256"
        }
      ],
      "name": "BlitmapCreatorWithdrawn",
      "type": "event"
    },
    {
      "anonymous": false,
      "inputs": [
        {
          "indexed": false,
          "internalType": "address",
          "name": "account",
          "type": "address"
        },
        {
          "indexed": false,
          "internalType": "uint256",
          "name": "amount",
          "type": "uint256"
        }
      ],
      "name": "FounderWithdrawn",
      "type": "event"
    },
    {
      "anonymous": false,
      "inputs": [
        {
          "indexed": true,
          "internalType": "address",
          "name": "previousOwner",
          "type": "address"
        },
        {
          "indexed": true,
          "internalType": "address",
          "name": "newOwner",
          "type": "address"
        }
      ],
      "name": "OwnershipTransferred",
      "type": "event"
    },
    {
      "anonymous": false,
      "inputs": [
        {
          "indexed": false,
          "internalType": "uint256",
          "name": "timestamp",
          "type": "uint256"
        }
      ],
      "name": "PublicSaleOpened",
      "type": "event"
    },
    {
      "anonymous": false,
      "inputs": [
        {
          "indexed": false,
          "internalType": "address",
          "name": "newRenderer",
          "type": "address"
        }
      ],
      "name": "RendererChanged",
      "type": "event"
    },
    {
      "anonymous": false,
      "inputs": [
        {
          "indexed": true,
          "internalType": "address",
          "name": "from",
          "type": "address"
        },
        {
          "indexed": true,
          "internalType": "address",
          "name": "to",
          "type": "address"
        },
        {
          "indexed": true,
          "internalType": "uint256",
          "name": "tokenId",
          "type": "uint256"
        }
      ],
      "name": "Transfer",
      "type": "event"
    },
    {
      "inputs": [],
      "name": "BLITMAP_COUNT",
      "outputs": [
        {
          "internalType": "uint8",
          "name": "",
          "type": "uint8"
        }
      ],
      "stateMutability": "view",
      "type": "function"
    },
    {
      "inputs": [],
      "name": "BLITOADZ_COUNT",
      "outputs": [
        {
          "internalType": "uint16",
          "name": "",
          "type": "uint16"
        }
      ],
      "stateMutability": "view",
      "type": "function"
    },
    {
      "inputs": [],
      "name": "MINT_PUBLIC_PRICE",
      "outputs": [
        {
          "internalType": "uint256",
          "name": "",
          "type": "uint256"
        }
      ],
      "stateMutability": "view",
      "type": "function"
    },
    {
      "inputs": [],
      "name": "TOADZ_COUNT",
      "outputs": [
        {
          "internalType": "uint8",
          "name": "",
          "type": "uint8"
        }
      ],
      "stateMutability": "view",
      "type": "function"
    },
    {
      "inputs": [
        {
          "internalType": "address",
          "name": "to",
          "type": "address"
        },
        {
          "internalType": "uint256",
          "name": "tokenId",
          "type": "uint256"
        }
      ],
      "name": "approve",
      "outputs": [],
      "stateMutability": "nonpayable",
      "type": "function"
    },
    {
      "inputs": [
        {
          "internalType": "address",
          "name": "owner",
          "type": "address"
        }
      ],
      "name": "balanceOf",
      "outputs": [
        {
          "internalType": "uint256",
          "name": "",
          "type": "uint256"
        }
      ],
      "stateMutability": "view",
      "type": "function"
    },
    {
      "inputs": [],
      "name": "blitmap",
      "outputs": [
        {
          "internalType": "contract IBlitmap",
          "name": "",
          "type": "address"
        }
      ],
      "stateMutability": "view",
      "type": "function"
    },
    {
      "inputs": [],
      "name": "blitmapCreatorShares",
      "outputs": [
        {
          "internalType": "uint256",
          "name": "",
          "type": "uint256"
        }
      ],
      "stateMutability": "view",
      "type": "function"
    },
    {
      "inputs": [
        {
          "internalType": "uint256",
          "name": "",
          "type": "uint256"
        }
      ],
      "name": "blitoadz",
      "outputs": [
        {
          "internalType": "uint8",
          "name": "toadzId",
          "type": "uint8"
        },
        {
          "internalType": "uint8",
          "name": "blitmapId",
          "type": "uint8"
        },
        {
          "internalType": "uint8",
          "name": "paletteOrder",
          "type": "uint8"
        },
        {
          "internalType": "bool",
          "name": "withdrawn",
          "type": "bool"
        }
      ],
      "stateMutability": "view",
      "type": "function"
    },
    {
      "inputs": [
        {
          "internalType": "uint256",
          "name": "",
          "type": "uint256"
        }
      ],
      "name": "blitoadzExist",
      "outputs": [
        {
          "internalType": "bool",
          "name": "",
          "type": "bool"
        }
      ],
      "stateMutability": "view",
      "type": "function"
    },
    {
      "inputs": [
        {
          "internalType": "uint256",
          "name": "_tokenId",
          "type": "uint256"
        }
      ],
      "name": "exists",
      "outputs": [
        {
          "internalType": "bool",
          "name": "",
          "type": "bool"
        }
      ],
      "stateMutability": "view",
      "type": "function"
    },
    {
      "inputs": [
        {
          "internalType": "address",
          "name": "",
          "type": "address"
        }
      ],
      "name": "founders",
      "outputs": [
        {
          "internalType": "uint128",
          "name": "withdrawnAmount",
          "type": "uint128"
        },
        {
          "internalType": "uint128",
          "name": "shares",
          "type": "uint128"
        }
      ],
      "stateMutability": "view",
      "type": "function"
    },
    {
      "inputs": [
        {
          "internalType": "uint256",
          "name": "tokenId",
          "type": "uint256"
        }
      ],
      "name": "getApproved",
      "outputs": [
        {
          "internalType": "address",
          "name": "",
          "type": "address"
        }
      ],
      "stateMutability": "view",
      "type": "function"
    },
    {
      "inputs": [
        {
          "internalType": "address",
          "name": "owner",
          "type": "address"
        },
        {
          "internalType": "address",
          "name": "operator",
          "type": "address"
        }
      ],
      "name": "isApprovedForAll",
      "outputs": [
        {
          "internalType": "bool",
          "name": "",
          "type": "bool"
        }
      ],
      "stateMutability": "view",
      "type": "function"
    },
    {
      "inputs": [],
      "name": "isPublicSaleOpen",
      "outputs": [
        {
          "internalType": "bool",
          "name": "",
          "type": "bool"
        }
      ],
      "stateMutability": "view",
      "type": "function"
    },
    {
      "inputs": [],
      "name": "looksrare",
      "outputs": [
        {
          "internalType": "address",
          "name": "",
          "type": "address"
        }
      ],
      "stateMutability": "view",
      "type": "function"
    },
    {
      "inputs": [
        {
          "internalType": "uint256[]",
          "name": "toadzIds",
          "type": "uint256[]"
        },
        {
          "internalType": "uint256[]",
          "name": "blitmapIds",
          "type": "uint256[]"
        },
        {
          "internalType": "uint256[]",
          "name": "paletteOrders",
          "type": "uint256[]"
        }
      ],
      "name": "mintPublicSale",
      "outputs": [],
      "stateMutability": "payable",
      "type": "function"
    },
    {
      "inputs": [],
      "name": "name",
      "outputs": [
        {
          "internalType": "string",
          "name": "",
          "type": "string"
        }
      ],
      "stateMutability": "view",
      "type": "function"
    },
    {
      "inputs": [],
      "name": "openPublicSale",
      "outputs": [],
      "stateMutability": "nonpayable",
      "type": "function"
    },
    {
      "inputs": [],
      "name": "opensea",
      "outputs": [
        {
          "internalType": "address",
          "name": "",
          "type": "address"
        }
      ],
      "stateMutability": "view",
      "type": "function"
    },
    {
      "inputs": [],
      "name": "owner",
      "outputs": [
        {
          "internalType": "address",
          "name": "",
          "type": "address"
        }
      ],
      "stateMutability": "view",
      "type": "function"
    },
    {
      "inputs": [
        {
          "internalType": "uint256",
          "name": "tokenId",
          "type": "uint256"
        }
      ],
      "name": "ownerOf",
      "outputs": [
        {
          "internalType": "address",
          "name": "",
          "type": "address"
        }
      ],
      "stateMutability": "view",
      "type": "function"
    },
    {
      "inputs": [],
      "name": "publicSaleStartTimestamp",
      "outputs": [
        {
          "internalType": "uint256",
          "name": "",
          "type": "uint256"
        }
      ],
      "stateMutability": "view",
      "type": "function"
    },
    {
      "inputs": [],
      "name": "renderingContractAddress",
      "outputs": [
        {
          "internalType": "address",
          "name": "",
          "type": "address"
        }
      ],
      "stateMutability": "view",
      "type": "function"
    },
    {
      "inputs": [],
      "name": "renounceOwnership",
      "outputs": [],
      "stateMutability": "nonpayable",
      "type": "function"
    },
    {
      "inputs": [
        {
          "internalType": "address",
          "name": "from",
          "type": "address"
        },
        {
          "internalType": "address",
          "name": "to",
          "type": "address"
        },
        {
          "internalType": "uint256",
          "name": "tokenId",
          "type": "uint256"
        }
      ],
      "name": "safeTransferFrom",
      "outputs": [],
      "stateMutability": "nonpayable",
      "type": "function"
    },
    {
      "inputs": [
        {
          "internalType": "address",
          "name": "from",
          "type": "address"
        },
        {
          "internalType": "address",
          "name": "to",
          "type": "address"
        },
        {
          "internalType": "uint256",
          "name": "tokenId",
          "type": "uint256"
        },
        {
          "internalType": "bytes",
          "name": "_data",
          "type": "bytes"
        }
      ],
      "name": "safeTransferFrom",
      "outputs": [],
      "stateMutability": "nonpayable",
      "type": "function"
    },
    {
      "inputs": [
        {
          "internalType": "address",
          "name": "operator",
          "type": "address"
        },
        {
          "internalType": "bool",
          "name": "approved",
          "type": "bool"
        }
      ],
      "name": "setApprovalForAll",
      "outputs": [],
      "stateMutability": "nonpayable",
      "type": "function"
    },
    {
      "inputs": [
        {
          "internalType": "address",
          "name": "looksrare_",
          "type": "address"
        }
      ],
      "name": "setLooksrare",
      "outputs": [],
      "stateMutability": "nonpayable",
      "type": "function"
    },
    {
      "inputs": [
        {
          "internalType": "address",
          "name": "opensea_",
          "type": "address"
        }
      ],
      "name": "setOpensea",
      "outputs": [],
      "stateMutability": "nonpayable",
      "type": "function"
    },
    {
      "inputs": [
        {
          "internalType": "address",
          "name": "_renderingContractAddress",
          "type": "address"
        }
      ],
      "name": "setRenderingContractAddress",
      "outputs": [],
      "stateMutability": "nonpayable",
      "type": "function"
    },
    {
      "inputs": [
        {
          "internalType": "bytes4",
          "name": "interfaceId",
          "type": "bytes4"
        }
      ],
      "name": "supportsInterface",
      "outputs": [
        {
          "internalType": "bool",
          "name": "",
          "type": "bool"
        }
      ],
      "stateMutability": "view",
      "type": "function"
    },
    {
      "inputs": [],
      "name": "symbol",
      "outputs": [
        {
          "internalType": "string",
          "name": "",
          "type": "string"
        }
      ],
      "stateMutability": "view",
      "type": "function"
    },
    {
      "inputs": [
        {
          "internalType": "uint256",
          "name": "index",
          "type": "uint256"
        }
      ],
      "name": "tokenByIndex",
      "outputs": [
        {
          "internalType": "uint256",
          "name": "",
          "type": "uint256"
        }
      ],
      "stateMutability": "view",
      "type": "function"
    },
    {
      "inputs": [
        {
          "internalType": "address",
          "name": "owner",
          "type": "address"
        },
        {
          "internalType": "uint256",
          "name": "index",
          "type": "uint256"
        }
      ],
      "name": "tokenOfOwnerByIndex",
      "outputs": [
        {
          "internalType": "uint256",
          "name": "",
          "type": "uint256"
        }
      ],
      "stateMutability": "view",
      "type": "function"
    },
    {
      "inputs": [
        {
          "internalType": "uint256",
          "name": "_tokenId",
          "type": "uint256"
        }
      ],
      "name": "tokenURI",
      "outputs": [
        {
          "internalType": "string",
          "name": "",
          "type": "string"
        }
      ],
      "stateMutability": "view",
      "type": "function"
    },
    {
      "inputs": [],
      "name": "totalSupply",
      "outputs": [
        {
          "internalType": "uint256",
          "name": "",
          "type": "uint256"
        }
      ],
      "stateMutability": "view",
      "type": "function"
    },
    {
      "inputs": [
        {
          "internalType": "address",
          "name": "from",
          "type": "address"
        },
        {
          "internalType": "address",
          "name": "to",
          "type": "address"
        },
        {
          "internalType": "uint256",
          "name": "tokenId",
          "type": "uint256"
        }
      ],
      "name": "transferFrom",
      "outputs": [],
      "stateMutability": "nonpayable",
      "type": "function"
    },
    {
      "inputs": [
        {
          "internalType": "address",
          "name": "newOwner",
          "type": "address"
        }
      ],
      "name": "transferOwnership",
      "outputs": [],
      "stateMutability": "nonpayable",
      "type": "function"
    },
    {
      "inputs": [
        {
          "internalType": "uint256[]",
          "name": "tokenIds",
          "type": "uint256[]"
        }
      ],
      "name": "withdrawBlitmapCreator",
      "outputs": [
        {
          "internalType": "bool",
          "name": "",
          "type": "bool"
        }
      ],
      "stateMutability": "nonpayable",
      "type": "function"
    },
    {
      "inputs": [],
      "name": "withdrawFounder",
      "outputs": [
        {
          "internalType": "bool",
          "name": "",
          "type": "bool"
        }
      ],
      "stateMutability": "nonpayable",
      "type": "function"
    },
    {
      "stateMutability": "payable",
      "type": "receive"
    }
  ],
  "transactionHash": "0x2dba324d48ef33a2eb4379fda3b6ee32f384e4ec6287a4ee82ebcf2d576fd4c5",
  "args": [
    "Blitoadz",
    "BLTZ",
    "0x21eDF1E36eaf427E54129465A061fe4cad4E40e2",
    "0xF57B2c51dED3A29e6891aba85459d600256Cf317",
    "0x3f65A762F15D01809cDC6B43d8849fF24949c86a",
    [
      "0xD246882E05D7DdB2C8476607312279f592789Cd6",
      "0x0C3c184C2c5Fc99aED927cE3513141eb3Ce684FA",
      "0x4298e663517593284Ad4FE199b21815BD48a9969",
      "0x8CdbFB113D01b9832E58b15Eb224c7404853bB3f",
      "0xFc7c18A7F0d53A924D6aF07814c47eEf0Fb4F7d7"
    ],
    [
      {
        "shares": 1680,
        "withdrawnAmount": 0
      },
      {
        "shares": 1400,
        "withdrawnAmount": 0
      },
      {
        "shares": 312,
        "withdrawnAmount": 0
      },
      {
        "shares": 628,
        "withdrawnAmount": 0
      },
      {
        "shares": 628,
        "withdrawnAmount": 0
      }
    ],
    952,
    "0x2cF9b358Ab30Fbd4c67A016a5ed60474adDf0712"
  ],
  "numDeployments": 4,
  "solcInputHash": "06633723f0cc4461bca1853fce1f4740",
  "bytecode": "0x60806040523480156200001157600080fd5b50604051620037dc380380620037dc833981016040819052620000349162000652565b8851899089906200004d90600190602085019062000281565b5080516200006390600290602084019062000281565b505050620000806200007a6200019060201b60201c565b62000194565b60016008556200009087620001e6565b60bd80546001600160a01b038089166001600160a01b03199283161790925560be80549288169290911691909117905560005b84518110156200015c57838181518110620000e257620000e2620007a2565b602002602001015160bb6000878481518110620001035762000103620007a2565b6020908102919091018101516001600160a01b0316825281810192909252604001600020825192909101516001600160801b03908116600160801b029216919091179055806200015381620007ce565b915050620000c3565b5060ba91909155600980546001600160a01b0319166001600160a01b03909216919091179055506200088f95505050505050565b3390565b600780546001600160a01b038381166001600160a01b0319831681179093556040519116919082907f8be0079c531659141344cd1fd0a4f28419497f9722a3daafe3b4186f6b6457e090600090a35050565b6007546001600160a01b031633146200021c5760405162461bcd60e51b81526004016200021390620007ec565b60405180910390fd5b60bf80546001600160a01b0383166001600160a01b0319918216811790925560c08054909116821790556040517fa00632ff71f043bcebbaa26952d3fd31a42e459b0dc8b686a91eb77725ee668091620002769162000838565b60405180910390a150565b8280546200028f906200085e565b90600052602060002090601f016020900481019282620002b35760008555620002fe565b82601f10620002ce57805160ff1916838001178555620002fe565b82800160010185558215620002fe579182015b82811115620002fe578251825591602001919060010190620002e1565b506200030c92915062000310565b5090565b5b808211156200030c576000815560010162000311565b634e487b7160e01b600052604160045260246000fd5b601f19601f83011681016001600160401b038111828210171562000365576200036562000327565b6040525050565b60006200037860405190565b90506200038682826200033d565b919050565b60006001600160401b03821115620003a757620003a762000327565b601f19601f83011660200192915050565b60005b83811015620003d5578181015183820152602001620003bb565b83811115620003e5576000848401525b50505050565b600062000402620003fc846200038b565b6200036c565b9050828152602081018484840111156200041f576200041f600080fd5b6200042c848285620003b8565b509392505050565b600082601f8301126200044a576200044a600080fd5b81516200045c848260208601620003eb565b949350505050565b60006001600160a01b0382165b92915050565b620004828162000464565b81146200048e57600080fd5b50565b8051620004718162000477565b60006001600160401b03821115620004ba57620004ba62000327565b5060209081020190565b6000620004d5620003fc846200049e565b83815290506020808201908402830185811115620004f657620004f6600080fd5b835b818110156200051c576200050d878262000491565b835260209283019201620004f8565b5050509392505050565b600082601f8301126200053c576200053c600080fd5b81516200045c848260208601620004c4565b6001600160801b03811662000482565b805162000471816200054e565b600060408284031215620005825762000582600080fd5b6200058e60406200036c565b905060006200059e84846200055e565b908201526020620005b2848483016200055e565b9082015292915050565b6000620005cd620003fc846200049e565b83815290506020810160408402830185811115620005ee57620005ee600080fd5b835b818110156200051c576200060587826200056b565b8352602090920191604001620005f0565b600082601f8301126200062c576200062c600080fd5b81516200045c848260208601620005bc565b8062000482565b805162000471816200063e565b60008060008060008060008060006101208a8c031215620006765762000676600080fd5b89516001600160401b03811115620006915762000691600080fd5b6200069f8c828d0162000434565b60208c0151909a5090506001600160401b03811115620006c257620006c2600080fd5b620006d08c828d0162000434565b9850506040620006e38c828d0162000491565b9750506060620006f68c828d0162000491565b9650506080620007098c828d0162000491565b60a08c015190965090506001600160401b038111156200072c576200072c600080fd5b6200073a8c828d0162000526565b60c08c015190955090506001600160401b038111156200075d576200075d600080fd5b6200076b8c828d0162000616565b93505060e06200077e8c828d0162000645565b925050610100620007928c828d0162000491565b9150509295985092959850929598565b634e487b7160e01b600052603260045260246000fd5b634e487b7160e01b600052601160045260246000fd5b6000600019821415620007e557620007e5620007b8565b5060010190565b60208082528181019081527f4f776e61626c653a2063616c6c6572206973206e6f7420746865206f776e657260408301526060820162000471565b620008328162000464565b82525050565b6020810162000471828462000827565b634e487b7160e01b600052602260045260246000fd5b6002810460018216806200087357607f821691505b6020821081141562000889576200088962000848565b50919050565b612f3d806200089f6000396000f3fe6080604052600436106102ca5760003560e01c806395d89b4111610179578063b776c8a6116100d6578063d7822c991161008a578063f140a90011610064578063f140a900146107e7578063f2fde38b146107fa578063fca517a71461081a57600080fd5b8063d7822c9914610755578063de6746a51461076b578063e985e9c5146107c757600080fd5b8063c074f412116100bb578063c074f41214610700578063c0c9c73514610720578063c87b56dd1461073557600080fd5b8063b776c8a6146106c0578063b88d4fde146106e057600080fd5b8063a8e90b571161012d578063af00972511610112578063af0097251461065e578063b585209b1461067e578063b6cfb2421461069357600080fd5b8063a8e90b5714610628578063ac156e9b1461064857600080fd5b806399c0731b1161015e57806399c0731b146105cb5780639c51792a146105ed578063a22cb4651461060857600080fd5b806395d89b411461058657806398f539591461059b57600080fd5b806342842e0e1161022757806353557e25116101db57806370a08231116101c057806370a0823114610533578063715018a6146105535780638da5cb5b1461056857600080fd5b806353557e25146104f05780636352211e1461051357600080fd5b80634f558e791161020c5780634f558e79146104905780634f6ccce7146104b0578063511ed382146104d057600080fd5b806342842e0e1461045b5780634bd3f52f1461047b57600080fd5b806318160ddd1161027e5780631e8858fb116102635780631e8858fb146103fb57806323b872dd1461041b5780632f745c591461043b57600080fd5b806318160ddd1461039d5780631a6949e3146103e657600080fd5b8063081812fc116102af578063081812fc1461032e578063095ea7b31461035b57806312b40a9f1461037d57600080fd5b806301ffc9a7146102d657806306fdde031461030c57600080fd5b366102d157005b600080fd5b3480156102e257600080fd5b506102f66102f136600461247b565b61083a565b60405161030391906124a6565b60405180910390f35b34801561031857600080fd5b5061032161090b565b6040516103039190612512565b34801561033a57600080fd5b5061034e610349366004612534565b61099d565b604051610303919061256f565b34801561036757600080fd5b5061037b610376366004612591565b6109fa565b005b34801561038957600080fd5b5061037b6103983660046125ce565b610aba565b3480156103a957600080fd5b506103d96000546001600160801b0370010000000000000000000000000000000082048116918116919091031690565b60405161030391906125f5565b3480156103f257600080fd5b506102f6610b5d565b34801561040757600080fd5b5061037b6104163660046125ce565b610b76565b34801561042757600080fd5b5061037b610436366004612603565b610bcf565b34801561044757600080fd5b506103d9610456366004612591565b610bda565b34801561046757600080fd5b5061037b610476366004612603565b610cf0565b34801561048757600080fd5b506102f6610d0b565b34801561049c57600080fd5b506102f66104ab366004612534565b610f17565b3480156104bc57600080fd5b506103d96104cb366004612534565b610f22565b3480156104dc57600080fd5b5060bd5461034e906001600160a01b031681565b3480156104fc57600080fd5b506105066115e081565b604051610303919061265d565b34801561051f57600080fd5b5061034e61052e366004612534565b610fe6565b34801561053f57600080fd5b506103d961054e3660046125ce565b610ff8565b34801561055f57600080fd5b5061037b611060565b34801561057457600080fd5b506007546001600160a01b031661034e565b34801561059257600080fd5b50610321611096565b3480156105a757600080fd5b506105bb6105b6366004612534565b6110a5565b6040516103039493929190612674565b3480156105d757600080fd5b506105e0606481565b60405161030391906126b2565b3480156105f957600080fd5b506103d966c6f3b40b6c000081565b34801561061457600080fd5b5061037b6106233660046126d3565b6110e5565b34801561063457600080fd5b5060be5461034e906001600160a01b031681565b34801561065457600080fd5b506103d960ba5481565b34801561066a57600080fd5b506102f6610679366004612534565b6111b5565b34801561068a57600080fd5b5061037b6111e0565b34801561069f57600080fd5b506009546106b3906001600160a01b031681565b6040516103039190612748565b3480156106cc57600080fd5b5061037b6106db3660046125ce565b611287565b3480156106ec57600080fd5b5061037b6106fb366004612851565b6112e0565b34801561070c57600080fd5b5060bf5461034e906001600160a01b031681565b34801561072c57600080fd5b506105e0603881565b34801561074157600080fd5b50610321610750366004612534565b61131a565b34801561076157600080fd5b506103d960bc5481565b34801561077757600080fd5b506107b96107863660046125ce565b60bb602052600090815260409020546001600160801b038082169170010000000000000000000000000000000090041682565b6040516103039291906128df565b3480156107d357600080fd5b506102f66107e23660046128fa565b611414565b61037b6107f536600461297f565b611502565b34801561080657600080fd5b5061037b6108153660046125ce565b611606565b34801561082657600080fd5b506102f6610835366004612a2c565b611662565b60006001600160e01b031982167f80ac58cd00000000000000000000000000000000000000000000000000000000148061089d57506001600160e01b031982167f5b5e139f00000000000000000000000000000000000000000000000000000000145b806108d157506001600160e01b031982167f780e9d6300000000000000000000000000000000000000000000000000000000145b8061090557507f01ffc9a7000000000000000000000000000000000000000000000000000000006001600160e01b03198316145b92915050565b60606001805461091a90612a8a565b80601f016020809104026020016040519081016040528092919081815260200182805461094690612a8a565b80156109935780601f1061096857610100808354040283529160200191610993565b820191906000526020600020905b81548152906001019060200180831161097657829003601f168201915b5050505050905090565b60006109a8826119a2565b6109de576040517fcf4700e400000000000000000000000000000000000000000000000000000000815260040160405180910390fd5b506000908152600560205260409020546001600160a01b031690565b6000610a0582610fe6565b9050806001600160a01b0316836001600160a01b03161415610a53576040517f943f7b8c00000000000000000000000000000000000000000000000000000000815260040160405180910390fd5b336001600160a01b03821614801590610a735750610a718133611414565b155b15610aaa576040517fcfb3b94200000000000000000000000000000000000000000000000000000000815260040160405180910390fd5b610ab58383836119d6565b505050565b6007546001600160a01b03163314610aed5760405162461bcd60e51b8152600401610ae490612ae9565b60405180910390fd5b60bf80546001600160a01b03831673ffffffffffffffffffffffffffffffffffffffff19918216811790925560c08054909116821790556040517fa00632ff71f043bcebbaa26952d3fd31a42e459b0dc8b686a91eb77725ee668091610b529161256f565b60405180910390a150565b600060bc5442118015610b71575060bc5415155b905090565b6007546001600160a01b03163314610ba05760405162461bcd60e51b8152600401610ae490612ae9565b60be805473ffffffffffffffffffffffffffffffffffffffff19166001600160a01b0392909216919091179055565b610ab5838383611a3f565b6000610be583610ff8565b8210610c1d576040517f0ddac30e00000000000000000000000000000000000000000000000000000000815260040160405180910390fd5b600080546001600160801b03169080805b83811015610cea57600081815260036020908152604091829020825160608101845290546001600160a01b0381168252600160a01b810467ffffffffffffffff1692820192909252600160e01b90910460ff161580159282019290925290610c965750610ce2565b80516001600160a01b031615610cab57805192505b876001600160a01b0316836001600160a01b03161415610ce05786841415610cd95750935061090592505050565b6001909301925b505b600101610c2e565b50600080fd5b610ab5838383604051806020016040528060008152506112e0565b600060026008541415610d305760405162461bcd60e51b8152600401610ae490612b2b565b600260085533600090815260bb602052604081205481546001600160801b03808316926115e09270010000000000000000000000000000000091829004831692610d8c9266c6f3b40b6c00009290810482169082160316612b51565b610d969190612b51565b610da09190612b86565b610daa9190612b9a565b905080610de3576040517fd0d04f6000000000000000000000000000000000000000000000000000000000815260040160405180910390fd5b610df46001600160801b0382612bb5565b33600090815260bb602052604081208054909190610e1c9084906001600160801b0316612bc9565b92506101000a8154816001600160801b0302191690836001600160801b031602179055506000610e493390565b6001600160a01b03168260405160006040518083038185875af1925050503d8060008114610e93576040519150601f19603f3d011682016040523d82523d6000602084013e610e98565b606091505b5050905080610ed3576040517f27fcd9d100000000000000000000000000000000000000000000000000000000815260040160405180910390fd5b7f47521fa5fb7651fe9fbc44eddef019766bd46d393ffcd1c5e1338cce9bd35cf93383604051610f04929190612c01565b60405180910390a1915050600160085590565b6000610905826119a2565b600080546001600160801b031681805b82811015610fb357600081815260036020908152604091829020825160608101845290546001600160a01b0381168252600160a01b810467ffffffffffffffff1692820192909252600160e01b90910460ff16151591810182905290610faa5785831415610fa35750949350505050565b6001909201915b50600101610f32565b506040517fa723001c00000000000000000000000000000000000000000000000000000000815260040160405180910390fd5b6000610ff182611caa565b5192915050565b60006001600160a01b03821661103a576040517f8f4eb60400000000000000000000000000000000000000000000000000000000815260040160405180910390fd5b506001600160a01b031660009081526004602052604090205467ffffffffffffffff1690565b6007546001600160a01b0316331461108a5760405162461bcd60e51b8152600401610ae490612ae9565b6110946000611de7565b565b60606002805461091a90612a8a565b60b981815481106110b557600080fd5b60009182526020909120015460ff8082169250610100820481169162010000810482169163010000009091041684565b6001600160a01b038216331415611128576040517fb06307db00000000000000000000000000000000000000000000000000000000815260040160405180910390fd5b3360008181526006602090815260408083206001600160a01b03871680855292529182902080547fffffffffffffffffffffffffffffffffffffffffffffffffffffffffffffff001685151517905590519091907f17307eab39ab6107e8899845ad3d59bd9653f200f220920489ca2b5937696c31906111a99085906124a6565b60405180910390a35050565b600a816115e081106111c657600080fd5b60209182820401919006915054906101000a900460ff1681565b6007546001600160a01b0316331461120a5760405162461bcd60e51b8152600401610ae490612ae9565b611212610b5d565b15611249576040517f63a2de0f00000000000000000000000000000000000000000000000000000000815260040160405180910390fd5b4260bc8190556040517fe1edf9fc3dd1a3a3cb6d462dc065c574fb31cc577afdfba34c247d258db7f0b59161127d916125f5565b60405180910390a1565b6007546001600160a01b031633146112b15760405162461bcd60e51b8152600401610ae490612ae9565b60bd805473ffffffffffffffffffffffffffffffffffffffff19166001600160a01b0392909216919091179055565b6112eb848484611a3f565b6112f784848484611e46565b611314576040516368d2bf6b60e11b815260040160405180910390fd5b50505050565b6060611325826119a2565b61135b576040517fa14c4b5000000000000000000000000000000000000000000000000000000000815260040160405180910390fd5b60bf546001600160a01b031661137f57505060408051602081019091526000815290565b60c05460b980546001600160a01b039092169163f8df92499190859081106113a9576113a9612c1c565b906000526020600020016040518263ffffffff1660e01b81526004016113cf9190612cc8565b600060405180830381865afa1580156113ec573d6000803e3d6000fd5b505050506040513d6000823e601f3d908101601f191682016040526109059190810190612d2e565b60bd546040517fc45527910000000000000000000000000000000000000000000000000000000081526000916001600160a01b03169063c45527919061145e90869060040161256f565b602060405180830381865afa15801561147b573d6000803e3d6000fd5b505050506040513d601f19601f8201168201806040525081019061149f9190612d88565b6001600160a01b0316826001600160a01b031614806114cb575060be546001600160a01b038381169116145b806114fb57506001600160a01b0380841660009081526006602090815260408083209386168352929052205460ff165b9392505050565b61150a610b5d565b611540576040517f63a2de0f00000000000000000000000000000000000000000000000000000000815260040160405180910390fd5b600260085414156115635760405162461bcd60e51b8152600401610ae490612b2b565b60026008558483146115a1576040517f9c38699e00000000000000000000000000000000000000000000000000000000815260040160405180910390fd5b6115b28566c6f3b40b6c0000612b51565b34146115ea576040517f99b5cb1d00000000000000000000000000000000000000000000000000000000815260040160405180910390fd5b6115f933878787878787611f78565b5050600160085550505050565b6007546001600160a01b031633146116305760405162461bcd60e51b8152600401610ae490612ae9565b6001600160a01b0381166116565760405162461bcd60e51b8152600401610ae490612da9565b61165f81611de7565b50565b6000600260085414156116875760405162461bcd60e51b8152600401610ae490612b2b565b60026008556000805b83811015611873576116b98585838181106116ad576116ad612c1c565b905060200201356119a2565b6116ef576040517f42d8848b00000000000000000000000000000000000000000000000000000000815260040160405180910390fd5b60095433906001600160a01b03166306daaebd60b988888681811061171657611716612c1c565b905060200201358154811061172d5761172d612c1c565b60009182526020909120015460405160e083901b6001600160e01b031916815261176291610100900460ff1690600401612e22565b602060405180830381865afa15801561177f573d6000803e3d6000fd5b505050506040513d601f19601f820116820180604052508101906117a39190612e3b565b6001600160a01b0316146117b657611861565b60b98585838181106117ca576117ca612c1c565b90506020020135815481106117e1576117e1612c1c565b6000918252602090912001546301000000900460ff161561180157611861565b8161180b81612e5c565b925050600160b986868481811061182457611824612c1c565b905060200201358154811061183b5761183b612c1c565b6000918252602090912001805491151563010000000263ff000000199092169190911790555b8061186b81612e5c565b915050611690565b50806118ab576040517fd0d04f6000000000000000000000000000000000000000000000000000000000815260040160405180910390fd5b60ba546115e0906118c366c6f3b40b6c000084612b51565b6118cd9190612b51565b6118d79190612b86565b604051909150600090339083908381818185875af1925050503d806000811461191c576040519150601f19603f3d011682016040523d82523d6000602084013e611921565b606091505b505090508061195c576040517f27fcd9d100000000000000000000000000000000000000000000000000000000815260040160405180910390fd5b7f481f0c31fede089900c9fd5b1bd26054cf3d6e31a09d068df5b323a0265211e5338360405161198d929190612c01565b60405180910390a16001600855949350505050565b600080546001600160801b031682108015610905575050600090815260036020526040902054600160e01b900460ff161590565b600082815260056020526040808220805473ffffffffffffffffffffffffffffffffffffffff19166001600160a01b0387811691821790925591518593918516917f8c5be1e5ebec7d5bd14f71427d1e84f3dd0314c0f7b2291e5b200ac8c7c3b92591a4505050565b6000611a4a82611caa565b80519091506000906001600160a01b0316336001600160a01b03161480611a7857508151611a789033611414565b80611a93575033611a888461099d565b6001600160a01b0316145b905080611acc576040517f59c896be00000000000000000000000000000000000000000000000000000000815260040160405180910390fd5b846001600160a01b031682600001516001600160a01b031614611b1b576040517fa114810000000000000000000000000000000000000000000000000000000000815260040160405180910390fd5b6001600160a01b038416611b5b576040517fea553b3400000000000000000000000000000000000000000000000000000000815260040160405180910390fd5b611b6b60008484600001516119d6565b6001600160a01b038581166000908152600460209081526040808320805467ffffffffffffffff1980821667ffffffffffffffff92831660001901831617909255898616808652838620805493841693831660019081018416949094179055898652600390945282852080546001600160e01b031916909417600160a01b429092169190910217909255908601808352912054909116611c60576000546001600160801b0316811015611c60578251600082815260036020908152604090912080549186015167ffffffffffffffff16600160a01b026001600160e01b03199092166001600160a01b03909316929092171790555b5082846001600160a01b0316866001600160a01b03167fddf252ad1be2c89b69c2b068fc378daa952ba7f163c4a11628f55a4df523b3ef60405160405180910390a45b5050505050565b60408051606081018252600080825260208201819052918101829052905482906001600160801b0316811015611db557600081815260036020908152604091829020825160608101845290546001600160a01b0381168252600160a01b810467ffffffffffffffff1692820192909252600160e01b90910460ff16151591810182905290611db35780516001600160a01b031615611d49579392505050565b5060001901600081815260036020908152604091829020825160608101845290546001600160a01b038116808352600160a01b820467ffffffffffffffff1693830193909352600160e01b900460ff1615159281019290925215611dae579392505050565b611d49565b505b6040517fdf2d9b4200000000000000000000000000000000000000000000000000000000815260040160405180910390fd5b600780546001600160a01b0383811673ffffffffffffffffffffffffffffffffffffffff19831681179093556040519116919082907f8be0079c531659141344cd1fd0a4f28419497f9722a3daafe3b4186f6b6457e090600090a35050565b60006001600160a01b0384163b15611f6c576040517f150b7a020000000000000000000000000000000000000000000000000000000081526001600160a01b0385169063150b7a0290611ea3903390899088908890600401612e77565b6020604051808303816000875af1925050508015611ede575060408051601f3d908101601f19168201909252611edb91810190612ec6565b60015b611f39573d808015611f0c576040519150601f19603f3d011682016040523d82523d6000602084013e611f11565b606091505b508051611f31576040516368d2bf6b60e11b815260040160405180910390fd5b805181602001fd5b6001600160e01b0319167f150b7a0200000000000000000000000000000000000000000000000000000000149050611f70565b5060015b949350505050565b60005b85811015612233576000878783818110611f9757611f97612c1c565b9050602002013590506000868684818110611fb457611fb4612c1c565b60200291909101359150600a905081611fce606485612b51565b611fd89190612ee7565b6115e08110611fe957611fe9612c1c565b602081049091015460ff601f9092166101000a90041615612036576040517f81d9ae2500000000000000000000000000000000000000000000000000000000815260040160405180910390fd5b61204260016038612efa565b60ff1682111561207e576040517fd9c0f1d300000000000000000000000000000000000000000000000000000000815260040160405180910390fd5b61208a60016064612efa565b60ff168111156120c6576040517f1f81f00900000000000000000000000000000000000000000000000000000000815260040160405180910390fd5b604080516080810190915260b990806120e060ff86612bb5565b60ff16815260200160ff8016846120f79190612bb5565b60ff16815260200160ff801688888881811061211557612115612c1c565b905060200201356121269190612bb5565b60ff90811682526000602092830181905284546001818101875595825290839020845191018054938501516040860151606090960151151563010000000263ff000000199685166201000002969096167fffffffffffffffffffffffffffffffffffffffffffffffffffffffff0000ffff918516610100027fffffffffffffffffffffffffffffffffffffffffffffffffffffffffffff00009096169390941692909217939093171617919091179055600a826121e4606486612b51565b6121ee9190612ee7565b6115e081106121ff576121ff612c1c565b602091828204019190066101000a81548160ff0219169083151502179055505050808061222b90612e5c565b915050611f7b565b5061223e8786612247565b50505050505050565b612261828260405180602001604052806000815250612265565b5050565b610ab583838360016000546001600160801b03166001600160a01b0385166122b9576040517f2e07630000000000000000000000000000000000000000000000000000000000815260040160405180910390fd5b836122f0576040517fb562e8dd00000000000000000000000000000000000000000000000000000000815260040160405180910390fd5b6001600160a01b038516600081815260046020908152604080832080547fffffffffffffffffffffffffffffffff00000000000000000000000000000000811667ffffffffffffffff8083168c0181169182176801000000000000000067ffffffffffffffff1990941690921783900481168c018116909202179091558584526003909252822080546001600160e01b031916909317600160a01b42909216919091021790915581905b8581101561241b5760405182906001600160a01b038916906000907fddf252ad1be2c89b69c2b068fc378daa952ba7f163c4a11628f55a4df523b3ef908290a48380156123f157506123ef6000888488611e46565b155b1561240f576040516368d2bf6b60e11b815260040160405180910390fd5b6001918201910161239a565b50600080547fffffffffffffffffffffffffffffffff00000000000000000000000000000000166001600160801b0392909216919091179055611ca3565b6001600160e01b031981165b811461165f57600080fd5b803561090581612459565b60006020828403121561249057612490600080fd5b6000611f708484612470565b8015155b82525050565b60208101610905828461249c565b60005b838110156124cf5781810151838201526020016124b7565b838111156113145750506000910152565b60006124ea825190565b8084526020840193506125018185602086016124b4565b601f01601f19169290920192915050565b602080825281016114fb81846124e0565b80612465565b803561090581612523565b60006020828403121561254957612549600080fd5b6000611f708484612529565b60006001600160a01b038216610905565b6124a081612555565b602081016109058284612566565b61246581612555565b80356109058161257d565b600080604083850312156125a7576125a7600080fd5b60006125b38585612586565b92505060206125c485828601612529565b9150509250929050565b6000602082840312156125e3576125e3600080fd5b6000611f708484612586565b806124a0565b6020810161090582846125ef565b60008060006060848603121561261b5761261b600080fd5b60006126278686612586565b935050602061263886828701612586565b925050604061264986828701612529565b9150509250925092565b61ffff81166124a0565b602081016109058284612653565b60ff81166124a0565b60808101612682828761266b565b61268f602083018661266b565b61269c604083018561266b565b6126a9606083018461249c565b95945050505050565b60208101610905828461266b565b801515612465565b8035610905816126c0565b600080604083850312156126e9576126e9600080fd5b60006126f58585612586565b92505060206125c4858286016126c8565b60006109056001600160a01b03831661271d565b90565b6001600160a01b031690565b600061090582612706565b600061090582612729565b6124a081612734565b60208101610905828461273f565b634e487b7160e01b600052604160045260246000fd5b601f19601f830116810181811067ffffffffffffffff8211171561279257612792612756565b6040525050565b60006127a460405190565b90506127b0828261276c565b919050565b600067ffffffffffffffff8211156127cf576127cf612756565b601f19601f83011660200192915050565b82818337506000910152565b60006127ff6127fa846127b5565b612799565b90508281526020810184848401111561281a5761281a600080fd5b6128258482856127e0565b509392505050565b600082601f83011261284157612841600080fd5b8135611f708482602086016127ec565b6000806000806080858703121561286a5761286a600080fd5b60006128768787612586565b945050602061288787828801612586565b935050604061289887828801612529565b925050606085013567ffffffffffffffff8111156128b8576128b8600080fd5b6128c48782880161282d565b91505092959194509250565b6001600160801b0381166124a0565b604081016128ed82856128d0565b6114fb60208301846128d0565b6000806040838503121561291057612910600080fd5b600061291c8585612586565b92505060206125c485828601612586565b60008083601f84011261294257612942600080fd5b50813567ffffffffffffffff81111561295d5761295d600080fd5b60208301915083602082028301111561297857612978600080fd5b9250929050565b6000806000806000806060878903121561299b5761299b600080fd5b863567ffffffffffffffff8111156129b5576129b5600080fd5b6129c189828a0161292d565b9650965050602087013567ffffffffffffffff8111156129e3576129e3600080fd5b6129ef89828a0161292d565b9450945050604087013567ffffffffffffffff811115612a1157612a11600080fd5b612a1d89828a0161292d565b92509250509295509295509295565b60008060208385031215612a4257612a42600080fd5b823567ffffffffffffffff811115612a5c57612a5c600080fd5b612a688582860161292d565b92509250509250929050565b634e487b7160e01b600052602260045260246000fd5b600281046001821680612a9e57607f821691505b60208210811415612ab157612ab1612a74565b50919050565b60208082527f4f776e61626c653a2063616c6c6572206973206e6f7420746865206f776e657291019081525b60200190565b6020808252810161090581612ab7565b601f8152602081017f5265656e7472616e637947756172643a207265656e7472616e742063616c6c0081529050612ae3565b6020808252810161090581612af9565b634e487b7160e01b600052601160045260246000fd5b6000816000190483118215151615612b6b57612b6b612b3b565b500290565b634e487b7160e01b600052601260045260246000fd5b600082612b9557612b95612b70565b500490565b815b9150600082821015612bb057612bb0612b3b565b500390565b600082612bc457612bc4612b70565b500690565b6001600160801b03811690506001600160801b03821691506000826001600160801b0303821115612bfc57612bfc612b3b565b500190565b60408101612c0f8285612566565b6114fb60208301846125ef565b634e487b7160e01b600052603260045260246000fd5b6000610905825b60ff1690565b6000610905612c398360081c90565b6000610905612c398360101c90565b6000610905612c398360181c90565b8054612c7781612c32565b612c81848261266b565b50612c8b81612c3f565b612c98602085018261266b565b50612ca281612c4e565b612caf604085018261266b565b50612cb981612c5d565b9050610ab5606084018261249c565b608081016109058284612c6c565b6000612ce46127fa846127b5565b905082815260208101848484011115612cff57612cff600080fd5b6128258482856124b4565b600082601f830112612d1e57612d1e600080fd5b8151611f70848260208601612cd6565b600060208284031215612d4357612d43600080fd5b815167ffffffffffffffff811115612d5d57612d5d600080fd5b611f7084828501612d0a565b600061090582612555565b61246581612d69565b805161090581612d74565b600060208284031215612d9d57612d9d600080fd5b6000611f708484612d7d565b6020808252810161090581602681527f4f776e61626c653a206e6577206f776e657220697320746865207a65726f206160208201527f6464726573730000000000000000000000000000000000000000000000000000604082015260600190565b600061090561271a60ff841681565b6124a081612e0a565b602081016109058284612e19565b80516109058161257d565b600060208284031215612e5057612e50600080fd5b6000611f708484612e30565b6000600019821415612e7057612e70612b3b565b5060010190565b60808101612e858287612566565b612e926020830186612566565b612e9f60408301856125ef565b8181036060830152612eb181846124e0565b9695505050505050565b805161090581612459565b600060208284031215612edb57612edb600080fd5b6000611f708484612ebb565b60008219821115612bfc57612bfc612b3b565b60ff908116908216612b9c56fea2646970667358221220fc23d1aa709ab24af830f202a3b268b204af745f2593ba68cfe4319803b7288a64736f6c634300080c0033",
  "devdoc": {
    "kind": "dev",
    "methods": {
      "approve(address,uint256)": {
        "details": "See {IERC721-approve}."
      },
      "balanceOf(address)": {
        "details": "See {IERC721-balanceOf}."
      },
      "getApproved(uint256)": {
        "details": "See {IERC721-getApproved}."
      },
      "isApprovedForAll(address,address)": {
        "details": "Modified for opensea and looksrare pre-approve."
      },
      "name()": {
        "details": "See {IERC721Metadata-name}."
      },
      "owner()": {
        "details": "Returns the address of the current owner."
      },
      "ownerOf(uint256)": {
        "details": "See {IERC721-ownerOf}."
      },
      "renounceOwnership()": {
        "details": "Leaves the contract without owner. It will not be possible to call `onlyOwner` functions anymore. Can only be called by the current owner. NOTE: Renouncing ownership will leave the contract without an owner, thereby removing any functionality that is only available to the owner."
      },
      "safeTransferFrom(address,address,uint256)": {
        "details": "See {IERC721-safeTransferFrom}."
      },
      "safeTransferFrom(address,address,uint256,bytes)": {
        "details": "See {IERC721-safeTransferFrom}."
      },
      "setApprovalForAll(address,bool)": {
        "details": "See {IERC721-setApprovalForAll}."
      },
      "supportsInterface(bytes4)": {
        "details": "See {IERC165-supportsInterface}."
      },
      "symbol()": {
        "details": "See {IERC721Metadata-symbol}."
      },
      "tokenByIndex(uint256)": {
        "details": "See {IERC721Enumerable-tokenByIndex}. This read function is O(totalSupply). If calling from a separate contract, be sure to test gas first. It may also degrade with extremely large collection sizes (e.g >> 10000), test for your use case."
      },
      "tokenOfOwnerByIndex(address,uint256)": {
        "details": "See {IERC721Enumerable-tokenOfOwnerByIndex}. This read function is O(totalSupply). If calling from a separate contract, be sure to test gas first. It may also degrade with extremely large collection sizes (e.g >> 10000), test for your use case."
      },
      "totalSupply()": {
        "details": "See {IERC721Enumerable-totalSupply}."
      },
      "transferFrom(address,address,uint256)": {
        "details": "See {IERC721-transferFrom}."
      },
      "transferOwnership(address)": {
        "details": "Transfers ownership of the contract to a new account (`newOwner`). Can only be called by the current owner."
      }
    },
    "version": 1
  },
  "userdoc": {
    "kind": "user",
    "methods": {
      "setLooksrare(address)": {
        "notice": "Set looksrare to `looksrare_`."
      },
      "setOpensea(address)": {
        "notice": "Set opensea to `opensea_`."
      }
    },
    "version": 1
  },
  "storageLayout": {
    "storage": [
      {
        "astId": 3197,
        "contract": "contracts/blitoadz/Blitoadz.sol:Blitoadz",
        "label": "_currentIndex",
        "offset": 0,
        "slot": "0",
        "type": "t_uint128"
      },
      {
        "astId": 3199,
        "contract": "contracts/blitoadz/Blitoadz.sol:Blitoadz",
        "label": "_burnCounter",
        "offset": 16,
        "slot": "0",
        "type": "t_uint128"
      },
      {
        "astId": 3201,
        "contract": "contracts/blitoadz/Blitoadz.sol:Blitoadz",
        "label": "_name",
        "offset": 0,
        "slot": "1",
        "type": "t_string_storage"
      },
      {
        "astId": 3203,
        "contract": "contracts/blitoadz/Blitoadz.sol:Blitoadz",
        "label": "_symbol",
        "offset": 0,
        "slot": "2",
        "type": "t_string_storage"
      },
      {
        "astId": 3208,
        "contract": "contracts/blitoadz/Blitoadz.sol:Blitoadz",
        "label": "_ownerships",
        "offset": 0,
        "slot": "3",
        "type": "t_mapping(t_uint256,t_struct(TokenOwnership)3188_storage)"
      },
      {
        "astId": 3213,
        "contract": "contracts/blitoadz/Blitoadz.sol:Blitoadz",
        "label": "_addressData",
        "offset": 0,
        "slot": "4",
        "type": "t_mapping(t_address,t_struct(AddressData)3195_storage)"
      },
      {
        "astId": 3217,
        "contract": "contracts/blitoadz/Blitoadz.sol:Blitoadz",
        "label": "_tokenApprovals",
        "offset": 0,
        "slot": "5",
        "type": "t_mapping(t_uint256,t_address)"
      },
      {
        "astId": 3223,
        "contract": "contracts/blitoadz/Blitoadz.sol:Blitoadz",
        "label": "_operatorApprovals",
        "offset": 0,
        "slot": "6",
        "type": "t_mapping(t_address,t_mapping(t_address,t_bool))"
      },
      {
        "astId": 225,
        "contract": "contracts/blitoadz/Blitoadz.sol:Blitoadz",
        "label": "_owner",
        "offset": 0,
        "slot": "7",
        "type": "t_address"
      },
      {
        "astId": 333,
        "contract": "contracts/blitoadz/Blitoadz.sol:Blitoadz",
        "label": "_status",
        "offset": 0,
        "slot": "8",
        "type": "t_uint256"
      },
      {
        "astId": 1250,
        "contract": "contracts/blitoadz/Blitoadz.sol:Blitoadz",
        "label": "blitmap",
        "offset": 0,
        "slot": "9",
        "type": "t_contract(IBlitmap)2825"
      },
      {
        "astId": 1254,
        "contract": "contracts/blitoadz/Blitoadz.sol:Blitoadz",
        "label": "blitoadzExist",
        "offset": 0,
        "slot": "10",
        "type": "t_array(t_bool)5600_storage"
      },
      {
        "astId": 1258,
        "contract": "contracts/blitoadz/Blitoadz.sol:Blitoadz",
        "label": "blitoadz",
        "offset": 0,
        "slot": "185",
        "type": "t_array(t_struct(Blitoadz)2800_storage)dyn_storage"
      },
      {
        "astId": 1260,
        "contract": "contracts/blitoadz/Blitoadz.sol:Blitoadz",
        "label": "blitmapCreatorShares",
        "offset": 0,
        "slot": "186",
        "type": "t_uint256"
      },
      {
        "astId": 1265,
        "contract": "contracts/blitoadz/Blitoadz.sol:Blitoadz",
        "label": "founders",
        "offset": 0,
        "slot": "187",
        "type": "t_mapping(t_address,t_struct(Founder)1270_storage)"
      },
      {
        "astId": 1292,
        "contract": "contracts/blitoadz/Blitoadz.sol:Blitoadz",
        "label": "publicSaleStartTimestamp",
        "offset": 0,
        "slot": "188",
        "type": "t_uint256"
      },
      {
        "astId": 1347,
        "contract": "contracts/blitoadz/Blitoadz.sol:Blitoadz",
        "label": "opensea",
        "offset": 0,
        "slot": "189",
        "type": "t_address"
      },
      {
        "astId": 1349,
        "contract": "contracts/blitoadz/Blitoadz.sol:Blitoadz",
        "label": "looksrare",
        "offset": 0,
        "slot": "190",
        "type": "t_address"
      },
      {
        "astId": 1412,
        "contract": "contracts/blitoadz/Blitoadz.sol:Blitoadz",
        "label": "renderingContractAddress",
        "offset": 0,
        "slot": "191",
        "type": "t_address"
      },
      {
        "astId": 1415,
        "contract": "contracts/blitoadz/Blitoadz.sol:Blitoadz",
        "label": "renderer",
        "offset": 0,
        "slot": "192",
        "type": "t_contract(IBlitoadzRenderer)2837"
      }
    ],
    "types": {
      "t_address": {
        "encoding": "inplace",
        "label": "address",
        "numberOfBytes": "20"
      },
      "t_array(t_bool)5600_storage": {
        "base": "t_bool",
        "encoding": "inplace",
        "label": "bool[5600]",
        "numberOfBytes": "5600"
      },
      "t_array(t_struct(Blitoadz)2800_storage)dyn_storage": {
        "base": "t_struct(Blitoadz)2800_storage",
        "encoding": "dynamic_array",
        "label": "struct BlitoadzTypes.Blitoadz[]",
        "numberOfBytes": "32"
      },
      "t_bool": {
        "encoding": "inplace",
        "label": "bool",
        "numberOfBytes": "1"
      },
      "t_contract(IBlitmap)2825": {
        "encoding": "inplace",
        "label": "contract IBlitmap",
        "numberOfBytes": "20"
      },
      "t_contract(IBlitoadzRenderer)2837": {
        "encoding": "inplace",
        "label": "contract IBlitoadzRenderer",
        "numberOfBytes": "20"
      },
      "t_mapping(t_address,t_bool)": {
        "encoding": "mapping",
        "key": "t_address",
        "label": "mapping(address => bool)",
        "numberOfBytes": "32",
        "value": "t_bool"
      },
      "t_mapping(t_address,t_mapping(t_address,t_bool))": {
        "encoding": "mapping",
        "key": "t_address",
        "label": "mapping(address => mapping(address => bool))",
        "numberOfBytes": "32",
        "value": "t_mapping(t_address,t_bool)"
      },
      "t_mapping(t_address,t_struct(AddressData)3195_storage)": {
        "encoding": "mapping",
        "key": "t_address",
        "label": "mapping(address => struct ERC721A.AddressData)",
        "numberOfBytes": "32",
        "value": "t_struct(AddressData)3195_storage"
      },
      "t_mapping(t_address,t_struct(Founder)1270_storage)": {
        "encoding": "mapping",
        "key": "t_address",
        "label": "mapping(address => struct Blitoadz.Founder)",
        "numberOfBytes": "32",
        "value": "t_struct(Founder)1270_storage"
      },
      "t_mapping(t_uint256,t_address)": {
        "encoding": "mapping",
        "key": "t_uint256",
        "label": "mapping(uint256 => address)",
        "numberOfBytes": "32",
        "value": "t_address"
      },
      "t_mapping(t_uint256,t_struct(TokenOwnership)3188_storage)": {
        "encoding": "mapping",
        "key": "t_uint256",
        "label": "mapping(uint256 => struct ERC721A.TokenOwnership)",
        "numberOfBytes": "32",
        "value": "t_struct(TokenOwnership)3188_storage"
      },
      "t_string_storage": {
        "encoding": "bytes",
        "label": "string",
        "numberOfBytes": "32"
      },
      "t_struct(AddressData)3195_storage": {
        "encoding": "inplace",
        "label": "struct ERC721A.AddressData",
        "members": [
          {
            "astId": 3190,
            "contract": "contracts/blitoadz/Blitoadz.sol:Blitoadz",
            "label": "balance",
            "offset": 0,
            "slot": "0",
            "type": "t_uint64"
          },
          {
            "astId": 3192,
            "contract": "contracts/blitoadz/Blitoadz.sol:Blitoadz",
            "label": "numberMinted",
            "offset": 8,
            "slot": "0",
            "type": "t_uint64"
          },
          {
            "astId": 3194,
            "contract": "contracts/blitoadz/Blitoadz.sol:Blitoadz",
            "label": "numberBurned",
            "offset": 16,
            "slot": "0",
            "type": "t_uint64"
          }
        ],
        "numberOfBytes": "32"
      },
      "t_struct(Blitoadz)2800_storage": {
        "encoding": "inplace",
        "label": "struct BlitoadzTypes.Blitoadz",
        "members": [
          {
            "astId": 2793,
            "contract": "contracts/blitoadz/Blitoadz.sol:Blitoadz",
            "label": "toadzId",
            "offset": 0,
            "slot": "0",
            "type": "t_uint8"
          },
          {
            "astId": 2795,
            "contract": "contracts/blitoadz/Blitoadz.sol:Blitoadz",
            "label": "blitmapId",
            "offset": 1,
            "slot": "0",
            "type": "t_uint8"
          },
          {
            "astId": 2797,
            "contract": "contracts/blitoadz/Blitoadz.sol:Blitoadz",
            "label": "paletteOrder",
            "offset": 2,
            "slot": "0",
            "type": "t_uint8"
          },
          {
            "astId": 2799,
            "contract": "contracts/blitoadz/Blitoadz.sol:Blitoadz",
            "label": "withdrawn",
            "offset": 3,
            "slot": "0",
            "type": "t_bool"
          }
        ],
        "numberOfBytes": "32"
      },
      "t_struct(Founder)1270_storage": {
        "encoding": "inplace",
        "label": "struct Blitoadz.Founder",
        "members": [
          {
            "astId": 1267,
            "contract": "contracts/blitoadz/Blitoadz.sol:Blitoadz",
            "label": "withdrawnAmount",
            "offset": 0,
            "slot": "0",
            "type": "t_uint128"
          },
          {
            "astId": 1269,
            "contract": "contracts/blitoadz/Blitoadz.sol:Blitoadz",
            "label": "shares",
            "offset": 16,
            "slot": "0",
            "type": "t_uint128"
          }
        ],
        "numberOfBytes": "32"
      },
      "t_struct(TokenOwnership)3188_storage": {
        "encoding": "inplace",
        "label": "struct ERC721A.TokenOwnership",
        "members": [
          {
            "astId": 3183,
            "contract": "contracts/blitoadz/Blitoadz.sol:Blitoadz",
            "label": "addr",
            "offset": 0,
            "slot": "0",
            "type": "t_address"
          },
          {
            "astId": 3185,
            "contract": "contracts/blitoadz/Blitoadz.sol:Blitoadz",
            "label": "startTimestamp",
            "offset": 20,
            "slot": "0",
            "type": "t_uint64"
          },
          {
            "astId": 3187,
            "contract": "contracts/blitoadz/Blitoadz.sol:Blitoadz",
            "label": "burned",
            "offset": 28,
            "slot": "0",
            "type": "t_bool"
          }
        ],
        "numberOfBytes": "32"
      },
      "t_uint128": {
        "encoding": "inplace",
        "label": "uint128",
        "numberOfBytes": "16"
      },
      "t_uint256": {
        "encoding": "inplace",
        "label": "uint256",
        "numberOfBytes": "32"
      },
      "t_uint64": {
        "encoding": "inplace",
        "label": "uint64",
        "numberOfBytes": "8"
      },
      "t_uint8": {
        "encoding": "inplace",
        "label": "uint8",
        "numberOfBytes": "1"
      }
    }
  }
}