{
  "address": "0x62466Df14009d4343c7F34c3351A8FEb6beEa21e",
  "abi": [
    {
      "inputs": [
        {
          "internalType": "string",
          "name": "name_",
          "type": "string"
        },
        {
          "internalType": "string",
          "name": "symbol_",
          "type": "string"
        },
        {
          "internalType": "address",
          "name": "_rendererAddress",
          "type": "address"
        },
        {
          "internalType": "address",
          "name": "_opensea",
          "type": "address"
        },
        {
          "internalType": "address",
          "name": "_looksrare",
          "type": "address"
        }
      ],
      "stateMutability": "nonpayable",
      "type": "constructor"
    },
    {
      "inputs": [],
      "name": "ApprovalCallerNotOwnerNorApproved",
      "type": "error"
    },
    {
      "inputs": [],
      "name": "ApprovalQueryForNonexistentToken",
      "type": "error"
    },
    {
      "inputs": [],
      "name": "ApprovalToCurrentOwner",
      "type": "error"
    },
    {
      "inputs": [],
      "name": "ApproveToCaller",
      "type": "error"
    },
    {
      "inputs": [],
      "name": "BalanceQueryForZeroAddress",
      "type": "error"
    },
    {
      "inputs": [],
      "name": "MintToZeroAddress",
      "type": "error"
    },
    {
      "inputs": [],
      "name": "MintZeroQuantity",
      "type": "error"
    },
    {
      "inputs": [],
      "name": "OwnerIndexOutOfBounds",
      "type": "error"
    },
    {
      "inputs": [],
      "name": "OwnerQueryForNonexistentToken",
      "type": "error"
    },
    {
      "inputs": [],
      "name": "TokenIndexOutOfBounds",
      "type": "error"
    },
    {
      "inputs": [],
      "name": "TransferCallerNotOwnerNorApproved",
      "type": "error"
    },
    {
      "inputs": [],
      "name": "TransferFromIncorrectOwner",
      "type": "error"
    },
    {
      "inputs": [],
      "name": "TransferToNonERC721ReceiverImplementer",
      "type": "error"
    },
    {
      "inputs": [],
      "name": "TransferToZeroAddress",
      "type": "error"
    },
    {
      "anonymous": false,
      "inputs": [
        {
          "indexed": true,
          "internalType": "address",
          "name": "owner",
          "type": "address"
        },
        {
          "indexed": true,
          "internalType": "address",
          "name": "approved",
          "type": "address"
        },
        {
          "indexed": true,
          "internalType": "uint256",
          "name": "tokenId",
          "type": "uint256"
        }
      ],
      "name": "Approval",
      "type": "event"
    },
    {
      "anonymous": false,
      "inputs": [
        {
          "indexed": true,
          "internalType": "address",
          "name": "owner",
          "type": "address"
        },
        {
          "indexed": true,
          "internalType": "address",
          "name": "operator",
          "type": "address"
        },
        {
          "indexed": false,
          "internalType": "bool",
          "name": "approved",
          "type": "bool"
        }
      ],
      "name": "ApprovalForAll",
      "type": "event"
    },
    {
      "anonymous": false,
      "inputs": [
        {
          "indexed": true,
          "internalType": "address",
          "name": "previousOwner",
          "type": "address"
        },
        {
          "indexed": true,
          "internalType": "address",
          "name": "newOwner",
          "type": "address"
        }
      ],
      "name": "OwnershipTransferred",
      "type": "event"
    },
    {
      "anonymous": false,
      "inputs": [
        {
          "indexed": true,
          "internalType": "address",
          "name": "from",
          "type": "address"
        },
        {
          "indexed": true,
          "internalType": "address",
          "name": "to",
          "type": "address"
        },
        {
          "indexed": true,
          "internalType": "uint256",
          "name": "tokenId",
          "type": "uint256"
        }
      ],
      "name": "Transfer",
      "type": "event"
    },
    {
      "inputs": [],
      "name": "BLITMAP_COUNT",
      "outputs": [
        {
          "internalType": "uint8",
          "name": "",
          "type": "uint8"
        }
      ],
      "stateMutability": "view",
      "type": "function"
    },
    {
      "inputs": [],
      "name": "BLITOADZ_COUNT",
      "outputs": [
        {
          "internalType": "uint16",
          "name": "",
          "type": "uint16"
        }
      ],
      "stateMutability": "view",
      "type": "function"
    },
    {
      "inputs": [],
      "name": "MAX_MINT_PER_ADDRESS",
      "outputs": [
        {
          "internalType": "uint8",
          "name": "",
          "type": "uint8"
        }
      ],
      "stateMutability": "view",
      "type": "function"
    },
    {
      "inputs": [],
      "name": "MINT_PUBLIC_PRICE",
      "outputs": [
        {
          "internalType": "uint256",
          "name": "",
          "type": "uint256"
        }
      ],
      "stateMutability": "view",
      "type": "function"
    },
    {
      "inputs": [],
      "name": "TOADZ_COUNT",
      "outputs": [
        {
          "internalType": "uint8",
          "name": "",
          "type": "uint8"
        }
      ],
      "stateMutability": "view",
      "type": "function"
    },
    {
      "inputs": [
        {
          "internalType": "address",
          "name": "to",
          "type": "address"
        },
        {
          "internalType": "uint256",
          "name": "tokenId",
          "type": "uint256"
        }
      ],
      "name": "approve",
      "outputs": [],
      "stateMutability": "nonpayable",
      "type": "function"
    },
    {
      "inputs": [
        {
          "internalType": "address",
          "name": "owner",
          "type": "address"
        }
      ],
      "name": "balanceOf",
      "outputs": [
        {
          "internalType": "uint256",
          "name": "",
          "type": "uint256"
        }
      ],
      "stateMutability": "view",
      "type": "function"
    },
    {
      "inputs": [
        {
          "internalType": "uint256",
          "name": "",
          "type": "uint256"
        }
      ],
      "name": "blitoadz",
      "outputs": [
        {
          "internalType": "uint8",
          "name": "",
          "type": "uint8"
        }
      ],
      "stateMutability": "view",
      "type": "function"
    },
    {
      "inputs": [
        {
          "internalType": "uint256",
          "name": "",
          "type": "uint256"
        }
      ],
      "name": "blitoadzExist",
      "outputs": [
        {
          "internalType": "bool",
          "name": "",
          "type": "bool"
        }
      ],
      "stateMutability": "view",
      "type": "function"
    },
    {
      "inputs": [
        {
          "internalType": "uint256",
          "name": "_tokenId",
          "type": "uint256"
        }
      ],
      "name": "exists",
      "outputs": [
        {
          "internalType": "bool",
          "name": "",
          "type": "bool"
        }
      ],
      "stateMutability": "view",
      "type": "function"
    },
    {
      "inputs": [
        {
          "internalType": "address",
          "name": "proxyAddress",
          "type": "address"
        }
      ],
      "name": "flipProxyState",
      "outputs": [],
      "stateMutability": "nonpayable",
      "type": "function"
    },
    {
      "inputs": [
        {
          "internalType": "uint256",
          "name": "tokenId",
          "type": "uint256"
        }
      ],
      "name": "getApproved",
      "outputs": [
        {
          "internalType": "address",
          "name": "",
          "type": "address"
        }
      ],
      "stateMutability": "view",
      "type": "function"
    },
    {
      "inputs": [
        {
          "internalType": "address",
          "name": "owner",
          "type": "address"
        },
        {
          "internalType": "address",
          "name": "operator",
          "type": "address"
        }
      ],
      "name": "isApprovedForAll",
      "outputs": [
        {
          "internalType": "bool",
          "name": "",
          "type": "bool"
        }
      ],
      "stateMutability": "view",
      "type": "function"
    },
    {
      "inputs": [],
      "name": "isPublicSaleOpen",
      "outputs": [
        {
          "internalType": "bool",
          "name": "",
          "type": "bool"
        }
      ],
      "stateMutability": "view",
      "type": "function"
    },
    {
      "inputs": [],
      "name": "looksrare",
      "outputs": [
        {
          "internalType": "address",
          "name": "",
          "type": "address"
        }
      ],
      "stateMutability": "view",
      "type": "function"
    },
    {
      "inputs": [
        {
          "internalType": "uint256[]",
          "name": "toadzIds",
          "type": "uint256[]"
        },
        {
          "internalType": "uint256[]",
          "name": "blitmapIds",
          "type": "uint256[]"
        }
      ],
      "name": "mintPublicSale",
      "outputs": [],
      "stateMutability": "payable",
      "type": "function"
    },
    {
      "inputs": [],
      "name": "name",
      "outputs": [
        {
          "internalType": "string",
          "name": "",
          "type": "string"
        }
      ],
      "stateMutability": "view",
      "type": "function"
    },
    {
      "inputs": [],
      "name": "openPublicSale",
      "outputs": [],
      "stateMutability": "nonpayable",
      "type": "function"
    },
    {
      "inputs": [],
      "name": "opensea",
      "outputs": [
        {
          "internalType": "address",
          "name": "",
          "type": "address"
        }
      ],
      "stateMutability": "view",
      "type": "function"
    },
    {
      "inputs": [],
      "name": "owner",
      "outputs": [
        {
          "internalType": "address",
          "name": "",
          "type": "address"
        }
      ],
      "stateMutability": "view",
      "type": "function"
    },
    {
      "inputs": [
        {
          "internalType": "uint256",
          "name": "tokenId",
          "type": "uint256"
        }
      ],
      "name": "ownerOf",
      "outputs": [
        {
          "internalType": "address",
          "name": "",
          "type": "address"
        }
      ],
      "stateMutability": "view",
      "type": "function"
    },
    {
      "inputs": [],
      "name": "publicSaleStartTimestamp",
      "outputs": [
        {
          "internalType": "uint256",
          "name": "",
          "type": "uint256"
        }
      ],
      "stateMutability": "view",
      "type": "function"
    },
    {
      "inputs": [],
      "name": "renderingContractAddress",
      "outputs": [
        {
          "internalType": "address",
          "name": "",
          "type": "address"
        }
      ],
      "stateMutability": "view",
      "type": "function"
    },
    {
      "inputs": [],
      "name": "renounceOwnership",
      "outputs": [],
      "stateMutability": "nonpayable",
      "type": "function"
    },
    {
      "inputs": [
        {
          "internalType": "address",
          "name": "from",
          "type": "address"
        },
        {
          "internalType": "address",
          "name": "to",
          "type": "address"
        },
        {
          "internalType": "uint256",
          "name": "tokenId",
          "type": "uint256"
        }
      ],
      "name": "safeTransferFrom",
      "outputs": [],
      "stateMutability": "nonpayable",
      "type": "function"
    },
    {
      "inputs": [
        {
          "internalType": "address",
          "name": "from",
          "type": "address"
        },
        {
          "internalType": "address",
          "name": "to",
          "type": "address"
        },
        {
          "internalType": "uint256",
          "name": "tokenId",
          "type": "uint256"
        },
        {
          "internalType": "bytes",
          "name": "_data",
          "type": "bytes"
        }
      ],
      "name": "safeTransferFrom",
      "outputs": [],
      "stateMutability": "nonpayable",
      "type": "function"
    },
    {
      "inputs": [
        {
          "internalType": "address",
          "name": "operator",
          "type": "address"
        },
        {
          "internalType": "bool",
          "name": "approved",
          "type": "bool"
        }
      ],
      "name": "setApprovalForAll",
      "outputs": [],
      "stateMutability": "nonpayable",
      "type": "function"
    },
    {
      "inputs": [
        {
          "internalType": "address",
          "name": "looksrare_",
          "type": "address"
        }
      ],
      "name": "setLooksrare",
      "outputs": [],
      "stateMutability": "nonpayable",
      "type": "function"
    },
    {
      "inputs": [
        {
          "internalType": "address",
          "name": "opensea_",
          "type": "address"
        }
      ],
      "name": "setOpensea",
      "outputs": [],
      "stateMutability": "nonpayable",
      "type": "function"
    },
    {
      "inputs": [
        {
          "internalType": "address",
          "name": "_renderingContractAddress",
          "type": "address"
        }
      ],
      "name": "setRenderingContractAddress",
      "outputs": [],
      "stateMutability": "nonpayable",
      "type": "function"
    },
    {
      "inputs": [
        {
          "internalType": "bytes4",
          "name": "interfaceId",
          "type": "bytes4"
        }
      ],
      "name": "supportsInterface",
      "outputs": [
        {
          "internalType": "bool",
          "name": "",
          "type": "bool"
        }
      ],
      "stateMutability": "view",
      "type": "function"
    },
    {
      "inputs": [],
      "name": "symbol",
      "outputs": [
        {
          "internalType": "string",
          "name": "",
          "type": "string"
        }
      ],
      "stateMutability": "view",
      "type": "function"
    },
    {
      "inputs": [
        {
          "internalType": "uint256",
          "name": "index",
          "type": "uint256"
        }
      ],
      "name": "tokenByIndex",
      "outputs": [
        {
          "internalType": "uint256",
          "name": "",
          "type": "uint256"
        }
      ],
      "stateMutability": "view",
      "type": "function"
    },
    {
      "inputs": [
        {
          "internalType": "address",
          "name": "owner",
          "type": "address"
        },
        {
          "internalType": "uint256",
          "name": "index",
          "type": "uint256"
        }
      ],
      "name": "tokenOfOwnerByIndex",
      "outputs": [
        {
          "internalType": "uint256",
          "name": "",
          "type": "uint256"
        }
      ],
      "stateMutability": "view",
      "type": "function"
    },
    {
      "inputs": [
        {
          "internalType": "uint256",
          "name": "_tokenId",
          "type": "uint256"
        }
      ],
      "name": "tokenURI",
      "outputs": [
        {
          "internalType": "string",
          "name": "",
          "type": "string"
        }
      ],
      "stateMutability": "view",
      "type": "function"
    },
    {
      "inputs": [],
      "name": "totalSupply",
      "outputs": [
        {
          "internalType": "uint256",
          "name": "",
          "type": "uint256"
        }
      ],
      "stateMutability": "view",
      "type": "function"
    },
    {
      "inputs": [
        {
          "internalType": "address",
          "name": "from",
          "type": "address"
        },
        {
          "internalType": "address",
          "name": "to",
          "type": "address"
        },
        {
          "internalType": "uint256",
          "name": "tokenId",
          "type": "uint256"
        }
      ],
      "name": "transferFrom",
      "outputs": [],
      "stateMutability": "nonpayable",
      "type": "function"
    },
    {
      "inputs": [
        {
          "internalType": "address",
          "name": "newOwner",
          "type": "address"
        }
      ],
      "name": "transferOwnership",
      "outputs": [],
      "stateMutability": "nonpayable",
      "type": "function"
    },
    {
      "inputs": [],
      "name": "withdraw",
      "outputs": [],
      "stateMutability": "nonpayable",
      "type": "function"
    },
    {
      "stateMutability": "payable",
      "type": "receive"
    }
  ],
  "transactionHash": "0x8fd0b1cdb0b141cdc8cafe5a91c086fb73df8f85219077da7a0ecb04636a6479",
  "args": [
    "Blitoadz",
    "BLTZ",
    "0xf81575ce697DE0e3B74F8692F5e0217F5dED55E1",
    "0xa5409ec958c83c3f309868babaca7c86dcb077c1",
    "0xf42aa99f011a1fa7cda90e5e98b277e306bca83e"
  ],
  "numDeployments": 1,
  "solcInputHash": "c0c610796b341fb8a60ba0b659b48b7c",
  "bytecode": "0x60806040523480156200001157600080fd5b5060405162002d7838038062002d7883398101604081905262000034916200039b565b8451859085906200004d9060019060208501906200017e565b508051620000639060029060208401906200017e565b505050620000806200007a620000c660201b60201c565b620000ca565b600160085562000090836200011c565b60ba80546001600160a01b039384166001600160a01b03199182161790915560bb805492909316911617905550620004da915050565b3390565b600780546001600160a01b038381166001600160a01b0319831681179093556040519116919082907f8be0079c531659141344cd1fd0a4f28419497f9722a3daafe3b4186f6b6457e090600090a35050565b6007546001600160a01b03163314620001525760405162461bcd60e51b8152600401620001499062000458565b60405180910390fd5b60bd80546001600160a01b039092166001600160a01b0319928316811790915560be8054909216179055565b8280546200018c90620004a9565b90600052602060002090601f016020900481019282620001b05760008555620001fb565b82601f10620001cb57805160ff1916838001178555620001fb565b82800160010185558215620001fb579182015b82811115620001fb578251825591602001919060010190620001de565b50620002099291506200020d565b5090565b5b808211156200020957600081556001016200020e565b634e487b7160e01b600052604160045260246000fd5b601f19601f83011681016001600160401b038111828210171562000262576200026262000224565b6040525050565b60006200027560405190565b90506200028382826200023a565b919050565b60006001600160401b03821115620002a457620002a462000224565b601f19601f83011660200192915050565b60005b83811015620002d2578181015183820152602001620002b8565b83811115620002e2576000848401525b50505050565b6000620002ff620002f98462000288565b62000269565b9050828152602081018484840111156200031c576200031c600080fd5b62000329848285620002b5565b509392505050565b600082601f830112620003475762000347600080fd5b815162000359848260208601620002e8565b949350505050565b60006001600160a01b0382165b92915050565b6200037f8162000361565b81146200038b57600080fd5b50565b80516200036e8162000374565b600080600080600060a08688031215620003b857620003b8600080fd5b85516001600160401b03811115620003d357620003d3600080fd5b620003e18882890162000331565b602088015190965090506001600160401b03811115620004045762000404600080fd5b620004128882890162000331565b945050604062000425888289016200038e565b935050606062000438888289016200038e565b92505060806200044b888289016200038e565b9150509295509295909350565b60208082528181019081527f4f776e61626c653a2063616c6c6572206973206e6f7420746865206f776e65726040830152606082016200036e565b634e487b7160e01b600052602260045260246000fd5b600281046001821680620004be57607f821691505b60208210811415620004d457620004d462000493565b50919050565b61288e80620004ea6000396000f3fe6080604052600436106102a45760003560e01c806370a082311161016e578063b585209b116100cb578063c87b56dd1161007f578063e985e9c511610064578063e985e9c514610723578063f2fde38b14610743578063f73c814b1461076357600080fd5b8063c87b56dd146106ed578063d7822c991461070d57600080fd5b8063b88d4fde116100b0578063b88d4fde14610698578063c074f412146106b8578063c0c9c735146106d857600080fd5b8063b585209b14610663578063b776c8a61461067857600080fd5b806399c0731b11610122578063a22cb46511610107578063a22cb46514610603578063a8e90b5714610623578063af0097251461064357600080fd5b806399c0731b146105d35780639c51792a146105e857600080fd5b80638da5cb5b116101535780638da5cb5b1461058057806395d89b411461059e57806398f53959146105b357600080fd5b806370a082311461054b578063715018a61461056b57600080fd5b80632f745c591161021c5780634f558e79116101d0578063511ed382116101b5578063511ed382146104e857806353557e25146105085780636352211e1461052b57600080fd5b80634f558e79146104a85780634f6ccce7146104c857600080fd5b80633ccfd60b116102015780633ccfd60b146104605780633f5c1c461461047557806342842e0e1461048857600080fd5b80632f745c591461041e5780633acd6cb21461043e57600080fd5b806312b40a9f116102735780631a6949e3116102585780631a6949e3146103c95780631e8858fb146103de57806323b872dd146103fe57600080fd5b806312b40a9f1461035757806318160ddd1461037757600080fd5b806301ffc9a7146102b057806306fdde03146102e6578063081812fc14610308578063095ea7b31461033557600080fd5b366102ab57005b600080fd5b3480156102bc57600080fd5b506102d06102cb366004611e01565b610783565b6040516102dd9190611e2c565b60405180910390f35b3480156102f257600080fd5b506102fb610854565b6040516102dd9190611e98565b34801561031457600080fd5b50610328610323366004611eba565b6108e6565b6040516102dd9190611ef5565b34801561034157600080fd5b50610355610350366004611f17565b610943565b005b34801561036357600080fd5b50610355610372366004611f54565b610a03565b34801561038357600080fd5b506103bc6000546fffffffffffffffffffffffffffffffff70010000000000000000000000000000000082048116918116919091031690565b6040516102dd9190611f7b565b3480156103d557600080fd5b506102d0610a6f565b3480156103ea57600080fd5b506103556103f9366004611f54565b610a88565b34801561040a57600080fd5b50610355610419366004611f89565b610ae1565b34801561042a57600080fd5b506103bc610439366004611f17565b610aec565b34801561044a57600080fd5b50610453601481565b6040516102dd9190611fe2565b34801561046c57600080fd5b50610355610c0b565b610355610483366004612042565b610ca0565b34801561049457600080fd5b506103556104a3366004611f89565b610d86565b3480156104b457600080fd5b506102d06104c3366004611eba565b610da1565b3480156104d457600080fd5b506103bc6104e3366004611eba565b610dac565b3480156104f457600080fd5b5060ba54610328906001600160a01b031681565b34801561051457600080fd5b5061051e6115e081565b6040516102dd91906120c5565b34801561053757600080fd5b50610328610546366004611eba565b610e79565b34801561055757600080fd5b506103bc610566366004611f54565b610e8b565b34801561057757600080fd5b50610355610ef3565b34801561058c57600080fd5b506007546001600160a01b0316610328565b3480156105aa57600080fd5b506102fb610f29565b3480156105bf57600080fd5b506104536105ce366004611eba565b610f38565b3480156105df57600080fd5b50610453606481565b3480156105f457600080fd5b506103bc66b1a2bc2ec5000081565b34801561060f57600080fd5b5061035561061e3660046120e6565b610f6c565b34801561062f57600080fd5b5060bb54610328906001600160a01b031681565b34801561064f57600080fd5b506102d061065e366004611eba565b61101e565b34801561066f57600080fd5b50610355611049565b34801561068457600080fd5b50610355610693366004611f54565b611079565b3480156106a457600080fd5b506103556106b3366004612214565b6110d2565b3480156106c457600080fd5b5060bd54610328906001600160a01b031681565b3480156106e457600080fd5b50610453603881565b3480156106f957600080fd5b506102fb610708366004611eba565b61110c565b34801561071957600080fd5b506103bc60b95481565b34801561072f57600080fd5b506102d061073e366004612293565b611276565b34801561074f57600080fd5b5061035561075e366004611f54565b611387565b34801561076f57600080fd5b5061035561077e366004611f54565b6113e0565b60006001600160e01b031982167f80ac58cd0000000000000000000000000000000000000000000000000000000014806107e657506001600160e01b031982167f5b5e139f00000000000000000000000000000000000000000000000000000000145b8061081a57506001600160e01b031982167f780e9d6300000000000000000000000000000000000000000000000000000000145b8061084e57507f01ffc9a7000000000000000000000000000000000000000000000000000000006001600160e01b03198316145b92915050565b606060018054610863906122dc565b80601f016020809104026020016040519081016040528092919081815260200182805461088f906122dc565b80156108dc5780601f106108b1576101008083540402835291602001916108dc565b820191906000526020600020905b8154815290600101906020018083116108bf57829003601f168201915b5050505050905090565b60006108f182611433565b610927576040517fcf4700e400000000000000000000000000000000000000000000000000000000815260040160405180910390fd5b506000908152600560205260409020546001600160a01b031690565b600061094e82610e79565b9050806001600160a01b0316836001600160a01b0316141561099c576040517f943f7b8c00000000000000000000000000000000000000000000000000000000815260040160405180910390fd5b336001600160a01b038216148015906109bc57506109ba8133611276565b155b156109f3576040517fcfb3b94200000000000000000000000000000000000000000000000000000000815260040160405180910390fd5b6109fe838383611470565b505050565b6007546001600160a01b03163314610a365760405162461bcd60e51b8152600401610a2d9061233b565b60405180910390fd5b60bd80546001600160a01b0390921673ffffffffffffffffffffffffffffffffffffffff19928316811790915560be8054909216179055565b600060b95442118015610a83575060b95415155b905090565b6007546001600160a01b03163314610ab25760405162461bcd60e51b8152600401610a2d9061233b565b60bb805473ffffffffffffffffffffffffffffffffffffffff19166001600160a01b0392909216919091179055565b6109fe8383836114d9565b6000610af783610e8b565b8210610b2f576040517f0ddac30e00000000000000000000000000000000000000000000000000000000815260040160405180910390fd5b600080546fffffffffffffffffffffffffffffffff169080805b83811015610c0557600081815260036020908152604091829020825160608101845290546001600160a01b0381168252600160a01b810467ffffffffffffffff1692820192909252600160e01b90910460ff161580159282019290925290610bb15750610bfd565b80516001600160a01b031615610bc657805192505b876001600160a01b0316836001600160a01b03161415610bfb5786841415610bf45750935061084e92505050565b6001909301925b505b600101610b49565b50600080fd5b6007546001600160a01b03163314610c355760405162461bcd60e51b8152600401610a2d9061233b565b604051600090339047908381818185875af1925050503d8060008114610c77576040519150601f19603f3d011682016040523d82523d6000602084013e610c7c565b606091505b5050905080610c9d5760405162461bcd60e51b8152600401610a2d9061237d565b50565b610ca8610a6f565b610cc45760405162461bcd60e51b8152600401610a2d906123bf565b60026008541415610ce75760405162461bcd60e51b8152600401610a2d90612401565b6002600855828114610d0b5760405162461bcd60e51b8152600401610a2d9061246b565b610d1c8366b1a2bc2ec50000612491565b3414610d3a5760405162461bcd60e51b8152600401610a2d906124e2565b601483610d4633610e8b565b610d5091906124f2565b1115610d6e5760405162461bcd60e51b8152600401610a2d90612562565b610d7b338585858561174d565b505060016008555050565b6109fe838383604051806020016040528060008152506110d2565b600061084e82611433565b600080546fffffffffffffffffffffffffffffffff1681805b82811015610e4657600081815260036020908152604091829020825160608101845290546001600160a01b0381168252600160a01b810467ffffffffffffffff1692820192909252600160e01b90910460ff16151591810182905290610e3d5785831415610e365750949350505050565b6001909201915b50600101610dc5565b506040517fa723001c00000000000000000000000000000000000000000000000000000000815260040160405180910390fd5b6000610e84826118e5565b5192915050565b60006001600160a01b038216610ecd576040517f8f4eb60400000000000000000000000000000000000000000000000000000000815260040160405180910390fd5b506001600160a01b031660009081526004602052604090205467ffffffffffffffff1690565b6007546001600160a01b03163314610f1d5760405162461bcd60e51b8152600401610a2d9061233b565b610f276000611a2b565b565b606060028054610863906122dc565b60b88181548110610f4857600080fd5b9060005260206000209060209182820401919006915054906101000a900460ff1681565b6001600160a01b038216331415610faf576040517fb06307db00000000000000000000000000000000000000000000000000000000815260040160405180910390fd5b3360008181526006602090815260408083206001600160a01b038716808552925291829020805460ff191685151517905590519091907f17307eab39ab6107e8899845ad3d59bd9653f200f220920489ca2b5937696c3190611012908590611e2c565b60405180910390a35050565b6009816115e0811061102f57600080fd5b60209182820401919006915054906101000a900460ff1681565b6007546001600160a01b031633146110735760405162461bcd60e51b8152600401610a2d9061233b565b4260b955565b6007546001600160a01b031633146110a35760405162461bcd60e51b8152600401610a2d9061233b565b60ba805473ffffffffffffffffffffffffffffffffffffffff19166001600160a01b0392909216919091179055565b6110dd8484846114d9565b6110e984848484611a8a565b611106576040516368d2bf6b60e11b815260040160405180910390fd5b50505050565b606061111782611433565b6111335760405162461bcd60e51b8152600401610a2d906125ca565b60bd546001600160a01b031661115757505060408051602081019091526000815290565b600060b8611166846002612491565b81548110611176576111766125da565b60009182526020808320908204015460ff601f9092166101000a900416915060b86111a2856002612491565b6111ad9060016124f2565b815481106111bd576111bd6125da565b60009182526020918290209181049091015460be546040517f92cb829d000000000000000000000000000000000000000000000000000000008152601f9093166101000a90910460ff1692506001600160a01b0316906392cb829d90611229908590859060040161260b565b600060405180830381865afa158015611246573d6000803e3d6000fd5b505050506040513d6000823e601f3d908101601f1916820160405261126e919081019061267e565b949350505050565b60ba546040517fc45527910000000000000000000000000000000000000000000000000000000081526000916001600160a01b03169063c4552791906112c0908690600401611ef5565b602060405180830381865afa1580156112dd573d6000803e3d6000fd5b505050506040513d601f19601f8201168201806040525081019061130191906126d8565b6001600160a01b0316826001600160a01b0316148061132d575060bb546001600160a01b038381169116145b8061135057506001600160a01b038216600090815260bc602052604090205460ff165b8061138057506001600160a01b0380841660009081526006602090815260408083209386168352929052205460ff165b9392505050565b6007546001600160a01b031633146113b15760405162461bcd60e51b8152600401610a2d9061233b565b6001600160a01b0381166113d75760405162461bcd60e51b8152600401610a2d90612751565b610c9d81611a2b565b6007546001600160a01b0316331461140a5760405162461bcd60e51b8152600401610a2d9061233b565b6001600160a01b0316600090815260bc60205260409020805460ff19811660ff90911615179055565b600080546fffffffffffffffffffffffffffffffff168210801561084e575050600090815260036020526040902054600160e01b900460ff161590565b600082815260056020526040808220805473ffffffffffffffffffffffffffffffffffffffff19166001600160a01b0387811691821790925591518593918516917f8c5be1e5ebec7d5bd14f71427d1e84f3dd0314c0f7b2291e5b200ac8c7c3b92591a4505050565b60006114e4826118e5565b80519091506000906001600160a01b0316336001600160a01b03161480611512575081516115129033611276565b8061152d575033611522846108e6565b6001600160a01b0316145b905080611566576040517f59c896be00000000000000000000000000000000000000000000000000000000815260040160405180910390fd5b846001600160a01b031682600001516001600160a01b0316146115b5576040517fa114810000000000000000000000000000000000000000000000000000000000815260040160405180910390fd5b6001600160a01b0384166115f5576040517fea553b3400000000000000000000000000000000000000000000000000000000815260040160405180910390fd5b6116056000848460000151611470565b6001600160a01b038581166000908152600460209081526040808320805467ffffffffffffffff1980821667ffffffffffffffff92831660001901831617909255898616808652838620805493841693831660019081018416949094179055898652600390945282852080546001600160e01b031916909417600160a01b429092169190910217909255908601808352912054909116611703576000546fffffffffffffffffffffffffffffffff16811015611703578251600082815260036020908152604090912080549186015167ffffffffffffffff16600160a01b026001600160e01b03199092166001600160a01b03909316929092171790555b5082846001600160a01b0316866001600160a01b03167fddf252ad1be2c89b69c2b068fc378daa952ba7f163c4a11628f55a4df523b3ef60405160405180910390a45b5050505050565b60005b838110156118da57600085858381811061176c5761176c6125da565b9050602002013590506000848484818110611789576117896125da565b6020029190910135915060099050816117a3606485612491565b6117ad91906124f2565b6115e081106117be576117be6125da565b602081049091015460ff601f9092166101000a900416156117f15760405162461bcd60e51b8152600401610a2d90612793565b60b86117fe60ff846127b9565b815460018101835560009283526020928390209281049092018054601f9093166101000a60ff818102199094169284160291909117905560b89061184290836127b9565b8154600181810184556000938452602093849020938204909301805460ff938416601f9093166101000a928302939092021990911691909117905560098261188b606486612491565b61189591906124f2565b6115e081106118a6576118a66125da565b602091828204019190066101000a81548160ff021916908315150217905550505080806118d2906127cd565b915050611750565b506117468584611bbb565b60408051606081018252600080825260208201819052918101829052905482906fffffffffffffffffffffffffffffffff168110156119f957600081815260036020908152604091829020825160608101845290546001600160a01b0381168252600160a01b810467ffffffffffffffff1692820192909252600160e01b90910460ff161515918101829052906119f75780516001600160a01b03161561198d579392505050565b5060001901600081815260036020908152604091829020825160608101845290546001600160a01b038116808352600160a01b820467ffffffffffffffff1693830193909352600160e01b900460ff16151592810192909252156119f2579392505050565b61198d565b505b6040517fdf2d9b4200000000000000000000000000000000000000000000000000000000815260040160405180910390fd5b600780546001600160a01b0383811673ffffffffffffffffffffffffffffffffffffffff19831681179093556040519116919082907f8be0079c531659141344cd1fd0a4f28419497f9722a3daafe3b4186f6b6457e090600090a35050565b60006001600160a01b0384163b15611bb0576040517f150b7a020000000000000000000000000000000000000000000000000000000081526001600160a01b0385169063150b7a0290611ae79033908990889088906004016127e8565b6020604051808303816000875af1925050508015611b22575060408051601f3d908101601f19168201909252611b1f91810190612837565b60015b611b7d573d808015611b50576040519150601f19603f3d011682016040523d82523d6000602084013e611b55565b606091505b508051611b75576040516368d2bf6b60e11b815260040160405180910390fd5b805181602001fd5b6001600160e01b0319167f150b7a020000000000000000000000000000000000000000000000000000000014905061126e565b506001949350505050565b611bd5828260405180602001604052806000815250611bd9565b5050565b6109fe83838360016000546fffffffffffffffffffffffffffffffff166001600160a01b038516611c36576040517f2e07630000000000000000000000000000000000000000000000000000000000815260040160405180910390fd5b83611c6d576040517fb562e8dd00000000000000000000000000000000000000000000000000000000815260040160405180910390fd5b6001600160a01b038516600081815260046020908152604080832080547fffffffffffffffffffffffffffffffff00000000000000000000000000000000811667ffffffffffffffff8083168c0181169182176801000000000000000067ffffffffffffffff1990941690921783900481168c018116909202179091558584526003909252822080546001600160e01b031916909317600160a01b42909216919091021790915581905b85811015611d985760405182906001600160a01b038916906000907fddf252ad1be2c89b69c2b068fc378daa952ba7f163c4a11628f55a4df523b3ef908290a4838015611d6e5750611d6c6000888488611a8a565b155b15611d8c576040516368d2bf6b60e11b815260040160405180910390fd5b60019182019101611d17565b50600080547fffffffffffffffffffffffffffffffff00000000000000000000000000000000166fffffffffffffffffffffffffffffffff92909216919091179055611746565b6001600160e01b031981165b8114610c9d57600080fd5b803561084e81611ddf565b600060208284031215611e1657611e16600080fd5b600061126e8484611df6565b8015155b82525050565b6020810161084e8284611e22565b60005b83811015611e55578181015183820152602001611e3d565b838111156111065750506000910152565b6000611e70825190565b808452602084019350611e87818560208601611e3a565b601f01601f19169290920192915050565b602080825281016113808184611e66565b80611deb565b803561084e81611ea9565b600060208284031215611ecf57611ecf600080fd5b600061126e8484611eaf565b60006001600160a01b03821661084e565b611e2681611edb565b6020810161084e8284611eec565b611deb81611edb565b803561084e81611f03565b60008060408385031215611f2d57611f2d600080fd5b6000611f398585611f0c565b9250506020611f4a85828601611eaf565b9150509250929050565b600060208284031215611f6957611f69600080fd5b600061126e8484611f0c565b80611e26565b6020810161084e8284611f75565b600080600060608486031215611fa157611fa1600080fd5b6000611fad8686611f0c565b9350506020611fbe86828701611f0c565b9250506040611fcf86828701611eaf565b9150509250925092565b60ff8116611e26565b6020810161084e8284611fd9565b60008083601f84011261200557612005600080fd5b50813567ffffffffffffffff81111561202057612020600080fd5b60208301915083602082028301111561203b5761203b600080fd5b9250929050565b6000806000806040858703121561205b5761205b600080fd5b843567ffffffffffffffff81111561207557612075600080fd5b61208187828801611ff0565b9450945050602085013567ffffffffffffffff8111156120a3576120a3600080fd5b6120af87828801611ff0565b95989497509550505050565b61ffff8116611e26565b6020810161084e82846120bb565b801515611deb565b803561084e816120d3565b600080604083850312156120fc576120fc600080fd5b60006121088585611f0c565b9250506020611f4a858286016120db565b634e487b7160e01b600052604160045260246000fd5b601f19601f830116810181811067ffffffffffffffff8211171561215557612155612119565b6040525050565b600061216760405190565b9050612173828261212f565b919050565b600067ffffffffffffffff82111561219257612192612119565b601f19601f83011660200192915050565b82818337506000910152565b60006121c26121bd84612178565b61215c565b9050828152602081018484840111156121dd576121dd600080fd5b6121e88482856121a3565b509392505050565b600082601f83011261220457612204600080fd5b813561126e8482602086016121af565b6000806000806080858703121561222d5761222d600080fd5b60006122398787611f0c565b945050602061224a87828801611f0c565b935050604061225b87828801611eaf565b925050606085013567ffffffffffffffff81111561227b5761227b600080fd5b612287878288016121f0565b91505092959194509250565b600080604083850312156122a9576122a9600080fd5b60006122b58585611f0c565b9250506020611f4a85828601611f0c565b634e487b7160e01b600052602260045260246000fd5b6002810460018216806122f057607f821691505b60208210811415612303576123036122c6565b50919050565b60208082527f4f776e61626c653a2063616c6c6572206973206e6f7420746865206f776e657291019081525b60200190565b6020808252810161084e81612309565b60118152602081017f5769746864726177616c206661696c656400000000000000000000000000000081529050612335565b6020808252810161084e8161234b565b60148152602081017f5075626c69632073616c65206e6f74206f70656e00000000000000000000000081529050612335565b6020808252810161084e8161238d565b601f8152602081017f5265656e7472616e637947756172643a207265656e7472616e742063616c6c0081529050612335565b6020808252810161084e816123cf565b602e8152602081017f54686572652073686f756c64206265206f6e6520746f61647a496420666f722081527f6561636820626c69746d61704964000000000000000000000000000000000000602082015290505b60400190565b6020808252810161084e81612411565b634e487b7160e01b600052601160045260246000fd5b60008160001904831182151516156124ab576124ab61247b565b500290565b60148152602081017f507269636520646f6573206e6f74206d6174636800000000000000000000000081529050612335565b6020808252810161084e816124b0565b600082198211156125055761250561247b565b500190565b603c8152602081017f426c69746f61647a3a2074686520726571756573746564207175616e7469747981527f206578636565647320746865206d6178696d756d20616c6c6f7765640000000060208201529050612465565b6020808252810161084e8161250a565b60278152602081017f4552433732313a2055524920717565727920666f72206e6f6e6578697374656e81527f7420746f6b656e0000000000000000000000000000000000000000000000000060208201529050612465565b6020808252810161084e81612572565b634e487b7160e01b600052603260045260246000fd5b600061084e6125ff60ff841681565b90565b611e26816125f0565b604081016126198285612602565b6113806020830184612602565b60006126346121bd84612178565b90508281526020810184848401111561264f5761264f600080fd5b6121e8848285611e3a565b600082601f83011261266e5761266e600080fd5b815161126e848260208601612626565b60006020828403121561269357612693600080fd5b815167ffffffffffffffff8111156126ad576126ad600080fd5b61126e8482850161265a565b600061084e82611edb565b611deb816126b9565b805161084e816126c4565b6000602082840312156126ed576126ed600080fd5b600061126e84846126cd565b60268152602081017f4f776e61626c653a206e6577206f776e657220697320746865207a65726f206181527f646472657373000000000000000000000000000000000000000000000000000060208201529050612465565b6020808252810161084e816126f9565b60178152602081017f426c69746f61647a20616c72656164792065786973747300000000000000000081529050612335565b6020808252810161084e81612761565b634e487b7160e01b600052601260045260246000fd5b6000826127c8576127c86127a3565b500690565b60006000198214156127e1576127e161247b565b5060010190565b608081016127f68287611eec565b6128036020830186611eec565b6128106040830185611f75565b81810360608301526128228184611e66565b9695505050505050565b805161084e81611ddf565b60006020828403121561284c5761284c600080fd5b600061126e848461282c56fea264697066735822122082bc67e87269cbb6f7975b19df4c29c93af38d714d85661b6d9d51067f32bd2f64736f6c634300080c0033",
  "devdoc": {
    "kind": "dev",
    "methods": {
      "approve(address,uint256)": {
        "details": "See {IERC721-approve}."
      },
      "balanceOf(address)": {
        "details": "See {IERC721-balanceOf}."
      },
      "getApproved(uint256)": {
        "details": "See {IERC721-getApproved}."
      },
      "isApprovedForAll(address,address)": {
        "details": "Modified for opensea and looksrare pre-approve."
      },
      "name()": {
        "details": "See {IERC721Metadata-name}."
      },
      "owner()": {
        "details": "Returns the address of the current owner."
      },
      "ownerOf(uint256)": {
        "details": "See {IERC721-ownerOf}."
      },
      "renounceOwnership()": {
        "details": "Leaves the contract without owner. It will not be possible to call `onlyOwner` functions anymore. Can only be called by the current owner. NOTE: Renouncing ownership will leave the contract without an owner, thereby removing any functionality that is only available to the owner."
      },
      "safeTransferFrom(address,address,uint256)": {
        "details": "See {IERC721-safeTransferFrom}."
      },
      "safeTransferFrom(address,address,uint256,bytes)": {
        "details": "See {IERC721-safeTransferFrom}."
      },
      "setApprovalForAll(address,bool)": {
        "details": "See {IERC721-setApprovalForAll}."
      },
      "supportsInterface(bytes4)": {
        "details": "See {IERC165-supportsInterface}."
      },
      "symbol()": {
        "details": "See {IERC721Metadata-symbol}."
      },
      "tokenByIndex(uint256)": {
        "details": "See {IERC721Enumerable-tokenByIndex}. This read function is O(totalSupply). If calling from a separate contract, be sure to test gas first. It may also degrade with extremely large collection sizes (e.g >> 10000), test for your use case."
      },
      "tokenOfOwnerByIndex(address,uint256)": {
        "details": "See {IERC721Enumerable-tokenOfOwnerByIndex}. This read function is O(totalSupply). If calling from a separate contract, be sure to test gas first. It may also degrade with extremely large collection sizes (e.g >> 10000), test for your use case."
      },
      "totalSupply()": {
        "details": "See {IERC721Enumerable-totalSupply}."
      },
      "transferFrom(address,address,uint256)": {
        "details": "See {IERC721-transferFrom}."
      },
      "transferOwnership(address)": {
        "details": "Transfers ownership of the contract to a new account (`newOwner`). Can only be called by the current owner."
      }
    },
    "version": 1
  },
  "userdoc": {
    "kind": "user",
    "methods": {
      "flipProxyState(address)": {
        "notice": "Approve the communication and interaction with cross-collection interactions."
      },
      "setLooksrare(address)": {
        "notice": "Set looksrare to `looksrare_`."
      },
      "setOpensea(address)": {
        "notice": "Set opensea to `opensea_`."
      }
    },
    "version": 1
  },
  "storageLayout": {
    "storage": [
      {
        "astId": 2746,
        "contract": "contracts/blitoadz/Blitoadz.sol:Blitoadz",
        "label": "_currentIndex",
        "offset": 0,
        "slot": "0",
        "type": "t_uint128"
      },
      {
        "astId": 2748,
        "contract": "contracts/blitoadz/Blitoadz.sol:Blitoadz",
        "label": "_burnCounter",
        "offset": 16,
        "slot": "0",
        "type": "t_uint128"
      },
      {
        "astId": 2750,
        "contract": "contracts/blitoadz/Blitoadz.sol:Blitoadz",
        "label": "_name",
        "offset": 0,
        "slot": "1",
        "type": "t_string_storage"
      },
      {
        "astId": 2752,
        "contract": "contracts/blitoadz/Blitoadz.sol:Blitoadz",
        "label": "_symbol",
        "offset": 0,
        "slot": "2",
        "type": "t_string_storage"
      },
      {
        "astId": 2757,
        "contract": "contracts/blitoadz/Blitoadz.sol:Blitoadz",
        "label": "_ownerships",
        "offset": 0,
        "slot": "3",
        "type": "t_mapping(t_uint256,t_struct(TokenOwnership)2737_storage)"
      },
      {
        "astId": 2762,
        "contract": "contracts/blitoadz/Blitoadz.sol:Blitoadz",
        "label": "_addressData",
        "offset": 0,
        "slot": "4",
        "type": "t_mapping(t_address,t_struct(AddressData)2744_storage)"
      },
      {
        "astId": 2766,
        "contract": "contracts/blitoadz/Blitoadz.sol:Blitoadz",
        "label": "_tokenApprovals",
        "offset": 0,
        "slot": "5",
        "type": "t_mapping(t_uint256,t_address)"
      },
      {
        "astId": 2772,
        "contract": "contracts/blitoadz/Blitoadz.sol:Blitoadz",
        "label": "_operatorApprovals",
        "offset": 0,
        "slot": "6",
        "type": "t_mapping(t_address,t_mapping(t_address,t_bool))"
      },
      {
        "astId": 225,
        "contract": "contracts/blitoadz/Blitoadz.sol:Blitoadz",
        "label": "_owner",
        "offset": 0,
        "slot": "7",
        "type": "t_address"
      },
      {
        "astId": 333,
        "contract": "contracts/blitoadz/Blitoadz.sol:Blitoadz",
        "label": "_status",
        "offset": 0,
        "slot": "8",
        "type": "t_uint256"
      },
      {
        "astId": 1181,
        "contract": "contracts/blitoadz/Blitoadz.sol:Blitoadz",
        "label": "blitoadzExist",
        "offset": 0,
        "slot": "9",
        "type": "t_array(t_bool)5600_storage"
      },
      {
        "astId": 1184,
        "contract": "contracts/blitoadz/Blitoadz.sol:Blitoadz",
        "label": "blitoadz",
        "offset": 0,
        "slot": "184",
        "type": "t_array(t_uint8)dyn_storage"
      },
      {
        "astId": 1186,
        "contract": "contracts/blitoadz/Blitoadz.sol:Blitoadz",
        "label": "publicSaleStartTimestamp",
        "offset": 0,
        "slot": "185",
        "type": "t_uint256"
      },
      {
        "astId": 1235,
        "contract": "contracts/blitoadz/Blitoadz.sol:Blitoadz",
        "label": "opensea",
        "offset": 0,
        "slot": "186",
        "type": "t_address"
      },
      {
        "astId": 1237,
        "contract": "contracts/blitoadz/Blitoadz.sol:Blitoadz",
        "label": "looksrare",
        "offset": 0,
        "slot": "187",
        "type": "t_address"
      },
      {
        "astId": 1241,
        "contract": "contracts/blitoadz/Blitoadz.sol:Blitoadz",
        "label": "proxyToApproved",
        "offset": 0,
        "slot": "188",
        "type": "t_mapping(t_address,t_bool)"
      },
      {
        "astId": 1326,
        "contract": "contracts/blitoadz/Blitoadz.sol:Blitoadz",
        "label": "renderingContractAddress",
        "offset": 0,
        "slot": "189",
        "type": "t_address"
      },
      {
        "astId": 1329,
        "contract": "contracts/blitoadz/Blitoadz.sol:Blitoadz",
        "label": "renderer",
        "offset": 0,
        "slot": "190",
        "type": "t_contract(IBlitoadzRenderer)2386"
      }
    ],
    "types": {
      "t_address": {
        "encoding": "inplace",
        "label": "address",
        "numberOfBytes": "20"
      },
      "t_array(t_bool)5600_storage": {
        "base": "t_bool",
        "encoding": "inplace",
        "label": "bool[5600]",
        "numberOfBytes": "5600"
      },
      "t_array(t_uint8)dyn_storage": {
        "base": "t_uint8",
        "encoding": "dynamic_array",
        "label": "uint8[]",
        "numberOfBytes": "32"
      },
      "t_bool": {
        "encoding": "inplace",
        "label": "bool",
        "numberOfBytes": "1"
      },
      "t_contract(IBlitoadzRenderer)2386": {
        "encoding": "inplace",
        "label": "contract IBlitoadzRenderer",
        "numberOfBytes": "20"
      },
      "t_mapping(t_address,t_bool)": {
        "encoding": "mapping",
        "key": "t_address",
        "label": "mapping(address => bool)",
        "numberOfBytes": "32",
        "value": "t_bool"
      },
      "t_mapping(t_address,t_mapping(t_address,t_bool))": {
        "encoding": "mapping",
        "key": "t_address",
        "label": "mapping(address => mapping(address => bool))",
        "numberOfBytes": "32",
        "value": "t_mapping(t_address,t_bool)"
      },
      "t_mapping(t_address,t_struct(AddressData)2744_storage)": {
        "encoding": "mapping",
        "key": "t_address",
        "label": "mapping(address => struct ERC721A.AddressData)",
        "numberOfBytes": "32",
        "value": "t_struct(AddressData)2744_storage"
      },
      "t_mapping(t_uint256,t_address)": {
        "encoding": "mapping",
        "key": "t_uint256",
        "label": "mapping(uint256 => address)",
        "numberOfBytes": "32",
        "value": "t_address"
      },
      "t_mapping(t_uint256,t_struct(TokenOwnership)2737_storage)": {
        "encoding": "mapping",
        "key": "t_uint256",
        "label": "mapping(uint256 => struct ERC721A.TokenOwnership)",
        "numberOfBytes": "32",
        "value": "t_struct(TokenOwnership)2737_storage"
      },
      "t_string_storage": {
        "encoding": "bytes",
        "label": "string",
        "numberOfBytes": "32"
      },
      "t_struct(AddressData)2744_storage": {
        "encoding": "inplace",
        "label": "struct ERC721A.AddressData",
        "members": [
          {
            "astId": 2739,
            "contract": "contracts/blitoadz/Blitoadz.sol:Blitoadz",
            "label": "balance",
            "offset": 0,
            "slot": "0",
            "type": "t_uint64"
          },
          {
            "astId": 2741,
            "contract": "contracts/blitoadz/Blitoadz.sol:Blitoadz",
            "label": "numberMinted",
            "offset": 8,
            "slot": "0",
            "type": "t_uint64"
          },
          {
            "astId": 2743,
            "contract": "contracts/blitoadz/Blitoadz.sol:Blitoadz",
            "label": "numberBurned",
            "offset": 16,
            "slot": "0",
            "type": "t_uint64"
          }
        ],
        "numberOfBytes": "32"
      },
      "t_struct(TokenOwnership)2737_storage": {
        "encoding": "inplace",
        "label": "struct ERC721A.TokenOwnership",
        "members": [
          {
            "astId": 2732,
            "contract": "contracts/blitoadz/Blitoadz.sol:Blitoadz",
            "label": "addr",
            "offset": 0,
            "slot": "0",
            "type": "t_address"
          },
          {
            "astId": 2734,
            "contract": "contracts/blitoadz/Blitoadz.sol:Blitoadz",
            "label": "startTimestamp",
            "offset": 20,
            "slot": "0",
            "type": "t_uint64"
          },
          {
            "astId": 2736,
            "contract": "contracts/blitoadz/Blitoadz.sol:Blitoadz",
            "label": "burned",
            "offset": 28,
            "slot": "0",
            "type": "t_bool"
          }
        ],
        "numberOfBytes": "32"
      },
      "t_uint128": {
        "encoding": "inplace",
        "label": "uint128",
        "numberOfBytes": "16"
      },
      "t_uint256": {
        "encoding": "inplace",
        "label": "uint256",
        "numberOfBytes": "32"
      },
      "t_uint64": {
        "encoding": "inplace",
        "label": "uint64",
        "numberOfBytes": "8"
      },
      "t_uint8": {
        "encoding": "inplace",
        "label": "uint8",
        "numberOfBytes": "1"
      }
    }
  }
}