{
  "address": "0xef658D57FA33c60B0D78005fc633529B69342851",
  "abi": [
    {
      "inputs": [
        {
          "internalType": "string",
          "name": "name_",
          "type": "string"
        },
        {
          "internalType": "string",
          "name": "symbol_",
          "type": "string"
        },
        {
          "internalType": "address",
          "name": "_rendererAddress",
          "type": "address"
        },
        {
          "internalType": "address",
          "name": "_opensea",
          "type": "address"
        },
        {
          "internalType": "address",
          "name": "_looksrare",
          "type": "address"
        },
        {
          "internalType": "address[]",
          "name": "_founders",
          "type": "address[]"
        },
        {
          "components": [
            {
              "internalType": "uint128",
              "name": "withdrawnAmount",
              "type": "uint128"
            },
            {
              "internalType": "uint128",
              "name": "shares",
              "type": "uint128"
            }
          ],
          "internalType": "struct Blitoadz.Founder[]",
          "name": "_foundersData",
          "type": "tuple[]"
        },
        {
          "internalType": "uint256",
          "name": "_blitmapCreatorShares",
          "type": "uint256"
        },
        {
          "internalType": "address",
          "name": "_blitmap",
          "type": "address"
        }
      ],
      "stateMutability": "nonpayable",
      "type": "constructor"
    },
    {
      "inputs": [],
      "name": "ApprovalCallerNotOwnerNorApproved",
      "type": "error"
    },
    {
      "inputs": [],
      "name": "ApprovalQueryForNonexistentToken",
      "type": "error"
    },
    {
      "inputs": [],
      "name": "ApprovalToCurrentOwner",
      "type": "error"
    },
    {
      "inputs": [],
      "name": "ApproveToCaller",
      "type": "error"
    },
    {
      "inputs": [],
      "name": "BalanceQueryForZeroAddress",
      "type": "error"
    },
    {
      "inputs": [],
      "name": "BlitmapIndexOutOfBounds",
      "type": "error"
    },
    {
      "inputs": [],
      "name": "BlitoadzExists",
      "type": "error"
    },
    {
      "inputs": [],
      "name": "IncorrectPrice",
      "type": "error"
    },
    {
      "inputs": [],
      "name": "MintToZeroAddress",
      "type": "error"
    },
    {
      "inputs": [],
      "name": "MintZeroQuantity",
      "type": "error"
    },
    {
      "inputs": [],
      "name": "NothingToWithdraw",
      "type": "error"
    },
    {
      "inputs": [],
      "name": "OwnerIndexOutOfBounds",
      "type": "error"
    },
    {
      "inputs": [],
      "name": "OwnerQueryForNonexistentToken",
      "type": "error"
    },
    {
      "inputs": [],
      "name": "PublicSaleNotOpen",
      "type": "error"
    },
    {
      "inputs": [],
      "name": "ToadzAndBlitmapLengthMismatch",
      "type": "error"
    },
    {
      "inputs": [],
      "name": "ToadzIndexOutOfBounds",
      "type": "error"
    },
    {
      "inputs": [],
      "name": "TokenIndexOutOfBounds",
      "type": "error"
    },
    {
      "inputs": [],
      "name": "TransferCallerNotOwnerNorApproved",
      "type": "error"
    },
    {
      "inputs": [],
      "name": "TransferFromIncorrectOwner",
      "type": "error"
    },
    {
      "inputs": [],
      "name": "TransferToNonERC721ReceiverImplementer",
      "type": "error"
    },
    {
      "inputs": [],
      "name": "TransferToZeroAddress",
      "type": "error"
    },
    {
      "inputs": [],
      "name": "URIQueryForNonexistentToken",
      "type": "error"
    },
    {
      "inputs": [],
      "name": "WithdrawalFailed",
      "type": "error"
    },
    {
      "inputs": [],
      "name": "WithdrawalQueryForNonexistentToken",
      "type": "error"
    },
    {
      "anonymous": false,
      "inputs": [
        {
          "indexed": true,
          "internalType": "address",
          "name": "owner",
          "type": "address"
        },
        {
          "indexed": true,
          "internalType": "address",
          "name": "approved",
          "type": "address"
        },
        {
          "indexed": true,
          "internalType": "uint256",
          "name": "tokenId",
          "type": "uint256"
        }
      ],
      "name": "Approval",
      "type": "event"
    },
    {
      "anonymous": false,
      "inputs": [
        {
          "indexed": true,
          "internalType": "address",
          "name": "owner",
          "type": "address"
        },
        {
          "indexed": true,
          "internalType": "address",
          "name": "operator",
          "type": "address"
        },
        {
          "indexed": false,
          "internalType": "bool",
          "name": "approved",
          "type": "bool"
        }
      ],
      "name": "ApprovalForAll",
      "type": "event"
    },
    {
      "anonymous": false,
      "inputs": [
        {
          "indexed": true,
          "internalType": "address",
          "name": "previousOwner",
          "type": "address"
        },
        {
          "indexed": true,
          "internalType": "address",
          "name": "newOwner",
          "type": "address"
        }
      ],
      "name": "OwnershipTransferred",
      "type": "event"
    },
    {
      "anonymous": false,
      "inputs": [
        {
          "indexed": true,
          "internalType": "address",
          "name": "from",
          "type": "address"
        },
        {
          "indexed": true,
          "internalType": "address",
          "name": "to",
          "type": "address"
        },
        {
          "indexed": true,
          "internalType": "uint256",
          "name": "tokenId",
          "type": "uint256"
        }
      ],
      "name": "Transfer",
      "type": "event"
    },
    {
      "inputs": [],
      "name": "BLITMAP_COUNT",
      "outputs": [
        {
          "internalType": "uint8",
          "name": "",
          "type": "uint8"
        }
      ],
      "stateMutability": "view",
      "type": "function"
    },
    {
      "inputs": [],
      "name": "BLITOADZ_COUNT",
      "outputs": [
        {
          "internalType": "uint16",
          "name": "",
          "type": "uint16"
        }
      ],
      "stateMutability": "view",
      "type": "function"
    },
    {
      "inputs": [],
      "name": "MINT_PUBLIC_PRICE",
      "outputs": [
        {
          "internalType": "uint256",
          "name": "",
          "type": "uint256"
        }
      ],
      "stateMutability": "view",
      "type": "function"
    },
    {
      "inputs": [],
      "name": "TOADZ_COUNT",
      "outputs": [
        {
          "internalType": "uint8",
          "name": "",
          "type": "uint8"
        }
      ],
      "stateMutability": "view",
      "type": "function"
    },
    {
      "inputs": [
        {
          "internalType": "address",
          "name": "to",
          "type": "address"
        },
        {
          "internalType": "uint256",
          "name": "tokenId",
          "type": "uint256"
        }
      ],
      "name": "approve",
      "outputs": [],
      "stateMutability": "nonpayable",
      "type": "function"
    },
    {
      "inputs": [
        {
          "internalType": "address",
          "name": "owner",
          "type": "address"
        }
      ],
      "name": "balanceOf",
      "outputs": [
        {
          "internalType": "uint256",
          "name": "",
          "type": "uint256"
        }
      ],
      "stateMutability": "view",
      "type": "function"
    },
    {
      "inputs": [],
      "name": "blitmap",
      "outputs": [
        {
          "internalType": "contract IBlitmap",
          "name": "",
          "type": "address"
        }
      ],
      "stateMutability": "view",
      "type": "function"
    },
    {
      "inputs": [],
      "name": "blitmapCreatorShares",
      "outputs": [
        {
          "internalType": "uint256",
          "name": "",
          "type": "uint256"
        }
      ],
      "stateMutability": "view",
      "type": "function"
    },
    {
      "inputs": [
        {
          "internalType": "uint256",
          "name": "",
          "type": "uint256"
        }
      ],
      "name": "blitoadz",
      "outputs": [
        {
          "internalType": "uint8",
          "name": "toadzId",
          "type": "uint8"
        },
        {
          "internalType": "uint8",
          "name": "blitmapId",
          "type": "uint8"
        },
        {
          "internalType": "uint8",
          "name": "paletteOrder",
          "type": "uint8"
        },
        {
          "internalType": "bool",
          "name": "withdrawn",
          "type": "bool"
        }
      ],
      "stateMutability": "view",
      "type": "function"
    },
    {
      "inputs": [
        {
          "internalType": "uint256",
          "name": "",
          "type": "uint256"
        }
      ],
      "name": "blitoadzExist",
      "outputs": [
        {
          "internalType": "bool",
          "name": "",
          "type": "bool"
        }
      ],
      "stateMutability": "view",
      "type": "function"
    },
    {
      "inputs": [
        {
          "internalType": "uint256",
          "name": "_tokenId",
          "type": "uint256"
        }
      ],
      "name": "exists",
      "outputs": [
        {
          "internalType": "bool",
          "name": "",
          "type": "bool"
        }
      ],
      "stateMutability": "view",
      "type": "function"
    },
    {
      "inputs": [
        {
          "internalType": "address",
          "name": "",
          "type": "address"
        }
      ],
      "name": "founders",
      "outputs": [
        {
          "internalType": "uint128",
          "name": "withdrawnAmount",
          "type": "uint128"
        },
        {
          "internalType": "uint128",
          "name": "shares",
          "type": "uint128"
        }
      ],
      "stateMutability": "view",
      "type": "function"
    },
    {
      "inputs": [
        {
          "internalType": "uint256",
          "name": "tokenId",
          "type": "uint256"
        }
      ],
      "name": "getApproved",
      "outputs": [
        {
          "internalType": "address",
          "name": "",
          "type": "address"
        }
      ],
      "stateMutability": "view",
      "type": "function"
    },
    {
      "inputs": [
        {
          "internalType": "address",
          "name": "owner",
          "type": "address"
        },
        {
          "internalType": "address",
          "name": "operator",
          "type": "address"
        }
      ],
      "name": "isApprovedForAll",
      "outputs": [
        {
          "internalType": "bool",
          "name": "",
          "type": "bool"
        }
      ],
      "stateMutability": "view",
      "type": "function"
    },
    {
      "inputs": [],
      "name": "isPublicSaleOpen",
      "outputs": [
        {
          "internalType": "bool",
          "name": "",
          "type": "bool"
        }
      ],
      "stateMutability": "view",
      "type": "function"
    },
    {
      "inputs": [],
      "name": "looksrare",
      "outputs": [
        {
          "internalType": "address",
          "name": "",
          "type": "address"
        }
      ],
      "stateMutability": "view",
      "type": "function"
    },
    {
      "inputs": [
        {
          "internalType": "uint256[]",
          "name": "toadzIds",
          "type": "uint256[]"
        },
        {
          "internalType": "uint256[]",
          "name": "blitmapIds",
          "type": "uint256[]"
        },
        {
          "internalType": "uint256[]",
          "name": "paletteOrders",
          "type": "uint256[]"
        }
      ],
      "name": "mintPublicSale",
      "outputs": [],
      "stateMutability": "payable",
      "type": "function"
    },
    {
      "inputs": [],
      "name": "name",
      "outputs": [
        {
          "internalType": "string",
          "name": "",
          "type": "string"
        }
      ],
      "stateMutability": "view",
      "type": "function"
    },
    {
      "inputs": [],
      "name": "openPublicSale",
      "outputs": [],
      "stateMutability": "nonpayable",
      "type": "function"
    },
    {
      "inputs": [],
      "name": "opensea",
      "outputs": [
        {
          "internalType": "address",
          "name": "",
          "type": "address"
        }
      ],
      "stateMutability": "view",
      "type": "function"
    },
    {
      "inputs": [],
      "name": "owner",
      "outputs": [
        {
          "internalType": "address",
          "name": "",
          "type": "address"
        }
      ],
      "stateMutability": "view",
      "type": "function"
    },
    {
      "inputs": [
        {
          "internalType": "uint256",
          "name": "tokenId",
          "type": "uint256"
        }
      ],
      "name": "ownerOf",
      "outputs": [
        {
          "internalType": "address",
          "name": "",
          "type": "address"
        }
      ],
      "stateMutability": "view",
      "type": "function"
    },
    {
      "inputs": [],
      "name": "publicSaleStartTimestamp",
      "outputs": [
        {
          "internalType": "uint256",
          "name": "",
          "type": "uint256"
        }
      ],
      "stateMutability": "view",
      "type": "function"
    },
    {
      "inputs": [],
      "name": "renderingContractAddress",
      "outputs": [
        {
          "internalType": "address",
          "name": "",
          "type": "address"
        }
      ],
      "stateMutability": "view",
      "type": "function"
    },
    {
      "inputs": [],
      "name": "renounceOwnership",
      "outputs": [],
      "stateMutability": "nonpayable",
      "type": "function"
    },
    {
      "inputs": [
        {
          "internalType": "address",
          "name": "from",
          "type": "address"
        },
        {
          "internalType": "address",
          "name": "to",
          "type": "address"
        },
        {
          "internalType": "uint256",
          "name": "tokenId",
          "type": "uint256"
        }
      ],
      "name": "safeTransferFrom",
      "outputs": [],
      "stateMutability": "nonpayable",
      "type": "function"
    },
    {
      "inputs": [
        {
          "internalType": "address",
          "name": "from",
          "type": "address"
        },
        {
          "internalType": "address",
          "name": "to",
          "type": "address"
        },
        {
          "internalType": "uint256",
          "name": "tokenId",
          "type": "uint256"
        },
        {
          "internalType": "bytes",
          "name": "_data",
          "type": "bytes"
        }
      ],
      "name": "safeTransferFrom",
      "outputs": [],
      "stateMutability": "nonpayable",
      "type": "function"
    },
    {
      "inputs": [
        {
          "internalType": "address",
          "name": "operator",
          "type": "address"
        },
        {
          "internalType": "bool",
          "name": "approved",
          "type": "bool"
        }
      ],
      "name": "setApprovalForAll",
      "outputs": [],
      "stateMutability": "nonpayable",
      "type": "function"
    },
    {
      "inputs": [
        {
          "internalType": "address",
          "name": "looksrare_",
          "type": "address"
        }
      ],
      "name": "setLooksrare",
      "outputs": [],
      "stateMutability": "nonpayable",
      "type": "function"
    },
    {
      "inputs": [
        {
          "internalType": "address",
          "name": "opensea_",
          "type": "address"
        }
      ],
      "name": "setOpensea",
      "outputs": [],
      "stateMutability": "nonpayable",
      "type": "function"
    },
    {
      "inputs": [
        {
          "internalType": "address",
          "name": "_renderingContractAddress",
          "type": "address"
        }
      ],
      "name": "setRenderingContractAddress",
      "outputs": [],
      "stateMutability": "nonpayable",
      "type": "function"
    },
    {
      "inputs": [
        {
          "internalType": "bytes4",
          "name": "interfaceId",
          "type": "bytes4"
        }
      ],
      "name": "supportsInterface",
      "outputs": [
        {
          "internalType": "bool",
          "name": "",
          "type": "bool"
        }
      ],
      "stateMutability": "view",
      "type": "function"
    },
    {
      "inputs": [],
      "name": "symbol",
      "outputs": [
        {
          "internalType": "string",
          "name": "",
          "type": "string"
        }
      ],
      "stateMutability": "view",
      "type": "function"
    },
    {
      "inputs": [
        {
          "internalType": "uint256",
          "name": "index",
          "type": "uint256"
        }
      ],
      "name": "tokenByIndex",
      "outputs": [
        {
          "internalType": "uint256",
          "name": "",
          "type": "uint256"
        }
      ],
      "stateMutability": "view",
      "type": "function"
    },
    {
      "inputs": [
        {
          "internalType": "address",
          "name": "owner",
          "type": "address"
        },
        {
          "internalType": "uint256",
          "name": "index",
          "type": "uint256"
        }
      ],
      "name": "tokenOfOwnerByIndex",
      "outputs": [
        {
          "internalType": "uint256",
          "name": "",
          "type": "uint256"
        }
      ],
      "stateMutability": "view",
      "type": "function"
    },
    {
      "inputs": [
        {
          "internalType": "uint256",
          "name": "_tokenId",
          "type": "uint256"
        }
      ],
      "name": "tokenURI",
      "outputs": [
        {
          "internalType": "string",
          "name": "",
          "type": "string"
        }
      ],
      "stateMutability": "view",
      "type": "function"
    },
    {
      "inputs": [],
      "name": "totalSupply",
      "outputs": [
        {
          "internalType": "uint256",
          "name": "",
          "type": "uint256"
        }
      ],
      "stateMutability": "view",
      "type": "function"
    },
    {
      "inputs": [
        {
          "internalType": "address",
          "name": "from",
          "type": "address"
        },
        {
          "internalType": "address",
          "name": "to",
          "type": "address"
        },
        {
          "internalType": "uint256",
          "name": "tokenId",
          "type": "uint256"
        }
      ],
      "name": "transferFrom",
      "outputs": [],
      "stateMutability": "nonpayable",
      "type": "function"
    },
    {
      "inputs": [
        {
          "internalType": "address",
          "name": "newOwner",
          "type": "address"
        }
      ],
      "name": "transferOwnership",
      "outputs": [],
      "stateMutability": "nonpayable",
      "type": "function"
    },
    {
      "inputs": [
        {
          "internalType": "uint256[]",
          "name": "tokenIds",
          "type": "uint256[]"
        }
      ],
      "name": "withdrawBlitmapCreator",
      "outputs": [
        {
          "internalType": "bool",
          "name": "",
          "type": "bool"
        }
      ],
      "stateMutability": "nonpayable",
      "type": "function"
    },
    {
      "inputs": [],
      "name": "withdrawFounder",
      "outputs": [
        {
          "internalType": "bool",
          "name": "",
          "type": "bool"
        }
      ],
      "stateMutability": "nonpayable",
      "type": "function"
    },
    {
      "stateMutability": "payable",
      "type": "receive"
    }
  ],
  "transactionHash": "0xa755942bfeaca77c0c1bc5152d683dd71063d1bf7d6f1563e1d21cbe5ae39180",
  "args": [
    "Blitoadz",
    "BLTZ",
    "0xc2584BAB262fe545722f9746B9Bd2edCa80e5de9",
    "0xF57B2c51dED3A29e6891aba85459d600256Cf317",
    "0x3f65A762F15D01809cDC6B43d8849fF24949c86a",
    [
      "0xD246882E05D7DdB2C8476607312279f592789Cd6",
      "0x0C3c184C2c5Fc99aED927cE3513141eb3Ce684FA",
      "0x4298e663517593284Ad4FE199b21815BD48a9969",
      "0x8CdbFB113D01b9832E58b15Eb224c7404853bB3f",
      "0xFc7c18A7F0d53A924D6aF07814c47eEf0Fb4F7d7"
    ],
    [
      {
        "shares": 1680,
        "withdrawnAmount": 0
      },
      {
        "shares": 1400,
        "withdrawnAmount": 0
      },
      {
        "shares": 312,
        "withdrawnAmount": 0
      },
      {
        "shares": 628,
        "withdrawnAmount": 0
      },
      {
        "shares": 628,
        "withdrawnAmount": 0
      }
    ],
    952,
    "0xa99e9FffeCB444e6d77634fBF3c10A56a085d393"
  ],
  "numDeployments": 3,
  "solcInputHash": "1525714336827f70146c723be79ac75f",
  "bytecode": "0x60806040523480156200001157600080fd5b506040516200368638038062003686833981016040819052620000349162000619565b8851899089906200004d90600190602085019062000248565b5080516200006390600290602084019062000248565b505050620000806200007a6200019060201b60201c565b62000194565b60016008556200009087620001e6565b60bd80546001600160a01b038089166001600160a01b03199283161790925560be80549288169290911691909117905560005b84518110156200015c57838181518110620000e257620000e262000769565b602002602001015160bb600087848151811062000103576200010362000769565b6020908102919091018101516001600160a01b0316825281810192909252604001600020825192909101516001600160801b03908116600160801b02921691909117905580620001538162000795565b915050620000c3565b5060ba91909155600980546001600160a01b0319166001600160a01b03909216919091179055506200083595505050505050565b3390565b600780546001600160a01b038381166001600160a01b0319831681179093556040519116919082907f8be0079c531659141344cd1fd0a4f28419497f9722a3daafe3b4186f6b6457e090600090a35050565b6007546001600160a01b031633146200021c5760405162461bcd60e51b81526004016200021390620007b3565b60405180910390fd5b60bf80546001600160a01b039092166001600160a01b0319928316811790915560c08054909216179055565b828054620002569062000804565b90600052602060002090601f0160209004810192826200027a5760008555620002c5565b82601f106200029557805160ff1916838001178555620002c5565b82800160010185558215620002c5579182015b82811115620002c5578251825591602001919060010190620002a8565b50620002d3929150620002d7565b5090565b5b80821115620002d35760008155600101620002d8565b634e487b7160e01b600052604160045260246000fd5b601f19601f83011681016001600160401b03811182821017156200032c576200032c620002ee565b6040525050565b60006200033f60405190565b90506200034d828262000304565b919050565b60006001600160401b038211156200036e576200036e620002ee565b601f19601f83011660200192915050565b60005b838110156200039c57818101518382015260200162000382565b83811115620003ac576000848401525b50505050565b6000620003c9620003c38462000352565b62000333565b905082815260208101848484011115620003e657620003e6600080fd5b620003f38482856200037f565b509392505050565b600082601f830112620004115762000411600080fd5b815162000423848260208601620003b2565b949350505050565b60006001600160a01b0382165b92915050565b62000449816200042b565b81146200045557600080fd5b50565b805162000438816200043e565b60006001600160401b03821115620004815762000481620002ee565b5060209081020190565b60006200049c620003c38462000465565b83815290506020808201908402830185811115620004bd57620004bd600080fd5b835b81811015620004e357620004d4878262000458565b835260209283019201620004bf565b5050509392505050565b600082601f830112620005035762000503600080fd5b8151620004238482602086016200048b565b6001600160801b03811662000449565b8051620004388162000515565b600060408284031215620005495762000549600080fd5b62000555604062000333565b9050600062000565848462000525565b908201526020620005798484830162000525565b9082015292915050565b600062000594620003c38462000465565b83815290506020810160408402830185811115620005b557620005b5600080fd5b835b81811015620004e357620005cc878262000532565b8352602090920191604001620005b7565b600082601f830112620005f357620005f3600080fd5b81516200042384826020860162000583565b8062000449565b8051620004388162000605565b60008060008060008060008060006101208a8c0312156200063d576200063d600080fd5b89516001600160401b03811115620006585762000658600080fd5b620006668c828d01620003fb565b60208c0151909a5090506001600160401b03811115620006895762000689600080fd5b620006978c828d01620003fb565b9850506040620006aa8c828d0162000458565b9750506060620006bd8c828d0162000458565b9650506080620006d08c828d0162000458565b60a08c015190965090506001600160401b03811115620006f357620006f3600080fd5b620007018c828d01620004ed565b60c08c015190955090506001600160401b03811115620007245762000724600080fd5b620007328c828d01620005dd565b93505060e0620007458c828d016200060c565b925050610100620007598c828d0162000458565b9150509295985092959850929598565b634e487b7160e01b600052603260045260246000fd5b634e487b7160e01b600052601160045260246000fd5b6000600019821415620007ac57620007ac6200077f565b5060010190565b60208082528181019081527f4f776e61626c653a2063616c6c6572206973206e6f7420746865206f776e657260408301526060820162000438565b634e487b7160e01b600052602260045260246000fd5b6002810460018216806200081957607f821691505b602082108114156200082f576200082f620007ee565b50919050565b612e4180620008456000396000f3fe6080604052600436106102ca5760003560e01c806395d89b4111610179578063b776c8a6116100d6578063d7822c991161008a578063f140a90011610064578063f140a900146107e7578063f2fde38b146107fa578063fca517a71461081a57600080fd5b8063d7822c9914610755578063de6746a51461076b578063e985e9c5146107c757600080fd5b8063c074f412116100bb578063c074f41214610700578063c0c9c73514610720578063c87b56dd1461073557600080fd5b8063b776c8a6146106c0578063b88d4fde146106e057600080fd5b8063a8e90b571161012d578063af00972511610112578063af0097251461065e578063b585209b1461067e578063b6cfb2421461069357600080fd5b8063a8e90b5714610628578063ac156e9b1461064857600080fd5b806399c0731b1161015e57806399c0731b146105cb5780639c51792a146105ed578063a22cb4651461060857600080fd5b806395d89b411461058657806398f539591461059b57600080fd5b806342842e0e1161022757806353557e25116101db57806370a08231116101c057806370a0823114610533578063715018a6146105535780638da5cb5b1461056857600080fd5b806353557e25146104f05780636352211e1461051357600080fd5b80634f558e791161020c5780634f558e79146104905780634f6ccce7146104b0578063511ed382146104d057600080fd5b806342842e0e1461045b5780634bd3f52f1461047b57600080fd5b806318160ddd1161027e5780631e8858fb116102635780631e8858fb146103fb57806323b872dd1461041b5780632f745c591461043b57600080fd5b806318160ddd1461039d5780631a6949e3146103e657600080fd5b8063081812fc116102af578063081812fc1461032e578063095ea7b31461035b57806312b40a9f1461037d57600080fd5b806301ffc9a7146102d657806306fdde031461030c57600080fd5b366102d157005b600080fd5b3480156102e257600080fd5b506102f66102f136600461239a565b61083a565b60405161030391906123c5565b60405180910390f35b34801561031857600080fd5b5061032161090b565b6040516103039190612431565b34801561033a57600080fd5b5061034e610349366004612453565b61099d565b604051610303919061248e565b34801561036757600080fd5b5061037b6103763660046124b0565b6109fa565b005b34801561038957600080fd5b5061037b6103983660046124ed565b610aba565b3480156103a957600080fd5b506103d96000546001600160801b0370010000000000000000000000000000000082048116918116919091031690565b6040516103039190612514565b3480156103f257600080fd5b506102f6610b26565b34801561040757600080fd5b5061037b6104163660046124ed565b610b3f565b34801561042757600080fd5b5061037b610436366004612522565b610b98565b34801561044757600080fd5b506103d96104563660046124b0565b610ba3565b34801561046757600080fd5b5061037b610476366004612522565b610cb9565b34801561048757600080fd5b506102f6610cd4565b34801561049c57600080fd5b506102f66104ab366004612453565b610ea7565b3480156104bc57600080fd5b506103d96104cb366004612453565b610eb2565b3480156104dc57600080fd5b5060bd5461034e906001600160a01b031681565b3480156104fc57600080fd5b506105066115e081565b604051610303919061257c565b34801561051f57600080fd5b5061034e61052e366004612453565b610f76565b34801561053f57600080fd5b506103d961054e3660046124ed565b610f88565b34801561055f57600080fd5b5061037b610ff0565b34801561057457600080fd5b506007546001600160a01b031661034e565b34801561059257600080fd5b50610321611026565b3480156105a757600080fd5b506105bb6105b6366004612453565b611035565b6040516103039493929190612593565b3480156105d757600080fd5b506105e0606481565b60405161030391906125d1565b3480156105f957600080fd5b506103d966c6f3b40b6c000081565b34801561061457600080fd5b5061037b6106233660046125f2565b611075565b34801561063457600080fd5b5060be5461034e906001600160a01b031681565b34801561065457600080fd5b506103d960ba5481565b34801561066a57600080fd5b506102f6610679366004612453565b611145565b34801561068a57600080fd5b5061037b611170565b34801561069f57600080fd5b506009546106b3906001600160a01b031681565b6040516103039190612667565b3480156106cc57600080fd5b5061037b6106db3660046124ed565b6111df565b3480156106ec57600080fd5b5061037b6106fb366004612770565b611238565b34801561070c57600080fd5b5060bf5461034e906001600160a01b031681565b34801561072c57600080fd5b506105e0603881565b34801561074157600080fd5b50610321610750366004612453565b611272565b34801561076157600080fd5b506103d960bc5481565b34801561077757600080fd5b506107b96107863660046124ed565b60bb602052600090815260409020546001600160801b038082169170010000000000000000000000000000000090041682565b6040516103039291906127fe565b3480156107d357600080fd5b506102f66107e2366004612819565b61136c565b61037b6107f536600461289e565b61145a565b34801561080657600080fd5b5061037b6108153660046124ed565b61155e565b34801561082657600080fd5b506102f661083536600461294b565b6115ba565b60006001600160e01b031982167f80ac58cd00000000000000000000000000000000000000000000000000000000148061089d57506001600160e01b031982167f5b5e139f00000000000000000000000000000000000000000000000000000000145b806108d157506001600160e01b031982167f780e9d6300000000000000000000000000000000000000000000000000000000145b8061090557507f01ffc9a7000000000000000000000000000000000000000000000000000000006001600160e01b03198316145b92915050565b60606001805461091a906129a9565b80601f0160208091040260200160405190810160405280929190818152602001828054610946906129a9565b80156109935780601f1061096857610100808354040283529160200191610993565b820191906000526020600020905b81548152906001019060200180831161097657829003601f168201915b5050505050905090565b60006109a8826118c1565b6109de576040517fcf4700e400000000000000000000000000000000000000000000000000000000815260040160405180910390fd5b506000908152600560205260409020546001600160a01b031690565b6000610a0582610f76565b9050806001600160a01b0316836001600160a01b03161415610a53576040517f943f7b8c00000000000000000000000000000000000000000000000000000000815260040160405180910390fd5b336001600160a01b03821614801590610a735750610a71813361136c565b155b15610aaa576040517fcfb3b94200000000000000000000000000000000000000000000000000000000815260040160405180910390fd5b610ab58383836118f5565b505050565b6007546001600160a01b03163314610aed5760405162461bcd60e51b8152600401610ae490612a08565b60405180910390fd5b60bf80546001600160a01b0390921673ffffffffffffffffffffffffffffffffffffffff19928316811790915560c08054909216179055565b600060bc5442118015610b3a575060bc5415155b905090565b6007546001600160a01b03163314610b695760405162461bcd60e51b8152600401610ae490612a08565b60be805473ffffffffffffffffffffffffffffffffffffffff19166001600160a01b0392909216919091179055565b610ab583838361195e565b6000610bae83610f88565b8210610be6576040517f0ddac30e00000000000000000000000000000000000000000000000000000000815260040160405180910390fd5b600080546001600160801b03169080805b83811015610cb357600081815260036020908152604091829020825160608101845290546001600160a01b0381168252600160a01b810467ffffffffffffffff1692820192909252600160e01b90910460ff161580159282019290925290610c5f5750610cab565b80516001600160a01b031615610c7457805192505b876001600160a01b0316836001600160a01b03161415610ca95786841415610ca25750935061090592505050565b6001909301925b505b600101610bf7565b50600080fd5b610ab583838360405180602001604052806000815250611238565b600060026008541415610cf95760405162461bcd60e51b8152600401610ae490612a4a565b600260085533600090815260bb602052604081205481546001600160801b03808316926115e09270010000000000000000000000000000000091829004831692610d559266c6f3b40b6c00009290810482169082160316612a70565b610d5f9190612a70565b610d699190612aa5565b610d739190612ab9565b905080610dac576040517fd0d04f6000000000000000000000000000000000000000000000000000000000815260040160405180910390fd5b610dbd6001600160801b0382612ad4565b33600090815260bb602052604081208054909190610de59084906001600160801b0316612ae8565b92506101000a8154816001600160801b0302191690836001600160801b031602179055506000610e123390565b6001600160a01b03168260405160006040518083038185875af1925050503d8060008114610e5c576040519150601f19603f3d011682016040523d82523d6000602084013e610e61565b606091505b5050905080610e9c576040517f27fcd9d100000000000000000000000000000000000000000000000000000000815260040160405180910390fd5b915050600160085590565b6000610905826118c1565b600080546001600160801b031681805b82811015610f4357600081815260036020908152604091829020825160608101845290546001600160a01b0381168252600160a01b810467ffffffffffffffff1692820192909252600160e01b90910460ff16151591810182905290610f3a5785831415610f335750949350505050565b6001909201915b50600101610ec2565b506040517fa723001c00000000000000000000000000000000000000000000000000000000815260040160405180910390fd5b6000610f8182611bc9565b5192915050565b60006001600160a01b038216610fca576040517f8f4eb60400000000000000000000000000000000000000000000000000000000815260040160405180910390fd5b506001600160a01b031660009081526004602052604090205467ffffffffffffffff1690565b6007546001600160a01b0316331461101a5760405162461bcd60e51b8152600401610ae490612a08565b6110246000611d06565b565b60606002805461091a906129a9565b60b9818154811061104557600080fd5b60009182526020909120015460ff8082169250610100820481169162010000810482169163010000009091041684565b6001600160a01b0382163314156110b8576040517fb06307db00000000000000000000000000000000000000000000000000000000815260040160405180910390fd5b3360008181526006602090815260408083206001600160a01b03871680855292529182902080547fffffffffffffffffffffffffffffffffffffffffffffffffffffffffffffff001685151517905590519091907f17307eab39ab6107e8899845ad3d59bd9653f200f220920489ca2b5937696c31906111399085906123c5565b60405180910390a35050565b600a816115e0811061115657600080fd5b60209182820401919006915054906101000a900460ff1681565b6007546001600160a01b0316331461119a5760405162461bcd60e51b8152600401610ae490612a08565b6111a2610b26565b156111d9576040517f63a2de0f00000000000000000000000000000000000000000000000000000000815260040160405180910390fd5b4260bc55565b6007546001600160a01b031633146112095760405162461bcd60e51b8152600401610ae490612a08565b60bd805473ffffffffffffffffffffffffffffffffffffffff19166001600160a01b0392909216919091179055565b61124384848461195e565b61124f84848484611d65565b61126c576040516368d2bf6b60e11b815260040160405180910390fd5b50505050565b606061127d826118c1565b6112b3576040517fa14c4b5000000000000000000000000000000000000000000000000000000000815260040160405180910390fd5b60bf546001600160a01b03166112d757505060408051602081019091526000815290565b60c05460b980546001600160a01b039092169163f8df924991908590811061130157611301612b20565b906000526020600020016040518263ffffffff1660e01b81526004016113279190612bcc565b600060405180830381865afa158015611344573d6000803e3d6000fd5b505050506040513d6000823e601f3d908101601f191682016040526109059190810190612c32565b60bd546040517fc45527910000000000000000000000000000000000000000000000000000000081526000916001600160a01b03169063c4552791906113b690869060040161248e565b602060405180830381865afa1580156113d3573d6000803e3d6000fd5b505050506040513d601f19601f820116820180604052508101906113f79190612c8c565b6001600160a01b0316826001600160a01b03161480611423575060be546001600160a01b038381169116145b8061145357506001600160a01b0380841660009081526006602090815260408083209386168352929052205460ff165b9392505050565b611462610b26565b611498576040517f63a2de0f00000000000000000000000000000000000000000000000000000000815260040160405180910390fd5b600260085414156114bb5760405162461bcd60e51b8152600401610ae490612a4a565b60026008558483146114f9576040517f9c38699e00000000000000000000000000000000000000000000000000000000815260040160405180910390fd5b61150a8566c6f3b40b6c0000612a70565b3414611542576040517f99b5cb1d00000000000000000000000000000000000000000000000000000000815260040160405180910390fd5b61155133878787878787611e97565b5050600160085550505050565b6007546001600160a01b031633146115885760405162461bcd60e51b8152600401610ae490612a08565b6001600160a01b0381166115ae5760405162461bcd60e51b8152600401610ae490612cad565b6115b781611d06565b50565b6000600260085414156115df5760405162461bcd60e51b8152600401610ae490612a4a565b60026008556000805b838110156117cb5761161185858381811061160557611605612b20565b905060200201356118c1565b611647576040517f42d8848b00000000000000000000000000000000000000000000000000000000815260040160405180910390fd5b60095433906001600160a01b03166306daaebd60b988888681811061166e5761166e612b20565b905060200201358154811061168557611685612b20565b60009182526020909120015460405160e083901b6001600160e01b03191681526116ba91610100900460ff1690600401612d26565b602060405180830381865afa1580156116d7573d6000803e3d6000fd5b505050506040513d601f19601f820116820180604052508101906116fb9190612d3f565b6001600160a01b03161461170e576117b9565b60b985858381811061172257611722612b20565b905060200201358154811061173957611739612b20565b6000918252602090912001546301000000900460ff1615611759576117b9565b8161176381612d60565b925050600160b986868481811061177c5761177c612b20565b905060200201358154811061179357611793612b20565b6000918252602090912001805491151563010000000263ff000000199092169190911790555b806117c381612d60565b9150506115e8565b5080611803576040517fd0d04f6000000000000000000000000000000000000000000000000000000000815260040160405180910390fd5b60ba546115e09061181b66c6f3b40b6c000084612a70565b6118259190612a70565b61182f9190612aa5565b604051909150600090339083908381818185875af1925050503d8060008114611874576040519150601f19603f3d011682016040523d82523d6000602084013e611879565b606091505b50509050806118b4576040517f27fcd9d100000000000000000000000000000000000000000000000000000000815260040160405180910390fd5b6001600855949350505050565b600080546001600160801b031682108015610905575050600090815260036020526040902054600160e01b900460ff161590565b600082815260056020526040808220805473ffffffffffffffffffffffffffffffffffffffff19166001600160a01b0387811691821790925591518593918516917f8c5be1e5ebec7d5bd14f71427d1e84f3dd0314c0f7b2291e5b200ac8c7c3b92591a4505050565b600061196982611bc9565b80519091506000906001600160a01b0316336001600160a01b0316148061199757508151611997903361136c565b806119b25750336119a78461099d565b6001600160a01b0316145b9050806119eb576040517f59c896be00000000000000000000000000000000000000000000000000000000815260040160405180910390fd5b846001600160a01b031682600001516001600160a01b031614611a3a576040517fa114810000000000000000000000000000000000000000000000000000000000815260040160405180910390fd5b6001600160a01b038416611a7a576040517fea553b3400000000000000000000000000000000000000000000000000000000815260040160405180910390fd5b611a8a60008484600001516118f5565b6001600160a01b038581166000908152600460209081526040808320805467ffffffffffffffff1980821667ffffffffffffffff92831660001901831617909255898616808652838620805493841693831660019081018416949094179055898652600390945282852080546001600160e01b031916909417600160a01b429092169190910217909255908601808352912054909116611b7f576000546001600160801b0316811015611b7f578251600082815260036020908152604090912080549186015167ffffffffffffffff16600160a01b026001600160e01b03199092166001600160a01b03909316929092171790555b5082846001600160a01b0316866001600160a01b03167fddf252ad1be2c89b69c2b068fc378daa952ba7f163c4a11628f55a4df523b3ef60405160405180910390a45b5050505050565b60408051606081018252600080825260208201819052918101829052905482906001600160801b0316811015611cd457600081815260036020908152604091829020825160608101845290546001600160a01b0381168252600160a01b810467ffffffffffffffff1692820192909252600160e01b90910460ff16151591810182905290611cd25780516001600160a01b031615611c68579392505050565b5060001901600081815260036020908152604091829020825160608101845290546001600160a01b038116808352600160a01b820467ffffffffffffffff1693830193909352600160e01b900460ff1615159281019290925215611ccd579392505050565b611c68565b505b6040517fdf2d9b4200000000000000000000000000000000000000000000000000000000815260040160405180910390fd5b600780546001600160a01b0383811673ffffffffffffffffffffffffffffffffffffffff19831681179093556040519116919082907f8be0079c531659141344cd1fd0a4f28419497f9722a3daafe3b4186f6b6457e090600090a35050565b60006001600160a01b0384163b15611e8b576040517f150b7a020000000000000000000000000000000000000000000000000000000081526001600160a01b0385169063150b7a0290611dc2903390899088908890600401612d7b565b6020604051808303816000875af1925050508015611dfd575060408051601f3d908101601f19168201909252611dfa91810190612dca565b60015b611e58573d808015611e2b576040519150601f19603f3d011682016040523d82523d6000602084013e611e30565b606091505b508051611e50576040516368d2bf6b60e11b815260040160405180910390fd5b805181602001fd5b6001600160e01b0319167f150b7a0200000000000000000000000000000000000000000000000000000000149050611e8f565b5060015b949350505050565b60005b85811015612152576000878783818110611eb657611eb6612b20565b9050602002013590506000868684818110611ed357611ed3612b20565b60200291909101359150600a905081611eed606485612a70565b611ef79190612deb565b6115e08110611f0857611f08612b20565b602081049091015460ff601f9092166101000a90041615611f55576040517f81d9ae2500000000000000000000000000000000000000000000000000000000815260040160405180910390fd5b611f6160016038612dfe565b60ff16821115611f9d576040517fd9c0f1d300000000000000000000000000000000000000000000000000000000815260040160405180910390fd5b611fa960016064612dfe565b60ff16811115611fe5576040517f1f81f00900000000000000000000000000000000000000000000000000000000815260040160405180910390fd5b604080516080810190915260b99080611fff60ff86612ad4565b60ff16815260200160ff8016846120169190612ad4565b60ff16815260200160ff801688888881811061203457612034612b20565b905060200201356120459190612ad4565b60ff90811682526000602092830181905284546001818101875595825290839020845191018054938501516040860151606090960151151563010000000263ff000000199685166201000002969096167fffffffffffffffffffffffffffffffffffffffffffffffffffffffff0000ffff918516610100027fffffffffffffffffffffffffffffffffffffffffffffffffffffffffffff00009096169390941692909217939093171617919091179055600a82612103606486612a70565b61210d9190612deb565b6115e0811061211e5761211e612b20565b602091828204019190066101000a81548160ff0219169083151502179055505050808061214a90612d60565b915050611e9a565b5061215d8786612166565b50505050505050565b612180828260405180602001604052806000815250612184565b5050565b610ab583838360016000546001600160801b03166001600160a01b0385166121d8576040517f2e07630000000000000000000000000000000000000000000000000000000000815260040160405180910390fd5b8361220f576040517fb562e8dd00000000000000000000000000000000000000000000000000000000815260040160405180910390fd5b6001600160a01b038516600081815260046020908152604080832080547fffffffffffffffffffffffffffffffff00000000000000000000000000000000811667ffffffffffffffff8083168c0181169182176801000000000000000067ffffffffffffffff1990941690921783900481168c018116909202179091558584526003909252822080546001600160e01b031916909317600160a01b42909216919091021790915581905b8581101561233a5760405182906001600160a01b038916906000907fddf252ad1be2c89b69c2b068fc378daa952ba7f163c4a11628f55a4df523b3ef908290a4838015612310575061230e6000888488611d65565b155b1561232e576040516368d2bf6b60e11b815260040160405180910390fd5b600191820191016122b9565b50600080547fffffffffffffffffffffffffffffffff00000000000000000000000000000000166001600160801b0392909216919091179055611bc2565b6001600160e01b031981165b81146115b757600080fd5b803561090581612378565b6000602082840312156123af576123af600080fd5b6000611e8f848461238f565b8015155b82525050565b6020810161090582846123bb565b60005b838110156123ee5781810151838201526020016123d6565b8381111561126c5750506000910152565b6000612409825190565b8084526020840193506124208185602086016123d3565b601f01601f19169290920192915050565b6020808252810161145381846123ff565b80612384565b803561090581612442565b60006020828403121561246857612468600080fd5b6000611e8f8484612448565b60006001600160a01b038216610905565b6123bf81612474565b602081016109058284612485565b61238481612474565b80356109058161249c565b600080604083850312156124c6576124c6600080fd5b60006124d285856124a5565b92505060206124e385828601612448565b9150509250929050565b60006020828403121561250257612502600080fd5b6000611e8f84846124a5565b806123bf565b60208101610905828461250e565b60008060006060848603121561253a5761253a600080fd5b600061254686866124a5565b9350506020612557868287016124a5565b925050604061256886828701612448565b9150509250925092565b61ffff81166123bf565b602081016109058284612572565b60ff81166123bf565b608081016125a1828761258a565b6125ae602083018661258a565b6125bb604083018561258a565b6125c860608301846123bb565b95945050505050565b60208101610905828461258a565b801515612384565b8035610905816125df565b6000806040838503121561260857612608600080fd5b600061261485856124a5565b92505060206124e3858286016125e7565b60006109056001600160a01b03831661263c565b90565b6001600160a01b031690565b600061090582612625565b600061090582612648565b6123bf81612653565b60208101610905828461265e565b634e487b7160e01b600052604160045260246000fd5b601f19601f830116810181811067ffffffffffffffff821117156126b1576126b1612675565b6040525050565b60006126c360405190565b90506126cf828261268b565b919050565b600067ffffffffffffffff8211156126ee576126ee612675565b601f19601f83011660200192915050565b82818337506000910152565b600061271e612719846126d4565b6126b8565b90508281526020810184848401111561273957612739600080fd5b6127448482856126ff565b509392505050565b600082601f83011261276057612760600080fd5b8135611e8f84826020860161270b565b6000806000806080858703121561278957612789600080fd5b600061279587876124a5565b94505060206127a6878288016124a5565b93505060406127b787828801612448565b925050606085013567ffffffffffffffff8111156127d7576127d7600080fd5b6127e38782880161274c565b91505092959194509250565b6001600160801b0381166123bf565b6040810161280c82856127ef565b61145360208301846127ef565b6000806040838503121561282f5761282f600080fd5b600061283b85856124a5565b92505060206124e3858286016124a5565b60008083601f84011261286157612861600080fd5b50813567ffffffffffffffff81111561287c5761287c600080fd5b60208301915083602082028301111561289757612897600080fd5b9250929050565b600080600080600080606087890312156128ba576128ba600080fd5b863567ffffffffffffffff8111156128d4576128d4600080fd5b6128e089828a0161284c565b9650965050602087013567ffffffffffffffff81111561290257612902600080fd5b61290e89828a0161284c565b9450945050604087013567ffffffffffffffff81111561293057612930600080fd5b61293c89828a0161284c565b92509250509295509295509295565b6000806020838503121561296157612961600080fd5b823567ffffffffffffffff81111561297b5761297b600080fd5b6129878582860161284c565b92509250509250929050565b634e487b7160e01b600052602260045260246000fd5b6002810460018216806129bd57607f821691505b602082108114156129d0576129d0612993565b50919050565b60208082527f4f776e61626c653a2063616c6c6572206973206e6f7420746865206f776e657291019081525b60200190565b60208082528101610905816129d6565b601f8152602081017f5265656e7472616e637947756172643a207265656e7472616e742063616c6c0081529050612a02565b6020808252810161090581612a18565b634e487b7160e01b600052601160045260246000fd5b6000816000190483118215151615612a8a57612a8a612a5a565b500290565b634e487b7160e01b600052601260045260246000fd5b600082612ab457612ab4612a8f565b500490565b815b9150600082821015612acf57612acf612a5a565b500390565b600082612ae357612ae3612a8f565b500690565b6001600160801b03811690506001600160801b03821691506000826001600160801b0303821115612b1b57612b1b612a5a565b500190565b634e487b7160e01b600052603260045260246000fd5b6000610905825b60ff1690565b6000610905612b3d8360081c90565b6000610905612b3d8360101c90565b6000610905612b3d8360181c90565b8054612b7b81612b36565b612b85848261258a565b50612b8f81612b43565b612b9c602085018261258a565b50612ba681612b52565b612bb3604085018261258a565b50612bbd81612b61565b9050610ab560608401826123bb565b608081016109058284612b70565b6000612be8612719846126d4565b905082815260208101848484011115612c0357612c03600080fd5b6127448482856123d3565b600082601f830112612c2257612c22600080fd5b8151611e8f848260208601612bda565b600060208284031215612c4757612c47600080fd5b815167ffffffffffffffff811115612c6157612c61600080fd5b611e8f84828501612c0e565b600061090582612474565b61238481612c6d565b805161090581612c78565b600060208284031215612ca157612ca1600080fd5b6000611e8f8484612c81565b6020808252810161090581602681527f4f776e61626c653a206e6577206f776e657220697320746865207a65726f206160208201527f6464726573730000000000000000000000000000000000000000000000000000604082015260600190565b600061090561263960ff841681565b6123bf81612d0e565b602081016109058284612d1d565b80516109058161249c565b600060208284031215612d5457612d54600080fd5b6000611e8f8484612d34565b6000600019821415612d7457612d74612a5a565b5060010190565b60808101612d898287612485565b612d966020830186612485565b612da3604083018561250e565b8181036060830152612db581846123ff565b9695505050505050565b805161090581612378565b600060208284031215612ddf57612ddf600080fd5b6000611e8f8484612dbf565b60008219821115612b1b57612b1b612a5a565b60ff908116908216612abb56fea26469706673582212209eb9b69f13e0886482b35c1dd456ed1154eb96ec0be2c35eeadfabbd70192b9b64736f6c634300080c0033",
  "devdoc": {
    "kind": "dev",
    "methods": {
      "approve(address,uint256)": {
        "details": "See {IERC721-approve}."
      },
      "balanceOf(address)": {
        "details": "See {IERC721-balanceOf}."
      },
      "getApproved(uint256)": {
        "details": "See {IERC721-getApproved}."
      },
      "isApprovedForAll(address,address)": {
        "details": "Modified for opensea and looksrare pre-approve."
      },
      "name()": {
        "details": "See {IERC721Metadata-name}."
      },
      "owner()": {
        "details": "Returns the address of the current owner."
      },
      "ownerOf(uint256)": {
        "details": "See {IERC721-ownerOf}."
      },
      "renounceOwnership()": {
        "details": "Leaves the contract without owner. It will not be possible to call `onlyOwner` functions anymore. Can only be called by the current owner. NOTE: Renouncing ownership will leave the contract without an owner, thereby removing any functionality that is only available to the owner."
      },
      "safeTransferFrom(address,address,uint256)": {
        "details": "See {IERC721-safeTransferFrom}."
      },
      "safeTransferFrom(address,address,uint256,bytes)": {
        "details": "See {IERC721-safeTransferFrom}."
      },
      "setApprovalForAll(address,bool)": {
        "details": "See {IERC721-setApprovalForAll}."
      },
      "supportsInterface(bytes4)": {
        "details": "See {IERC165-supportsInterface}."
      },
      "symbol()": {
        "details": "See {IERC721Metadata-symbol}."
      },
      "tokenByIndex(uint256)": {
        "details": "See {IERC721Enumerable-tokenByIndex}. This read function is O(totalSupply). If calling from a separate contract, be sure to test gas first. It may also degrade with extremely large collection sizes (e.g >> 10000), test for your use case."
      },
      "tokenOfOwnerByIndex(address,uint256)": {
        "details": "See {IERC721Enumerable-tokenOfOwnerByIndex}. This read function is O(totalSupply). If calling from a separate contract, be sure to test gas first. It may also degrade with extremely large collection sizes (e.g >> 10000), test for your use case."
      },
      "totalSupply()": {
        "details": "See {IERC721Enumerable-totalSupply}."
      },
      "transferFrom(address,address,uint256)": {
        "details": "See {IERC721-transferFrom}."
      },
      "transferOwnership(address)": {
        "details": "Transfers ownership of the contract to a new account (`newOwner`). Can only be called by the current owner."
      }
    },
    "version": 1
  },
  "userdoc": {
    "kind": "user",
    "methods": {
      "setLooksrare(address)": {
        "notice": "Set looksrare to `looksrare_`."
      },
      "setOpensea(address)": {
        "notice": "Set opensea to `opensea_`."
      }
    },
    "version": 1
  },
  "storageLayout": {
    "storage": [
      {
        "astId": 3032,
        "contract": "contracts/blitoadz/Blitoadz.sol:Blitoadz",
        "label": "_currentIndex",
        "offset": 0,
        "slot": "0",
        "type": "t_uint128"
      },
      {
        "astId": 3034,
        "contract": "contracts/blitoadz/Blitoadz.sol:Blitoadz",
        "label": "_burnCounter",
        "offset": 16,
        "slot": "0",
        "type": "t_uint128"
      },
      {
        "astId": 3036,
        "contract": "contracts/blitoadz/Blitoadz.sol:Blitoadz",
        "label": "_name",
        "offset": 0,
        "slot": "1",
        "type": "t_string_storage"
      },
      {
        "astId": 3038,
        "contract": "contracts/blitoadz/Blitoadz.sol:Blitoadz",
        "label": "_symbol",
        "offset": 0,
        "slot": "2",
        "type": "t_string_storage"
      },
      {
        "astId": 3043,
        "contract": "contracts/blitoadz/Blitoadz.sol:Blitoadz",
        "label": "_ownerships",
        "offset": 0,
        "slot": "3",
        "type": "t_mapping(t_uint256,t_struct(TokenOwnership)3023_storage)"
      },
      {
        "astId": 3048,
        "contract": "contracts/blitoadz/Blitoadz.sol:Blitoadz",
        "label": "_addressData",
        "offset": 0,
        "slot": "4",
        "type": "t_mapping(t_address,t_struct(AddressData)3030_storage)"
      },
      {
        "astId": 3052,
        "contract": "contracts/blitoadz/Blitoadz.sol:Blitoadz",
        "label": "_tokenApprovals",
        "offset": 0,
        "slot": "5",
        "type": "t_mapping(t_uint256,t_address)"
      },
      {
        "astId": 3058,
        "contract": "contracts/blitoadz/Blitoadz.sol:Blitoadz",
        "label": "_operatorApprovals",
        "offset": 0,
        "slot": "6",
        "type": "t_mapping(t_address,t_mapping(t_address,t_bool))"
      },
      {
        "astId": 225,
        "contract": "contracts/blitoadz/Blitoadz.sol:Blitoadz",
        "label": "_owner",
        "offset": 0,
        "slot": "7",
        "type": "t_address"
      },
      {
        "astId": 333,
        "contract": "contracts/blitoadz/Blitoadz.sol:Blitoadz",
        "label": "_status",
        "offset": 0,
        "slot": "8",
        "type": "t_uint256"
      },
      {
        "astId": 1226,
        "contract": "contracts/blitoadz/Blitoadz.sol:Blitoadz",
        "label": "blitmap",
        "offset": 0,
        "slot": "9",
        "type": "t_contract(IBlitmap)2660"
      },
      {
        "astId": 1230,
        "contract": "contracts/blitoadz/Blitoadz.sol:Blitoadz",
        "label": "blitoadzExist",
        "offset": 0,
        "slot": "10",
        "type": "t_array(t_bool)5600_storage"
      },
      {
        "astId": 1234,
        "contract": "contracts/blitoadz/Blitoadz.sol:Blitoadz",
        "label": "blitoadz",
        "offset": 0,
        "slot": "185",
        "type": "t_array(t_struct(Blitoadz)2642_storage)dyn_storage"
      },
      {
        "astId": 1236,
        "contract": "contracts/blitoadz/Blitoadz.sol:Blitoadz",
        "label": "blitmapCreatorShares",
        "offset": 0,
        "slot": "186",
        "type": "t_uint256"
      },
      {
        "astId": 1241,
        "contract": "contracts/blitoadz/Blitoadz.sol:Blitoadz",
        "label": "founders",
        "offset": 0,
        "slot": "187",
        "type": "t_mapping(t_address,t_struct(Founder)1246_storage)"
      },
      {
        "astId": 1248,
        "contract": "contracts/blitoadz/Blitoadz.sol:Blitoadz",
        "label": "publicSaleStartTimestamp",
        "offset": 0,
        "slot": "188",
        "type": "t_uint256"
      },
      {
        "astId": 1299,
        "contract": "contracts/blitoadz/Blitoadz.sol:Blitoadz",
        "label": "opensea",
        "offset": 0,
        "slot": "189",
        "type": "t_address"
      },
      {
        "astId": 1301,
        "contract": "contracts/blitoadz/Blitoadz.sol:Blitoadz",
        "label": "looksrare",
        "offset": 0,
        "slot": "190",
        "type": "t_address"
      },
      {
        "astId": 1364,
        "contract": "contracts/blitoadz/Blitoadz.sol:Blitoadz",
        "label": "renderingContractAddress",
        "offset": 0,
        "slot": "191",
        "type": "t_address"
      },
      {
        "astId": 1367,
        "contract": "contracts/blitoadz/Blitoadz.sol:Blitoadz",
        "label": "renderer",
        "offset": 0,
        "slot": "192",
        "type": "t_contract(IBlitoadzRenderer)2672"
      }
    ],
    "types": {
      "t_address": {
        "encoding": "inplace",
        "label": "address",
        "numberOfBytes": "20"
      },
      "t_array(t_bool)5600_storage": {
        "base": "t_bool",
        "encoding": "inplace",
        "label": "bool[5600]",
        "numberOfBytes": "5600"
      },
      "t_array(t_struct(Blitoadz)2642_storage)dyn_storage": {
        "base": "t_struct(Blitoadz)2642_storage",
        "encoding": "dynamic_array",
        "label": "struct BlitoadzTypes.Blitoadz[]",
        "numberOfBytes": "32"
      },
      "t_bool": {
        "encoding": "inplace",
        "label": "bool",
        "numberOfBytes": "1"
      },
      "t_contract(IBlitmap)2660": {
        "encoding": "inplace",
        "label": "contract IBlitmap",
        "numberOfBytes": "20"
      },
      "t_contract(IBlitoadzRenderer)2672": {
        "encoding": "inplace",
        "label": "contract IBlitoadzRenderer",
        "numberOfBytes": "20"
      },
      "t_mapping(t_address,t_bool)": {
        "encoding": "mapping",
        "key": "t_address",
        "label": "mapping(address => bool)",
        "numberOfBytes": "32",
        "value": "t_bool"
      },
      "t_mapping(t_address,t_mapping(t_address,t_bool))": {
        "encoding": "mapping",
        "key": "t_address",
        "label": "mapping(address => mapping(address => bool))",
        "numberOfBytes": "32",
        "value": "t_mapping(t_address,t_bool)"
      },
      "t_mapping(t_address,t_struct(AddressData)3030_storage)": {
        "encoding": "mapping",
        "key": "t_address",
        "label": "mapping(address => struct ERC721A.AddressData)",
        "numberOfBytes": "32",
        "value": "t_struct(AddressData)3030_storage"
      },
      "t_mapping(t_address,t_struct(Founder)1246_storage)": {
        "encoding": "mapping",
        "key": "t_address",
        "label": "mapping(address => struct Blitoadz.Founder)",
        "numberOfBytes": "32",
        "value": "t_struct(Founder)1246_storage"
      },
      "t_mapping(t_uint256,t_address)": {
        "encoding": "mapping",
        "key": "t_uint256",
        "label": "mapping(uint256 => address)",
        "numberOfBytes": "32",
        "value": "t_address"
      },
      "t_mapping(t_uint256,t_struct(TokenOwnership)3023_storage)": {
        "encoding": "mapping",
        "key": "t_uint256",
        "label": "mapping(uint256 => struct ERC721A.TokenOwnership)",
        "numberOfBytes": "32",
        "value": "t_struct(TokenOwnership)3023_storage"
      },
      "t_string_storage": {
        "encoding": "bytes",
        "label": "string",
        "numberOfBytes": "32"
      },
      "t_struct(AddressData)3030_storage": {
        "encoding": "inplace",
        "label": "struct ERC721A.AddressData",
        "members": [
          {
            "astId": 3025,
            "contract": "contracts/blitoadz/Blitoadz.sol:Blitoadz",
            "label": "balance",
            "offset": 0,
            "slot": "0",
            "type": "t_uint64"
          },
          {
            "astId": 3027,
            "contract": "contracts/blitoadz/Blitoadz.sol:Blitoadz",
            "label": "numberMinted",
            "offset": 8,
            "slot": "0",
            "type": "t_uint64"
          },
          {
            "astId": 3029,
            "contract": "contracts/blitoadz/Blitoadz.sol:Blitoadz",
            "label": "numberBurned",
            "offset": 16,
            "slot": "0",
            "type": "t_uint64"
          }
        ],
        "numberOfBytes": "32"
      },
      "t_struct(Blitoadz)2642_storage": {
        "encoding": "inplace",
        "label": "struct BlitoadzTypes.Blitoadz",
        "members": [
          {
            "astId": 2635,
            "contract": "contracts/blitoadz/Blitoadz.sol:Blitoadz",
            "label": "toadzId",
            "offset": 0,
            "slot": "0",
            "type": "t_uint8"
          },
          {
            "astId": 2637,
            "contract": "contracts/blitoadz/Blitoadz.sol:Blitoadz",
            "label": "blitmapId",
            "offset": 1,
            "slot": "0",
            "type": "t_uint8"
          },
          {
            "astId": 2639,
            "contract": "contracts/blitoadz/Blitoadz.sol:Blitoadz",
            "label": "paletteOrder",
            "offset": 2,
            "slot": "0",
            "type": "t_uint8"
          },
          {
            "astId": 2641,
            "contract": "contracts/blitoadz/Blitoadz.sol:Blitoadz",
            "label": "withdrawn",
            "offset": 3,
            "slot": "0",
            "type": "t_bool"
          }
        ],
        "numberOfBytes": "32"
      },
      "t_struct(Founder)1246_storage": {
        "encoding": "inplace",
        "label": "struct Blitoadz.Founder",
        "members": [
          {
            "astId": 1243,
            "contract": "contracts/blitoadz/Blitoadz.sol:Blitoadz",
            "label": "withdrawnAmount",
            "offset": 0,
            "slot": "0",
            "type": "t_uint128"
          },
          {
            "astId": 1245,
            "contract": "contracts/blitoadz/Blitoadz.sol:Blitoadz",
            "label": "shares",
            "offset": 16,
            "slot": "0",
            "type": "t_uint128"
          }
        ],
        "numberOfBytes": "32"
      },
      "t_struct(TokenOwnership)3023_storage": {
        "encoding": "inplace",
        "label": "struct ERC721A.TokenOwnership",
        "members": [
          {
            "astId": 3018,
            "contract": "contracts/blitoadz/Blitoadz.sol:Blitoadz",
            "label": "addr",
            "offset": 0,
            "slot": "0",
            "type": "t_address"
          },
          {
            "astId": 3020,
            "contract": "contracts/blitoadz/Blitoadz.sol:Blitoadz",
            "label": "startTimestamp",
            "offset": 20,
            "slot": "0",
            "type": "t_uint64"
          },
          {
            "astId": 3022,
            "contract": "contracts/blitoadz/Blitoadz.sol:Blitoadz",
            "label": "burned",
            "offset": 28,
            "slot": "0",
            "type": "t_bool"
          }
        ],
        "numberOfBytes": "32"
      },
      "t_uint128": {
        "encoding": "inplace",
        "label": "uint128",
        "numberOfBytes": "16"
      },
      "t_uint256": {
        "encoding": "inplace",
        "label": "uint256",
        "numberOfBytes": "32"
      },
      "t_uint64": {
        "encoding": "inplace",
        "label": "uint64",
        "numberOfBytes": "8"
      },
      "t_uint8": {
        "encoding": "inplace",
        "label": "uint8",
        "numberOfBytes": "1"
      }
    }
  }
}