{
  "address": "0x7e36031E220Bd36EB00D369c9002A138685fb205",
  "abi": [
    {
      "inputs": [
        {
          "internalType": "address",
          "name": "_blitmap",
          "type": "address"
        }
      ],
      "stateMutability": "nonpayable",
      "type": "constructor"
    },
    {
      "inputs": [
        {
          "internalType": "uint256",
          "name": "_size",
          "type": "uint256"
        },
        {
          "internalType": "uint256",
          "name": "_start",
          "type": "uint256"
        },
        {
          "internalType": "uint256",
          "name": "_end",
          "type": "uint256"
        }
      ],
      "name": "InvalidCodeAtRange",
      "type": "error"
    },
    {
      "inputs": [],
      "name": "WriteError",
      "type": "error"
    },
    {
      "anonymous": false,
      "inputs": [
        {
          "indexed": true,
          "internalType": "address",
          "name": "previousOwner",
          "type": "address"
        },
        {
          "indexed": true,
          "internalType": "address",
          "name": "newOwner",
          "type": "address"
        }
      ],
      "name": "OwnershipTransferred",
      "type": "event"
    },
    {
      "inputs": [],
      "name": "BITS_PER_FILL_INDEX",
      "outputs": [
        {
          "internalType": "uint8",
          "name": "",
          "type": "uint8"
        }
      ],
      "stateMutability": "view",
      "type": "function"
    },
    {
      "inputs": [],
      "name": "RECT_TAG_END",
      "outputs": [
        {
          "internalType": "string",
          "name": "",
          "type": "string"
        }
      ],
      "stateMutability": "view",
      "type": "function"
    },
    {
      "inputs": [],
      "name": "RECT_TAG_START",
      "outputs": [
        {
          "internalType": "string",
          "name": "",
          "type": "string"
        }
      ],
      "stateMutability": "view",
      "type": "function"
    },
    {
      "inputs": [],
      "name": "SVG_TAG_END",
      "outputs": [
        {
          "internalType": "string",
          "name": "",
          "type": "string"
        }
      ],
      "stateMutability": "view",
      "type": "function"
    },
    {
      "inputs": [],
      "name": "SVG_TAG_START",
      "outputs": [
        {
          "internalType": "string",
          "name": "",
          "type": "string"
        }
      ],
      "stateMutability": "view",
      "type": "function"
    },
    {
      "inputs": [],
      "name": "WH_FILL_TAG",
      "outputs": [
        {
          "internalType": "string",
          "name": "",
          "type": "string"
        }
      ],
      "stateMutability": "view",
      "type": "function"
    },
    {
      "inputs": [],
      "name": "Y_TAG",
      "outputs": [
        {
          "internalType": "string",
          "name": "",
          "type": "string"
        }
      ],
      "stateMutability": "view",
      "type": "function"
    },
    {
      "inputs": [
        {
          "internalType": "uint256",
          "name": "toadzId",
          "type": "uint256"
        },
        {
          "internalType": "uint256",
          "name": "blitmapId",
          "type": "uint256"
        },
        {
          "internalType": "uint8",
          "name": "paletteOrder",
          "type": "uint8"
        }
      ],
      "name": "getBlitoadz",
      "outputs": [
        {
          "internalType": "string",
          "name": "",
          "type": "string"
        }
      ],
      "stateMutability": "view",
      "type": "function"
    },
    {
      "inputs": [
        {
          "internalType": "bytes",
          "name": "palette",
          "type": "bytes"
        },
        {
          "internalType": "uint256",
          "name": "_index",
          "type": "uint256"
        }
      ],
      "name": "getFill",
      "outputs": [
        {
          "internalType": "string",
          "name": "",
          "type": "string"
        }
      ],
      "stateMutability": "pure",
      "type": "function"
    },
    {
      "inputs": [
        {
          "internalType": "uint256",
          "name": "toadzId",
          "type": "uint256"
        },
        {
          "internalType": "uint256",
          "name": "blitmapId",
          "type": "uint256"
        },
        {
          "internalType": "uint8",
          "name": "paletteOrder",
          "type": "uint8"
        }
      ],
      "name": "getImageURI",
      "outputs": [
        {
          "internalType": "string",
          "name": "",
          "type": "string"
        }
      ],
      "stateMutability": "view",
      "type": "function"
    },
    {
      "inputs": [
        {
          "internalType": "uint256",
          "name": "_index",
          "type": "uint256"
        }
      ],
      "name": "getToadzBytes",
      "outputs": [
        {
          "internalType": "bytes",
          "name": "",
          "type": "bytes"
        }
      ],
      "stateMutability": "view",
      "type": "function"
    },
    {
      "inputs": [
        {
          "internalType": "uint256",
          "name": "_index",
          "type": "uint256"
        }
      ],
      "name": "getToadzName",
      "outputs": [
        {
          "internalType": "string",
          "name": "",
          "type": "string"
        }
      ],
      "stateMutability": "view",
      "type": "function"
    },
    {
      "inputs": [],
      "name": "owner",
      "outputs": [
        {
          "internalType": "address",
          "name": "",
          "type": "address"
        }
      ],
      "stateMutability": "view",
      "type": "function"
    },
    {
      "inputs": [],
      "name": "renounceOwnership",
      "outputs": [],
      "stateMutability": "nonpayable",
      "type": "function"
    },
    {
      "inputs": [
        {
          "internalType": "bytes",
          "name": "_toadz",
          "type": "bytes"
        }
      ],
      "name": "setToadz",
      "outputs": [],
      "stateMutability": "nonpayable",
      "type": "function"
    },
    {
      "inputs": [
        {
          "internalType": "bytes",
          "name": "_toadzNames",
          "type": "bytes"
        }
      ],
      "name": "setToadzNames",
      "outputs": [],
      "stateMutability": "nonpayable",
      "type": "function"
    },
    {
      "inputs": [],
      "name": "toadz",
      "outputs": [
        {
          "internalType": "address",
          "name": "",
          "type": "address"
        }
      ],
      "stateMutability": "view",
      "type": "function"
    },
    {
      "inputs": [],
      "name": "toadzNames",
      "outputs": [
        {
          "internalType": "address",
          "name": "",
          "type": "address"
        }
      ],
      "stateMutability": "view",
      "type": "function"
    },
    {
      "inputs": [
        {
          "components": [
            {
              "internalType": "uint8",
              "name": "toadzId",
              "type": "uint8"
            },
            {
              "internalType": "uint8",
              "name": "blitmapId",
              "type": "uint8"
            },
            {
              "internalType": "uint8",
              "name": "paletteOrder",
              "type": "uint8"
            },
            {
              "internalType": "bool",
              "name": "withdrawn",
              "type": "bool"
            }
          ],
          "internalType": "struct BlitoadzTypes.Blitoadz",
          "name": "blitoadz",
          "type": "tuple"
        }
      ],
      "name": "tokenURI",
      "outputs": [
        {
          "internalType": "string",
          "name": "",
          "type": "string"
        }
      ],
      "stateMutability": "view",
      "type": "function"
    },
    {
      "inputs": [
        {
          "internalType": "address",
          "name": "newOwner",
          "type": "address"
        }
      ],
      "name": "transferOwnership",
      "outputs": [],
      "stateMutability": "nonpayable",
      "type": "function"
    }
  ],
  "transactionHash": "0xf47624c5d23b458ab99c50604a54eabb8fdd4e067e860feadbc604d2e2228512",
  "args": [
    "0x973524d8feac11fAbb8a5E32a7424bacF67e5FBF"
  ],
  "numDeployments": 5,
  "solcInputHash": "60a385145b30f73e17c4ea0345512ad7",
  "bytecode": "0x60806040523480156200001157600080fd5b506040516200236d3803806200236d8339810160408190526200003491620000f3565b6200003f3362000069565b60018055600480546001600160a01b0319166001600160a01b039290921691909117905562000120565b600080546001600160a01b038381166001600160a01b0319831681178455604051919092169283917f8be0079c531659141344cd1fd0a4f28419497f9722a3daafe3b4186f6b6457e09190a35050565b60006001600160a01b0382165b92915050565b620000d781620000b9565b8114620000e357600080fd5b50565b8051620000c681620000cc565b6000602082840312156200010a576200010a600080fd5b6000620001188484620000e6565b949350505050565b61223d80620001306000396000f3fe608060405234801561001057600080fd5b506004361061016c5760003560e01c8063715018a6116100cd578063b3215d4911610081578063c4534ca211610066578063c4534ca214610328578063f2fde38b1461033b578063f8df92491461034e57600080fd5b8063b3215d4914610300578063bc2255641461031557600080fd5b80638667f1d2116100b25780638667f1d2146102c957806389e4b1e8146102dc5780638da5cb5b146102ef57600080fd5b8063715018a6146102ae578063779dd948146102b657600080fd5b806347c3a430116101245780634d32bd7d116101095780634d32bd7d1461022e57806369db9ed01461026a5780636f5c723b146102a657600080fd5b806347c3a43014610213578063480bc3c81461022657600080fd5b80633774c798116101555780633774c798146101af5780633fc9aff0146101c2578063407134de146101d757600080fd5b80630a41f5da146101715780630bdd03f11461018f575b600080fd5b610179610361565b604051610186919061157f565b60405180910390f35b6002546101a2906001600160a01b031681565b60405161018691906115b0565b6101796101bd3660046116d1565b61037d565b6101d56101d036600461177a565b6105ae565b005b6101796040518060400160405280600781526020017f2532372f2533650000000000000000000000000000000000000000000000000081525081565b6003546101a2906001600160a01b031681565b610179610651565b6101796040518060400160405280600b81526020017f253237253230793d25323700000000000000000000000000000000000000000081525081565b6101796040518060400160405280600f81526020017f25336372656374253230783d253237000000000000000000000000000000000081525081565b61017961066d565b6101d5610689565b6101d56102c436600461177a565b6106bf565b6101796102d73660046117d6565b610759565b6101796102ea366004611826565b61078f565b6000546001600160a01b03166101a2565b610308600281565b6040516101869190611850565b6101796103233660046117d6565b61085e565b610179610336366004611826565b6109da565b6101d5610349366004611872565b610a42565b61017961035c3660046118a8565b610a9e565b6040518060600160405280603281526020016121956032913981565b60608261038b8360036118df565b8151811061039b5761039b6118fe565b016020015160405163c1338a6960e01b81527303abFda4e7cec3484D518848B5e6aa10965F91DD9163c1338a69916103df9160f81c90601090600290600401611937565b600060405180830381865af41580156103fc573d6000803e3d6000fd5b505050506040513d6000823e601f3d908101601f1916820160405261042491908101906119b7565b836104308460036118df565b61043b9060016119f2565b8151811061044b5761044b6118fe565b016020015160405163c1338a6960e01b81527303abFda4e7cec3484D518848B5e6aa10965F91DD9163c1338a699161048f9160f81c90601090600290600401611937565b600060405180830381865af41580156104ac573d6000803e3d6000fd5b505050506040513d6000823e601f3d908101601f191682016040526104d491908101906119b7565b846104e08560036118df565b6104eb9060026119f2565b815181106104fb576104fb6118fe565b016020015160405163c1338a6960e01b81527303abFda4e7cec3484D518848B5e6aa10965F91DD9163c1338a699161053f9160f81c90601090600290600401611937565b600060405180830381865af415801561055c573d6000803e3d6000fd5b505050506040513d6000823e601f3d908101601f1916820160405261058491908101906119b7565b60405160200161059693929190611a2c565b60405160208183030381529060405290505b92915050565b6000546001600160a01b031633146105e15760405162461bcd60e51b81526004016105d890611a80565b60405180910390fd5b61062082828080601f016020809104026020016040519081016040528093929190818152602001838380828437600092019190915250610b9892505050565b6003805473ffffffffffffffffffffffffffffffffffffffff19166001600160a01b03929092169190911790555050565b6040518060a00160405280607b815260200161211a607b913981565b6040518060800160405280604181526020016121c76041913981565b6000546001600160a01b031633146106b35760405162461bcd60e51b81526004016105d890611a80565b6106bd6000610c16565b565b6000546001600160a01b031633146106e95760405162461bcd60e51b81526004016105d890611a80565b61072882828080601f016020809104026020016040519081016040528093929190818152602001838380828437600092019190915250610b9892505050565b6002805473ffffffffffffffffffffffffffffffffffffffff19166001600160a01b03929092169190911790555050565b606061076684848461085e565b6040516020016107769190611a90565b60405160208183030381529060405290505b9392505050565b600280546060916000916107d8916107d1916001600160a01b0316906107b69087906118df565b6107c18760026118df565b6107cc9060026119f2565b610c73565b6000610c94565b60028054919250600091610820916107d1916001600160a01b0316906107ff9088906118df565b61080a9060026119f2565b6108158860026118df565b6107cc9060046119f2565b600254909150610856906001600160a01b031661083e846072611ac0565b61ffff1661084d846072611ac0565b61ffff16610c73565b949350505050565b6060600061086b8561078f565b600480546040517fc0da9bcd00000000000000000000000000000000000000000000000000000000815292935060009261090b926001600160a01b039092169163c0da9bcd916108bd918a9101611ae4565b600060405180830381865afa1580156108da573d6000803e3d6000fd5b505050506040513d6000823e601f3d908101601f1916820160405261090291908101906119b7565b6000600c610cca565b90506000604051806080016040528061092e8460068960ff16901c60ff1661037d565b815260200161094484600360048a901c1661037d565b815260200161095a84600360028a901c1661037d565b815260200161096c846003891661037d565b81525090506040518060a00160405280607b815260200161211a607b91396109948483610d92565b6040518060800160405280604181526020016121c7604191396040516020016109bf93929190611a2c565b60405160208183030381529060405293505050509392505050565b6003546060906000906109ff906107d1906001600160a01b03166107b68660026118df565b600354909150600090610a24906107d1906001600160a01b03166107ff8760026118df565b600354909150610856906001600160a01b031661083e846072611ac0565b6000546001600160a01b03163314610a6c5760405162461bcd60e51b81526004016105d890611a80565b6001600160a01b038116610a925760405162461bcd60e51b81526004016105d890611af2565b610a9b81610c16565b50565b6060610ad6610ab06020840184611b53565b60ff16610ac36040850160208601611b53565b60ff166102d76060860160408701611b53565b610aee610ae66020850185611b53565b60ff166109da565b6004546001600160a01b031663e324c664610b0f6040870160208801611b53565b6040518263ffffffff1660e01b8152600401610b2b9190611b8c565b600060405180830381865afa158015610b48573d6000803e3d6000fd5b505050506040513d6000823e601f3d908101601f19168201604052610b7091908101906119b7565b604051602001610b8293929190611b9a565b6040516020818303038152906040529050919050565b600080610bc383604051602001610baf9190611d80565b604051602081830303815290604052610ec1565b90508051602082016000f091506001600160a01b038216610c10576040517f08d4abb600000000000000000000000000000000000000000000000000000000815260040160405180910390fd5b50919050565b600080546001600160a01b0383811673ffffffffffffffffffffffffffffffffffffffff19831681178455604051919092169283917f8be0079c531659141344cd1fd0a4f28419497f9722a3daafe3b4186f6b6457e09190a35050565b606061085684610c848560016119f2565b610c8f8560016119f2565b610ed7565b6000610ca18260026119f2565b83511015610cc15760405162461bcd60e51b81526004016105d890611dc7565b50016002015190565b606081610cd881601f6119f2565b1015610cf65760405162461bcd60e51b81526004016105d890611e09565b610d0082846119f2565b84511015610d205760405162461bcd60e51b81526004016105d890611e4b565b606082158015610d3f5760405191506000825260208201604052610d89565b6040519150601f8416801560200281840101858101878315602002848b0101015b81831015610d78578051835260209283019201610d60565b5050858452601f01601f1916604052505b50949350505050565b6060610dac6000610da68560006020610cca565b84610f96565b610dc36080610dbd86602080610cca565b85610f96565b610ddc610100610dd68760406020610cca565b86610f96565b610df5610180610def8860606020610cca565b87610f96565b610e0e610200610e088960806020610cca565b88610f96565b610e27610280610e218a60a06020610cca565b89610f96565b610e40610300610e3a8b60c06020610cca565b8a610f96565b610e59610380610e538c60e06020610cca565b8b610f96565b610e73610400610e6d8d6101006020610cca565b8c610f96565b610e8d610480610e878e6101206020610cca565b8d610f96565b610ea7610500610ea18f6101406004610cca565b8e6110b6565b6040516020016105969b9a99989796959493929190611e5b565b6060815182604051602001610b82929190611f30565b6060833b80610ef6575050604080516020810190915260008152610788565b80841115610f14575050604080516020810190915260008152610788565b83831015610f54578084846040517f2c4a89fa0000000000000000000000000000000000000000000000000000000081526004016105d893929190611f81565b8383038482036000828210610f695782610f6b565b815b60408051603f8301601f19168101909152818152955090508087602087018a3c505050509392505050565b6060610fb9610fa68560006119f2565b610fb38560006004610cca565b846110b6565b610fd9610fc78660106119f2565b610fd386600480610cca565b856110b6565b610ffa610fe78760206119f2565b610ff48760086004610cca565b866110b6565b61101b6110088860306119f2565b61101588600c6004610cca565b876110b6565b61103c6110298960406119f2565b6110368960106004610cca565b886110b6565b61105d61104a8a60506119f2565b6110578a60146004610cca565b896110b6565b61107e61106b8b60606119f2565b6110788b60186004610cca565b8a6110b6565b61109f61108c8c60706119f2565b6110998c601c6004610cca565b8b6110b6565b604051602001610776989796959493929190611fa9565b60606111066110c68560006119f2565b846000815181106110d9576110d96118fe565b01602001517fff000000000000000000000000000000000000000000000000000000000000001684611203565b6111546111148660046119f2565b85600181518110611127576111276118fe565b01602001517fff000000000000000000000000000000000000000000000000000000000000001685611203565b6111a26111628760086119f2565b86600281518110611175576111756118fe565b01602001517fff000000000000000000000000000000000000000000000000000000000000001686611203565b6111f06111b088600c6119f2565b876003815181106111c3576111c36118fe565b01602001517fff000000000000000000000000000000000000000000000000000000000000001687611203565b6040516020016107769493929190612014565b6060611236847f03fc000000000000000000000000000000000000000000000000000000000000600686901c16846112df565b6112716112448660016119f2565b7f03f0000000000000000000000000000000000000000000000000000000000000600487901c16856112df565b6112ac61127f8760026119f2565b7f03c0000000000000000000000000000000000000000000000000000000000000600288901c16866112df565b6111f06112ba8860036119f2565b7f03000000000000000000000000000000000000000000000000000000000000008816875b60408051808201909152600f81527f25336372656374253230783d25323700000000000000000000000000000000006020820152606090611329611324602487612061565b6113eb565b60408051808201909152600b81527f253237253230793d253237000000000000000000000000000000000000000000602082015261136b611324602489612075565b604051806060016040528060328152602001612195603291398660f889901c6004811061139a5761139a6118fe565b60200201516040518060400160405280600781526020017f2532372f253365000000000000000000000000000000000000000000000000008152506040516020016107769796959493929190612089565b60608161142b57505060408051808201909152600181527f3000000000000000000000000000000000000000000000000000000000000000602082015290565b8160005b8115611455578061143f816120e7565b915061144e9050600a83612075565b915061142f565b60008167ffffffffffffffff811115611470576114706115be565b6040519080825280601f01601f19166020018201604052801561149a576020820181803683370190505b5090505b8415610856576114af600183612102565b91506114bc600a86612061565b6114c79060306119f2565b60f81b8183815181106114dc576114dc6118fe565b60200101907effffffffffffffffffffffffffffffffffffffffffffffffffffffffffffff1916908160001a905350611516600a86612075565b945061149e565b60005b83811015611538578181015183820152602001611520565b83811115611547576000848401525b50505050565b6000611557825190565b80845260208401935061156e81856020860161151d565b601f01601f19169290920192915050565b60208082528101610788818461154d565b60006001600160a01b0382166105a8565b6115aa81611590565b82525050565b602081016105a882846115a1565b634e487b7160e01b600052604160045260246000fd5b601f19601f830116810181811067ffffffffffffffff821117156115fa576115fa6115be565b6040525050565b600061160c60405190565b905061161882826115d4565b919050565b600067ffffffffffffffff821115611637576116376115be565b601f19601f83011660200192915050565b82818337506000910152565b60006116676116628461161d565b611601565b90508281526020810184848401111561168257611682600080fd5b61168d848285611648565b509392505050565b600082601f8301126116a9576116a9600080fd5b8135610856848260208601611654565b805b8114610a9b57600080fd5b80356105a8816116b9565b600080604083850312156116e7576116e7600080fd5b823567ffffffffffffffff81111561170157611701600080fd5b61170d85828601611695565b925050602061171e858286016116c6565b9150509250929050565b60008083601f84011261173d5761173d600080fd5b50813567ffffffffffffffff81111561175857611758600080fd5b60208301915083600182028301111561177357611773600080fd5b9250929050565b6000806020838503121561179057611790600080fd5b823567ffffffffffffffff8111156117aa576117aa600080fd5b6117b685828601611728565b92509250509250929050565b60ff81166116bb565b80356105a8816117c2565b6000806000606084860312156117ee576117ee600080fd5b60006117fa86866116c6565b935050602061180b868287016116c6565b925050604061181c868287016117cb565b9150509250925092565b60006020828403121561183b5761183b600080fd5b600061085684846116c6565b60ff81166115aa565b602081016105a88284611847565b6116bb81611590565b80356105a88161185e565b60006020828403121561188757611887600080fd5b60006108568484611867565b600060808284031215610c1057610c10600080fd5b6000608082840312156118bd576118bd600080fd5b60006108568484611893565b634e487b7160e01b600052601160045260246000fd5b60008160001904831182151516156118f9576118f96118c9565b500290565b634e487b7160e01b600052603260045260246000fd5b806115aa565b60006105a882611928565b90565b60ff1690565b6115aa8161191a565b606081016119458286611914565b611952602083018561192e565b610856604083018461192e565b600061196d6116628461161d565b90508281526020810184848401111561198857611988600080fd5b61168d84828561151d565b600082601f8301126119a7576119a7600080fd5b815161085684826020860161195f565b6000602082840312156119cc576119cc600080fd5b815167ffffffffffffffff8111156119e6576119e6600080fd5b61085684828501611993565b60008219821115611a0557611a056118c9565b500190565b6000611a14825190565b611a2281856020860161151d565b9290920192915050565b611a368185611a0a565b9050611a428184611a0a565b90506108568183611a0a565b60208082527f4f776e61626c653a2063616c6c6572206973206e6f7420746865206f776e657291019081525b60200190565b602080825281016105a881611a4e565b7f646174613a696d6167652f7376672b786d6c2c0000000000000000000000000081526013016105a88183611a0a565b61ffff8116905061ffff8216915060008261ffff03821115611a0557611a056118c9565b602081016105a88284611914565b602080825281016105a881602681527f4f776e61626c653a206e6577206f776e657220697320746865207a65726f206160208201527f6464726573730000000000000000000000000000000000000000000000000000604082015260600190565b600060208284031215611b6857611b68600080fd5b600061085684846117cb565b60006105a861192560ff841681565b6115aa81611b74565b602081016105a88284611b83565b7f646174613a6170706c69636174696f6e2f6a736f6e2c000000000000000000008152601601611be9817f7b22696d6167655f64617461223a2022000000000000000000000000000000009052565b601001611bf68185611a0a565b7f220000000000000000000000000000000000000000000000000000000000000081529050600101611ce3817f2c226465736372697074696f6e223a2022426c69746f61647a2061726520612081527f626c69746d617020616e642043727970546f61647a2063726f73732d6272656560208201527f642c20706176696e67207468652077617920746f776172642061206e6577206260408201527f6c69747a76657273652e204f68202d20616e6420746865792772652066756c6c60608201527f79206f6e2d636861696e2e2200000000000000000000000000000000000000006080820152608c0190565b7f2c226e616d65223a20220000000000000000000000000000000000000000000081529050600a01611d158184611a0a565b7f200000000000000000000000000000000000000000000000000000000000000081529050600101611d478183611a0a565b7f227d0000000000000000000000000000000000000000000000000000000000008152600201949350505050565b600081525b60010190565b611d8981611d75565b90506105a88183611a0a565b60148152602081017f746f55696e7431365f6f75744f66426f756e647300000000000000000000000081529050611a7a565b602080825281016105a881611d95565b600e8152602081017f736c6963655f6f766572666c6f7700000000000000000000000000000000000081529050611a7a565b602080825281016105a881611dd7565b60118152602081017f736c6963655f6f75744f66426f756e647300000000000000000000000000000081529050611a7a565b602080825281016105a881611e19565b611e65818d611a0a565b9050611e71818c611a0a565b9050611e7d818b611a0a565b9050611e89818a611a0a565b9050611e958189611a0a565b9050611ea18188611a0a565b9050611ead8187611a0a565b9050611eb98186611a0a565b9050611ec58185611a0a565b9050611ed18184611a0a565b9050611edd8183611a0a565b9c9b505050505050505050505050565b7f63000000000000000000000000000000000000000000000000000000000000008152611d7a565b60006105a88260e01b90565b6115aa63ffffffff8216611f15565b611f3981611eed565b9050611f458184611f21565b600401611f75817f80600e6000396000f30000000000000000000000000000000000000000000000815260090190565b90506107888183611a0a565b60608101611f8f8286611914565b611f9c6020830185611914565b6108566040830184611914565b611fb3818a611a0a565b9050611fbf8189611a0a565b9050611fcb8188611a0a565b9050611fd78187611a0a565b9050611fe38186611a0a565b9050611fef8185611a0a565b9050611ffb8184611a0a565b90506120078183611a0a565b9998505050505050505050565b61201e8186611a0a565b905061202a8185611a0a565b90506120368184611a0a565b90506120428183611a0a565b95945050505050565b634e487b7160e01b600052601260045260246000fd5b6000826120705761207061204b565b500690565b6000826120845761208461204b565b500490565b6120938189611a0a565b905061209f8188611a0a565b90506120ab8187611a0a565b90506120b78186611a0a565b90506120c38185611a0a565b90506120cf8184611a0a565b90506120db8183611a0a565b98975050505050505050565b60006000198214156120fb576120fb6118c9565b5060010190565b600082821015612114576121146118c9565b50039056fe253363737667253230786d6c6e733d253237687474703a2f2f7777772e77332e6f72672f323030302f73766725323725323076696577426f783d25323730253230302532303336253230333625323725323077696474683d25323733363070782532372532306865696768743d253237333630707825323725336525323725323077696474683d253237312532372532306865696768743d2532373125323725323066696c6c3d2532372532332533637374796c65253365726563747b73686170652d72656e646572696e673a637269737045646765737d2533632f7374796c652533652533632f737667253365a264697066735822122049b13a92e11901eda099c0d0daf14d94fae44dbc99e1b608a38f878ba4a69fa264736f6c634300080c0033",
  "deployedBytecode": "0x608060405234801561001057600080fd5b506004361061016c5760003560e01c8063715018a6116100cd578063b3215d4911610081578063c4534ca211610066578063c4534ca214610328578063f2fde38b1461033b578063f8df92491461034e57600080fd5b8063b3215d4914610300578063bc2255641461031557600080fd5b80638667f1d2116100b25780638667f1d2146102c957806389e4b1e8146102dc5780638da5cb5b146102ef57600080fd5b8063715018a6146102ae578063779dd948146102b657600080fd5b806347c3a430116101245780634d32bd7d116101095780634d32bd7d1461022e57806369db9ed01461026a5780636f5c723b146102a657600080fd5b806347c3a43014610213578063480bc3c81461022657600080fd5b80633774c798116101555780633774c798146101af5780633fc9aff0146101c2578063407134de146101d757600080fd5b80630a41f5da146101715780630bdd03f11461018f575b600080fd5b610179610361565b604051610186919061157f565b60405180910390f35b6002546101a2906001600160a01b031681565b60405161018691906115b0565b6101796101bd3660046116d1565b61037d565b6101d56101d036600461177a565b6105ae565b005b6101796040518060400160405280600781526020017f2532372f2533650000000000000000000000000000000000000000000000000081525081565b6003546101a2906001600160a01b031681565b610179610651565b6101796040518060400160405280600b81526020017f253237253230793d25323700000000000000000000000000000000000000000081525081565b6101796040518060400160405280600f81526020017f25336372656374253230783d253237000000000000000000000000000000000081525081565b61017961066d565b6101d5610689565b6101d56102c436600461177a565b6106bf565b6101796102d73660046117d6565b610759565b6101796102ea366004611826565b61078f565b6000546001600160a01b03166101a2565b610308600281565b6040516101869190611850565b6101796103233660046117d6565b61085e565b610179610336366004611826565b6109da565b6101d5610349366004611872565b610a42565b61017961035c3660046118a8565b610a9e565b6040518060600160405280603281526020016121956032913981565b60608261038b8360036118df565b8151811061039b5761039b6118fe565b016020015160405163c1338a6960e01b815273__$6cc8f8b41053aebd660af83ec8df928129$__9163c1338a69916103df9160f81c90601090600290600401611937565b600060405180830381865af41580156103fc573d6000803e3d6000fd5b505050506040513d6000823e601f3d908101601f1916820160405261042491908101906119b7565b836104308460036118df565b61043b9060016119f2565b8151811061044b5761044b6118fe565b016020015160405163c1338a6960e01b815273__$6cc8f8b41053aebd660af83ec8df928129$__9163c1338a699161048f9160f81c90601090600290600401611937565b600060405180830381865af41580156104ac573d6000803e3d6000fd5b505050506040513d6000823e601f3d908101601f191682016040526104d491908101906119b7565b846104e08560036118df565b6104eb9060026119f2565b815181106104fb576104fb6118fe565b016020015160405163c1338a6960e01b815273__$6cc8f8b41053aebd660af83ec8df928129$__9163c1338a699161053f9160f81c90601090600290600401611937565b600060405180830381865af415801561055c573d6000803e3d6000fd5b505050506040513d6000823e601f3d908101601f1916820160405261058491908101906119b7565b60405160200161059693929190611a2c565b60405160208183030381529060405290505b92915050565b6000546001600160a01b031633146105e15760405162461bcd60e51b81526004016105d890611a80565b60405180910390fd5b61062082828080601f016020809104026020016040519081016040528093929190818152602001838380828437600092019190915250610b9892505050565b6003805473ffffffffffffffffffffffffffffffffffffffff19166001600160a01b03929092169190911790555050565b6040518060a00160405280607b815260200161211a607b913981565b6040518060800160405280604181526020016121c76041913981565b6000546001600160a01b031633146106b35760405162461bcd60e51b81526004016105d890611a80565b6106bd6000610c16565b565b6000546001600160a01b031633146106e95760405162461bcd60e51b81526004016105d890611a80565b61072882828080601f016020809104026020016040519081016040528093929190818152602001838380828437600092019190915250610b9892505050565b6002805473ffffffffffffffffffffffffffffffffffffffff19166001600160a01b03929092169190911790555050565b606061076684848461085e565b6040516020016107769190611a90565b60405160208183030381529060405290505b9392505050565b600280546060916000916107d8916107d1916001600160a01b0316906107b69087906118df565b6107c18760026118df565b6107cc9060026119f2565b610c73565b6000610c94565b60028054919250600091610820916107d1916001600160a01b0316906107ff9088906118df565b61080a9060026119f2565b6108158860026118df565b6107cc9060046119f2565b600254909150610856906001600160a01b031661083e846072611ac0565b61ffff1661084d846072611ac0565b61ffff16610c73565b949350505050565b6060600061086b8561078f565b600480546040517fc0da9bcd00000000000000000000000000000000000000000000000000000000815292935060009261090b926001600160a01b039092169163c0da9bcd916108bd918a9101611ae4565b600060405180830381865afa1580156108da573d6000803e3d6000fd5b505050506040513d6000823e601f3d908101601f1916820160405261090291908101906119b7565b6000600c610cca565b90506000604051806080016040528061092e8460068960ff16901c60ff1661037d565b815260200161094484600360048a901c1661037d565b815260200161095a84600360028a901c1661037d565b815260200161096c846003891661037d565b81525090506040518060a00160405280607b815260200161211a607b91396109948483610d92565b6040518060800160405280604181526020016121c7604191396040516020016109bf93929190611a2c565b60405160208183030381529060405293505050509392505050565b6003546060906000906109ff906107d1906001600160a01b03166107b68660026118df565b600354909150600090610a24906107d1906001600160a01b03166107ff8760026118df565b600354909150610856906001600160a01b031661083e846072611ac0565b6000546001600160a01b03163314610a6c5760405162461bcd60e51b81526004016105d890611a80565b6001600160a01b038116610a925760405162461bcd60e51b81526004016105d890611af2565b610a9b81610c16565b50565b6060610ad6610ab06020840184611b53565b60ff16610ac36040850160208601611b53565b60ff166102d76060860160408701611b53565b610aee610ae66020850185611b53565b60ff166109da565b6004546001600160a01b031663e324c664610b0f6040870160208801611b53565b6040518263ffffffff1660e01b8152600401610b2b9190611b8c565b600060405180830381865afa158015610b48573d6000803e3d6000fd5b505050506040513d6000823e601f3d908101601f19168201604052610b7091908101906119b7565b604051602001610b8293929190611b9a565b6040516020818303038152906040529050919050565b600080610bc383604051602001610baf9190611d80565b604051602081830303815290604052610ec1565b90508051602082016000f091506001600160a01b038216610c10576040517f08d4abb600000000000000000000000000000000000000000000000000000000815260040160405180910390fd5b50919050565b600080546001600160a01b0383811673ffffffffffffffffffffffffffffffffffffffff19831681178455604051919092169283917f8be0079c531659141344cd1fd0a4f28419497f9722a3daafe3b4186f6b6457e09190a35050565b606061085684610c848560016119f2565b610c8f8560016119f2565b610ed7565b6000610ca18260026119f2565b83511015610cc15760405162461bcd60e51b81526004016105d890611dc7565b50016002015190565b606081610cd881601f6119f2565b1015610cf65760405162461bcd60e51b81526004016105d890611e09565b610d0082846119f2565b84511015610d205760405162461bcd60e51b81526004016105d890611e4b565b606082158015610d3f5760405191506000825260208201604052610d89565b6040519150601f8416801560200281840101858101878315602002848b0101015b81831015610d78578051835260209283019201610d60565b5050858452601f01601f1916604052505b50949350505050565b6060610dac6000610da68560006020610cca565b84610f96565b610dc36080610dbd86602080610cca565b85610f96565b610ddc610100610dd68760406020610cca565b86610f96565b610df5610180610def8860606020610cca565b87610f96565b610e0e610200610e088960806020610cca565b88610f96565b610e27610280610e218a60a06020610cca565b89610f96565b610e40610300610e3a8b60c06020610cca565b8a610f96565b610e59610380610e538c60e06020610cca565b8b610f96565b610e73610400610e6d8d6101006020610cca565b8c610f96565b610e8d610480610e878e6101206020610cca565b8d610f96565b610ea7610500610ea18f6101406004610cca565b8e6110b6565b6040516020016105969b9a99989796959493929190611e5b565b6060815182604051602001610b82929190611f30565b6060833b80610ef6575050604080516020810190915260008152610788565b80841115610f14575050604080516020810190915260008152610788565b83831015610f54578084846040517f2c4a89fa0000000000000000000000000000000000000000000000000000000081526004016105d893929190611f81565b8383038482036000828210610f695782610f6b565b815b60408051603f8301601f19168101909152818152955090508087602087018a3c505050509392505050565b6060610fb9610fa68560006119f2565b610fb38560006004610cca565b846110b6565b610fd9610fc78660106119f2565b610fd386600480610cca565b856110b6565b610ffa610fe78760206119f2565b610ff48760086004610cca565b866110b6565b61101b6110088860306119f2565b61101588600c6004610cca565b876110b6565b61103c6110298960406119f2565b6110368960106004610cca565b886110b6565b61105d61104a8a60506119f2565b6110578a60146004610cca565b896110b6565b61107e61106b8b60606119f2565b6110788b60186004610cca565b8a6110b6565b61109f61108c8c60706119f2565b6110998c601c6004610cca565b8b6110b6565b604051602001610776989796959493929190611fa9565b60606111066110c68560006119f2565b846000815181106110d9576110d96118fe565b01602001517fff000000000000000000000000000000000000000000000000000000000000001684611203565b6111546111148660046119f2565b85600181518110611127576111276118fe565b01602001517fff000000000000000000000000000000000000000000000000000000000000001685611203565b6111a26111628760086119f2565b86600281518110611175576111756118fe565b01602001517fff000000000000000000000000000000000000000000000000000000000000001686611203565b6111f06111b088600c6119f2565b876003815181106111c3576111c36118fe565b01602001517fff000000000000000000000000000000000000000000000000000000000000001687611203565b6040516020016107769493929190612014565b6060611236847f03fc000000000000000000000000000000000000000000000000000000000000600686901c16846112df565b6112716112448660016119f2565b7f03f0000000000000000000000000000000000000000000000000000000000000600487901c16856112df565b6112ac61127f8760026119f2565b7f03c0000000000000000000000000000000000000000000000000000000000000600288901c16866112df565b6111f06112ba8860036119f2565b7f03000000000000000000000000000000000000000000000000000000000000008816875b60408051808201909152600f81527f25336372656374253230783d25323700000000000000000000000000000000006020820152606090611329611324602487612061565b6113eb565b60408051808201909152600b81527f253237253230793d253237000000000000000000000000000000000000000000602082015261136b611324602489612075565b604051806060016040528060328152602001612195603291398660f889901c6004811061139a5761139a6118fe565b60200201516040518060400160405280600781526020017f2532372f253365000000000000000000000000000000000000000000000000008152506040516020016107769796959493929190612089565b60608161142b57505060408051808201909152600181527f3000000000000000000000000000000000000000000000000000000000000000602082015290565b8160005b8115611455578061143f816120e7565b915061144e9050600a83612075565b915061142f565b60008167ffffffffffffffff811115611470576114706115be565b6040519080825280601f01601f19166020018201604052801561149a576020820181803683370190505b5090505b8415610856576114af600183612102565b91506114bc600a86612061565b6114c79060306119f2565b60f81b8183815181106114dc576114dc6118fe565b60200101907effffffffffffffffffffffffffffffffffffffffffffffffffffffffffffff1916908160001a905350611516600a86612075565b945061149e565b60005b83811015611538578181015183820152602001611520565b83811115611547576000848401525b50505050565b6000611557825190565b80845260208401935061156e81856020860161151d565b601f01601f19169290920192915050565b60208082528101610788818461154d565b60006001600160a01b0382166105a8565b6115aa81611590565b82525050565b602081016105a882846115a1565b634e487b7160e01b600052604160045260246000fd5b601f19601f830116810181811067ffffffffffffffff821117156115fa576115fa6115be565b6040525050565b600061160c60405190565b905061161882826115d4565b919050565b600067ffffffffffffffff821115611637576116376115be565b601f19601f83011660200192915050565b82818337506000910152565b60006116676116628461161d565b611601565b90508281526020810184848401111561168257611682600080fd5b61168d848285611648565b509392505050565b600082601f8301126116a9576116a9600080fd5b8135610856848260208601611654565b805b8114610a9b57600080fd5b80356105a8816116b9565b600080604083850312156116e7576116e7600080fd5b823567ffffffffffffffff81111561170157611701600080fd5b61170d85828601611695565b925050602061171e858286016116c6565b9150509250929050565b60008083601f84011261173d5761173d600080fd5b50813567ffffffffffffffff81111561175857611758600080fd5b60208301915083600182028301111561177357611773600080fd5b9250929050565b6000806020838503121561179057611790600080fd5b823567ffffffffffffffff8111156117aa576117aa600080fd5b6117b685828601611728565b92509250509250929050565b60ff81166116bb565b80356105a8816117c2565b6000806000606084860312156117ee576117ee600080fd5b60006117fa86866116c6565b935050602061180b868287016116c6565b925050604061181c868287016117cb565b9150509250925092565b60006020828403121561183b5761183b600080fd5b600061085684846116c6565b60ff81166115aa565b602081016105a88284611847565b6116bb81611590565b80356105a88161185e565b60006020828403121561188757611887600080fd5b60006108568484611867565b600060808284031215610c1057610c10600080fd5b6000608082840312156118bd576118bd600080fd5b60006108568484611893565b634e487b7160e01b600052601160045260246000fd5b60008160001904831182151516156118f9576118f96118c9565b500290565b634e487b7160e01b600052603260045260246000fd5b806115aa565b60006105a882611928565b90565b60ff1690565b6115aa8161191a565b606081016119458286611914565b611952602083018561192e565b610856604083018461192e565b600061196d6116628461161d565b90508281526020810184848401111561198857611988600080fd5b61168d84828561151d565b600082601f8301126119a7576119a7600080fd5b815161085684826020860161195f565b6000602082840312156119cc576119cc600080fd5b815167ffffffffffffffff8111156119e6576119e6600080fd5b61085684828501611993565b60008219821115611a0557611a056118c9565b500190565b6000611a14825190565b611a2281856020860161151d565b9290920192915050565b611a368185611a0a565b9050611a428184611a0a565b90506108568183611a0a565b60208082527f4f776e61626c653a2063616c6c6572206973206e6f7420746865206f776e657291019081525b60200190565b602080825281016105a881611a4e565b7f646174613a696d6167652f7376672b786d6c2c0000000000000000000000000081526013016105a88183611a0a565b61ffff8116905061ffff8216915060008261ffff03821115611a0557611a056118c9565b602081016105a88284611914565b602080825281016105a881602681527f4f776e61626c653a206e6577206f776e657220697320746865207a65726f206160208201527f6464726573730000000000000000000000000000000000000000000000000000604082015260600190565b600060208284031215611b6857611b68600080fd5b600061085684846117cb565b60006105a861192560ff841681565b6115aa81611b74565b602081016105a88284611b83565b7f646174613a6170706c69636174696f6e2f6a736f6e2c000000000000000000008152601601611be9817f7b22696d6167655f64617461223a2022000000000000000000000000000000009052565b601001611bf68185611a0a565b7f220000000000000000000000000000000000000000000000000000000000000081529050600101611ce3817f2c226465736372697074696f6e223a2022426c69746f61647a2061726520612081527f626c69746d617020616e642043727970546f61647a2063726f73732d6272656560208201527f642c20706176696e67207468652077617920746f776172642061206e6577206260408201527f6c69747a76657273652e204f68202d20616e6420746865792772652066756c6c60608201527f79206f6e2d636861696e2e2200000000000000000000000000000000000000006080820152608c0190565b7f2c226e616d65223a20220000000000000000000000000000000000000000000081529050600a01611d158184611a0a565b7f200000000000000000000000000000000000000000000000000000000000000081529050600101611d478183611a0a565b7f227d0000000000000000000000000000000000000000000000000000000000008152600201949350505050565b600081525b60010190565b611d8981611d75565b90506105a88183611a0a565b60148152602081017f746f55696e7431365f6f75744f66426f756e647300000000000000000000000081529050611a7a565b602080825281016105a881611d95565b600e8152602081017f736c6963655f6f766572666c6f7700000000000000000000000000000000000081529050611a7a565b602080825281016105a881611dd7565b60118152602081017f736c6963655f6f75744f66426f756e647300000000000000000000000000000081529050611a7a565b602080825281016105a881611e19565b611e65818d611a0a565b9050611e71818c611a0a565b9050611e7d818b611a0a565b9050611e89818a611a0a565b9050611e958189611a0a565b9050611ea18188611a0a565b9050611ead8187611a0a565b9050611eb98186611a0a565b9050611ec58185611a0a565b9050611ed18184611a0a565b9050611edd8183611a0a565b9c9b505050505050505050505050565b7f63000000000000000000000000000000000000000000000000000000000000008152611d7a565b60006105a88260e01b90565b6115aa63ffffffff8216611f15565b611f3981611eed565b9050611f458184611f21565b600401611f75817f80600e6000396000f30000000000000000000000000000000000000000000000815260090190565b90506107888183611a0a565b60608101611f8f8286611914565b611f9c6020830185611914565b6108566040830184611914565b611fb3818a611a0a565b9050611fbf8189611a0a565b9050611fcb8188611a0a565b9050611fd78187611a0a565b9050611fe38186611a0a565b9050611fef8185611a0a565b9050611ffb8184611a0a565b90506120078183611a0a565b9998505050505050505050565b61201e8186611a0a565b905061202a8185611a0a565b90506120368184611a0a565b90506120428183611a0a565b95945050505050565b634e487b7160e01b600052601260045260246000fd5b6000826120705761207061204b565b500690565b6000826120845761208461204b565b500490565b6120938189611a0a565b905061209f8188611a0a565b90506120ab8187611a0a565b90506120b78186611a0a565b90506120c38185611a0a565b90506120cf8184611a0a565b90506120db8183611a0a565b98975050505050505050565b60006000198214156120fb576120fb6118c9565b5060010190565b600082821015612114576121146118c9565b50039056fe253363737667253230786d6c6e733d253237687474703a2f2f7777772e77332e6f72672f323030302f73766725323725323076696577426f783d25323730253230302532303336253230333625323725323077696474683d25323733363070782532372532306865696768743d253237333630707825323725336525323725323077696474683d253237312532372532306865696768743d2532373125323725323066696c6c3d2532372532332533637374796c65253365726563747b73686170652d72656e646572696e673a637269737045646765737d2533632f7374796c652533652533632f737667253365a264697066735822122049b13a92e11901eda099c0d0daf14d94fae44dbc99e1b608a38f878ba4a69fa264736f6c634300080c0033",
  "libraries": {
    "Integers": "0x03abFda4e7cec3484D518848B5e6aa10965F91DD"
  },
  "devdoc": {
    "kind": "dev",
    "methods": {
      "constructor": {
        "details": "Indexes and images are concatenated and stored in a single 'bytes' with SSTORE2 to save gas."
      },
      "getBlitoadz(uint256,uint256,uint8)": {
        "details": "Decode the rect and returns it as a plain string to be used in the svg rect attribute."
      },
      "getFill(bytes,uint256)": {
        "details": "3 bytes per color because svg does not handle alpha."
      },
      "owner()": {
        "details": "Returns the address of the current owner."
      },
      "renounceOwnership()": {
        "details": "Leaves the contract without owner. It will not be possible to call `onlyOwner` functions anymore. Can only be called by the current owner. NOTE: Renouncing ownership will leave the contract without an owner, thereby removing any functionality that is only available to the owner."
      },
      "transferOwnership(address)": {
        "details": "Transfers ownership of the contract to a new account (`newOwner`). Can only be called by the current owner."
      }
    },
    "version": 1
  },
  "userdoc": {
    "kind": "user",
    "methods": {},
    "version": 1
  },
  "storageLayout": {
    "storage": [
      {
        "astId": 225,
        "contract": "contracts/blitoadz/BlitoadzRenderer.sol:BlitoadzRenderer",
        "label": "_owner",
        "offset": 0,
        "slot": "0",
        "type": "t_address"
      },
      {
        "astId": 333,
        "contract": "contracts/blitoadz/BlitoadzRenderer.sol:BlitoadzRenderer",
        "label": "_status",
        "offset": 0,
        "slot": "1",
        "type": "t_uint256"
      },
      {
        "astId": 2055,
        "contract": "contracts/blitoadz/BlitoadzRenderer.sol:BlitoadzRenderer",
        "label": "toadz",
        "offset": 0,
        "slot": "2",
        "type": "t_address"
      },
      {
        "astId": 2057,
        "contract": "contracts/blitoadz/BlitoadzRenderer.sol:BlitoadzRenderer",
        "label": "toadzNames",
        "offset": 0,
        "slot": "3",
        "type": "t_address"
      },
      {
        "astId": 2060,
        "contract": "contracts/blitoadz/BlitoadzRenderer.sol:BlitoadzRenderer",
        "label": "blitmap",
        "offset": 0,
        "slot": "4",
        "type": "t_contract(IBlitmap)2906"
      }
    ],
    "types": {
      "t_address": {
        "encoding": "inplace",
        "label": "address",
        "numberOfBytes": "20"
      },
      "t_contract(IBlitmap)2906": {
        "encoding": "inplace",
        "label": "contract IBlitmap",
        "numberOfBytes": "20"
      },
      "t_uint256": {
        "encoding": "inplace",
        "label": "uint256",
        "numberOfBytes": "32"
      }
    }
  }
}