{
  "address": "0x86295b5e8C705078717edaFa3E9d5CAb7203410C",
  "abi": [
    {
      "inputs": [
        {
          "internalType": "bytes",
          "name": "tokenData",
          "type": "bytes"
        }
      ],
      "stateMutability": "nonpayable",
      "type": "constructor"
    },
    {
      "inputs": [
        {
          "internalType": "uint256",
          "name": "tokenId",
          "type": "uint256"
        }
      ],
      "name": "tokenDataOf",
      "outputs": [
        {
          "internalType": "bytes",
          "name": "",
          "type": "bytes"
        }
      ],
      "stateMutability": "view",
      "type": "function"
    }
  ],
  "transactionHash": "0x395f5eaf3d6b7068b20d68dc4705001263cf09921391f3d1266aea4825b27293",
  "args": [
    "0x0000000600ffd5719efff5680000009e2836e53b4463c74d0000004f6781afbfd263c64dffffff000000aaaaff55aaaabfb4f8000000ffffff403578fee761ff0044f77622181425405010708028d0d058a0a84000000055ffffffffffff55ffa22633fee761181425e43b44e4a672733e39ead4aad77643442434deeed6dad45e140c1c639bffd9a066eec39a5fcde43e8948ffffff193c3ef6757aff0044feae34dccfcff77622ffefff181010f7b58c84739ce04f882e47808c5a996aa0c2fff6d37c3f58eb6b6ff9a875ffffff181425fee7612ce8f5a3ce27000000733e39b86f50124e89e43b44f6757affffff262b44ff0044fee761733e39181425c0cbdc4c5270262b44fce4a8d71a2101334e71969fbe26339d9d9df7e26bb2dcef346524dad45e597dce6daa2cffffff2ce8f5124e890099dbff555555f555000000ffff555a0084e63900ffc96bffffff2f256bf42e1f060608fffffffc813a6d1b46a32b3fe03f3788db603965663b9b6a2e38465f658edbdce59b9eba3a4168431b4827122c5f20599125651b1e1f72332fa14a30fda76d4a85b02434549dd9d66db7ccfc618d65ffe1b440774b9cfa38242c18152297242fde3640e03f37471b436d1b46fc813aa14a30c76c31a32b3f38744a7886ca4343436200eaffe0b2b9f7caaeb42a424243ffe0b2d0c4e8fab8b8424243ffe0b200ff84000000ffffffff00e4000000440032ca00976c00500ffadbffffffff22890a28d01f0123e8a4f8ff00a2960cb62453453784531c040462ad5d124e89191010c75b22f4e5d8cc44431c0700eeaf69f99d1bffda541f1407af1818feb96430d55f3e2515fae6bae9904e5f30a4afc39054ff50f34dc6306591132b39fdf151000000b2ebf23f51b50000002196f3545c88d9c3c3ae8484c5a6a682522ca996613e382d25180b000000e6e6e6494949a7a7a7100805685e443d2d237daf55ffe103fb00ff00000000afff98834a370e007d5237a1b25d5e6c5a843838c1b8be000000555555969696bababae7d24ceaec182673a97ac3f6ffe8a3f728e100000026be1a0f5b092673a9f621da000000fffffffe4cff0048d86a006a980098159a001f3aac282849365cffd3a46efe0000ffe3b3fffffe46745faa656500000075b5a2d47eb1ba7295e5acb3f7d3de1d00203e3c245e6844688a854545452727270606065d5d5d5d5d5da3a3a3cecece3a3a3a31221a1b110c685e44868c65ff0000aa0000dfdfff19434123079ceacc3f6be1573393555241071f6a07d0a2367d5a09ff5e56cd2b27ffdc8f64cae0631763080000ebebebcbcbcba7a7a7d6d6d65c5c5c707070191919a9744162472c3a332c000000151515274bfbffb400ffec3a0000002196f3ffffffffffffafbcba0226520541730000000000ffff000000ff004377e7080000fcfcfcd6d6d69e2835c8eac5193d3fcf355938744a5ca443261c27c2d06089d0b70c38701021580f54770000001d301f428d6700ffa800ffa80504069271c0e9e0fbafbfd20000004f6781ffffff000000ffffff2ce8f4e53b44e7fef70000007999e751a16ce4a672743f393f2832b86f50e1fc9cb4fa577df50443da001f6fbfffffff003d65470b27bb4cfbf0d9feddb6f8d389fc591031940b0f65ffe60a9e87271d44ffffff415f7492bda0"
  ],
  "numDeployments": 1,
  "solcInputHash": "c0c610796b341fb8a60ba0b659b48b7c",
  "bytecode": "0x608060405234801561001057600080fd5b506040516106e13803806106e183398101604081905261002f91610207565b8051610042906000906020840190610049565b5050610284565b82805461005590610257565b90600052602060002090601f01602090048101928261007757600085556100bd565b82601f1061009057805160ff19168380011785556100bd565b828001600101855582156100bd579182015b828111156100bd5782518255916020019190600101906100a2565b506100c99291506100cd565b5090565b5b808211156100c957600081556001016100ce565b634e487b7160e01b600052604160045260246000fd5b601f19601f83011681016001600160401b038111828210171561011d5761011d6100e2565b6040525050565b600061012f60405190565b905061013b82826100f8565b919050565b60006001600160401b03821115610159576101596100e2565b601f19601f83011660200192915050565b60005b8381101561018557818101518382015260200161016d565b83811115610194576000848401525b50505050565b60006101ad6101a884610140565b610124565b9050828152602081018484840111156101c8576101c8600080fd5b6101d384828561016a565b509392505050565b600082601f8301126101ef576101ef600080fd5b81516101ff84826020860161019a565b949350505050565b60006020828403121561021c5761021c600080fd5b81516001600160401b0381111561023557610235600080fd5b6101ff848285016101db565b634e487b7160e01b600052602260045260246000fd5b60028104600182168061026b57607f821691505b6020821081141561027e5761027e610241565b50919050565b61044e806102936000396000f3fe608060405234801561001057600080fd5b506004361061002b5760003560e01c8063c0da9bcd14610030575b600080fd5b61004361003e36600461020f565b610059565b604051610050919061029a565b60405180910390f35b60606100fd6000805461006b906102e1565b80601f0160208091040260200160405190810160405280929190818152602001828054610097906102e1565b80156100e45780601f106100b9576101008083540402835291602001916100e4565b820191906000526020600020905b8154815290600101906020018083116100c757829003601f168201915b505050505083600c6100f6919061033d565b600c610103565b92915050565b60608161011181601f61037a565b1015610152576040517f08c379a0000000000000000000000000000000000000000000000000000000008152600401610149906103c6565b60405180910390fd5b61015c828461037a565b84511015610196576040517f08c379a000000000000000000000000000000000000000000000000000000000815260040161014990610408565b6060821580156101b557604051915060008252602082016040526101ff565b6040519150601f8416801560200281840101858101878315602002848b0101015b818310156101ee5780518352602092830192016101d6565b5050858452601f01601f1916604052505b50949350505050565b80356100fd565b60006020828403121561022457610224600080fd5b60006102308484610208565b949350505050565b60005b8381101561025357818101518382015260200161023b565b83811115610262576000848401525b50505050565b6000610272825190565b808452602084019350610289818560208601610238565b601f01601f19169290920192915050565b602080825281016102ab8184610268565b9392505050565b7f4e487b7100000000000000000000000000000000000000000000000000000000600052602260045260246000fd5b6002810460018216806102f557607f821691505b60208210811415610308576103086102b2565b50919050565b7f4e487b7100000000000000000000000000000000000000000000000000000000600052601160045260246000fd5b6000817fffffffffffffffffffffffffffffffffffffffffffffffffffffffffffffffff04831182151516156103755761037561030e565b500290565b6000821982111561038d5761038d61030e565b500190565b600e8152602081017f736c6963655f6f766572666c6f77000000000000000000000000000000000000815290505b60200190565b602080825281016100fd81610392565b60118152602081017f736c6963655f6f75744f66426f756e6473000000000000000000000000000000815290506103c0565b602080825281016100fd816103d656fea2646970667358221220b8c2a8b7708c1aa0b078e0ffc9057d2dc5d28d4579495c4a7c3783fb33a09c7064736f6c634300080c0033",
  "devdoc": {
    "kind": "dev",
    "methods": {},
    "version": 1
  },
  "userdoc": {
    "kind": "user",
    "methods": {},
    "version": 1
  },
  "storageLayout": {
    "storage": [
      {
        "astId": 1115,
        "contract": "contracts/blitoadz/Blitmap.sol:Blitmap",
        "label": "_tokenData",
        "offset": 0,
        "slot": "0",
        "type": "t_bytes_storage"
      }
    ],
    "types": {
      "t_bytes_storage": {
        "encoding": "bytes",
        "label": "bytes",
        "numberOfBytes": "32"
      }
    }
  }
}