{
  "address": "0xf81575ce697DE0e3B74F8692F5e0217F5dED55E1",
  "abi": [
    {
      "inputs": [
        {
          "internalType": "address",
          "name": "_blitmap",
          "type": "address"
        }
      ],
      "stateMutability": "nonpayable",
      "type": "constructor"
    },
    {
      "inputs": [
        {
          "internalType": "uint256",
          "name": "_size",
          "type": "uint256"
        },
        {
          "internalType": "uint256",
          "name": "_start",
          "type": "uint256"
        },
        {
          "internalType": "uint256",
          "name": "_end",
          "type": "uint256"
        }
      ],
      "name": "InvalidCodeAtRange",
      "type": "error"
    },
    {
      "inputs": [],
      "name": "WriteError",
      "type": "error"
    },
    {
      "anonymous": false,
      "inputs": [
        {
          "indexed": true,
          "internalType": "address",
          "name": "previousOwner",
          "type": "address"
        },
        {
          "indexed": true,
          "internalType": "address",
          "name": "newOwner",
          "type": "address"
        }
      ],
      "name": "OwnershipTransferred",
      "type": "event"
    },
    {
      "inputs": [],
      "name": "BITS_PER_FILL_INDEX",
      "outputs": [
        {
          "internalType": "uint8",
          "name": "",
          "type": "uint8"
        }
      ],
      "stateMutability": "view",
      "type": "function"
    },
    {
      "inputs": [],
      "name": "RECT_TAG_END",
      "outputs": [
        {
          "internalType": "string",
          "name": "",
          "type": "string"
        }
      ],
      "stateMutability": "view",
      "type": "function"
    },
    {
      "inputs": [],
      "name": "RECT_TAG_START",
      "outputs": [
        {
          "internalType": "string",
          "name": "",
          "type": "string"
        }
      ],
      "stateMutability": "view",
      "type": "function"
    },
    {
      "inputs": [],
      "name": "SVG_TAG_END",
      "outputs": [
        {
          "internalType": "string",
          "name": "",
          "type": "string"
        }
      ],
      "stateMutability": "view",
      "type": "function"
    },
    {
      "inputs": [],
      "name": "SVG_TAG_START",
      "outputs": [
        {
          "internalType": "string",
          "name": "",
          "type": "string"
        }
      ],
      "stateMutability": "view",
      "type": "function"
    },
    {
      "inputs": [],
      "name": "WH_FILL_TAG",
      "outputs": [
        {
          "internalType": "string",
          "name": "",
          "type": "string"
        }
      ],
      "stateMutability": "view",
      "type": "function"
    },
    {
      "inputs": [],
      "name": "Y_TAG",
      "outputs": [
        {
          "internalType": "string",
          "name": "",
          "type": "string"
        }
      ],
      "stateMutability": "view",
      "type": "function"
    },
    {
      "inputs": [
        {
          "internalType": "uint256",
          "name": "toadzId",
          "type": "uint256"
        },
        {
          "internalType": "uint256",
          "name": "blitmapId",
          "type": "uint256"
        }
      ],
      "name": "getBlitoadz",
      "outputs": [
        {
          "internalType": "string",
          "name": "",
          "type": "string"
        }
      ],
      "stateMutability": "view",
      "type": "function"
    },
    {
      "inputs": [
        {
          "internalType": "bytes",
          "name": "palette",
          "type": "bytes"
        },
        {
          "internalType": "uint256",
          "name": "_index",
          "type": "uint256"
        }
      ],
      "name": "getFill",
      "outputs": [
        {
          "internalType": "string",
          "name": "",
          "type": "string"
        }
      ],
      "stateMutability": "pure",
      "type": "function"
    },
    {
      "inputs": [
        {
          "internalType": "uint256",
          "name": "toadzId",
          "type": "uint256"
        },
        {
          "internalType": "uint256",
          "name": "blitmapId",
          "type": "uint256"
        }
      ],
      "name": "getImageURI",
      "outputs": [
        {
          "internalType": "string",
          "name": "",
          "type": "string"
        }
      ],
      "stateMutability": "view",
      "type": "function"
    },
    {
      "inputs": [
        {
          "internalType": "uint256",
          "name": "_index",
          "type": "uint256"
        }
      ],
      "name": "getToadzBytes",
      "outputs": [
        {
          "internalType": "bytes",
          "name": "",
          "type": "bytes"
        }
      ],
      "stateMutability": "view",
      "type": "function"
    },
    {
      "inputs": [],
      "name": "owner",
      "outputs": [
        {
          "internalType": "address",
          "name": "",
          "type": "address"
        }
      ],
      "stateMutability": "view",
      "type": "function"
    },
    {
      "inputs": [],
      "name": "renounceOwnership",
      "outputs": [],
      "stateMutability": "nonpayable",
      "type": "function"
    },
    {
      "inputs": [
        {
          "internalType": "bytes",
          "name": "_toadz",
          "type": "bytes"
        }
      ],
      "name": "setToadz",
      "outputs": [],
      "stateMutability": "nonpayable",
      "type": "function"
    },
    {
      "inputs": [],
      "name": "toadz",
      "outputs": [
        {
          "internalType": "address",
          "name": "",
          "type": "address"
        }
      ],
      "stateMutability": "view",
      "type": "function"
    },
    {
      "inputs": [
        {
          "internalType": "uint256",
          "name": "toadzId",
          "type": "uint256"
        },
        {
          "internalType": "uint256",
          "name": "blitmapId",
          "type": "uint256"
        }
      ],
      "name": "tokenURI",
      "outputs": [
        {
          "internalType": "string",
          "name": "",
          "type": "string"
        }
      ],
      "stateMutability": "view",
      "type": "function"
    },
    {
      "inputs": [
        {
          "internalType": "address",
          "name": "newOwner",
          "type": "address"
        }
      ],
      "name": "transferOwnership",
      "outputs": [],
      "stateMutability": "nonpayable",
      "type": "function"
    }
  ],
  "transactionHash": "0x86747d5ec1bf82351f5a6c177dbfb1a49af103ff5815a7769aedbb10f96d4e93",
  "args": [
    "0x86295b5e8C705078717edaFa3E9d5CAb7203410C"
  ],
  "numDeployments": 1,
  "solcInputHash": "c0c610796b341fb8a60ba0b659b48b7c",
  "bytecode": "0x60806040523480156200001157600080fd5b5060405162001f7e38038062001f7e8339810160408190526200003491620000f3565b6200003f3362000069565b60018055600380546001600160a01b0319166001600160a01b039290921691909117905562000120565b600080546001600160a01b038381166001600160a01b0319831681178455604051919092169283917f8be0079c531659141344cd1fd0a4f28419497f9722a3daafe3b4186f6b6457e09190a35050565b60006001600160a01b0382165b92915050565b620000d781620000b9565b8114620000e357600080fd5b50565b8051620000c681620000cc565b6000602082840312156200010a576200010a600080fd5b6000620001188484620000e6565b949350505050565b611e4e80620001306000396000f3fe608060405234801561001057600080fd5b506004361061011b5760003560e01c8063715018a6116100b257806392cb829d11610081578063b3215d4911610066578063b3215d491461029c578063f2fde38b146102b1578063f5629340146102c457600080fd5b806392cb829d146102765780639338a2951461028957600080fd5b8063715018a614610235578063779dd9481461023f57806389e4b1e8146102525780638da5cb5b1461026557600080fd5b8063480bc3c8116100ee578063480bc3c8146101ad5780634d32bd7d146101b557806369db9ed0146101f15780636f5c723b1461022d57600080fd5b80630a41f5da146101205780630bdd03f11461013e5780633774c7981461015e578063407134de14610171575b600080fd5b6101286102d7565b6040516101359190611330565b60405180910390f35b600254610151906001600160a01b031681565b6040516101359190611361565b61012861016c366004611482565b6102f3565b6101286040518060400160405280600781526020017f2532372f2533650000000000000000000000000000000000000000000000000081525081565b610128610524565b6101286040518060400160405280600b81526020017f253237253230793d25323700000000000000000000000000000000000000000081525081565b6101286040518060400160405280600f81526020017f25336372656374253230783d253237000000000000000000000000000000000081525081565b610128610540565b61023d61055c565b005b61023d61024d36600461152b565b61059b565b610128610260366004611573565b610640565b6000546001600160a01b0316610151565b610128610284366004611594565b61070f565b610128610297366004611594565b61072b565b6102a4600281565b60405161013591906115bf565b61023d6102bf3660046115e1565b61088e565b6101286102d2366004611594565b6108ea565b604051806060016040528060328152602001611da66032913981565b606082610301836003611618565b8151811061031157610311611637565b016020015160405163c1338a6960e01b81527303abFda4e7cec3484D518848B5e6aa10965F91DD9163c1338a69916103559160f81c90601090600290600401611667565b600060405180830381865af4158015610372573d6000803e3d6000fd5b505050506040513d6000823e601f3d908101601f1916820160405261039a91908101906116e7565b836103a6846003611618565b6103b1906001611722565b815181106103c1576103c1611637565b016020015160405163c1338a6960e01b81527303abFda4e7cec3484D518848B5e6aa10965F91DD9163c1338a69916104059160f81c90601090600290600401611667565b600060405180830381865af4158015610422573d6000803e3d6000fd5b505050506040513d6000823e601f3d908101601f1916820160405261044a91908101906116e7565b84610456856003611618565b610461906002611722565b8151811061047157610471611637565b016020015160405163c1338a6960e01b81527303abFda4e7cec3484D518848B5e6aa10965F91DD9163c1338a69916104b59160f81c90601090600290600401611667565b600060405180830381865af41580156104d2573d6000803e3d6000fd5b505050506040513d6000823e601f3d908101601f191682016040526104fa91908101906116e7565b60405160200161050c9392919061175c565b60405160208183030381529060405290505b92915050565b6040518060a00160405280607b8152602001611d2b607b913981565b604051806080016040528060418152602001611dd86041913981565b6000546001600160a01b0316331461058f5760405162461bcd60e51b8152600401610586906117b0565b60405180910390fd5b6105996000610906565b565b6000546001600160a01b031633146105c55760405162461bcd60e51b8152600401610586906117b0565b61060482828080601f01602080910402602001604051908101604052809392919081815260200183838082843760009201919091525061096e92505050565b600280547fffffffffffffffffffffffff0000000000000000000000000000000000000000166001600160a01b03929092169190911790555050565b6002805460609160009161068991610682916001600160a01b031690610667908790611618565b610672876002611618565b61067d906002611722565b6109ec565b6000610a17565b600280549192506000916106d191610682916001600160a01b0316906106b0908890611618565b6106bb906002611722565b6106c6886002611618565b61067d906004611722565b600254909150610707906001600160a01b03166106ef8460726117c0565b61ffff166106fe8460726117c0565b61ffff166109ec565b949350505050565b606061071b83836108ea565b60405160200161050c91906117e4565b6060600061073884610640565b6003546040517fc0da9bcd0000000000000000000000000000000000000000000000000000000081529192506000916107d7916001600160a01b03169063c0da9bcd906107899088906004016118e7565b600060405180830381865afa1580156107a6573d6000803e3d6000fd5b505050506040513d6000823e601f3d908101601f191682016040526107ce91908101906116e7565b6000600c610a4d565b9050600060405180608001604052806107f18460006102f3565b81526020016108018460016102f3565b81526020016108118460026102f3565b81526020016108218460036102f3565b81525090506040518060a00160405280607b8152602001611d2b607b91396108498483610b15565b604051806080016040528060418152602001611dd8604191396040516020016108749392919061175c565b604051602081830303815290604052935050505092915050565b6000546001600160a01b031633146108b85760405162461bcd60e51b8152600401610586906117b0565b6001600160a01b0381166108de5760405162461bcd60e51b8152600401610586906118f5565b6108e781610906565b50565b60606108f6838361072b565b60405160200161050c9190611956565b600080546001600160a01b038381167fffffffffffffffffffffffff0000000000000000000000000000000000000000831681178455604051919092169283917f8be0079c531659141344cd1fd0a4f28419497f9722a3daafe3b4186f6b6457e09190a35050565b600080610999836040516020016109859190611991565b604051602081830303815290604052610c44565b90508051602082016000f091506001600160a01b0382166109e6576040517f08d4abb600000000000000000000000000000000000000000000000000000000815260040160405180910390fd5b50919050565b6060610a0d846109fd856001611722565b610a08856001611722565b610c70565b90505b9392505050565b6000610a24826002611722565b83511015610a445760405162461bcd60e51b8152600401610586906119d8565b50016002015190565b606081610a5b81601f611722565b1015610a795760405162461bcd60e51b815260040161058690611a1a565b610a838284611722565b84511015610aa35760405162461bcd60e51b815260040161058690611a5c565b606082158015610ac25760405191506000825260208201604052610b0c565b6040519150601f8416801560200281840101858101878315602002848b0101015b81831015610afb578051835260209283019201610ae3565b5050858452601f01601f1916604052505b50949350505050565b6060610b2f6000610b298560006020610a4d565b84610d2f565b610b466080610b4086602080610a4d565b85610d2f565b610b5f610100610b598760406020610a4d565b86610d2f565b610b78610180610b728860606020610a4d565b87610d2f565b610b91610200610b8b8960806020610a4d565b88610d2f565b610baa610280610ba48a60a06020610a4d565b89610d2f565b610bc3610300610bbd8b60c06020610a4d565b8a610d2f565b610bdc610380610bd68c60e06020610a4d565b8b610d2f565b610bf6610400610bf08d6101006020610a4d565b8c610d2f565b610c10610480610c0a8e6101206020610a4d565b8d610d2f565b610c2a610500610c248f6101406004610a4d565b8e610e67565b60405160200161050c9b9a99989796959493929190611a6c565b6060815182604051602001610c5a929190611b41565b6040516020818303038152906040529050919050565b6060833b80610c8f575050604080516020810190915260008152610a10565b80841115610cad575050604080516020810190915260008152610a10565b83831015610ced578084846040517f2c4a89fa00000000000000000000000000000000000000000000000000000000815260040161058693929190611b92565b8383038482036000828210610d025782610d04565b815b60408051603f8301601f19168101909152818152955090508087602087018a3c505050509392505050565b6060610d52610d3f856000611722565b610d4c8560006004610a4d565b84610e67565b610d72610d60866010611722565b610d6c86600480610a4d565b85610e67565b610d93610d80876020611722565b610d8d8760086004610a4d565b86610e67565b610db4610da1886030611722565b610dae88600c6004610a4d565b87610e67565b610dd5610dc2896040611722565b610dcf8960106004610a4d565b88610e67565b610df6610de38a6050611722565b610df08a60146004610a4d565b89610e67565b610e17610e048b6060611722565b610e118b60186004610a4d565b8a610e67565b610e38610e258c6070611722565b610e328c601c6004610a4d565b8b610e67565b604051602001610e4f989796959493929190611bba565b60405160208183030381529060405290509392505050565b6060610eb7610e77856000611722565b84600081518110610e8a57610e8a611637565b01602001517fff000000000000000000000000000000000000000000000000000000000000001684610fb4565b610f05610ec5866004611722565b85600181518110610ed857610ed8611637565b01602001517fff000000000000000000000000000000000000000000000000000000000000001685610fb4565b610f53610f13876008611722565b86600281518110610f2657610f26611637565b01602001517fff000000000000000000000000000000000000000000000000000000000000001686610fb4565b610fa1610f6188600c611722565b87600381518110610f7457610f74611637565b01602001517fff000000000000000000000000000000000000000000000000000000000000001687610fb4565b604051602001610e4f9493929190611c25565b6060610fe7847f03fc000000000000000000000000000000000000000000000000000000000000600686901c1684611090565b611022610ff5866001611722565b7f03f0000000000000000000000000000000000000000000000000000000000000600487901c1685611090565b61105d611030876002611722565b7f03c0000000000000000000000000000000000000000000000000000000000000600288901c1686611090565b610fa161106b886003611722565b7f03000000000000000000000000000000000000000000000000000000000000008816875b60408051808201909152600f81527f25336372656374253230783d253237000000000000000000000000000000000060208201526060906110da6110d5602487611c72565b61119c565b60408051808201909152600b81527f253237253230793d253237000000000000000000000000000000000000000000602082015261111c6110d5602489611c86565b604051806060016040528060328152602001611da6603291398660f889901c6004811061114b5761114b611637565b60200201516040518060400160405280600781526020017f2532372f25336500000000000000000000000000000000000000000000000000815250604051602001610e4f9796959493929190611c9a565b6060816111dc57505060408051808201909152600181527f3000000000000000000000000000000000000000000000000000000000000000602082015290565b8160005b811561120657806111f081611cf8565b91506111ff9050600a83611c86565b91506111e0565b60008167ffffffffffffffff8111156112215761122161136f565b6040519080825280601f01601f19166020018201604052801561124b576020820181803683370190505b5090505b841561070757611260600183611d13565b915061126d600a86611c72565b611278906030611722565b60f81b81838151811061128d5761128d611637565b60200101907effffffffffffffffffffffffffffffffffffffffffffffffffffffffffffff1916908160001a9053506112c7600a86611c86565b945061124f565b60005b838110156112e95781810151838201526020016112d1565b838111156112f8576000848401525b50505050565b6000611308825190565b80845260208401935061131f8185602086016112ce565b601f01601f19169290920192915050565b60208082528101610a1081846112fe565b60006001600160a01b03821661051e565b61135b81611341565b82525050565b6020810161051e8284611352565b634e487b7160e01b600052604160045260246000fd5b601f19601f830116810181811067ffffffffffffffff821117156113ab576113ab61136f565b6040525050565b60006113bd60405190565b90506113c98282611385565b919050565b600067ffffffffffffffff8211156113e8576113e861136f565b601f19601f83011660200192915050565b82818337506000910152565b6000611418611413846113ce565b6113b2565b90508281526020810184848401111561143357611433600080fd5b61143e8482856113f9565b509392505050565b600082601f83011261145a5761145a600080fd5b8135610707848260208601611405565b805b81146108e757600080fd5b803561051e8161146a565b6000806040838503121561149857611498600080fd5b823567ffffffffffffffff8111156114b2576114b2600080fd5b6114be85828601611446565b92505060206114cf85828601611477565b9150509250929050565b60008083601f8401126114ee576114ee600080fd5b50813567ffffffffffffffff81111561150957611509600080fd5b60208301915083600182028301111561152457611524600080fd5b9250929050565b6000806020838503121561154157611541600080fd5b823567ffffffffffffffff81111561155b5761155b600080fd5b611567858286016114d9565b92509250509250929050565b60006020828403121561158857611588600080fd5b60006107078484611477565b600080604083850312156115aa576115aa600080fd5b60006114be8585611477565b60ff811661135b565b6020810161051e82846115b6565b61146c81611341565b803561051e816115cd565b6000602082840312156115f6576115f6600080fd5b600061070784846115d6565b634e487b7160e01b600052601160045260246000fd5b600081600019048311821515161561163257611632611602565b500290565b634e487b7160e01b600052603260045260246000fd5b8061135b565b600060ff821661051e565b61135b81611653565b60608101611675828661164d565b611682602083018561165e565b610707604083018461165e565b600061169d611413846113ce565b9050828152602081018484840111156116b8576116b8600080fd5b61143e8482856112ce565b600082601f8301126116d7576116d7600080fd5b815161070784826020860161168f565b6000602082840312156116fc576116fc600080fd5b815167ffffffffffffffff81111561171657611716600080fd5b610707848285016116c3565b6000821982111561173557611735611602565b500190565b6000611744825190565b6117528185602086016112ce565b9290920192915050565b611766818561173a565b9050611772818461173a565b9050610707818361173a565b60208082527f4f776e61626c653a2063616c6c6572206973206e6f7420746865206f776e657291019081525b60200190565b6020808252810161051e8161177e565b61ffff8116905061ffff8216915060008261ffff0382111561173557611735611602565b7f646174613a6170706c69636174696f6e2f6a736f6e2c000000000000000000008152601601611833817f7b22696d6167655f64617461223a2022000000000000000000000000000000009052565b601001611840818361173a565b7f2200000000000000000000000000000000000000000000000000000000000000815290506001016118bb817f2c226465736372697074696f6e223a2022426c69746f61647a2c20666c69707081527f696e6720746865206c6f737420626c69746d6170732e22000000000000000000602082015260370190565b7f2c226e616d65223a2022426c69746f61647a227d000000000000000000000000815260140192915050565b6020810161051e828461164d565b6020808252810161051e81602681527f4f776e61626c653a206e6577206f776e657220697320746865207a65726f206160208201527f6464726573730000000000000000000000000000000000000000000000000000604082015260600190565b7f646174613a696d6167652f7376672b786d6c2c00000000000000000000000000815260130161051e818361173a565b600081525b60010190565b61199a81611986565b905061051e818361173a565b60148152602081017f746f55696e7431365f6f75744f66426f756e6473000000000000000000000000815290506117aa565b6020808252810161051e816119a6565b600e8152602081017f736c6963655f6f766572666c6f77000000000000000000000000000000000000815290506117aa565b6020808252810161051e816119e8565b60118152602081017f736c6963655f6f75744f66426f756e6473000000000000000000000000000000815290506117aa565b6020808252810161051e81611a2a565b611a76818d61173a565b9050611a82818c61173a565b9050611a8e818b61173a565b9050611a9a818a61173a565b9050611aa6818961173a565b9050611ab2818861173a565b9050611abe818761173a565b9050611aca818661173a565b9050611ad6818561173a565b9050611ae2818461173a565b9050611aee818361173a565b9c9b505050505050505050505050565b7f6300000000000000000000000000000000000000000000000000000000000000815261198b565b600061051e8260e01b90565b61135b63ffffffff8216611b26565b611b4a81611afe565b9050611b568184611b32565b600401611b86817f80600e6000396000f30000000000000000000000000000000000000000000000815260090190565b9050610a10818361173a565b60608101611ba0828661164d565b611bad602083018561164d565b610707604083018461164d565b611bc4818a61173a565b9050611bd0818961173a565b9050611bdc818861173a565b9050611be8818761173a565b9050611bf4818661173a565b9050611c00818561173a565b9050611c0c818461173a565b9050611c18818361173a565b9998505050505050505050565b611c2f818661173a565b9050611c3b818561173a565b9050611c47818461173a565b9050611c53818361173a565b95945050505050565b634e487b7160e01b600052601260045260246000fd5b600082611c8157611c81611c5c565b500690565b600082611c9557611c95611c5c565b500490565b611ca4818961173a565b9050611cb0818861173a565b9050611cbc818761173a565b9050611cc8818661173a565b9050611cd4818561173a565b9050611ce0818461173a565b9050611cec818361173a565b98975050505050505050565b6000600019821415611d0c57611d0c611602565b5060010190565b600082821015611d2557611d25611602565b50039056fe253363737667253230786d6c6e733d253237687474703a2f2f7777772e77332e6f72672f323030302f73766725323725323076696577426f783d25323730253230302532303336253230333625323725323077696474683d25323733363070782532372532306865696768743d253237333630707825323725336525323725323077696474683d253237312532372532306865696768743d2532373125323725323066696c6c3d2532372532332533637374796c65253365726563747b73686170652d72656e646572696e673a637269737045646765737d2533632f7374796c652533652533632f737667253365a26469706673582212208ffe314f13f51bc83a313225834b65a2185904fa84d97eb827b9628e3a80f28c64736f6c634300080c0033",
  "deployedBytecode": "0x608060405234801561001057600080fd5b506004361061011b5760003560e01c8063715018a6116100b257806392cb829d11610081578063b3215d4911610066578063b3215d491461029c578063f2fde38b146102b1578063f5629340146102c457600080fd5b806392cb829d146102765780639338a2951461028957600080fd5b8063715018a614610235578063779dd9481461023f57806389e4b1e8146102525780638da5cb5b1461026557600080fd5b8063480bc3c8116100ee578063480bc3c8146101ad5780634d32bd7d146101b557806369db9ed0146101f15780636f5c723b1461022d57600080fd5b80630a41f5da146101205780630bdd03f11461013e5780633774c7981461015e578063407134de14610171575b600080fd5b6101286102d7565b6040516101359190611330565b60405180910390f35b600254610151906001600160a01b031681565b6040516101359190611361565b61012861016c366004611482565b6102f3565b6101286040518060400160405280600781526020017f2532372f2533650000000000000000000000000000000000000000000000000081525081565b610128610524565b6101286040518060400160405280600b81526020017f253237253230793d25323700000000000000000000000000000000000000000081525081565b6101286040518060400160405280600f81526020017f25336372656374253230783d253237000000000000000000000000000000000081525081565b610128610540565b61023d61055c565b005b61023d61024d36600461152b565b61059b565b610128610260366004611573565b610640565b6000546001600160a01b0316610151565b610128610284366004611594565b61070f565b610128610297366004611594565b61072b565b6102a4600281565b60405161013591906115bf565b61023d6102bf3660046115e1565b61088e565b6101286102d2366004611594565b6108ea565b604051806060016040528060328152602001611da66032913981565b606082610301836003611618565b8151811061031157610311611637565b016020015160405163c1338a6960e01b815273__$6cc8f8b41053aebd660af83ec8df928129$__9163c1338a69916103559160f81c90601090600290600401611667565b600060405180830381865af4158015610372573d6000803e3d6000fd5b505050506040513d6000823e601f3d908101601f1916820160405261039a91908101906116e7565b836103a6846003611618565b6103b1906001611722565b815181106103c1576103c1611637565b016020015160405163c1338a6960e01b815273__$6cc8f8b41053aebd660af83ec8df928129$__9163c1338a69916104059160f81c90601090600290600401611667565b600060405180830381865af4158015610422573d6000803e3d6000fd5b505050506040513d6000823e601f3d908101601f1916820160405261044a91908101906116e7565b84610456856003611618565b610461906002611722565b8151811061047157610471611637565b016020015160405163c1338a6960e01b815273__$6cc8f8b41053aebd660af83ec8df928129$__9163c1338a69916104b59160f81c90601090600290600401611667565b600060405180830381865af41580156104d2573d6000803e3d6000fd5b505050506040513d6000823e601f3d908101601f191682016040526104fa91908101906116e7565b60405160200161050c9392919061175c565b60405160208183030381529060405290505b92915050565b6040518060a00160405280607b8152602001611d2b607b913981565b604051806080016040528060418152602001611dd86041913981565b6000546001600160a01b0316331461058f5760405162461bcd60e51b8152600401610586906117b0565b60405180910390fd5b6105996000610906565b565b6000546001600160a01b031633146105c55760405162461bcd60e51b8152600401610586906117b0565b61060482828080601f01602080910402602001604051908101604052809392919081815260200183838082843760009201919091525061096e92505050565b600280547fffffffffffffffffffffffff0000000000000000000000000000000000000000166001600160a01b03929092169190911790555050565b6002805460609160009161068991610682916001600160a01b031690610667908790611618565b610672876002611618565b61067d906002611722565b6109ec565b6000610a17565b600280549192506000916106d191610682916001600160a01b0316906106b0908890611618565b6106bb906002611722565b6106c6886002611618565b61067d906004611722565b600254909150610707906001600160a01b03166106ef8460726117c0565b61ffff166106fe8460726117c0565b61ffff166109ec565b949350505050565b606061071b83836108ea565b60405160200161050c91906117e4565b6060600061073884610640565b6003546040517fc0da9bcd0000000000000000000000000000000000000000000000000000000081529192506000916107d7916001600160a01b03169063c0da9bcd906107899088906004016118e7565b600060405180830381865afa1580156107a6573d6000803e3d6000fd5b505050506040513d6000823e601f3d908101601f191682016040526107ce91908101906116e7565b6000600c610a4d565b9050600060405180608001604052806107f18460006102f3565b81526020016108018460016102f3565b81526020016108118460026102f3565b81526020016108218460036102f3565b81525090506040518060a00160405280607b8152602001611d2b607b91396108498483610b15565b604051806080016040528060418152602001611dd8604191396040516020016108749392919061175c565b604051602081830303815290604052935050505092915050565b6000546001600160a01b031633146108b85760405162461bcd60e51b8152600401610586906117b0565b6001600160a01b0381166108de5760405162461bcd60e51b8152600401610586906118f5565b6108e781610906565b50565b60606108f6838361072b565b60405160200161050c9190611956565b600080546001600160a01b038381167fffffffffffffffffffffffff0000000000000000000000000000000000000000831681178455604051919092169283917f8be0079c531659141344cd1fd0a4f28419497f9722a3daafe3b4186f6b6457e09190a35050565b600080610999836040516020016109859190611991565b604051602081830303815290604052610c44565b90508051602082016000f091506001600160a01b0382166109e6576040517f08d4abb600000000000000000000000000000000000000000000000000000000815260040160405180910390fd5b50919050565b6060610a0d846109fd856001611722565b610a08856001611722565b610c70565b90505b9392505050565b6000610a24826002611722565b83511015610a445760405162461bcd60e51b8152600401610586906119d8565b50016002015190565b606081610a5b81601f611722565b1015610a795760405162461bcd60e51b815260040161058690611a1a565b610a838284611722565b84511015610aa35760405162461bcd60e51b815260040161058690611a5c565b606082158015610ac25760405191506000825260208201604052610b0c565b6040519150601f8416801560200281840101858101878315602002848b0101015b81831015610afb578051835260209283019201610ae3565b5050858452601f01601f1916604052505b50949350505050565b6060610b2f6000610b298560006020610a4d565b84610d2f565b610b466080610b4086602080610a4d565b85610d2f565b610b5f610100610b598760406020610a4d565b86610d2f565b610b78610180610b728860606020610a4d565b87610d2f565b610b91610200610b8b8960806020610a4d565b88610d2f565b610baa610280610ba48a60a06020610a4d565b89610d2f565b610bc3610300610bbd8b60c06020610a4d565b8a610d2f565b610bdc610380610bd68c60e06020610a4d565b8b610d2f565b610bf6610400610bf08d6101006020610a4d565b8c610d2f565b610c10610480610c0a8e6101206020610a4d565b8d610d2f565b610c2a610500610c248f6101406004610a4d565b8e610e67565b60405160200161050c9b9a99989796959493929190611a6c565b6060815182604051602001610c5a929190611b41565b6040516020818303038152906040529050919050565b6060833b80610c8f575050604080516020810190915260008152610a10565b80841115610cad575050604080516020810190915260008152610a10565b83831015610ced578084846040517f2c4a89fa00000000000000000000000000000000000000000000000000000000815260040161058693929190611b92565b8383038482036000828210610d025782610d04565b815b60408051603f8301601f19168101909152818152955090508087602087018a3c505050509392505050565b6060610d52610d3f856000611722565b610d4c8560006004610a4d565b84610e67565b610d72610d60866010611722565b610d6c86600480610a4d565b85610e67565b610d93610d80876020611722565b610d8d8760086004610a4d565b86610e67565b610db4610da1886030611722565b610dae88600c6004610a4d565b87610e67565b610dd5610dc2896040611722565b610dcf8960106004610a4d565b88610e67565b610df6610de38a6050611722565b610df08a60146004610a4d565b89610e67565b610e17610e048b6060611722565b610e118b60186004610a4d565b8a610e67565b610e38610e258c6070611722565b610e328c601c6004610a4d565b8b610e67565b604051602001610e4f989796959493929190611bba565b60405160208183030381529060405290509392505050565b6060610eb7610e77856000611722565b84600081518110610e8a57610e8a611637565b01602001517fff000000000000000000000000000000000000000000000000000000000000001684610fb4565b610f05610ec5866004611722565b85600181518110610ed857610ed8611637565b01602001517fff000000000000000000000000000000000000000000000000000000000000001685610fb4565b610f53610f13876008611722565b86600281518110610f2657610f26611637565b01602001517fff000000000000000000000000000000000000000000000000000000000000001686610fb4565b610fa1610f6188600c611722565b87600381518110610f7457610f74611637565b01602001517fff000000000000000000000000000000000000000000000000000000000000001687610fb4565b604051602001610e4f9493929190611c25565b6060610fe7847f03fc000000000000000000000000000000000000000000000000000000000000600686901c1684611090565b611022610ff5866001611722565b7f03f0000000000000000000000000000000000000000000000000000000000000600487901c1685611090565b61105d611030876002611722565b7f03c0000000000000000000000000000000000000000000000000000000000000600288901c1686611090565b610fa161106b886003611722565b7f03000000000000000000000000000000000000000000000000000000000000008816875b60408051808201909152600f81527f25336372656374253230783d253237000000000000000000000000000000000060208201526060906110da6110d5602487611c72565b61119c565b60408051808201909152600b81527f253237253230793d253237000000000000000000000000000000000000000000602082015261111c6110d5602489611c86565b604051806060016040528060328152602001611da6603291398660f889901c6004811061114b5761114b611637565b60200201516040518060400160405280600781526020017f2532372f25336500000000000000000000000000000000000000000000000000815250604051602001610e4f9796959493929190611c9a565b6060816111dc57505060408051808201909152600181527f3000000000000000000000000000000000000000000000000000000000000000602082015290565b8160005b811561120657806111f081611cf8565b91506111ff9050600a83611c86565b91506111e0565b60008167ffffffffffffffff8111156112215761122161136f565b6040519080825280601f01601f19166020018201604052801561124b576020820181803683370190505b5090505b841561070757611260600183611d13565b915061126d600a86611c72565b611278906030611722565b60f81b81838151811061128d5761128d611637565b60200101907effffffffffffffffffffffffffffffffffffffffffffffffffffffffffffff1916908160001a9053506112c7600a86611c86565b945061124f565b60005b838110156112e95781810151838201526020016112d1565b838111156112f8576000848401525b50505050565b6000611308825190565b80845260208401935061131f8185602086016112ce565b601f01601f19169290920192915050565b60208082528101610a1081846112fe565b60006001600160a01b03821661051e565b61135b81611341565b82525050565b6020810161051e8284611352565b634e487b7160e01b600052604160045260246000fd5b601f19601f830116810181811067ffffffffffffffff821117156113ab576113ab61136f565b6040525050565b60006113bd60405190565b90506113c98282611385565b919050565b600067ffffffffffffffff8211156113e8576113e861136f565b601f19601f83011660200192915050565b82818337506000910152565b6000611418611413846113ce565b6113b2565b90508281526020810184848401111561143357611433600080fd5b61143e8482856113f9565b509392505050565b600082601f83011261145a5761145a600080fd5b8135610707848260208601611405565b805b81146108e757600080fd5b803561051e8161146a565b6000806040838503121561149857611498600080fd5b823567ffffffffffffffff8111156114b2576114b2600080fd5b6114be85828601611446565b92505060206114cf85828601611477565b9150509250929050565b60008083601f8401126114ee576114ee600080fd5b50813567ffffffffffffffff81111561150957611509600080fd5b60208301915083600182028301111561152457611524600080fd5b9250929050565b6000806020838503121561154157611541600080fd5b823567ffffffffffffffff81111561155b5761155b600080fd5b611567858286016114d9565b92509250509250929050565b60006020828403121561158857611588600080fd5b60006107078484611477565b600080604083850312156115aa576115aa600080fd5b60006114be8585611477565b60ff811661135b565b6020810161051e82846115b6565b61146c81611341565b803561051e816115cd565b6000602082840312156115f6576115f6600080fd5b600061070784846115d6565b634e487b7160e01b600052601160045260246000fd5b600081600019048311821515161561163257611632611602565b500290565b634e487b7160e01b600052603260045260246000fd5b8061135b565b600060ff821661051e565b61135b81611653565b60608101611675828661164d565b611682602083018561165e565b610707604083018461165e565b600061169d611413846113ce565b9050828152602081018484840111156116b8576116b8600080fd5b61143e8482856112ce565b600082601f8301126116d7576116d7600080fd5b815161070784826020860161168f565b6000602082840312156116fc576116fc600080fd5b815167ffffffffffffffff81111561171657611716600080fd5b610707848285016116c3565b6000821982111561173557611735611602565b500190565b6000611744825190565b6117528185602086016112ce565b9290920192915050565b611766818561173a565b9050611772818461173a565b9050610707818361173a565b60208082527f4f776e61626c653a2063616c6c6572206973206e6f7420746865206f776e657291019081525b60200190565b6020808252810161051e8161177e565b61ffff8116905061ffff8216915060008261ffff0382111561173557611735611602565b7f646174613a6170706c69636174696f6e2f6a736f6e2c000000000000000000008152601601611833817f7b22696d6167655f64617461223a2022000000000000000000000000000000009052565b601001611840818361173a565b7f2200000000000000000000000000000000000000000000000000000000000000815290506001016118bb817f2c226465736372697074696f6e223a2022426c69746f61647a2c20666c69707081527f696e6720746865206c6f737420626c69746d6170732e22000000000000000000602082015260370190565b7f2c226e616d65223a2022426c69746f61647a227d000000000000000000000000815260140192915050565b6020810161051e828461164d565b6020808252810161051e81602681527f4f776e61626c653a206e6577206f776e657220697320746865207a65726f206160208201527f6464726573730000000000000000000000000000000000000000000000000000604082015260600190565b7f646174613a696d6167652f7376672b786d6c2c00000000000000000000000000815260130161051e818361173a565b600081525b60010190565b61199a81611986565b905061051e818361173a565b60148152602081017f746f55696e7431365f6f75744f66426f756e6473000000000000000000000000815290506117aa565b6020808252810161051e816119a6565b600e8152602081017f736c6963655f6f766572666c6f77000000000000000000000000000000000000815290506117aa565b6020808252810161051e816119e8565b60118152602081017f736c6963655f6f75744f66426f756e6473000000000000000000000000000000815290506117aa565b6020808252810161051e81611a2a565b611a76818d61173a565b9050611a82818c61173a565b9050611a8e818b61173a565b9050611a9a818a61173a565b9050611aa6818961173a565b9050611ab2818861173a565b9050611abe818761173a565b9050611aca818661173a565b9050611ad6818561173a565b9050611ae2818461173a565b9050611aee818361173a565b9c9b505050505050505050505050565b7f6300000000000000000000000000000000000000000000000000000000000000815261198b565b600061051e8260e01b90565b61135b63ffffffff8216611b26565b611b4a81611afe565b9050611b568184611b32565b600401611b86817f80600e6000396000f30000000000000000000000000000000000000000000000815260090190565b9050610a10818361173a565b60608101611ba0828661164d565b611bad602083018561164d565b610707604083018461164d565b611bc4818a61173a565b9050611bd0818961173a565b9050611bdc818861173a565b9050611be8818761173a565b9050611bf4818661173a565b9050611c00818561173a565b9050611c0c818461173a565b9050611c18818361173a565b9998505050505050505050565b611c2f818661173a565b9050611c3b818561173a565b9050611c47818461173a565b9050611c53818361173a565b95945050505050565b634e487b7160e01b600052601260045260246000fd5b600082611c8157611c81611c5c565b500690565b600082611c9557611c95611c5c565b500490565b611ca4818961173a565b9050611cb0818861173a565b9050611cbc818761173a565b9050611cc8818661173a565b9050611cd4818561173a565b9050611ce0818461173a565b9050611cec818361173a565b98975050505050505050565b6000600019821415611d0c57611d0c611602565b5060010190565b600082821015611d2557611d25611602565b50039056fe253363737667253230786d6c6e733d253237687474703a2f2f7777772e77332e6f72672f323030302f73766725323725323076696577426f783d25323730253230302532303336253230333625323725323077696474683d25323733363070782532372532306865696768743d253237333630707825323725336525323725323077696474683d253237312532372532306865696768743d2532373125323725323066696c6c3d2532372532332533637374796c65253365726563747b73686170652d72656e646572696e673a637269737045646765737d2533632f7374796c652533652533632f737667253365a26469706673582212208ffe314f13f51bc83a313225834b65a2185904fa84d97eb827b9628e3a80f28c64736f6c634300080c0033",
  "libraries": {
    "Integers": "0x03abFda4e7cec3484D518848B5e6aa10965F91DD"
  },
  "devdoc": {
    "kind": "dev",
    "methods": {
      "constructor": {
        "details": "Indexes and images are concatenated and stored in a single 'bytes' with SSTORE2 to save gas."
      },
      "getBlitoadz(uint256,uint256)": {
        "details": "Decode the rect and returns it as a plain string to be used in the svg rect attribute."
      },
      "getFill(bytes,uint256)": {
        "details": "3 bytes per color because svg does not handle alpha."
      },
      "owner()": {
        "details": "Returns the address of the current owner."
      },
      "renounceOwnership()": {
        "details": "Leaves the contract without owner. It will not be possible to call `onlyOwner` functions anymore. Can only be called by the current owner. NOTE: Renouncing ownership will leave the contract without an owner, thereby removing any functionality that is only available to the owner."
      },
      "transferOwnership(address)": {
        "details": "Transfers ownership of the contract to a new account (`newOwner`). Can only be called by the current owner."
      }
    },
    "version": 1
  },
  "userdoc": {
    "kind": "user",
    "methods": {},
    "version": 1
  },
  "storageLayout": {
    "storage": [
      {
        "astId": 225,
        "contract": "contracts/blitoadz/BlitoadzRenderer.sol:BlitoadzRenderer",
        "label": "_owner",
        "offset": 0,
        "slot": "0",
        "type": "t_address"
      },
      {
        "astId": 333,
        "contract": "contracts/blitoadz/BlitoadzRenderer.sol:BlitoadzRenderer",
        "label": "_status",
        "offset": 0,
        "slot": "1",
        "type": "t_uint256"
      },
      {
        "astId": 1665,
        "contract": "contracts/blitoadz/BlitoadzRenderer.sol:BlitoadzRenderer",
        "label": "toadz",
        "offset": 0,
        "slot": "2",
        "type": "t_address"
      },
      {
        "astId": 1668,
        "contract": "contracts/blitoadz/BlitoadzRenderer.sol:BlitoadzRenderer",
        "label": "blitmap",
        "offset": 0,
        "slot": "3",
        "type": "t_contract(IBlitmap)2374"
      }
    ],
    "types": {
      "t_address": {
        "encoding": "inplace",
        "label": "address",
        "numberOfBytes": "20"
      },
      "t_contract(IBlitmap)2374": {
        "encoding": "inplace",
        "label": "contract IBlitmap",
        "numberOfBytes": "20"
      },
      "t_uint256": {
        "encoding": "inplace",
        "label": "uint256",
        "numberOfBytes": "32"
      }
    }
  }
}