{
  "address": "0x2cF9b358Ab30Fbd4c67A016a5ed60474adDf0712",
  "abi": [
    {
      "inputs": [
        {
          "internalType": "bytes",
          "name": "tokenData",
          "type": "bytes"
        },
        {
          "internalType": "bytes",
          "name": "creators",
          "type": "bytes"
        },
        {
          "internalType": "string[100]",
          "name": "names",
          "type": "string[100]"
        }
      ],
      "stateMutability": "nonpayable",
      "type": "constructor"
    },
    {
      "inputs": [
        {
          "internalType": "uint256",
          "name": "tokenId",
          "type": "uint256"
        }
      ],
      "name": "tokenCreatorOf",
      "outputs": [
        {
          "internalType": "address",
          "name": "",
          "type": "address"
        }
      ],
      "stateMutability": "view",
      "type": "function"
    },
    {
      "inputs": [
        {
          "internalType": "uint256",
          "name": "tokenId",
          "type": "uint256"
        }
      ],
      "name": "tokenDataOf",
      "outputs": [
        {
          "internalType": "bytes",
          "name": "",
          "type": "bytes"
        }
      ],
      "stateMutability": "view",
      "type": "function"
    },
    {
      "inputs": [
        {
          "internalType": "uint256",
          "name": "tokenId",
          "type": "uint256"
        }
      ],
      "name": "tokenNameOf",
      "outputs": [
        {
          "internalType": "string",
          "name": "",
          "type": "string"
        }
      ],
      "stateMutability": "view",
      "type": "function"
    }
  ],
  "transactionHash": "0x7f3e4e9980609251c929568a5eaf0a792a57705e89864cf70e123dc6dd6239bb",
  "args": [
    "0x0000000600ffd5719efff5680000009e2836e53b4463c74d0000004f6781afbfd263c64dffffff000000aaaaff55aaaabfb4f8000000ffffff403578fee761ff0044f77622181425405010708028d0d058a0a84000000055ffffffffffff55ffa22633fee761181425e43b44e4a672733e39ead4aad77643442434deeed6dad45e140c1c639bffd9a066eec39a5fcde43e8948ffffff193c3ef6757aff0044feae34dccfcff77622ffefff181010f7b58c84739ce04f882e47808c5a996aa0c2fff6d37c3f58eb6b6ff9a875ffffff181425fee7612ce8f5a3ce27000000733e39b86f50124e89e43b44f6757affffff262b44ff0044fee761733e39181425c0cbdc4c5270262b44fce4a8d71a2101334e71969fbe26339d9d9df7e26bb2dcef346524dad45e597dce6daa2cffffff2ce8f5124e890099dbff555555f555000000ffff555a0084e63900ffc96bffffff2f256bf42e1f060608fffffffc813a6d1b46a32b3fe03f3788db603965663b9b6a2e38465f658edbdce59b9eba3a4168431b4827122c5f20599125651b1e1f72332fa14a30fda76d4a85b02434549dd9d66db7ccfc618d65ffe1b440774b9cfa38242c18152297242fde3640e03f37471b436d1b46fc813aa14a30c76c31a32b3f38744a7886ca4343436200eaffe0b2b9f7caaeb42a424243ffe0b2d0c4e8fab8b8424243ffe0b200ff84000000ffffffff00e4000000440032ca00976c00500ffadbffffffff22890a28d01f0123e8a4f8ff00a2960cb62453453784531c040462ad5d124e89191010c75b22f4e5d8cc44431c0700eeaf69f99d1bffda541f1407af1818feb96430d55f3e2515fae6bae9904e5f30a4afc39054ff50f34dc6306591132b39fdf151000000b2ebf23f51b50000002196f3545c88d9c3c3ae8484c5a6a682522ca996613e382d25180b000000e6e6e6494949a7a7a7100805685e443d2d237daf55ffe103fb00ff00000000afff98834a370e007d5237a1b25d5e6c5a843838c1b8be000000555555969696bababae7d24ceaec182673a97ac3f6ffe8a3f728e100000026be1a0f5b092673a9f621da000000fffffffe4cff0048d86a006a980098159a001f3aac282849365cffd3a46efe0000ffe3b3fffffe46745faa656500000075b5a2d47eb1ba7295e5acb3f7d3de1d00203e3c245e6844688a854545452727270606065d5d5d5d5d5da3a3a3cecece3a3a3a31221a1b110c685e44868c65ff0000aa0000dfdfff19434123079ceacc3f6be1573393555241071f6a07d0a2367d5a09ff5e56cd2b27ffdc8f64cae0631763080000ebebebcbcbcba7a7a7d6d6d65c5c5c707070191919a9744162472c3a332c000000151515274bfbffb400ffec3a0000002196f3ffffffffffffafbcba0226520541730000000000ffff000000ff004377e7080000fcfcfcd6d6d69e2835c8eac5193d3fcf355938744a5ca443261c27c2d06089d0b70c38701021580f54770000001d301f428d6700ffa800ffa80504069271c0e9e0fbafbfd20000004f6781ffffff000000ffffff2ce8f4e53b44e7fef70000007999e751a16ce4a672743f393f2832b86f50e1fc9cb4fa577df50443da001f6fbfffffff003d65470b27bb4cfbf0d9feddb6f8d389fc591031940b0f65ffe60a9e87271d44ffffff415f7492bda0",
    "0xF296178d553C8Ec21A2fBD2c5dDa8CA9ac905A00F296178d553C8Ec21A2fBD2c5dDa8CA9ac905A00F296178d553C8Ec21A2fBD2c5dDa8CA9ac905A00F296178d553C8Ec21A2fBD2c5dDa8CA9ac905A009Bf043a72ca1cD3DC4BCa66c9F6c1d040CfF77729Bf043a72ca1cD3DC4BCa66c9F6c1d040CfF77728e29B3F71a8c7276d122C88d9bf317e857ABb3768e29B3F71a8c7276d122C88d9bf317e857ABb3769Bf043a72ca1cD3DC4BCa66c9F6c1d040CfF77728e29B3F71a8c7276d122C88d9bf317e857ABb3769Bf043a72ca1cD3DC4BCa66c9F6c1d040CfF77729Bf043a72ca1cD3DC4BCa66c9F6c1d040CfF77729Bf043a72ca1cD3DC4BCa66c9F6c1d040CfF77728e29B3F71a8c7276d122C88d9bf317e857ABb3768e29B3F71a8c7276d122C88d9bf317e857ABb376F296178d553C8Ec21A2fBD2c5dDa8CA9ac905A008e29B3F71a8c7276d122C88d9bf317e857ABb3769Bf043a72ca1cD3DC4BCa66c9F6c1d040CfF77728e29B3F71a8c7276d122C88d9bf317e857ABb3769Bf043a72ca1cD3DC4BCa66c9F6c1d040CfF77729Bf043a72ca1cD3DC4BCa66c9F6c1d040CfF77728e29B3F71a8c7276d122C88d9bf317e857ABb3768e29B3F71a8c7276d122C88d9bf317e857ABb3769Bf043a72ca1cD3DC4BCa66c9F6c1d040CfF77729Bf043a72ca1cD3DC4BCa66c9F6c1d040CfF77728e29B3F71a8c7276d122C88d9bf317e857ABb3769Bf043a72ca1cD3DC4BCa66c9F6c1d040CfF77728e29B3F71a8c7276d122C88d9bf317e857ABb3768e29B3F71a8c7276d122C88d9bf317e857ABb376d42bd96B117dd6BD63280620EA981BF967A7aD2Bd42bd96B117dd6BD63280620EA981BF967A7aD2Bd42bd96B117dd6BD63280620EA981BF967A7aD2Bd42bd96B117dd6BD63280620EA981BF967A7aD2Bd42bd96B117dd6BD63280620EA981BF967A7aD2Bd42bd96B117dd6BD63280620EA981BF967A7aD2Bd42bd96B117dd6BD63280620EA981BF967A7aD2Bd42bd96B117dd6BD63280620EA981BF967A7aD2Bd42bd96B117dd6BD63280620EA981BF967A7aD2Bd42bd96B117dd6BD63280620EA981BF967A7aD2B0fb95b8C2d19F1Cbd2dfe9ECB3BdF992cB9E8b920fb95b8C2d19F1Cbd2dfe9ECB3BdF992cB9E8b920fb95b8C2d19F1Cbd2dfe9ECB3BdF992cB9E8b92F296178d553C8Ec21A2fBD2c5dDa8CA9ac905A00F296178d553C8Ec21A2fBD2c5dDa8CA9ac905A00d1e0eb60Bda1c098353D08a167B011EA8bcd38Fad1e0eb60Bda1c098353D08a167B011EA8bcd38FaA99b0DF82C4e1FB5454F9E624B5DEc5BE025823E6EBd8991fC87F130DE28DE4b37F882d6cbE9aB286EBd8991fC87F130DE28DE4b37F882d6cbE9aB286EBd8991fC87F130DE28DE4b37F882d6cbE9aB286EBd8991fC87F130DE28DE4b37F882d6cbE9aB28C5fFbCd8A374889c6e95f8df733e32A0e9476a9cfB843f8c4992EfDb6b42349C35f025ca55742D3348A63097E1Ac123b1f5A8bbfFafA4afa8192FaB0A99b0DF82C4e1FB5454F9E624B5DEc5BE025823Ed1e0eb60Bda1c098353D08a167B011EA8bcd38FaA99b0DF82C4e1FB5454F9E624B5DEc5BE025823EA99b0DF82C4e1FB5454F9E624B5DEc5BE025823EE7bd51Dc30d4bDc9FDdD42eA7c0a283590C9D416A99b0DF82C4e1FB5454F9E624B5DEc5BE025823EA99b0DF82C4e1FB5454F9E624B5DEc5BE025823EA99b0DF82C4e1FB5454F9E624B5DEc5BE025823EC5fFbCd8A374889c6e95f8df733e32A0e9476a9cC5fFbCd8A374889c6e95f8df733e32A0e9476a9cC5fFbCd8A374889c6e95f8df733e32A0e9476a9cC5fFbCd8A374889c6e95f8df733e32A0e9476a9cC5fFbCd8A374889c6e95f8df733e32A0e9476a9cC5fFbCd8A374889c6e95f8df733e32A0e9476a9cA99b0DF82C4e1FB5454F9E624B5DEc5BE025823EA99b0DF82C4e1FB5454F9E624B5DEc5BE025823EA99b0DF82C4e1FB5454F9E624B5DEc5BE025823EA99b0DF82C4e1FB5454F9E624B5DEc5BE025823EA99b0DF82C4e1FB5454F9E624B5DEc5BE025823EA99b0DF82C4e1FB5454F9E624B5DEc5BE025823EC5fFbCd8A374889c6e95f8df733e32A0e9476a9cC5fFbCd8A374889c6e95f8df733e32A0e9476a9cC5fFbCd8A374889c6e95f8df733e32A0e9476a9cC5fFbCd8A374889c6e95f8df733e32A0e9476a9cf4c9C5229356d39b4F852ecF6E08576EebEDB0ECA99b0DF82C4e1FB5454F9E624B5DEc5BE025823EA99b0DF82C4e1FB5454F9E624B5DEc5BE025823EF296178d553C8Ec21A2fBD2c5dDa8CA9ac905A0006Ac1F9f86520225b73EFCe4982c9d9505753251d1e0eb60Bda1c098353D08a167B011EA8bcd38FaF296178d553C8Ec21A2fBD2c5dDa8CA9ac905A00f4c9C5229356d39b4F852ecF6E08576EebEDB0EC92572aae1c9C4BA92011a6A56579c79dBb272Cd8d42bd96B117dd6BD63280620EA981BF967A7aD2Bd42bd96B117dd6BD63280620EA981BF967A7aD2BF296178d553C8Ec21A2fBD2c5dDa8CA9ac905A00F296178d553C8Ec21A2fBD2c5dDa8CA9ac905A00F296178d553C8Ec21A2fBD2c5dDa8CA9ac905A00F296178d553C8Ec21A2fBD2c5dDa8CA9ac905A00fB843f8c4992EfDb6b42349C35f025ca55742D33F296178d553C8Ec21A2fBD2c5dDa8CA9ac905A009f2942fF27e40445d3CB2aAD90F84C3a03574F26eE463034F385DD9B26efD7767406079f86edB9929f2942fF27e40445d3CB2aAD90F84C3a03574F26eE463034F385DD9B26efD7767406079f86edB992eE463034F385DD9B26efD7767406079f86edB992",
    [
      "Genesis",
      "Rose",
      "Boombox",
      "Node",
      "Psychic",
      "Ikura",
      "Edition",
      "Selected",
      "Kraken",
      "Totally",
      "Looney",
      "Atlantis",
      "Otoro",
      "Jupiter",
      "Overloaded",
      "Mask",
      "Vanilla",
      "Tamago",
      "The Cat",
      "Ebi",
      "Eruption",
      "Night Moon",
      "Processing",
      "The Sun",
      "Hillside",
      "Ever Lovin",
      "Cheese",
      "Scramble",
      "Moderator",
      "Swordy",
      "Healtreey",
      "Mageglovey",
      "Feathery",
      "Teddy",
      "Cloudy",
      "Candy",
      "Chessbirdy",
      "Angrybirby",
      "Burgery",
      "Periwinkle",
      "Sprout",
      "Amai",
      "Blit",
      "Rune",
      "Vibe",
      "Ride",
      "Andrei",
      "Soft Boy",
      "Pizza Time",
      "Hot Damn",
      "Everything",
      "Illuminate",
      "Six Months",
      "Mana",
      "Nude",
      "Kabuto",
      "Mori",
      "Hand",
      "Gato",
      "Ear",
      "Eye",
      "Jess",
      "Lay Off Me",
      "Say What",
      "Cool Cat",
      "Eggplant",
      "Sasquatch",
      "Mushroom",
      "Dunce",
      "Soft",
      "End",
      "Embryo",
      "Watching",
      "News",
      "Caffeinate",
      "Communion",
      "Din-Din",
      "Warm Vibe",
      "The Guy",
      "Reset",
      "Key",
      "Glimpse",
      "Boysdocry",
      "Wave",
      "Logo",
      "Melt Man",
      "Cherrybomb",
      "Melony",
      "Fishy",
      "Watcher",
      "Glitcho",
      "City",
      "Exe",
      "Sock Cloud",
      "Gate",
      "Optimist",
      "Pale Tower",
      "Drink Me",
      "Chaos Flow",
      "Lost Realm"
    ]
  ],
  "numDeployments": 3,
  "solcInputHash": "06633723f0cc4461bca1853fce1f4740",
  "bytecode": "0x60806040523480156200001157600080fd5b5060405162000b2c38038062000b2c8339810160408190526200003491620003d4565b82516200004990600090602086019062000079565b5081516200005f90600190602085019062000079565b506200006f600282606462000108565b50505050620004ca565b828054620000879062000499565b90600052602060002090601f016020900481019282620000ab5760008555620000f6565b82601f10620000c657805160ff1916838001178555620000f6565b82800160010185558215620000f6579182015b82811115620000f6578251825591602001919060010190620000d9565b50620001049291506200015b565b5090565b82606481019282156200014d579160200282015b828111156200014d57825180516200013c91849160209091019062000079565b50916020019190600101906200011c565b506200010492915062000172565b5b808211156200010457600081556001016200015c565b808211156200010457600062000189828262000193565b5060010162000172565b508054620001a19062000499565b6000825580601f10620001b2575050565b601f016020900490600052602060002090810190620001d291906200015b565b50565b634e487b7160e01b600052604160045260246000fd5b601f19601f83011681016001600160401b0381118282101715620002135762000213620001d5565b6040525050565b60006200022660405190565b9050620002348282620001eb565b919050565b60006001600160401b03821115620002555762000255620001d5565b601f19601f83011660200192915050565b60005b838110156200028357818101518382015260200162000269565b8381111562000293576000848401525b50505050565b6000620002b0620002aa8462000239565b6200021a565b905082815260208101848484011115620002cd57620002cd600080fd5b620002da84828562000266565b509392505050565b600082601f830112620002f857620002f8600080fd5b81516200030a84826020860162000299565b949350505050565b60006001600160401b038211156200032e576200032e620001d5565b5060200290565b600062000346620002aa8462000312565b90508060208402830185811115620003615762000361600080fd5b835b81811015620003a55780516001600160401b03811115620003875762000387600080fd5b8501620003958882620002e2565b8452506020928301920162000363565b5050509392505050565b600082601f830112620003c557620003c5600080fd5b60646200030a84828562000335565b600080600060608486031215620003ee57620003ee600080fd5b83516001600160401b03811115620004095762000409600080fd5b6200041786828701620002e2565b602086015190945090506001600160401b038111156200043a576200043a600080fd5b6200044886828701620002e2565b604086015190935090506001600160401b038111156200046b576200046b600080fd5b6200047986828701620003af565b9150509250925092565b634e487b7160e01b600052602260045260246000fd5b600281046001821680620004ae57607f821691505b60208210811415620004c457620004c462000483565b50919050565b61065280620004da6000396000f3fe608060405234801561001057600080fd5b50600436106100415760003560e01c806306daaebd14610046578063c0da9bcd1461006f578063e324c6641461008f575b600080fd5b6100596100543660046103b2565b6100a2565b6040516100669190610408565b60405180910390f35b61008261007d3660046103b2565b61014a565b6040516100669190610478565b61008261009d3660046103b2565b6101ee565b6000610144600180546100b4906104a6565b80601f01602080910402602001604051908101604052809291908181526020018280546100e0906104a6565b801561012d5780601f106101025761010080835404028352916020019161012d565b820191906000526020600020905b81548152906001019060200180831161011057829003601f168201915b505050505083601461013f91906104e9565b610294565b92915050565b60606101446000805461015c906104a6565b80601f0160208091040260200160405190810160405280929190818152602001828054610188906104a6565b80156101d55780601f106101aa576101008083540402835291602001916101d5565b820191906000526020600020905b8154815290600101906020018083116101b857829003601f168201915b505050505083600c6101e791906104e9565b600c6102e3565b60606002826064811061020357610203610526565b01805461020f906104a6565b80601f016020809104026020016040519081016040528092919081815260200182805461023b906104a6565b80156102885780601f1061025d57610100808354040283529160200191610288565b820191906000526020600020905b81548152906001019060200180831161026b57829003601f168201915b50505050509050919050565b60006102a182601461053c565b835110156102ca5760405162461bcd60e51b81526004016102c190610588565b60405180910390fd5b5001602001516c01000000000000000000000000900490565b6060816102f181601f61053c565b101561030f5760405162461bcd60e51b81526004016102c1906105ca565b610319828461053c565b845110156103395760405162461bcd60e51b81526004016102c19061060c565b60608215801561035857604051915060008252602082016040526103a2565b6040519150601f8416801560200281840101858101878315602002848b0101015b81831015610391578051835260209283019201610379565b5050858452601f01601f1916604052505b50949350505050565b8035610144565b6000602082840312156103c7576103c7600080fd5b60006103d384846103ab565b949350505050565b600073ffffffffffffffffffffffffffffffffffffffff8216610144565b610402816103db565b82525050565b6020810161014482846103f9565b60005b83811015610431578181015183820152602001610419565b83811115610440576000848401525b50505050565b6000610450825190565b808452602084019350610467818560208601610416565b601f01601f19169290920192915050565b602080825281016104898184610446565b9392505050565b634e487b7160e01b600052602260045260246000fd5b6002810460018216806104ba57607f821691505b602082108114156104cd576104cd610490565b50919050565b634e487b7160e01b600052601160045260246000fd5b6000817fffffffffffffffffffffffffffffffffffffffffffffffffffffffffffffffff0483118215151615610521576105216104d3565b500290565b634e487b7160e01b600052603260045260246000fd5b6000821982111561054f5761054f6104d3565b500190565b60158152602081017f746f416464726573735f6f75744f66426f756e64730000000000000000000000815290505b60200190565b6020808252810161014481610554565b600e8152602081017f736c6963655f6f766572666c6f7700000000000000000000000000000000000081529050610582565b6020808252810161014481610598565b60118152602081017f736c6963655f6f75744f66426f756e647300000000000000000000000000000081529050610582565b60208082528101610144816105da56fea264697066735822122057b2b56cc62c7d164036efd64f202bf63c07d56045deef50b5f251838942453c64736f6c634300080c0033",
  "devdoc": {
    "kind": "dev",
    "methods": {},
    "version": 1
  },
  "userdoc": {
    "kind": "user",
    "methods": {},
    "version": 1
  },
  "storageLayout": {
    "storage": [
      {
        "astId": 1118,
        "contract": "contracts/blitoadz/Blitmap.sol:Blitmap",
        "label": "_tokenData",
        "offset": 0,
        "slot": "0",
        "type": "t_bytes_storage"
      },
      {
        "astId": 1120,
        "contract": "contracts/blitoadz/Blitmap.sol:Blitmap",
        "label": "_creators",
        "offset": 0,
        "slot": "1",
        "type": "t_bytes_storage"
      },
      {
        "astId": 1124,
        "contract": "contracts/blitoadz/Blitmap.sol:Blitmap",
        "label": "_names",
        "offset": 0,
        "slot": "2",
        "type": "t_array(t_string_storage)100_storage"
      }
    ],
    "types": {
      "t_array(t_string_storage)100_storage": {
        "base": "t_string_storage",
        "encoding": "inplace",
        "label": "string[100]",
        "numberOfBytes": "3200"
      },
      "t_bytes_storage": {
        "encoding": "bytes",
        "label": "bytes",
        "numberOfBytes": "32"
      },
      "t_string_storage": {
        "encoding": "bytes",
        "label": "string",
        "numberOfBytes": "32"
      }
    }
  }
}