{
  "address": "0x37544d107579d1bc01116cd9F6fAAe06dF1bCA93",
  "abi": [
    {
      "inputs": [
        {
          "internalType": "string",
          "name": "name_",
          "type": "string"
        },
        {
          "internalType": "string",
          "name": "symbol_",
          "type": "string"
        },
        {
          "internalType": "address",
          "name": "_rendererAddress",
          "type": "address"
        },
        {
          "internalType": "address",
          "name": "_opensea",
          "type": "address"
        },
        {
          "internalType": "address",
          "name": "_looksrare",
          "type": "address"
        }
      ],
      "stateMutability": "nonpayable",
      "type": "constructor"
    },
    {
      "inputs": [],
      "name": "ApprovalCallerNotOwnerNorApproved",
      "type": "error"
    },
    {
      "inputs": [],
      "name": "ApprovalQueryForNonexistentToken",
      "type": "error"
    },
    {
      "inputs": [],
      "name": "ApprovalToCurrentOwner",
      "type": "error"
    },
    {
      "inputs": [],
      "name": "ApproveToCaller",
      "type": "error"
    },
    {
      "inputs": [],
      "name": "BalanceQueryForZeroAddress",
      "type": "error"
    },
    {
      "inputs": [],
      "name": "MintToZeroAddress",
      "type": "error"
    },
    {
      "inputs": [],
      "name": "MintZeroQuantity",
      "type": "error"
    },
    {
      "inputs": [],
      "name": "OwnerIndexOutOfBounds",
      "type": "error"
    },
    {
      "inputs": [],
      "name": "OwnerQueryForNonexistentToken",
      "type": "error"
    },
    {
      "inputs": [],
      "name": "TokenIndexOutOfBounds",
      "type": "error"
    },
    {
      "inputs": [],
      "name": "TransferCallerNotOwnerNorApproved",
      "type": "error"
    },
    {
      "inputs": [],
      "name": "TransferFromIncorrectOwner",
      "type": "error"
    },
    {
      "inputs": [],
      "name": "TransferToNonERC721ReceiverImplementer",
      "type": "error"
    },
    {
      "inputs": [],
      "name": "TransferToZeroAddress",
      "type": "error"
    },
    {
      "anonymous": false,
      "inputs": [
        {
          "indexed": true,
          "internalType": "address",
          "name": "owner",
          "type": "address"
        },
        {
          "indexed": true,
          "internalType": "address",
          "name": "approved",
          "type": "address"
        },
        {
          "indexed": true,
          "internalType": "uint256",
          "name": "tokenId",
          "type": "uint256"
        }
      ],
      "name": "Approval",
      "type": "event"
    },
    {
      "anonymous": false,
      "inputs": [
        {
          "indexed": true,
          "internalType": "address",
          "name": "owner",
          "type": "address"
        },
        {
          "indexed": true,
          "internalType": "address",
          "name": "operator",
          "type": "address"
        },
        {
          "indexed": false,
          "internalType": "bool",
          "name": "approved",
          "type": "bool"
        }
      ],
      "name": "ApprovalForAll",
      "type": "event"
    },
    {
      "anonymous": false,
      "inputs": [
        {
          "indexed": true,
          "internalType": "address",
          "name": "previousOwner",
          "type": "address"
        },
        {
          "indexed": true,
          "internalType": "address",
          "name": "newOwner",
          "type": "address"
        }
      ],
      "name": "OwnershipTransferred",
      "type": "event"
    },
    {
      "anonymous": false,
      "inputs": [
        {
          "indexed": true,
          "internalType": "address",
          "name": "from",
          "type": "address"
        },
        {
          "indexed": true,
          "internalType": "address",
          "name": "to",
          "type": "address"
        },
        {
          "indexed": true,
          "internalType": "uint256",
          "name": "tokenId",
          "type": "uint256"
        }
      ],
      "name": "Transfer",
      "type": "event"
    },
    {
      "inputs": [],
      "name": "BLITMAP_COUNT",
      "outputs": [
        {
          "internalType": "uint8",
          "name": "",
          "type": "uint8"
        }
      ],
      "stateMutability": "view",
      "type": "function"
    },
    {
      "inputs": [],
      "name": "BLITOADZ_COUNT",
      "outputs": [
        {
          "internalType": "uint16",
          "name": "",
          "type": "uint16"
        }
      ],
      "stateMutability": "view",
      "type": "function"
    },
    {
      "inputs": [],
      "name": "MINT_PUBLIC_PRICE",
      "outputs": [
        {
          "internalType": "uint256",
          "name": "",
          "type": "uint256"
        }
      ],
      "stateMutability": "view",
      "type": "function"
    },
    {
      "inputs": [],
      "name": "TOADZ_COUNT",
      "outputs": [
        {
          "internalType": "uint8",
          "name": "",
          "type": "uint8"
        }
      ],
      "stateMutability": "view",
      "type": "function"
    },
    {
      "inputs": [
        {
          "internalType": "address",
          "name": "to",
          "type": "address"
        },
        {
          "internalType": "uint256",
          "name": "tokenId",
          "type": "uint256"
        }
      ],
      "name": "approve",
      "outputs": [],
      "stateMutability": "nonpayable",
      "type": "function"
    },
    {
      "inputs": [
        {
          "internalType": "address",
          "name": "owner",
          "type": "address"
        }
      ],
      "name": "balanceOf",
      "outputs": [
        {
          "internalType": "uint256",
          "name": "",
          "type": "uint256"
        }
      ],
      "stateMutability": "view",
      "type": "function"
    },
    {
      "inputs": [
        {
          "internalType": "uint256",
          "name": "",
          "type": "uint256"
        }
      ],
      "name": "blitoadz",
      "outputs": [
        {
          "internalType": "uint8",
          "name": "toadzId",
          "type": "uint8"
        },
        {
          "internalType": "uint8",
          "name": "blitmapId",
          "type": "uint8"
        },
        {
          "internalType": "uint8",
          "name": "paletteOrder",
          "type": "uint8"
        }
      ],
      "stateMutability": "view",
      "type": "function"
    },
    {
      "inputs": [
        {
          "internalType": "uint256",
          "name": "",
          "type": "uint256"
        }
      ],
      "name": "blitoadzExist",
      "outputs": [
        {
          "internalType": "bool",
          "name": "",
          "type": "bool"
        }
      ],
      "stateMutability": "view",
      "type": "function"
    },
    {
      "inputs": [
        {
          "internalType": "uint256",
          "name": "_tokenId",
          "type": "uint256"
        }
      ],
      "name": "exists",
      "outputs": [
        {
          "internalType": "bool",
          "name": "",
          "type": "bool"
        }
      ],
      "stateMutability": "view",
      "type": "function"
    },
    {
      "inputs": [
        {
          "internalType": "address",
          "name": "proxyAddress",
          "type": "address"
        }
      ],
      "name": "flipProxyState",
      "outputs": [],
      "stateMutability": "nonpayable",
      "type": "function"
    },
    {
      "inputs": [
        {
          "internalType": "uint256",
          "name": "tokenId",
          "type": "uint256"
        }
      ],
      "name": "getApproved",
      "outputs": [
        {
          "internalType": "address",
          "name": "",
          "type": "address"
        }
      ],
      "stateMutability": "view",
      "type": "function"
    },
    {
      "inputs": [
        {
          "internalType": "address",
          "name": "owner",
          "type": "address"
        },
        {
          "internalType": "address",
          "name": "operator",
          "type": "address"
        }
      ],
      "name": "isApprovedForAll",
      "outputs": [
        {
          "internalType": "bool",
          "name": "",
          "type": "bool"
        }
      ],
      "stateMutability": "view",
      "type": "function"
    },
    {
      "inputs": [],
      "name": "isPublicSaleOpen",
      "outputs": [
        {
          "internalType": "bool",
          "name": "",
          "type": "bool"
        }
      ],
      "stateMutability": "view",
      "type": "function"
    },
    {
      "inputs": [],
      "name": "looksrare",
      "outputs": [
        {
          "internalType": "address",
          "name": "",
          "type": "address"
        }
      ],
      "stateMutability": "view",
      "type": "function"
    },
    {
      "inputs": [
        {
          "internalType": "uint256[]",
          "name": "toadzIds",
          "type": "uint256[]"
        },
        {
          "internalType": "uint256[]",
          "name": "blitmapIds",
          "type": "uint256[]"
        },
        {
          "internalType": "uint256[]",
          "name": "paletteOrders",
          "type": "uint256[]"
        }
      ],
      "name": "mintPublicSale",
      "outputs": [],
      "stateMutability": "payable",
      "type": "function"
    },
    {
      "inputs": [],
      "name": "name",
      "outputs": [
        {
          "internalType": "string",
          "name": "",
          "type": "string"
        }
      ],
      "stateMutability": "view",
      "type": "function"
    },
    {
      "inputs": [],
      "name": "openPublicSale",
      "outputs": [],
      "stateMutability": "nonpayable",
      "type": "function"
    },
    {
      "inputs": [],
      "name": "opensea",
      "outputs": [
        {
          "internalType": "address",
          "name": "",
          "type": "address"
        }
      ],
      "stateMutability": "view",
      "type": "function"
    },
    {
      "inputs": [],
      "name": "owner",
      "outputs": [
        {
          "internalType": "address",
          "name": "",
          "type": "address"
        }
      ],
      "stateMutability": "view",
      "type": "function"
    },
    {
      "inputs": [
        {
          "internalType": "uint256",
          "name": "tokenId",
          "type": "uint256"
        }
      ],
      "name": "ownerOf",
      "outputs": [
        {
          "internalType": "address",
          "name": "",
          "type": "address"
        }
      ],
      "stateMutability": "view",
      "type": "function"
    },
    {
      "inputs": [],
      "name": "publicSaleStartTimestamp",
      "outputs": [
        {
          "internalType": "uint256",
          "name": "",
          "type": "uint256"
        }
      ],
      "stateMutability": "view",
      "type": "function"
    },
    {
      "inputs": [],
      "name": "renderingContractAddress",
      "outputs": [
        {
          "internalType": "address",
          "name": "",
          "type": "address"
        }
      ],
      "stateMutability": "view",
      "type": "function"
    },
    {
      "inputs": [],
      "name": "renounceOwnership",
      "outputs": [],
      "stateMutability": "nonpayable",
      "type": "function"
    },
    {
      "inputs": [
        {
          "internalType": "address",
          "name": "from",
          "type": "address"
        },
        {
          "internalType": "address",
          "name": "to",
          "type": "address"
        },
        {
          "internalType": "uint256",
          "name": "tokenId",
          "type": "uint256"
        }
      ],
      "name": "safeTransferFrom",
      "outputs": [],
      "stateMutability": "nonpayable",
      "type": "function"
    },
    {
      "inputs": [
        {
          "internalType": "address",
          "name": "from",
          "type": "address"
        },
        {
          "internalType": "address",
          "name": "to",
          "type": "address"
        },
        {
          "internalType": "uint256",
          "name": "tokenId",
          "type": "uint256"
        },
        {
          "internalType": "bytes",
          "name": "_data",
          "type": "bytes"
        }
      ],
      "name": "safeTransferFrom",
      "outputs": [],
      "stateMutability": "nonpayable",
      "type": "function"
    },
    {
      "inputs": [
        {
          "internalType": "address",
          "name": "operator",
          "type": "address"
        },
        {
          "internalType": "bool",
          "name": "approved",
          "type": "bool"
        }
      ],
      "name": "setApprovalForAll",
      "outputs": [],
      "stateMutability": "nonpayable",
      "type": "function"
    },
    {
      "inputs": [
        {
          "internalType": "address",
          "name": "looksrare_",
          "type": "address"
        }
      ],
      "name": "setLooksrare",
      "outputs": [],
      "stateMutability": "nonpayable",
      "type": "function"
    },
    {
      "inputs": [
        {
          "internalType": "address",
          "name": "opensea_",
          "type": "address"
        }
      ],
      "name": "setOpensea",
      "outputs": [],
      "stateMutability": "nonpayable",
      "type": "function"
    },
    {
      "inputs": [
        {
          "internalType": "address",
          "name": "_renderingContractAddress",
          "type": "address"
        }
      ],
      "name": "setRenderingContractAddress",
      "outputs": [],
      "stateMutability": "nonpayable",
      "type": "function"
    },
    {
      "inputs": [
        {
          "internalType": "bytes4",
          "name": "interfaceId",
          "type": "bytes4"
        }
      ],
      "name": "supportsInterface",
      "outputs": [
        {
          "internalType": "bool",
          "name": "",
          "type": "bool"
        }
      ],
      "stateMutability": "view",
      "type": "function"
    },
    {
      "inputs": [],
      "name": "symbol",
      "outputs": [
        {
          "internalType": "string",
          "name": "",
          "type": "string"
        }
      ],
      "stateMutability": "view",
      "type": "function"
    },
    {
      "inputs": [
        {
          "internalType": "uint256",
          "name": "index",
          "type": "uint256"
        }
      ],
      "name": "tokenByIndex",
      "outputs": [
        {
          "internalType": "uint256",
          "name": "",
          "type": "uint256"
        }
      ],
      "stateMutability": "view",
      "type": "function"
    },
    {
      "inputs": [
        {
          "internalType": "address",
          "name": "owner",
          "type": "address"
        },
        {
          "internalType": "uint256",
          "name": "index",
          "type": "uint256"
        }
      ],
      "name": "tokenOfOwnerByIndex",
      "outputs": [
        {
          "internalType": "uint256",
          "name": "",
          "type": "uint256"
        }
      ],
      "stateMutability": "view",
      "type": "function"
    },
    {
      "inputs": [
        {
          "internalType": "uint256",
          "name": "_tokenId",
          "type": "uint256"
        }
      ],
      "name": "tokenURI",
      "outputs": [
        {
          "internalType": "string",
          "name": "",
          "type": "string"
        }
      ],
      "stateMutability": "view",
      "type": "function"
    },
    {
      "inputs": [],
      "name": "totalSupply",
      "outputs": [
        {
          "internalType": "uint256",
          "name": "",
          "type": "uint256"
        }
      ],
      "stateMutability": "view",
      "type": "function"
    },
    {
      "inputs": [
        {
          "internalType": "address",
          "name": "from",
          "type": "address"
        },
        {
          "internalType": "address",
          "name": "to",
          "type": "address"
        },
        {
          "internalType": "uint256",
          "name": "tokenId",
          "type": "uint256"
        }
      ],
      "name": "transferFrom",
      "outputs": [],
      "stateMutability": "nonpayable",
      "type": "function"
    },
    {
      "inputs": [
        {
          "internalType": "address",
          "name": "newOwner",
          "type": "address"
        }
      ],
      "name": "transferOwnership",
      "outputs": [],
      "stateMutability": "nonpayable",
      "type": "function"
    },
    {
      "inputs": [],
      "name": "withdraw",
      "outputs": [],
      "stateMutability": "nonpayable",
      "type": "function"
    },
    {
      "stateMutability": "payable",
      "type": "receive"
    }
  ],
  "transactionHash": "0xb75ecc434eebb4b1c60e9dcba546d03314454c3e435b7daa69ebaa2c8603ef46",
  "args": [
    "Blitoadz",
    "BLTZ",
    "0xB002702239c9a60fcf5aC431D6D502278847f33b",
    "0xa5409ec958c83c3f309868babaca7c86dcb077c1",
    "0xf42aa99f011a1fa7cda90e5e98b277e306bca83e"
  ],
  "numDeployments": 2,
  "solcInputHash": "eb811936182570a21e09b8e1fcd903de",
  "bytecode": "0x60806040523480156200001157600080fd5b5060405162002e0e38038062002e0e83398101604081905262000034916200039b565b8451859085906200004d9060019060208501906200017e565b508051620000639060029060208401906200017e565b505050620000806200007a620000c660201b60201c565b620000ca565b600160085562000090836200011c565b60ba80546001600160a01b039384166001600160a01b03199182161790915560bb805492909316911617905550620004da915050565b3390565b600780546001600160a01b038381166001600160a01b0319831681179093556040519116919082907f8be0079c531659141344cd1fd0a4f28419497f9722a3daafe3b4186f6b6457e090600090a35050565b6007546001600160a01b03163314620001525760405162461bcd60e51b8152600401620001499062000458565b60405180910390fd5b60bd80546001600160a01b039092166001600160a01b0319928316811790915560be8054909216179055565b8280546200018c90620004a9565b90600052602060002090601f016020900481019282620001b05760008555620001fb565b82601f10620001cb57805160ff1916838001178555620001fb565b82800160010185558215620001fb579182015b82811115620001fb578251825591602001919060010190620001de565b50620002099291506200020d565b5090565b5b808211156200020957600081556001016200020e565b634e487b7160e01b600052604160045260246000fd5b601f19601f83011681016001600160401b038111828210171562000262576200026262000224565b6040525050565b60006200027560405190565b90506200028382826200023a565b919050565b60006001600160401b03821115620002a457620002a462000224565b601f19601f83011660200192915050565b60005b83811015620002d2578181015183820152602001620002b8565b83811115620002e2576000848401525b50505050565b6000620002ff620002f98462000288565b62000269565b9050828152602081018484840111156200031c576200031c600080fd5b62000329848285620002b5565b509392505050565b600082601f830112620003475762000347600080fd5b815162000359848260208601620002e8565b949350505050565b60006001600160a01b0382165b92915050565b6200037f8162000361565b81146200038b57600080fd5b50565b80516200036e8162000374565b600080600080600060a08688031215620003b857620003b8600080fd5b85516001600160401b03811115620003d357620003d3600080fd5b620003e18882890162000331565b602088015190965090506001600160401b03811115620004045762000404600080fd5b620004128882890162000331565b945050604062000425888289016200038e565b935050606062000438888289016200038e565b92505060806200044b888289016200038e565b9150509295509295909350565b60208082528181019081527f4f776e61626c653a2063616c6c6572206973206e6f7420746865206f776e65726040830152606082016200036e565b634e487b7160e01b600052602260045260246000fd5b600281046001821680620004be57607f821691505b60208210811415620004d457620004d462000493565b50919050565b61292480620004ea6000396000f3fe6080604052600436106102895760003560e01c80638da5cb5b11610153578063b776c8a6116100cb578063d7822c991161007f578063f140a90011610064578063f140a9001461070f578063f2fde38b14610722578063f73c814b1461074257600080fd5b8063d7822c99146106d9578063e985e9c5146106ef57600080fd5b8063c074f412116100b0578063c074f41214610684578063c0c9c735146106a4578063c87b56dd146106b957600080fd5b8063b776c8a614610644578063b88d4fde1461066457600080fd5b80639c51792a11610122578063a8e90b5711610107578063a8e90b57146105ef578063af0097251461060f578063b585209b1461062f57600080fd5b80639c51792a146105b4578063a22cb465146105cf57600080fd5b80638da5cb5b1461053057806395d89b411461054e57806398f539591461056357806399c0731b1461059257600080fd5b80632f745c5911610201578063511ed382116101b55780636352211e1161019a5780636352211e146104db57806370a08231146104fb578063715018a61461051b57600080fd5b8063511ed3821461049857806353557e25146104b857600080fd5b806342842e0e116101e657806342842e0e146104385780634f558e79146104585780634f6ccce71461047857600080fd5b80632f745c59146104035780633ccfd60b1461042357600080fd5b806312b40a9f116102585780631a6949e31161023d5780631a6949e3146103ae5780631e8858fb146103c357806323b872dd146103e357600080fd5b806312b40a9f1461033c57806318160ddd1461035c57600080fd5b806301ffc9a71461029557806306fdde03146102cb578063081812fc146102ed578063095ea7b31461031a57600080fd5b3661029057005b600080fd5b3480156102a157600080fd5b506102b56102b0366004611dd7565b610762565b6040516102c29190611e02565b60405180910390f35b3480156102d757600080fd5b506102e0610833565b6040516102c29190611e6e565b3480156102f957600080fd5b5061030d610308366004611e90565b6108c5565b6040516102c29190611ecb565b34801561032657600080fd5b5061033a610335366004611eed565b610922565b005b34801561034857600080fd5b5061033a610357366004611f2a565b6109e2565b34801561036857600080fd5b506103a16000546fffffffffffffffffffffffffffffffff70010000000000000000000000000000000082048116918116919091031690565b6040516102c29190611f51565b3480156103ba57600080fd5b506102b5610a4e565b3480156103cf57600080fd5b5061033a6103de366004611f2a565b610a67565b3480156103ef57600080fd5b5061033a6103fe366004611f5f565b610ac0565b34801561040f57600080fd5b506103a161041e366004611eed565b610acb565b34801561042f57600080fd5b5061033a610bea565b34801561044457600080fd5b5061033a610453366004611f5f565b610c7f565b34801561046457600080fd5b506102b5610473366004611e90565b610c9a565b34801561048457600080fd5b506103a1610493366004611e90565b610ca5565b3480156104a457600080fd5b5060ba5461030d906001600160a01b031681565b3480156104c457600080fd5b506104ce6115e081565b6040516102c29190611fb9565b3480156104e757600080fd5b5061030d6104f6366004611e90565b610d72565b34801561050757600080fd5b506103a1610516366004611f2a565b610d84565b34801561052757600080fd5b5061033a610dec565b34801561053c57600080fd5b506007546001600160a01b031661030d565b34801561055a57600080fd5b506102e0610e22565b34801561056f57600080fd5b5061058361057e366004611e90565b610e31565b6040516102c293929190611fd0565b34801561059e57600080fd5b506105a7606481565b6040516102c29190611ff8565b3480156105c057600080fd5b506103a166c6f3b40b6c000081565b3480156105db57600080fd5b5061033a6105ea366004612019565b610e66565b3480156105fb57600080fd5b5060bb5461030d906001600160a01b031681565b34801561061b57600080fd5b506102b561062a366004611e90565b610f18565b34801561063b57600080fd5b5061033a610f43565b34801561065057600080fd5b5061033a61065f366004611f2a565b610f73565b34801561067057600080fd5b5061033a61067f366004612147565b610fcc565b34801561069057600080fd5b5060bd5461030d906001600160a01b031681565b3480156106b057600080fd5b506105a7603881565b3480156106c557600080fd5b506102e06106d4366004611e90565b611006565b3480156106e557600080fd5b506103a160b95481565b3480156106fb57600080fd5b506102b561070a3660046121c6565b6110e6565b61033a61071d36600461224b565b6111f7565b34801561072e57600080fd5b5061033a61073d366004611f2a565b6112ad565b34801561074e57600080fd5b5061033a61075d366004611f2a565b611306565b60006001600160e01b031982167f80ac58cd0000000000000000000000000000000000000000000000000000000014806107c557506001600160e01b031982167f5b5e139f00000000000000000000000000000000000000000000000000000000145b806107f957506001600160e01b031982167f780e9d6300000000000000000000000000000000000000000000000000000000145b8061082d57507f01ffc9a7000000000000000000000000000000000000000000000000000000006001600160e01b03198316145b92915050565b6060600180546108429061230e565b80601f016020809104026020016040519081016040528092919081815260200182805461086e9061230e565b80156108bb5780601f10610890576101008083540402835291602001916108bb565b820191906000526020600020905b81548152906001019060200180831161089e57829003601f168201915b5050505050905090565b60006108d082611359565b610906576040517fcf4700e400000000000000000000000000000000000000000000000000000000815260040160405180910390fd5b506000908152600560205260409020546001600160a01b031690565b600061092d82610d72565b9050806001600160a01b0316836001600160a01b0316141561097b576040517f943f7b8c00000000000000000000000000000000000000000000000000000000815260040160405180910390fd5b336001600160a01b0382161480159061099b575061099981336110e6565b155b156109d2576040517fcfb3b94200000000000000000000000000000000000000000000000000000000815260040160405180910390fd5b6109dd838383611396565b505050565b6007546001600160a01b03163314610a155760405162461bcd60e51b8152600401610a0c9061236d565b60405180910390fd5b60bd80546001600160a01b0390921673ffffffffffffffffffffffffffffffffffffffff19928316811790915560be8054909216179055565b600060b95442118015610a62575060b95415155b905090565b6007546001600160a01b03163314610a915760405162461bcd60e51b8152600401610a0c9061236d565b60bb805473ffffffffffffffffffffffffffffffffffffffff19166001600160a01b0392909216919091179055565b6109dd8383836113ff565b6000610ad683610d84565b8210610b0e576040517f0ddac30e00000000000000000000000000000000000000000000000000000000815260040160405180910390fd5b600080546fffffffffffffffffffffffffffffffff169080805b83811015610be457600081815260036020908152604091829020825160608101845290546001600160a01b0381168252600160a01b810467ffffffffffffffff1692820192909252600160e01b90910460ff161580159282019290925290610b905750610bdc565b80516001600160a01b031615610ba557805192505b876001600160a01b0316836001600160a01b03161415610bda5786841415610bd35750935061082d92505050565b6001909301925b505b600101610b28565b50600080fd5b6007546001600160a01b03163314610c145760405162461bcd60e51b8152600401610a0c9061236d565b604051600090339047908381818185875af1925050503d8060008114610c56576040519150601f19603f3d011682016040523d82523d6000602084013e610c5b565b606091505b5050905080610c7c5760405162461bcd60e51b8152600401610a0c906123af565b50565b6109dd83838360405180602001604052806000815250610fcc565b600061082d82611359565b600080546fffffffffffffffffffffffffffffffff1681805b82811015610d3f57600081815260036020908152604091829020825160608101845290546001600160a01b0381168252600160a01b810467ffffffffffffffff1692820192909252600160e01b90910460ff16151591810182905290610d365785831415610d2f5750949350505050565b6001909201915b50600101610cbe565b506040517fa723001c00000000000000000000000000000000000000000000000000000000815260040160405180910390fd5b6000610d7d82611673565b5192915050565b60006001600160a01b038216610dc6576040517f8f4eb60400000000000000000000000000000000000000000000000000000000815260040160405180910390fd5b506001600160a01b031660009081526004602052604090205467ffffffffffffffff1690565b6007546001600160a01b03163314610e165760405162461bcd60e51b8152600401610a0c9061236d565b610e2060006117b9565b565b6060600280546108429061230e565b60b88181548110610e4157600080fd5b60009182526020909120015460ff808216925061010082048116916201000090041683565b6001600160a01b038216331415610ea9576040517fb06307db00000000000000000000000000000000000000000000000000000000815260040160405180910390fd5b3360008181526006602090815260408083206001600160a01b038716808552925291829020805460ff191685151517905590519091907f17307eab39ab6107e8899845ad3d59bd9653f200f220920489ca2b5937696c3190610f0c908590611e02565b60405180910390a35050565b6009816115e08110610f2957600080fd5b60209182820401919006915054906101000a900460ff1681565b6007546001600160a01b03163314610f6d5760405162461bcd60e51b8152600401610a0c9061236d565b4260b955565b6007546001600160a01b03163314610f9d5760405162461bcd60e51b8152600401610a0c9061236d565b60ba805473ffffffffffffffffffffffffffffffffffffffff19166001600160a01b0392909216919091179055565b610fd78484846113ff565b610fe384848484611818565b611000576040516368d2bf6b60e11b815260040160405180910390fd5b50505050565b606061101182611359565b61102d5760405162461bcd60e51b8152600401610a0c90612419565b60bd546001600160a01b031661105157505060408051602081019091526000815290565b60be5460b880546001600160a01b039092169163a4267b0e91908590811061107b5761107b612429565b906000526020600020016040518263ffffffff1660e01b81526004016110a191906124af565b600060405180830381865afa1580156110be573d6000803e3d6000fd5b505050506040513d6000823e601f3d908101601f1916820160405261082d9190810190612515565b60ba546040517fc45527910000000000000000000000000000000000000000000000000000000081526000916001600160a01b03169063c455279190611130908690600401611ecb565b602060405180830381865afa15801561114d573d6000803e3d6000fd5b505050506040513d601f19601f82011682018060405250810190611171919061256f565b6001600160a01b0316826001600160a01b0316148061119d575060bb546001600160a01b038381169116145b806111c057506001600160a01b038216600090815260bc602052604090205460ff165b806111f057506001600160a01b0380841660009081526006602090815260408083209386168352929052205460ff165b9392505050565b6111ff610a4e565b61121b5760405162461bcd60e51b8152600401610a0c906125c2565b6002600854141561123e5760405162461bcd60e51b8152600401610a0c90612604565b60026008558483146112625760405162461bcd60e51b8152600401610a0c9061266c565b6112738566c6f3b40b6c0000612692565b34146112915760405162461bcd60e51b8152600401610a0c906126e3565b6112a03387878787878761194a565b5050600160085550505050565b6007546001600160a01b031633146112d75760405162461bcd60e51b8152600401610a0c9061236d565b6001600160a01b0381166112fd5760405162461bcd60e51b8152600401610a0c9061274b565b610c7c816117b9565b6007546001600160a01b031633146113305760405162461bcd60e51b8152600401610a0c9061236d565b6001600160a01b0316600090815260bc60205260409020805460ff19811660ff90911615179055565b600080546fffffffffffffffffffffffffffffffff168210801561082d575050600090815260036020526040902054600160e01b900460ff161590565b600082815260056020526040808220805473ffffffffffffffffffffffffffffffffffffffff19166001600160a01b0387811691821790925591518593918516917f8c5be1e5ebec7d5bd14f71427d1e84f3dd0314c0f7b2291e5b200ac8c7c3b92591a4505050565b600061140a82611673565b80519091506000906001600160a01b0316336001600160a01b031614806114385750815161143890336110e6565b80611453575033611448846108c5565b6001600160a01b0316145b90508061148c576040517f59c896be00000000000000000000000000000000000000000000000000000000815260040160405180910390fd5b846001600160a01b031682600001516001600160a01b0316146114db576040517fa114810000000000000000000000000000000000000000000000000000000000815260040160405180910390fd5b6001600160a01b03841661151b576040517fea553b3400000000000000000000000000000000000000000000000000000000815260040160405180910390fd5b61152b6000848460000151611396565b6001600160a01b038581166000908152600460209081526040808320805467ffffffffffffffff1980821667ffffffffffffffff92831660001901831617909255898616808652838620805493841693831660019081018416949094179055898652600390945282852080546001600160e01b031916909417600160a01b429092169190910217909255908601808352912054909116611629576000546fffffffffffffffffffffffffffffffff16811015611629578251600082815260036020908152604090912080549186015167ffffffffffffffff16600160a01b026001600160e01b03199092166001600160a01b03909316929092171790555b5082846001600160a01b0316866001600160a01b03167fddf252ad1be2c89b69c2b068fc378daa952ba7f163c4a11628f55a4df523b3ef60405160405180910390a45b5050505050565b60408051606081018252600080825260208201819052918101829052905482906fffffffffffffffffffffffffffffffff1681101561178757600081815260036020908152604091829020825160608101845290546001600160a01b0381168252600160a01b810467ffffffffffffffff1692820192909252600160e01b90910460ff161515918101829052906117855780516001600160a01b03161561171b579392505050565b5060001901600081815260036020908152604091829020825160608101845290546001600160a01b038116808352600160a01b820467ffffffffffffffff1693830193909352600160e01b900460ff1615159281019290925215611780579392505050565b61171b565b505b6040517fdf2d9b4200000000000000000000000000000000000000000000000000000000815260040160405180910390fd5b600780546001600160a01b0383811673ffffffffffffffffffffffffffffffffffffffff19831681179093556040519116919082907f8be0079c531659141344cd1fd0a4f28419497f9722a3daafe3b4186f6b6457e090600090a35050565b60006001600160a01b0384163b1561193e576040517f150b7a020000000000000000000000000000000000000000000000000000000081526001600160a01b0385169063150b7a029061187590339089908890889060040161275b565b6020604051808303816000875af19250505080156118b0575060408051601f3d908101601f191682019092526118ad918101906127aa565b60015b61190b573d8080156118de576040519150601f19603f3d011682016040523d82523d6000602084013e6118e3565b606091505b508051611903576040516368d2bf6b60e11b815260040160405180910390fd5b805181602001fd5b6001600160e01b0319167f150b7a0200000000000000000000000000000000000000000000000000000000149050611942565b5060015b949350505050565b60005b85811015611b7d57600087878381811061196957611969612429565b905060200201359050600086868481811061198657611986612429565b6020029190910135915060099050816119a0606485612692565b6119aa91906127cb565b6115e081106119bb576119bb612429565b602081049091015460ff601f9092166101000a900416156119ee5760405162461bcd60e51b8152600401610a0c90612815565b60388210611a0e5760405162461bcd60e51b8152600401610a0c90612857565b60648110611a2e5760405162461bcd60e51b8152600401610a0c90612899565b604080516060810190915260b89080611a4860ff866128bf565b60ff16815260200160ff801684611a5f91906128bf565b60ff16815260200160ff8016888888818110611a7d57611a7d612429565b90506020020135611a8e91906128bf565b60ff908116909152825460018181018555600094855260209485902084519201805495850151604090950151841662010000027fffffffffffffffffffffffffffffffffffffffffffffffffffffffffff00ffff958516610100027fffffffffffffffffffffffffffffffffffffffffffffffffffffffffffff000090971693909416929092179490941792909216179055600982611b2e606486612692565b611b3891906127cb565b6115e08110611b4957611b49612429565b602091828204019190066101000a81548160ff02191690831515021790555050508080611b75906128d3565b91505061194d565b50611b888786611b91565b50505050505050565b611bab828260405180602001604052806000815250611baf565b5050565b6109dd83838360016000546fffffffffffffffffffffffffffffffff166001600160a01b038516611c0c576040517f2e07630000000000000000000000000000000000000000000000000000000000815260040160405180910390fd5b83611c43576040517fb562e8dd00000000000000000000000000000000000000000000000000000000815260040160405180910390fd5b6001600160a01b038516600081815260046020908152604080832080547fffffffffffffffffffffffffffffffff00000000000000000000000000000000811667ffffffffffffffff8083168c0181169182176801000000000000000067ffffffffffffffff1990941690921783900481168c018116909202179091558584526003909252822080546001600160e01b031916909317600160a01b42909216919091021790915581905b85811015611d6e5760405182906001600160a01b038916906000907fddf252ad1be2c89b69c2b068fc378daa952ba7f163c4a11628f55a4df523b3ef908290a4838015611d445750611d426000888488611818565b155b15611d62576040516368d2bf6b60e11b815260040160405180910390fd5b60019182019101611ced565b50600080547fffffffffffffffffffffffffffffffff00000000000000000000000000000000166fffffffffffffffffffffffffffffffff9290921691909117905561166c565b6001600160e01b031981165b8114610c7c57600080fd5b803561082d81611db5565b600060208284031215611dec57611dec600080fd5b60006119428484611dcc565b8015155b82525050565b6020810161082d8284611df8565b60005b83811015611e2b578181015183820152602001611e13565b838111156110005750506000910152565b6000611e46825190565b808452602084019350611e5d818560208601611e10565b601f01601f19169290920192915050565b602080825281016111f08184611e3c565b80611dc1565b803561082d81611e7f565b600060208284031215611ea557611ea5600080fd5b60006119428484611e85565b60006001600160a01b03821661082d565b611dfc81611eb1565b6020810161082d8284611ec2565b611dc181611eb1565b803561082d81611ed9565b60008060408385031215611f0357611f03600080fd5b6000611f0f8585611ee2565b9250506020611f2085828601611e85565b9150509250929050565b600060208284031215611f3f57611f3f600080fd5b60006119428484611ee2565b80611dfc565b6020810161082d8284611f4b565b600080600060608486031215611f7757611f77600080fd5b6000611f838686611ee2565b9350506020611f9486828701611ee2565b9250506040611fa586828701611e85565b9150509250925092565b61ffff8116611dfc565b6020810161082d8284611faf565b60ff8116611dfc565b60608101611fde8286611fc7565b611feb6020830185611fc7565b6119426040830184611fc7565b6020810161082d8284611fc7565b801515611dc1565b803561082d81612006565b6000806040838503121561202f5761202f600080fd5b600061203b8585611ee2565b9250506020611f208582860161200e565b634e487b7160e01b600052604160045260246000fd5b601f19601f830116810181811067ffffffffffffffff821117156120885761208861204c565b6040525050565b600061209a60405190565b90506120a68282612062565b919050565b600067ffffffffffffffff8211156120c5576120c561204c565b601f19601f83011660200192915050565b82818337506000910152565b60006120f56120f0846120ab565b61208f565b90508281526020810184848401111561211057612110600080fd5b61211b8482856120d6565b509392505050565b600082601f83011261213757612137600080fd5b81356119428482602086016120e2565b6000806000806080858703121561216057612160600080fd5b600061216c8787611ee2565b945050602061217d87828801611ee2565b935050604061218e87828801611e85565b925050606085013567ffffffffffffffff8111156121ae576121ae600080fd5b6121ba87828801612123565b91505092959194509250565b600080604083850312156121dc576121dc600080fd5b60006121e88585611ee2565b9250506020611f2085828601611ee2565b60008083601f84011261220e5761220e600080fd5b50813567ffffffffffffffff81111561222957612229600080fd5b60208301915083602082028301111561224457612244600080fd5b9250929050565b6000806000806000806060878903121561226757612267600080fd5b863567ffffffffffffffff81111561228157612281600080fd5b61228d89828a016121f9565b9650965050602087013567ffffffffffffffff8111156122af576122af600080fd5b6122bb89828a016121f9565b9450945050604087013567ffffffffffffffff8111156122dd576122dd600080fd5b6122e989828a016121f9565b92509250509295509295509295565b634e487b7160e01b600052602260045260246000fd5b60028104600182168061232257607f821691505b60208210811415612335576123356122f8565b50919050565b60208082527f4f776e61626c653a2063616c6c6572206973206e6f7420746865206f776e657291019081525b60200190565b6020808252810161082d8161233b565b60118152602081017f5769746864726177616c206661696c656400000000000000000000000000000081529050612367565b6020808252810161082d8161237d565b60278152602081017f4552433732313a2055524920717565727920666f72206e6f6e6578697374656e81527f7420746f6b656e00000000000000000000000000000000000000000000000000602082015290505b60400190565b6020808252810161082d816123bf565b634e487b7160e01b600052603260045260246000fd5b600061082d825b60ff1690565b600061082d6124468360081c90565b600061082d6124468360101c90565b80546124758161243f565b61247f8482611fc7565b506124898161244c565b6124966020850182611fc7565b506124a08161245b565b90506109dd6040840182611fc7565b6060810161082d828461246a565b60006124cb6120f0846120ab565b9050828152602081018484840111156124e6576124e6600080fd5b61211b848285611e10565b600082601f83011261250557612505600080fd5b81516119428482602086016124bd565b60006020828403121561252a5761252a600080fd5b815167ffffffffffffffff81111561254457612544600080fd5b611942848285016124f1565b600061082d82611eb1565b611dc181612550565b805161082d8161255b565b60006020828403121561258457612584600080fd5b60006119428484612564565b60148152602081017f5075626c69632073616c65206e6f74206f70656e00000000000000000000000081529050612367565b6020808252810161082d81612590565b601f8152602081017f5265656e7472616e637947756172643a207265656e7472616e742063616c6c0081529050612367565b6020808252810161082d816125d2565b602e8152602081017f54686572652073686f756c64206265206f6e6520746f61647a496420666f722081527f6561636820626c69746d6170496400000000000000000000000000000000000060208201529050612413565b6020808252810161082d81612614565b634e487b7160e01b600052601160045260246000fd5b60008160001904831182151516156126ac576126ac61267c565b500290565b60148152602081017f507269636520646f6573206e6f74206d6174636800000000000000000000000081529050612367565b6020808252810161082d816126b1565b60268152602081017f4f776e61626c653a206e6577206f776e657220697320746865207a65726f206181527f646472657373000000000000000000000000000000000000000000000000000060208201529050612413565b6020808252810161082d816126f3565b608081016127698287611ec2565b6127766020830186611ec2565b6127836040830185611f4b565b81810360608301526127958184611e3c565b9695505050505050565b805161082d81611db5565b6000602082840312156127bf576127bf600080fd5b6000611942848461279f565b600082198211156127de576127de61267c565b500190565b60178152602081017f426c69746f61647a20616c72656164792065786973747300000000000000000081529050612367565b6020808252810161082d816127e3565b60158152602081017f546f61647a206964206f7574206f662072616e6765000000000000000000000081529050612367565b6020808252810161082d81612825565b60178152602081017f426c69746d6170206964206f7574206f662072616e676500000000000000000081529050612367565b6020808252810161082d81612867565b634e487b7160e01b600052601260045260246000fd5b6000826128ce576128ce6128a9565b500690565b60006000198214156128e7576128e761267c565b506001019056fea2646970667358221220331799af1bbfa3baf5a573d4811c6f836e4b2af93af06ce67176840ee340185364736f6c634300080c0033",
  "devdoc": {
    "kind": "dev",
    "methods": {
      "approve(address,uint256)": {
        "details": "See {IERC721-approve}."
      },
      "balanceOf(address)": {
        "details": "See {IERC721-balanceOf}."
      },
      "getApproved(uint256)": {
        "details": "See {IERC721-getApproved}."
      },
      "isApprovedForAll(address,address)": {
        "details": "Modified for opensea and looksrare pre-approve."
      },
      "name()": {
        "details": "See {IERC721Metadata-name}."
      },
      "owner()": {
        "details": "Returns the address of the current owner."
      },
      "ownerOf(uint256)": {
        "details": "See {IERC721-ownerOf}."
      },
      "renounceOwnership()": {
        "details": "Leaves the contract without owner. It will not be possible to call `onlyOwner` functions anymore. Can only be called by the current owner. NOTE: Renouncing ownership will leave the contract without an owner, thereby removing any functionality that is only available to the owner."
      },
      "safeTransferFrom(address,address,uint256)": {
        "details": "See {IERC721-safeTransferFrom}."
      },
      "safeTransferFrom(address,address,uint256,bytes)": {
        "details": "See {IERC721-safeTransferFrom}."
      },
      "setApprovalForAll(address,bool)": {
        "details": "See {IERC721-setApprovalForAll}."
      },
      "supportsInterface(bytes4)": {
        "details": "See {IERC165-supportsInterface}."
      },
      "symbol()": {
        "details": "See {IERC721Metadata-symbol}."
      },
      "tokenByIndex(uint256)": {
        "details": "See {IERC721Enumerable-tokenByIndex}. This read function is O(totalSupply). If calling from a separate contract, be sure to test gas first. It may also degrade with extremely large collection sizes (e.g >> 10000), test for your use case."
      },
      "tokenOfOwnerByIndex(address,uint256)": {
        "details": "See {IERC721Enumerable-tokenOfOwnerByIndex}. This read function is O(totalSupply). If calling from a separate contract, be sure to test gas first. It may also degrade with extremely large collection sizes (e.g >> 10000), test for your use case."
      },
      "totalSupply()": {
        "details": "See {IERC721Enumerable-totalSupply}."
      },
      "transferFrom(address,address,uint256)": {
        "details": "See {IERC721-transferFrom}."
      },
      "transferOwnership(address)": {
        "details": "Transfers ownership of the contract to a new account (`newOwner`). Can only be called by the current owner."
      }
    },
    "version": 1
  },
  "userdoc": {
    "kind": "user",
    "methods": {
      "flipProxyState(address)": {
        "notice": "Approve the communication and interaction with cross-collection interactions."
      },
      "setLooksrare(address)": {
        "notice": "Set looksrare to `looksrare_`."
      },
      "setOpensea(address)": {
        "notice": "Set opensea to `opensea_`."
      }
    },
    "version": 1
  },
  "storageLayout": {
    "storage": [
      {
        "astId": 2778,
        "contract": "contracts/blitoadz/Blitoadz.sol:Blitoadz",
        "label": "_currentIndex",
        "offset": 0,
        "slot": "0",
        "type": "t_uint128"
      },
      {
        "astId": 2780,
        "contract": "contracts/blitoadz/Blitoadz.sol:Blitoadz",
        "label": "_burnCounter",
        "offset": 16,
        "slot": "0",
        "type": "t_uint128"
      },
      {
        "astId": 2782,
        "contract": "contracts/blitoadz/Blitoadz.sol:Blitoadz",
        "label": "_name",
        "offset": 0,
        "slot": "1",
        "type": "t_string_storage"
      },
      {
        "astId": 2784,
        "contract": "contracts/blitoadz/Blitoadz.sol:Blitoadz",
        "label": "_symbol",
        "offset": 0,
        "slot": "2",
        "type": "t_string_storage"
      },
      {
        "astId": 2789,
        "contract": "contracts/blitoadz/Blitoadz.sol:Blitoadz",
        "label": "_ownerships",
        "offset": 0,
        "slot": "3",
        "type": "t_mapping(t_uint256,t_struct(TokenOwnership)2769_storage)"
      },
      {
        "astId": 2794,
        "contract": "contracts/blitoadz/Blitoadz.sol:Blitoadz",
        "label": "_addressData",
        "offset": 0,
        "slot": "4",
        "type": "t_mapping(t_address,t_struct(AddressData)2776_storage)"
      },
      {
        "astId": 2798,
        "contract": "contracts/blitoadz/Blitoadz.sol:Blitoadz",
        "label": "_tokenApprovals",
        "offset": 0,
        "slot": "5",
        "type": "t_mapping(t_uint256,t_address)"
      },
      {
        "astId": 2804,
        "contract": "contracts/blitoadz/Blitoadz.sol:Blitoadz",
        "label": "_operatorApprovals",
        "offset": 0,
        "slot": "6",
        "type": "t_mapping(t_address,t_mapping(t_address,t_bool))"
      },
      {
        "astId": 225,
        "contract": "contracts/blitoadz/Blitoadz.sol:Blitoadz",
        "label": "_owner",
        "offset": 0,
        "slot": "7",
        "type": "t_address"
      },
      {
        "astId": 333,
        "contract": "contracts/blitoadz/Blitoadz.sol:Blitoadz",
        "label": "_status",
        "offset": 0,
        "slot": "8",
        "type": "t_uint256"
      },
      {
        "astId": 1179,
        "contract": "contracts/blitoadz/Blitoadz.sol:Blitoadz",
        "label": "blitoadzExist",
        "offset": 0,
        "slot": "9",
        "type": "t_array(t_bool)5600_storage"
      },
      {
        "astId": 1183,
        "contract": "contracts/blitoadz/Blitoadz.sol:Blitoadz",
        "label": "blitoadz",
        "offset": 0,
        "slot": "184",
        "type": "t_array(t_struct(Blitoadz)2395_storage)dyn_storage"
      },
      {
        "astId": 1185,
        "contract": "contracts/blitoadz/Blitoadz.sol:Blitoadz",
        "label": "publicSaleStartTimestamp",
        "offset": 0,
        "slot": "185",
        "type": "t_uint256"
      },
      {
        "astId": 1234,
        "contract": "contracts/blitoadz/Blitoadz.sol:Blitoadz",
        "label": "opensea",
        "offset": 0,
        "slot": "186",
        "type": "t_address"
      },
      {
        "astId": 1236,
        "contract": "contracts/blitoadz/Blitoadz.sol:Blitoadz",
        "label": "looksrare",
        "offset": 0,
        "slot": "187",
        "type": "t_address"
      },
      {
        "astId": 1240,
        "contract": "contracts/blitoadz/Blitoadz.sol:Blitoadz",
        "label": "proxyToApproved",
        "offset": 0,
        "slot": "188",
        "type": "t_mapping(t_address,t_bool)"
      },
      {
        "astId": 1325,
        "contract": "contracts/blitoadz/Blitoadz.sol:Blitoadz",
        "label": "renderingContractAddress",
        "offset": 0,
        "slot": "189",
        "type": "t_address"
      },
      {
        "astId": 1328,
        "contract": "contracts/blitoadz/Blitoadz.sol:Blitoadz",
        "label": "renderer",
        "offset": 0,
        "slot": "190",
        "type": "t_contract(IBlitoadzRenderer)2418"
      }
    ],
    "types": {
      "t_address": {
        "encoding": "inplace",
        "label": "address",
        "numberOfBytes": "20"
      },
      "t_array(t_bool)5600_storage": {
        "base": "t_bool",
        "encoding": "inplace",
        "label": "bool[5600]",
        "numberOfBytes": "5600"
      },
      "t_array(t_struct(Blitoadz)2395_storage)dyn_storage": {
        "base": "t_struct(Blitoadz)2395_storage",
        "encoding": "dynamic_array",
        "label": "struct BlitoadzTypes.Blitoadz[]",
        "numberOfBytes": "32"
      },
      "t_bool": {
        "encoding": "inplace",
        "label": "bool",
        "numberOfBytes": "1"
      },
      "t_contract(IBlitoadzRenderer)2418": {
        "encoding": "inplace",
        "label": "contract IBlitoadzRenderer",
        "numberOfBytes": "20"
      },
      "t_mapping(t_address,t_bool)": {
        "encoding": "mapping",
        "key": "t_address",
        "label": "mapping(address => bool)",
        "numberOfBytes": "32",
        "value": "t_bool"
      },
      "t_mapping(t_address,t_mapping(t_address,t_bool))": {
        "encoding": "mapping",
        "key": "t_address",
        "label": "mapping(address => mapping(address => bool))",
        "numberOfBytes": "32",
        "value": "t_mapping(t_address,t_bool)"
      },
      "t_mapping(t_address,t_struct(AddressData)2776_storage)": {
        "encoding": "mapping",
        "key": "t_address",
        "label": "mapping(address => struct ERC721A.AddressData)",
        "numberOfBytes": "32",
        "value": "t_struct(AddressData)2776_storage"
      },
      "t_mapping(t_uint256,t_address)": {
        "encoding": "mapping",
        "key": "t_uint256",
        "label": "mapping(uint256 => address)",
        "numberOfBytes": "32",
        "value": "t_address"
      },
      "t_mapping(t_uint256,t_struct(TokenOwnership)2769_storage)": {
        "encoding": "mapping",
        "key": "t_uint256",
        "label": "mapping(uint256 => struct ERC721A.TokenOwnership)",
        "numberOfBytes": "32",
        "value": "t_struct(TokenOwnership)2769_storage"
      },
      "t_string_storage": {
        "encoding": "bytes",
        "label": "string",
        "numberOfBytes": "32"
      },
      "t_struct(AddressData)2776_storage": {
        "encoding": "inplace",
        "label": "struct ERC721A.AddressData",
        "members": [
          {
            "astId": 2771,
            "contract": "contracts/blitoadz/Blitoadz.sol:Blitoadz",
            "label": "balance",
            "offset": 0,
            "slot": "0",
            "type": "t_uint64"
          },
          {
            "astId": 2773,
            "contract": "contracts/blitoadz/Blitoadz.sol:Blitoadz",
            "label": "numberMinted",
            "offset": 8,
            "slot": "0",
            "type": "t_uint64"
          },
          {
            "astId": 2775,
            "contract": "contracts/blitoadz/Blitoadz.sol:Blitoadz",
            "label": "numberBurned",
            "offset": 16,
            "slot": "0",
            "type": "t_uint64"
          }
        ],
        "numberOfBytes": "32"
      },
      "t_struct(Blitoadz)2395_storage": {
        "encoding": "inplace",
        "label": "struct BlitoadzTypes.Blitoadz",
        "members": [
          {
            "astId": 2390,
            "contract": "contracts/blitoadz/Blitoadz.sol:Blitoadz",
            "label": "toadzId",
            "offset": 0,
            "slot": "0",
            "type": "t_uint8"
          },
          {
            "astId": 2392,
            "contract": "contracts/blitoadz/Blitoadz.sol:Blitoadz",
            "label": "blitmapId",
            "offset": 1,
            "slot": "0",
            "type": "t_uint8"
          },
          {
            "astId": 2394,
            "contract": "contracts/blitoadz/Blitoadz.sol:Blitoadz",
            "label": "paletteOrder",
            "offset": 2,
            "slot": "0",
            "type": "t_uint8"
          }
        ],
        "numberOfBytes": "32"
      },
      "t_struct(TokenOwnership)2769_storage": {
        "encoding": "inplace",
        "label": "struct ERC721A.TokenOwnership",
        "members": [
          {
            "astId": 2764,
            "contract": "contracts/blitoadz/Blitoadz.sol:Blitoadz",
            "label": "addr",
            "offset": 0,
            "slot": "0",
            "type": "t_address"
          },
          {
            "astId": 2766,
            "contract": "contracts/blitoadz/Blitoadz.sol:Blitoadz",
            "label": "startTimestamp",
            "offset": 20,
            "slot": "0",
            "type": "t_uint64"
          },
          {
            "astId": 2768,
            "contract": "contracts/blitoadz/Blitoadz.sol:Blitoadz",
            "label": "burned",
            "offset": 28,
            "slot": "0",
            "type": "t_bool"
          }
        ],
        "numberOfBytes": "32"
      },
      "t_uint128": {
        "encoding": "inplace",
        "label": "uint128",
        "numberOfBytes": "16"
      },
      "t_uint256": {
        "encoding": "inplace",
        "label": "uint256",
        "numberOfBytes": "32"
      },
      "t_uint64": {
        "encoding": "inplace",
        "label": "uint64",
        "numberOfBytes": "8"
      },
      "t_uint8": {
        "encoding": "inplace",
        "label": "uint8",
        "numberOfBytes": "1"
      }
    }
  }
}